:020000040800F2
:100000004804002009010008631200088711000855
:1000100061120008510100080B15000800000000E3
:1000200000000000000000000000000009130008AC
:100030005301000800000000851200080B1300089F
:100040002301000823010008230100082301000800
:1000500023010008230100085501000823010008BE
:1000600023010008230100082301000823010008E0
:1000700023010008230100082301000823010008D0
:1000800023010008230100082301000823010008C0
:1000900023010008230100082301000823010008B0
:1000A00023010008230100082301000823010008A0
:1000B000D9130008230100082301000823010008C8
:1000C0002301000823010008230100082301000880
:1000D0002301000823010008230100082301000870
:1000E0002301000823010008230100082301000860
:1000F00023010008DFF80CD000F018F80048004792
:100100002D1500084804002006488047064800478F
:10011000FEE7FEE7FEE7FEE7FEE7FEE7FEE7FEE7B7
:10012000FEE7FEE789130008F5000008064C074DBE
:1001300006E0E06840F0010394E8070098471034B7
:10014000AC42F6D3FFF7DAFF7C1500089C150008D7
:10015000FEE77047012000F019B831B500F0F2F861
:10016000044600F0EFF80099001B8842F9D338BD2F
:1001700010B5012807D14021034800F0D9F802202A
:10018000401C6428FCD310BD00040240044910B593
:100190000A68024202D00860FFF7EAFF10BD0000C3
:1001A000140401402DE9F84FDFF864B100234FF04B
:1001B000010C4FF0030A4FF00F090BF1040EA0E001
:1001C0000CFA03F6324072D04C68022C01D0122C8B
:1001D0000ED1DC0800EB8408D8F820405D07EF0E54
:1001E00009FA07F5AC430D69BD402543C8F8205016
:1001F00007685D0091F804800AFA05F408F0030826
:10020000A74308FA05F848EA0708C0F800804F68D5
:10021000012F05D0022F03D0112F01D0122F11D1A1
:100220008768D1F80C80A74308FA05F848EA070860
:10023000C0F808804768B7430E79C6F300169E40A1
:100240003E434660C668A6438C68AC403443C460F5
:100250004C68E40054D52F4C256845F00105256015
:10026000246823F0030504F0010400942A4C25447B
:10027000AF689C07240F09FA04F6B743274EB04233
:1002800001D1002615E0264EB04201D1012610E032
:10029000244EB04201D102260BE0234EB04201D1E0
:1002A000032606E0214EB04202D1042601E027E0F9
:1002B0000526A6403E43AE60DBF800405D464E6832
:1002C0009443F60300D514432C60DEF800407546D5
:1002D0004E689443B60300D514432C600C4D08358A
:1002E0002C684E689443F60200D514432C60084DE8
:1002F0000C352C684E689443B60200D514432C602C
:100300005B1C0A6832FA03F47FF45AAFBDE8F88F39
:10031000000401402038024000000140000002407B
:100320000004024000080240000C0240001002409D
:1003300042694A40426170470AB1816170470904CD
:10034000FBE700000148006870470000040000203F
:1003500002480168491C0160704700000400002049
:1003600010B5032000F090F8002000F005F800F030
:1003700017F8002010BD000010B5044607484FF4E0
:100380007A710068B0FBF1F000F07BFD002221469D
:10039000501E00F059F8002010BD00000800002099
:1003A000224808B5016841F000410160016801F090
:1003B00000410091011F0A6842F001020A600968C9
:1003C00001F001010091016841F080510160006875
:1003D00000F080500090032000F056F800221146F3
:1003E0006FF00B0000F030F8002211466FF00A00A9
:1003F00000F02AF8002211466FF0090000F024F8FE
:1004000000221146501F00F01FF800221146101F55
:1004100000F01AF800221146901E00F015F8002294
:10042000BDE808401146501E00F00EB824380240C6
:1004300000F01F02012191404009800000F1E020FE
:10044000C0F8001170470000F0B40E4B1B680C465A
:10045000C3F30223C3F10705042D00D90425191D98
:10046000072901D2002300E0DB1E012606FA05F170
:10047000491E214099409E40761E16403143F0BCF3
:1004800000F0F0BE0CED00E0064900F0070208683D
:100490004FF6FF03184040EA0220034A1043086069
:1004A000704700000CED00E00000FA052DE9F04770
:1004B000DFF8BC8105460E46D8F8000000F00100C8
:1004C000B04214D2012E05D1D8F8001041F0040139
:1004D000C8F80010D8F8001021F001013143C8F825
:1004E0000010D8F8000000F00100B04271D1287867
:1004F000604C800705D52068A96820F0F00008430B
:1005000020602878C00771D05A4A5A4B6968012088
:10051000083A2C33022910D003292ED001292FD0DC
:100520005FEA402797FAA7FCBCFA8CFC4CF0200C41
:100530005FEA5C1C04D0126803E04FF40037F1E777
:100540001A6897FAA7F3B3FA83F303F01F039840EE
:10055000024262D0206820F0030008432060FFF7C9
:10056000F1FE6968074641F28830022910D003295C
:100570001CD00129814626D034E04FF00077D1E726
:100580000227CFE7FFF7DEFEC11B494501D926E070
:1005900081462068C0F381000228F3D126E000BF25
:1005A000FFF7D0FEC11B494501D918E081462068FC
:1005B000C0F381000328F3D118E000BFFFF7C2FEAB
:1005C000C11B49450BD82068C0F381000128F5D133
:1005D0000CE022E0FFF7B6FEC11B494502D903201B
:1005E000BDE8F087206810F00C0FF3D1D8F80010A8
:1005F000404601F00101B14211D9012E03D1016839
:1006000041F004010160016821F001013143016002
:10061000006800F00100B04201D00120E0E7287836
:10062000400705D52068E96820F4E06008432060B1
:100630002878000706D52068296920F4605040EA30
:10064000C100206000F022F82168F02292FAA2F2A4
:1006500001F0F001B2FA82F2D140074A515CC84081
:10066000064908600020FFF787FE0020B8E7000079
:10067000003C0240083802406915000808000020CC
:100680000148006870470000080000201E4A1168F9
:1006900001F00C00042813D0082813D00C2813D024
:1006A000101F006800F460414FF4604090FAA0F021
:1006B000B0FA80F0C1404FF40040491C88407047B8
:1006C00012487047124870474FF4701393FAA3F31F
:1006D00001F47010B3FA83F3D8400E4B01F44001DB
:1006E0001268185C4FF4400393FAA3F3B3FA83F350
:1006F000D940491CD20301D5054A00E0034A5043C2
:10070000B0FBF1F070470000083802400024F4000C
:1007100000366E01601500082DE9F84F0746007895
:10072000FB4EFC4DC0074FF0010428D0F8480830BC
:1007300001684FF40038C1F38101022907D0016834
:10074000C1F3810103291BD10068C00318D598FAB1
:10075000A8F0B0FA80F040F02000400901D03068E5
:1007600000E0286898FAA8F1B1FA81F101F01F01C0
:1007700004FA01F108425CD0786800287BD058E088
:10078000786801280AD008B1052811D0306820F413
:1007900080303060306820F4802002E0306840F41F
:1007A00080303060786828B3FFF7CCFD81460BE0DD
:1007B000306840F480203060F0E700BFFFF7C2FDF2
:1007C000A0EB0900642872D898FAA8F0B0FA80F07B
:1007D00040F02000400901D0306800E0286898FA15
:1007E000A8F1B1FA81F101F01F0104FA01F1084208
:1007F000E4D01EE0FFF7A6FD814605E0FFF7A2FD6D
:10080000A0EB09006428DED898FAA8F0B0FA80F0CE
:1008100040F02000400901D0306800E0286898FAD4
:10082000A8F1B1FA81F101F01F0104FA01F10842C7
:10083000E4D13878DFF8E08280074FF0000B4FF00A
:1008400002095FD5B24808300168C1F3810101296E
:1008500007D00168C1F3810103291CD10068C003DE
:1008600019D499FAA9F0B0FA80F040F020004009BC
:1008700002D0306801E086E0286899FAA9F1B1FA5F
:1008800081F101F01F0104FA01F108422BD0F86850
:10089000012878D127E0F868A8B394FAA4F0B0FA58
:1008A00080F048F82040FFF74DFD824606E066E103
:1008B000FFF748FDA0EB0A00022884D899FAA9F1B5
:1008C000B1FA81F141F02001490901D0316800E01D
:1008D000296899FAA9F0B0FA80F000F01F0004FA34
:1008E00000F00142E4D08A48001D01684FF4F8533B
:1008F00093FAA3F33A69B3FA83F321F4F8519A40D7
:100900001143016025E0FFE794FAA4F1B1FA81F107
:1009100048F821B0FFF716FD824605E0FFF712FD0B
:10092000A0EB0A000228C8D899FAA9F0B0FA80F022
:1009300040F02000400901D0306800E0286899FAB2
:10094000A9F1B1FA81F101F01F0104FA01F10842A5
:10095000E4D138784FF4007AC0067CD56C48083072
:10096000006810F00C0F0FD0B9694FF480700029A7
:1009700072D090FAA0F0B0FA80F048F82040FFF76B
:10098000E1FC00907EE087E09AFAAAF0B0FA80F0ED
:1009900040F02000400901D0306800E028689AFA51
:1009A000AAF1B1FA81F101F01F0104FA01F1084244
:1009B00002D0B86900286FD05548396A001D006818
:1009C00000F4604081421AD9084600F05DFC00281E
:1009D00062D14F48001D01683A6A21F46041114319
:1009E000016001684FF07F4393FAA3F3FA69B3FA09
:1009F00083F321F07F419A401143016018E044489D
:100A0000001D026822F460420A43026001684FF050
:100A10007F4393FAA3F3FA69B3FA83F321F07F419A
:100A20009A4011430160386A00F02EFC0028CFD1B3
:100A30004FF4604191FAA1F1386AB1FA81F1C840EE
:100A40004FF40041401C8140314808300068F022DA
:100A500000F0F00001E070E040E092FAA2F2B2FA99
:100A600082F2D0402D4A105CC1402D480160002028
:100A7000FFF782FC61E000BFFFF764FC0099401AB9
:100A800002287CD89AFAAAF0B0FA80F040F0200050
:100A9000400902D0306801E0BCE128689AFAAAF166
:100AA000B1FA81F101F01F0104FA01F10842E3D02B
:100AB0001748001D01683A6A21F460411143016042
:100AC00001684FF07F4393FAA3F3FA69B3FA83F313
:100AD00021F07F419A40114301602EE090FAA0F08E
:100AE000B0FA80F048F820B0FFF72CFC009005E049
:100AF000FFF728FC0099401A0228C2D89AFAAAF0F7
:100B0000B0FA80F040F0200040090BD030680AE0D5
:100B1000003802403438024000004742691500089E
:100B20000800002028689AFAAAF1B1FA81F101F0D0
:100B30001F0104FA01F10842DAD13878000753D5D1
:100B4000786948B394FAA4F0B0FA80F008EB80001A
:100B5000C0F88046FFF7F6FB009005E0FFF7F2FBD8
:100B60000099401A02288CD899FAA9F0B0FA80F0BE
:100B700040F04000B4EB501F02D1306801E08EE03D
:100B8000286899FAA9F1B1FA81F101F01F0104FA7C
:100B900001F21042E2D027E094FAA4F1B1FA81F117
:100BA00008EB8101C1F880B6FFF7CCFB009005E0AF
:100BB000FFF7C8FB0099401A022870D899FAA9F0EB
:100BC000B0FA80F040F04000B4EB501F01D1306823
:100BD00000E0286899FAA9F1B1FA81F101F01F014A
:100BE00004FA01F21042E3D1387840077BD59B48E4
:100BF0004FF000090068C0000AD49848016841F02D
:100C00008051016000684FF0010900F080500090B1
:100C100093480168C90511D4016841F480710160ED
:100C2000FFF790FB009005E0FFF78CFB0099401A5E
:100C3000642834D88A480068C005F5D5B86801280A
:100C40000AD008B1052811D0286820F480702860E7
:100C5000286820F4806002E0286840F480702860F2
:100C6000B86848B3FFF76EFB00900DE0286840F4C9
:100C700080602860F0E700BFFFF764FB0099411A2D
:100C800041F2883081420AD89AFAAAF0B0FA80F08C
:100C900040F04000B4EB501F02D1306801E095E015
:100CA00028689AFAAAF1B1FA81F101F01F0104FA59
:100CB00001F21042E0D022E0FFF744FB009007E091
:100CC000FFF740FB0099411A41F2883081427DD8FC
:100CD0009AFAAAF0B0FA80F040F04000B4EB501F4E
:100CE00002D1306801E012E028689AFAAAF1B1FA5C
:100CF00081F101F01F0104FA01F21042E0D1B9F1D3
:100D0000000F04D05548016821F080510160786AD5
:100D1000E8B3DFF84891A9F11C09D9F80010C1F334
:100D20008101032976D002284FF080714FF0007ABC
:100D300058460BD091FAA1F1B1FA81F148F821009F
:100D4000FFF700FBB046074656466DE04FF0807156
:100D500091FAA1F1B1FA81F18A0042495050FFF7AE
:100D6000F1FAB3468046564606E000BFFFF7EAFABE
:100D7000A0EB0800022854D896FAA6F0B0FA80F04A
:100D800040F02000400903D0DBF8000001E061E002
:100D9000286896FAA6F1B1FA81F101F01F0104FA70
:100DA00001F10842E2D1D7E90A103A6BD9F80030D4
:100DB000014323F47D031A431143C9F800104FF097
:100DC000807090FAA0F0B0FA80F000E029E0810095
:100DD00024480C50FFF7B6FA074604E0FFF7B2FAD2
:100DE000C01B02281DD896FAA6F0B0FA80F040F099
:100DF0002000400902D0DBF8000000E0286896FAE5
:100E0000A6F1B1FA81F101F01F0104FA01F10842E3
:100E1000E4D01FE020E000BFFFF794FAC01B0228D7
:100E200002D90320BDE8F88F96FAA6F0B0FA80F058
:100E300040F02000400902D0D8F8000000E0286807
:100E400096FAA6F1B1FA81F101F01F0104FA01F15D
:100E50000842E1D10020E5E70120E3E72438024021
:100E600000700040000047424FF0E021042808696C
:100E700003D020F004000861704740F00400FAE756
:100E8000704710B5401EB0F1807F01D3012010BD26
:100E90004FF0E02460610F21601700F0E3F90020BB
:100EA000A06107202061002010BD10B5FFF7E8FF0A
:100EB00010BD30B590F83420012A20D0012280F8EE
:100EC0003420022380F8353003685C6824F0700415
:100ED0005C6003685C680D682C435C6003689C6818
:100EE00024F080049C6003689C6849680C439C6003
:100EF00080F83520002180F83410084630BD0220EB
:100F000030BD0168CA6842F00102CA600068016829
:100F100041F00101016000207047704770B5044640
:100F2000006801694FF00005C943890715D4C168FD
:100F3000C943890711D4E91E016101202075206889
:100F400080698007204602D0FFF7E7FF04E000F049
:100F5000BCF8204600F0F2F8257520680169C94305
:100F6000490717D4C168C943490713D46FF0040176
:100F70000161022020752068806910F4407F2046BE
:100F800002D0FFF7CAFF04E000F09FF8204600F00F
:100F9000D5F8257520680169C943090716D4C168C9
:100FA000C943090712D46FF00801016104202075BC
:100FB0002068C0698007204602D0FFF7AEFF04E03A
:100FC00000F083F8204600F0B9F825752068016923
:100FD000C943C90617D4C168C943C90613D46FF001
:100FE00010010161082020752068C06910F4407F5D
:100FF000204602D0FFF791FF04E000F066F820469B
:1010000000F09CF8257520680169C943C90708D11B
:10101000C168C943C90704D1891E0161204600F097
:101020008FF820680169C943490609D4C168C943DA
:10103000490605D46FF040010161204600F0A2F896
:1010400070BD000000B5006885B0B0F1804F0CD1D4
:1010500020200090022001900020029003900120A7
:10106000049069460248FFF79DF805B000BD0000F6
:101070000000024070B5044690F8340001280DD0FD
:10108000012584F83450022084F8350042B1042A46
:101090000AD0082A0CD00C2A11D10DE0022070BD14
:1010A000206800F0D5F90AE0206800F0E7F906E0D2
:1010B000206800F0FBF902E0206800F00EFA84F8E6
:1010C0003550002084F8340070BD704710B504001E
:1010D00003D094F8350010B107E0012010BD0020C6
:1010E00084F83400204600F00DF8022084F8350022
:1010F000211D206800F076F9012084F835000020D9
:1011000010BD000008B50068B0F1804F12D10A4848
:10111000016841F0010101600068002200F0010057
:10112000009001211C20FFF78FF9BDE808401C202A
:10113000FFF77EB908BD0000243802407047000068
:101140002DE9F0410D4C2078072801D100202070B6
:10115000C0B2401C20700025094E4FF47A7708E099
:1011600040213046FFF7E4F83846FEF7F6FF6D1CE5
:10117000EDB220788542F3D3BDE8F0810000002075
:10118000000402407047FEE770B51A4886B0016857
:1011900041F001010160016801F001010591016860
:1011A00041F0020101600068134E00F0020005905A
:1011B0000022C0213046FFF7BFF801250F48002468
:1011C0000095CDE9010469460D48FEF7EBFFC0200C
:1011D0000090CDE90154694630460394FEF7E2FFE2
:1011E000002211460620FFF72FF90620FFF720F90D
:1011F00006B070BD1C38024000040240000011100F
:101200000000024010B5154888B04FF080410160E1
:101210004FF4FA610024C0E9011442F21071C0E9F0
:101220000314FFF753FF00B1FEE72020CDE90504CA
:1012300005A90A48FFF73DFE00B1FEE700940194BE
:1012400002940022694605480394FFF713FF00B19A
:10125000FEE70248FFF7F6FE08B010BD0C000020C4
:10126000FEE770470907090E002806DA00F00F00B4
:1012700000F1E02080F8141D704700F1E02080F8B4
:10128000001470477047000038B51C4900230968F6
:101290001B4A11F0F00F23D118491C310C68E500EE
:1012A000184C03D5216801F4C0540EE00D6845F0D8
:1012B00080550D600D6805F08055009524680D6817
:1012C00004F4C05425F080550D60B4F5C05F07D11B
:1012D000B0F5404F04D11068012340F004001060C5
:1012E000106820F0010018431060106800F0010041
:1012F000984201D0012038BD002038BD0838024096
:10130000003C024000700040704710B5FFF720F825
:10131000BDE81040FFF7C9BD1A4810B5016892B08A
:1013200021F4C05141F400610160102000900120BF
:101330000024CDE906044FF42040CDE908046846B6
:10134000FFF7EAF900B1FEE70F20CDE90D040F9495
:10135000109400210DA81194FFF7A8F800B1FEE742
:10136000FFF78EF94FF47A71B0FBF1F0FFF789FDCA
:101370000420FFF779FD00221146501EFFF764F8A4
:1013800012B010BD007000400F48016841F4807138
:1013900001600D4908310A680C4B1A400A60026866
:1013A0000B4B1A400260026822F480220260086837
:1013B00020F47D0008600020091D086005494FF0F9
:1013C0000060086070470000003802400CC0FF88D1
:1013D000FEFFFEEE08ED00E00148FFF79FBD0000B4
:1013E0000C00002070B502684FF08046134B144C7F
:1013F000B04203D0984201D0A04205D122F070053E
:101400004A682A43B0420CD098420AD0A04208D081
:101410000C4B984205D00C4B984202D00B4B984293
:1014200003D122F44073CA681A4302608A68C26218
:10143000096881620121416170BD00000004004023
:101440000008004000080140000C0140001001406D
:1014500030B5026A22F001020262036A44688269BE
:1014600022F073050A682A4323F002058B68446062
:101470002B43826149684163036230BD30B5026A23
:1014800022F010020262046A426883690D6823F444
:10149000E64343EA05238D6824F0200444EA05145A
:1014A0004260836149688163046230BD30B5026A7D
:1014B00022F480720262046A4368C26924F40074F0
:1014C00022F073050A682A438D68436044EA0524C4
:1014D000C2614968C163046230BD30B5026A22F45A
:1014E00080520262046A4268C3690D6823F4E643CD
:1014F00043EA05238D6824F4005444EA053442602D
:10150000C36149680164046230BDFEE702E008C8B7
:10151000121F08C1002AFAD170477047002001E06D
:1015200001C1121F002AFBD170470000FEF718FF0F
:10153000FFF7F2FEFFF728FEFFF764FE0648FFF70D
:10154000E0FC064C4FF4FA7580212046FEF7F0FED1
:101550002846FEF702FEF7E70C00002000040240D8
:10156000030406080C1018203000000000000000E2
:101570000001020304060708090000009C1500088A
:10158000000000200C0000000C150008A815000841
:101590000C0000203C0400001C15000800000000A6
:0815A0000000000068FF1F00BD
:04000005080000F5FA
:00000001FF
