:020000040800F2
:1000000000500020C923000855230008572300088A
:10001000592300085B2300085D230008000000004E
:100020000000000000000000000000005F23000846
:100030006123000800000000632300086523000816
:1000400011240008112400081124000811240008BC
:1000500011240008112400081124000811240008AC
:10006000112400081124000811240008112400089C
:10007000112400081124000811240008112400088C
:10008000112400081124000811240008112400087C
:10009000112400081124000811240008112400086C
:1000A000112400086D230008112400081124000801
:1000B000112400081124000811240008112400084C
:1000C000112400081124000811240008112400083C
:1000D000112400081124000811240008112400082C
:1000E0001124000811240008112400080000000059
:1000F0000000000000000000000000000000000000
:0C01000000000000000000005FF808F1A3
:10010C0010B5054C237833B9044B13B10448AFF345
:10011C0000800123237010BD80050020000000002A
:10012C006C24000808B5034B1BB103490348AFF31B
:10013C00008008BD00000000840500206C2400082D
:10014C0010B504460E4B18784FF47A73B3FBF0F3EA
:10015C000C4A1068B0FBF3F000F0A2F868B90F2C51
:10016C0001D901200AE0002221464FF0FF3000F0B7
:10017C0055F8034B5C60002000E0012010BD00BF6F
:10018C00000000207805002008B5074A136843F0EA
:10019C0010031360032000F02FF80020FFF7D0FFAE
:1001AC0001F078FF002008BD00200240034A1168CE
:1001BC00034B1B780B441360704700BFA005002055
:1001CC0000000020014B1868704700BFA0050020FC
:1001DC0038B50446FFF7F6FF0546B4F1FF3F02D0F1
:1001EC00044B1B781C44FFF7EDFF401BA042FAD3D5
:1001FC0038BD00BF00000020074AD36823F4E06339
:10020C001B041B0C000200F4E060184340F0BF60BC
:10021C0040F40030D060704700ED00E030B4174B74
:10022C00DB68C3F30223C3F10704042C28BF0424A6
:10023C001D1D062D18D9033B4FF0FF3505FA04F4AC
:10024C0021EA0401994005FA03F322EA0303194356
:10025C0000280BDB0901C9B200F1604000F56140D8
:10026C0080F8001330BC70470023E5E700F00F0066
:10027C000901C9B2024B1954F4E700BF00ED00E0CC
:10028C0014ED00E0002807DB00F01F0240090123F9
:10029C009340024A42F82030704700BF00E100E072
:1002AC000138B0F1807F0AD2064B5860064AF02123
:1002BC0082F823100020986007221A6070470120F2
:1002CC00704700BF10E000E000ED00E0F0B482B039
:1002DC0000263246A2E0002D5AD0012D00D1CE6866
:1002EC00FF2B69D88446FF2B69D89500DCF80040B9
:1002FC000F27AF4024EA070406FA05F52C43CCF887
:10030C0000404C6814F0805F00F087805F4CA5695A
:10031C0045F00105A561A46904F001040194019C58
:10032C009508AF1C5A4C54F8274002F00307BF0045
:10033C004FF00F0C0CFA07FC24EA0C0C554CA042A5
:10034C0043D004F58064A04200F0818004F5806401
:10035C00A0427ED004F58064A04234D0042435E061
:10036C004D4FBD4214D00BD94C4FBD4210D007F5A8
:10037C008037BD420CD0A7F58017BD42B0D107E045
:10038C00A7F58017BD4203D007F58037BD42A7D132
:10039C008D687DB1012D08D044610826A0E7CE6898
:1003AC0008369DE7CE680C369AE70461082697E775
:1003BC00002695E7042693E700F1040C93E7A2F1DD
:1003CC000805AD0092E7032400E00024BC4044EA99
:1003DC000C0402352E4F47F825404C6814F4803F2E
:1003EC0039D02F4D2C681C432C604C6814F4003F02
:1003FC0037D02B4D6C681C436C604C6814F4801F18
:10040C0035D0274DAC681C43AC604C6814F4001F0D
:10041C0033D0234DEC682343EB6001320B6833FA85
:10042C0002F430D00124944023409C42F5D14D6815
:10043C00122DB7D094D8022DB1D07FF64CAF032D2E
:10044C00B6D0112D7FF44CAFCE68043648E70124AA
:10045C00BCE70224BAE7124D2C6824EA03042C6092
:10046C00C3E70F4D6C6824EA03046C60C5E70C4DC0
:10047C00AC6824EA0304AC60C7E7094DEC6824EAD5
:10048C000303EB60C9E702B0F0BC704700100240F8
:10049C000000014000080140000021100000311054
:1004AC000004014012B909040161704701617047F1
:1004BC00C3680B4201D10161704741617047000074
:1004CC00002800F0BE80F8B5044690F83D30002BB3
:1004DC006BD0242384F83D302268136823F0010389
:1004EC00136000F0D3FB6268584B9A4262D8584BA9
:1004FC0098428CBF00230123002B40F0A480554B65
:10050C00A3FB00239B0C21684A6822F03F021A438C
:10051C004A6025682A6A22F03F0266684B498E427F
:10052C004ED8013313432B622568E96921F44F41FE
:10053C0021F0FF016368454A93424BD801385B00B8
:10054C00B0FBF3F30133C3F30B03042B38BF0423C9
:10055C000B43EB6121680B6823F0C003E269206A4E
:10056C00024313430B6021688B6823F4034323F08D
:10057C00FF032269E068024313438B602168CB6858
:10058C0023F0FF036269A06902431343CB60226826
:10059C00136843F00103136000202064202384F8C7
:1005AC003D30206384F83E00F8BD80F83C3001F00B
:1005BC0093FD8EE7284B98428CBF002301239BE7C9
:1005CC004FF4967101FB03F32449A1FB03139B0920
:1005DC000133A7E7A268BAB9461E03EB4307B6FB83
:1005EC00F7F60136C6F30B06B6FA86F6760936BB75
:1005FC00C2B9013803EB4303B0FBF3F30133C3F38C
:10060C000B0242F40043A3E7461E03EB830707EB00
:10061C008707B6FBF7F60136C6F30B06B6FA86F675
:10062C007609E4E7013803EB830303EB8303B0FBA8
:10063C00F3F20132C2F30B0242F4404388E7012388
:10064C0086E7012070470120AEE700BFA0860100BD
:10065C007F841E0083DE1B43FF083D00D34D6210D8
:10066C00014B01221A60704720000E4282B0084BE9
:10067C001B68084AA2FB03235B0A00FB03F00190F2
:10068C0000BF019B5A1E0192002BF9D102B070479A
:10069C0078050020D34D6210002800F0F58170B56C
:1006AC0082B00446036813F0010F2CD0AB4B5B688F
:1006BC0003F00C03042B1DD0A84B5B6803F00C0358
:1006CC00082B12D06368B3F5803F41D0002B55D175
:1006DC0003F1804303F504331A6822F480321A6064
:1006EC001A6822F480221A6037E09C4B5B6813F482
:1006FC00803FE7D0994B1B6813F4003F03D063682D
:10070C00002B00F0C381236813F0020F76D0934BBB
:10071C005B6813F00C0F5FD0904B5B6803F00C031D
:10072C00082B54D02369002B00F08A808C4B0122BB
:10073C001A60FFF747FD0546884B1B6813F0020F44
:10074C0075D1FFF73FFD401B0228F5D90320A0E12E
:10075C00824A136843F480331360636843B3FFF732
:10076C0031FD05467D4B1B6813F4003FCBD1FFF7E1
:10077C0029FD401B6428F5D903208AE1B3F5A02F8D
:10078C0009D0764B1A6822F480321A601A6822F467
:10079C0080221A60E1E703F18043A3F53C331A6829
:1007AC0042F480221A601A6842F480321A60D4E74C
:1007BC00FFF708FD0546694B1B6813F4003FA2D0F8
:1007CC00FFF700FD401B6428F5D9032061E1634B62
:1007DC005B6813F4803FA5D1604B1B6813F0020FCC
:1007EC0004D02369012B01D0012052E15B4A13682C
:1007FC0023F0F803616943EAC1031360236813F023
:10080C00080F32D0A369002B5BD0564B01221A6023
:10081C00FFF7D8FC0546514B5B6A13F0020F21D150
:10082C00FFF7D0FC401B0228F5D9032031E14B4ADD
:10083C00136823F0F803616943EAC1031360DDE731
:10084C00474B00221A60FFF7BDFC0546434B1B6863
:10085C0013F0020FD2D0FFF7B5FC401B0228F5D9DC
:10086C00032016E10120FFF701FF236813F0040FAA
:10087C0000F09880394BDB6913F0805F33D1374B34
:10088C00DA6942F08052DA61DB6903F0805301933C
:10089C00019B0125344B1B6813F4807F25D0E36842
:1008AC00012B36D0002B4CD103F1804303F50433DC
:1008BC001A6A22F001021A621A6A22F004021A62FF
:1008CC002CE0284B00221A60FFF77CFC0546234BDA
:1008DC005B6A13F0020FC8D0FFF774FC401B0228B0
:1008EC00F5D90320D5E00025D4E71F4A136843F45B
:1008FC0080731360FFF766FC06461B4B1B6813F4F2
:10090C00807FCCD1FFF75EFC801B6428F5D90320D7
:10091C00BFE0124A136A43F001031362E3687BB32E
:10092C00FFF750FC06460D4B1B6A13F0020F38D133
:10093C00FFF748FC801B41F288339842F3D903201F
:10094C00A7E0052B12D0054B1A6A22F001021A629D
:10095C001A6A22F004021A62E0E700BF001002409B
:10096C000000424280044242007000404C4B1A6A24
:10097C0042F004021A621A6A42F001021A62CDE7CE
:10098C00FFF720FC0646464B1B6A13F0020F08D0FB
:10099C00FFF718FC801B41F288339842F3D90320EF
:1009AC0077E0E5B9E369002B72D03D4A526802F05A
:1009BC000C02082A56D0022B17D03A4B00221A6090
:1009CC00FFF700FC0446364B1B6813F0007F47D042
:1009DC00FFF7F8FB001B0228F5D9032059E0304A39
:1009EC00D36923F08053D361DCE72E4B00221A60CD
:1009FC00FFF7E8FB05462A4B1B6813F0007F06D077
:100A0C00FFF7E0FB401B0228F5D9032041E0236AE5
:100A1C00B3F5803F1AD022494B6823F47413226A31
:100A2C00606A024313434B601E4B01221A60FFF7AE
:100A3C00C9FB04461A4B1B6813F0007F0ED1FFF75D
:100A4C00C1FB001B0228F5D9032022E0144A53688D
:100A5C0023F40033A1680B435360DCE7002018E05B
:100A6C00002016E0012B16D00D4B5B6803F480318F
:100A7C00226A914201D001200BE003F47013626AE8
:100A8C0093420AD0012004E001207047012000E0CD
:100A9C00002002B070BD0120FBE70020F9E700BF89
:100AAC00001002406000424210B487B0164C94E82B
:100ABC000F000DF1180C0CE90F00238AADF804306F
:100ACC00124B5B6803F00C02082A1AD1C3F3834261
:100ADC00624412F8102C13F4803F05D10C4800FB33
:100AEC0002F007B010BC7047084B5B68C3F340437F
:100AFC00634413F8143C074800FB02F0B0FBF3F01E
:100B0C00EFE70448EDE700BF842400080010024022
:100B1C0000093D0000127A00002800F0A38070B597
:100B2C000446524B1B6803F007038B420CD24F4A0E
:100B3C00136823F007030B431360136803F00703D8
:100B4C008B4201D0012070BD236813F0020F17D027
:100B5C0013F0040F04D0464A536843F4E063536027
:100B6C00236813F0080F04D0414A536843F46053D0
:100B7C0053603F4A536823F0F003A068034353606B
:100B8C000D46236813F0010F31D06368012B20D080
:100B9C00022B25D0364A126812F0020F64D0344969
:100BAC004A6822F0030213434B60FFF70BFB064627
:100BBC002F4B5B6803F00C036268B3EB820F16D00B
:100BCC00FFF700FB801B41F288339842F0D90320D9
:100BDC00B9E7274A126812F4003FE0D10120B2E7CE
:100BEC00234A126812F0007FD9D10120ABE71F4BCA
:100BFC001B6803F00703AB420CD91C4A136823F0A3
:100C0C0007032B431360136803F00703AB4201D0B7
:100C1C00012098E7236813F0040F06D0144A536898
:100C2C0023F4E063E1680B435360236813F0080F6F
:100C3C0007D00F4A536823F46053216943EAC10378
:100C4C005360FFF731FF0A4B5B68C3F30313094A88
:100C5C00D35CD840084B1860084B1868FFF770FA43
:100C6C00002070E70120704701206CE70020024053
:100C7C0000100240AC24000878050020040000207D
:100C8C00014B1868704700BF7805002008B5FFF7C6
:100C9C00F7FF044B5B68C3F30223034AD35CD840D1
:100CAC0008BD00BF00100240BC24000808B5FFF7C7
:100CBC00E7FF044B5B68C3F3C223034AD35CD84001
:100CCC0008BD00BF00100240BC24000870B582B003
:100CDC000446036813F0010F34D03E4BDB6913F06C
:100CEC00805F48D13B4BDA6942F08052DA61DB69B4
:100CFC0003F080530193019B0125374B1B6813F4C0
:100D0C00807F3AD0334B1B6A13F4407311D0626866
:100D1C0002F440729A420CD02E4A136A23F44070AB
:100D2C002E4901260E6000260E60106213F0010F92
:100D3C0037D1284A136A23F4407361680B4313625A
:100D4C00002D3FD1236813F0020F06D0214A5368BF
:100D5C0023F44043A1680B435360236813F0100F36
:100D6C0035D01C4A536823F48003E1680B4353606D
:100D7C00002002B070BD0025BFE7174A136843F48A
:100D8C0080731360FFF71EFA0646134B1B6813F4AF
:100D9C00807FB7D1FFF716FA801B6428F5D90320A2
:100DAC00E7E7FFF70FFA06460A4B1B6A13F0020F30
:100DBC00BFD1FFF707FA801B41F288339842F3D971
:100DCC000320D6E7D36923F08053D361BAE7002020
:100DDC00CFE700BF001002400070004040044242C8
:100DEC0030B587B00546384C94E80F000DF1180C5F
:100DFC000CE90F00238AADF80430022D50D0102DD1
:100E0C0003D0012D2BD0002054E0304B5A681B68C6
:100E1C0013F0807F50D0C2F3834306A90B4413F820
:100E2C00100C12F4803F16D0284B5B68C3F3404380
:100E3C000B4413F8142C264BB3FBF2F300FB03F01A
:100E4C00224B5B6813F4800F34D14000214BA3FB81
:100E5C00003040082EE0204B03FB00F0F0E71B4B6A
:100E6C001B6A40F202321A40B2F5817F26D003F49D
:100E7C004073B3F5007F04D0B3F5407F09D0002058
:100E8C0018E0124A526A12F0020FF5D049F64040AF
:100E9C0010E00E4B1B6813F4003F12D1002009E048
:100EAC00FFF704FF094B5B68C3F3813301335B002D
:100EBC00B0FBF3F007B030BD0020FBE74FF400406F
:100ECC00F8E74FF22440F5E79824000800100240A0
:100EDC0000127A00ABAAAAAA00093D0038B5044654
:100EEC00FFF770F9054623685A6812F0200F07D1F6
:100EFC00FFF768F9401BB0F57A7FF4D9032004E0C2
:100F0C005A6842F010025A60002038BD38B50446C9
:100F1C000268536823F010035360FFF753F905463A
:100F2C0023685B6813F0200F07D1FFF74BF9401BC8
:100F3C00B0F57A7FF4D9032000E0002038BDC0B1B1
:100F4C0038B504460268536823F008035360FFF772
:100F5C0039F9054623685B6813F0080F07D1FFF7D2
:100F6C0031F9401BB0F57A7FF4D9032000E0002062
:100F7C0038BD01207047000000285AD010B5044637
:100F8C00437C53B1022363742046FFF7D8FF40B172
:100F9C00042363740123184610BD037401F0CEF8CA
:100FAC00F0E72046FFF79AFF002830D122685368FB
:100FBC0023F007035360A36823B11F4A136B23F07C
:100FCC00010313631C4AD36A23F46073A1680B43B7
:100FDC00D3626268B2F1FF3F1DD021688B6823F0A9
:100FEC000F0343EA12438B602168CB681B0C1B0474
:100FFC0092B21343CB602046FFF788FF0346A0B99B
:10100C000022E27301226273A2736274C3E70423A9
:10101C0063740123BFE70120FFF7E2FE08B1421E13
:10102C00DBE7042363740123B5E704236374012312
:10103C00B1E7012318467047006C0040F8B505462F
:10104C000F4616461C462B689B6837EA03030CBFF9
:10105C0001230023B34237D0B4F1FF3FF3D0FFF7A5
:10106C00B1F8069BC01AA04201D2002CEBD12A6821
:10107C00536823F0E00353606B68B3F5827F0BD0A9
:10108C00AB6AB3F5005F14D0012385F8513000230F
:10109C0085F85030032018E0AB68B3F5004F02D050
:1010AC00B3F5806FECD12A68136823F0400313600A
:1010BC00E6E72A68136823F4005313602A68136860
:1010CC0043F400531360DFE70020F8BD10B582B085
:1010DC00044600920B4600228021FFF7AFFF034627
:1010EC0010B9184602B010BD636D43F02003636560
:1010FC000323F6E7002839D010B504460023836299
:10110C0090F85130002B2CD0022384F851302268F7
:10111C00136823F0400313606368A2681343E2680A
:10112C0013432269134362691343A26902F40072E8
:10113C001343E2691343226A1343A16A22680B43E7
:10114C001360638B226803F0040353602268D36935
:10115C0023F40063D36100206065012384F85130CF
:10116C0010BD80F8503001F009F8CDE70120704730
:10117C002DE9F04182B090F85040012C00F0C38072
:10118C001D46174688460446012380F85030FFF769
:10119C0019F8064694F85130DBB2012B09D0022025
:1011AC00012384F85130002384F8503002B0BDE89C
:1011BC00F081B8F1000F00F09880002F00F09780BC
:1011CC00032384F8513000236365C4F83080A7866C
:1011DC00E786A363A387E38763642364A368B3F5FB
:1011EC00004F1CD023681A6812F0400F03D11A6804
:1011FC0042F040021A60E368B3F5006F15D06368E3
:10120C000BB1012F49D1226B236812781A73236B0F
:10121C0001332363E38E013B9BB2E3863DE02268FE
:10122C00136843F480431360DCE763680BB1012F50
:10123C0015D1226B23681288DA60236B0233236387
:10124C00E38E013B9BB2E38609E0FEF7BBFF801BFC
:10125C00A84202D3B5F1FF3F4BD1002D4BD0E38E0A
:10126C009BB2002B2CD023689A6812F0020FECD0A2
:10127C00226B1288DA60236B02332363E38E013B0B
:10128C009BB2E386EBE7FEF79DFF801BA84202D3DF
:10129C00B5F1FF3F31D1002D31D0E38E9BB27BB144
:1012AC0023689A6812F0020FEDD0226B12781A7331
:1012BC00236B01332363E38E013B9BB2E386ECE7A4
:1012CC00324629462046FFF701FF08B1202363650B
:1012DC00A36833B901932368DA6801929B68019380
:1012EC00019B636D6BB900205AE7012058E7012080
:1012FC0056E7032054E7032052E7032050E703206E
:10130C004EE701204CE7022050E7000070B4036A5E
:10131C0023F001030362036A4268846924F07304B6
:10132C000D6845EA040623F002048B6823430D4D37
:10133C00A84209D00B4DA8420DD0426086614A6884
:10134C004263036270BC704723F00803CC682343EC
:10135C0023F00403EEE722F440724C6914438A69CB
:10136C002243EAE7002C014030B4036A23F4807373
:10137C000362036A4268C46924F073040D682C4349
:10138C0023F400738D6843EA05230F4DA84209D05E
:10139C000D4DA8420ED04260C4614A68C26303621C
:1013AC0030BC704723F40063CD6843EA052323F473
:1013BC008063EDE722F440524D6942EA05128D69D3
:1013CC0042EA0512E7E700BF002C014030B4036A83
:1013DC0023F480530362036A4468C26922F4E64230
:1013EC000D6842EA052223F400538D6843EA053365
:1013FC00074DA84206D04460C2614A680264036289
:10140C0030BC704724F480444D6944EA8514F2E7FB
:10141C00002C01400268D36843F00103D3600268DA
:10142C00936803F00703062B03D0136843F0010302
:10143C00136000207047704770477047704710B5B5
:10144C00044603681A6912F0020F11D0DA6812F020
:10145C00020F0DD06FF002021A61012303770368AB
:10146C009B6913F0030F70D0FFF7E6FF002323777F
:10147C0023681A6912F0040F12D0DA6812F0040F04
:10148C000ED06FF004021A610223237723689B6944
:10149C0013F4407F5FD02046FFF7CEFF0023237765
:1014AC0023681A6912F0080F12D0DA6812F0080FCC
:1014BC000ED06FF008021A61042323772368DB69CE
:1014CC0013F0030F4ED02046FFF7B6FF002323770F
:1014DC0023681A6912F0100F12D0DA6812F0100F8C
:1014EC000ED06FF010021A61082323772368DB6992
:1014FC0013F4407F3DD02046FFF79EFF0023237757
:10150C0023681A6912F0010F03D0DA6812F0010F88
:10151C0036D123681A6912F0800F03D0DA6812F002
:10152C00800F34D123681A6912F0400F03D0DA68A7
:10153C0012F0400F32D123681A6912F0200F03D039
:10154C00DA6812F0200F30D110BDFFF774FF20467F
:10155C00FFF773FF8AE72046FFF76DFF2046FFF782
:10156C006CFF9BE72046FFF766FF2046FFF765FF01
:10157C00ACE72046FFF75FFF2046FFF75EFFBDE7B5
:10158C006FF001021A61204600F03CFCC1E76FF0DD
:10159C0080021A61204600F040F9C3E76FF0400268
:1015AC001A612046FFF74AFFC5E76FF020021A6167
:1015BC00204600F031F9C7E703681B4A90420AD075
:1015CC00B0F1804F07D0A2F59432904203D002F5CF
:1015DC008062904203D123F070034A681343124A8D
:1015EC0090420AD0B0F1804F07D0A2F594329042CD
:1015FC0003D002F58062904203D123F44073CA6891
:10160C00134323F080034A69134303608B68C3625E
:10161C000B688362044B984202D0012343617047EC
:10162C000B690363F9E700BF002C0140A8B110B5AA
:10163C00044690F83D305BB1022384F83D30211D07
:10164C002068FFF7B9FF012384F83D30002010BD5E
:10165C0080F83C3000F0CCFDEEE701207047000034
:10166C0030B4036A23F010030362036A446882698E
:10167C0022F4E6420D6842EA052223F020038D682D
:10168C0043EA05130E4DA84209D00D4DA8420ED0C9
:10169C00446082614A688263036230BC704723F005
:1016AC008003CD6843EA051323F04003EDE724F4EF
:1016BC0040644D6944EA85048D6944EA8504E7E792
:1016CC00002C014090F83C30012B28D010B504467A
:1016DC00012380F83C30022380F83D300C2A0BD8D3
:1016EC00DFE802F0070A0A0A110A0A0A150A0A0AAE
:1016FC0019000068FFF70AFE012384F83D30002032
:10170C0084F83C0010BD0068FFF7AAFFF4E70068FE
:10171C00FFF72AFEF0E70068FFF758FEECE702201F
:10172C00704710B401F01F01012303FA01F4036A9E
:10173C0023EA04030362036A8A401343036210BC66
:10174C007047000010B5044601220068FFF7E9FF5E
:10175C0023680A4A93420BD02268936803F007036C
:10176C00062B03D0136843F001031360002010BD57
:10177C005A6C42F400425A64EEE700BF002C014060
:10178C0090F83C30012B1CD070B4012680F83C60E2
:10179C00022380F83D3002685568936825F0700587
:1017AC000C682C4323F080054B682B435460026873
:1017BC00936080F83D60002380F83C30184670BC84
:1017CC0070470220704790F83C30012B22D0012347
:1017DC0080F83C30CB6823F440738A68134323F4BD
:1017EC0080634A68134323F400630A68134323F4A9
:1017FC0080530A69134323F400534A69134323F4B7
:10180C008043CA69134302685364002380F83C3058
:10181C0018467047022070477047704738B5044629
:10182C000268136923F44053C1680B431361836846
:10183C000269134342691A430168CB6823F4B0531D
:10184C0023F00C031343CB600268536923F44073F9
:10185C0081690B4353610268214B9A421FD0FFF7F9
:10186C0015FA00EB800000EB800063689B00B0FB76
:10187C00F3F01C4DA5FB00325109642202FB11024E
:10188C0013013233A5FB03235B0903F0F00202EBD7
:10189C00011203F00F03216813448B6038BDFFF76E
:1018AC0005FA00EB800000EB800063689B00B0FB46
:1018BC00F3F00C4DA5FB00325109642202FB11021E
:1018CC0013013233A5FB03235B0903F0F00202EB97
:1018DC00011203F00F03216813448B60DEE700BF95
:1018EC00003801401F85EB5158B310B5044690F8F1
:1018FC0039300BB3242384F839302268D36823F4AD
:10190C000053D3602046FFF789FF2268136923F444
:10191C00904313612268536923F02A0353612268B0
:10192C00D36843F40053D3600020E063202384F891
:10193C00393084F83A3010BD80F8383000F0C8FCEB
:10194C00D8E70120704700002DE9F04188B0002451
:10195C0004940594069407942E4B9A6942F0100255
:10196C009A619A6902F010020092009A9A6942F008
:10197C0020029A619A6902F020020192019A9A69F6
:10198C0042F004029A619A6902F004020292029AED
:10199C009A6942F008029A619B6903F00803039369
:1019AC00039BDFF87880224648F210014046FEF790
:1019BC0079FD194D22464FF603712846FEF772FD4C
:1019CC0048F2100304930126059606940227079704
:1019DC0004A94046FEF77AFC4FF603730493059670
:1019EC000694079704A92846FEF770FC0823049375
:1019FC000594069604A92846FEF768FC3023049348
:101A0C000594069404A92846FEF760FC08B0BDE8CE
:101A1C00F08100BF00100240000C014000080140A2
:101A2C0008B50948094B0360094B436000238360E8
:101A3C00C3604FF48042026143618361C3610362FE
:101A4C00FEF73EFD08BD00BFA80500200054004075
:101A5C00A086010008B50648064B03604FF0FF3323
:101A6C0043604FF480738360FFF786FA08BD00BFB4
:101A7C00A00900200028004008B50B480B4B036060
:101A8C004FF48273436000238360C360036143613E
:101A9C004FF400728261C3610362436283620A2362
:101AAC00C362FFF727FB08BD740B00200030014018
:101ABC00F0B593B000241094119409940A940B94EB
:101ACC000C940D940E940F9420273A46214601A8AD
:101ADC0000F0BEFC194D1A4B2B606C60AC6043F6E9
:101AEC00FF76EE602C616C61AC612846FFF79EFDC1
:101AFC001097119410A92846FFF742FE7023099302
:101B0C000A960B940C940D940E940F94224609A9EA
:101B1C002846FFF7D7FD019402940394049405948E
:101B2C004FF400530693089401A92846FFF74BFE87
:101B3C00284600F08DFB13B0F0BD00BFB4090020A7
:101B4C00002C014070B58AB00024089409940194CB
:101B5C00029403940494059406940794114D4FF049
:101B6C0080432B606C60AC600126EE602C61AC6134
:101B7C002846FFF75BFD0894099408A92846FFF74F
:101B8C00FFFD3023019302960394059404220DEB80
:101B9C0002012846FFF796FD284600F059FB0AB0D3
:101BAC0070BD00BFCC0B002008B50848084B036083
:101BBC004FF4E133436000238360C36003610C2264
:101BCC0042618361C361FFF78FFE08BD600900208D
:101BDC000038014030B595B0202200210CA800F04F
:101BEC0037FC0024059406940794089409940194F6
:101BFC0002940394049405230A934FF480330B93BB
:101C0C0001250D950AA8FEF747FD0F2305930695B0
:101C1C00079408940994214605A8FEF77DFF0195C9
:101C2C004FF48073029301A8FFF750F815B030BD44
:101C3C0008B5FEF7A9FAFFF7CDFFFFF785FEFFF712
:101C4C00EFFEFFF707FFFFF717FFFFF731FFFFF777
:101C5C0079FFFFF7A9FF234BD3E90001224BC3E91E
:101C6C000001224C01224FF400412046FEF71AFCE1
:101C7C0000224FF480412046FEF714FC00224FF462
:101C8C0000512046FEF70EFC00224FF480512046F6
:101C9C00FEF708FC00224FF400612046FEF702FC20
:101CAC0000224FF480612046FEF7FCFB00224FF42B
:101CBC0000712046FEF7F6FB00224FF4807120469F
:101CCC00FEF7F0FB04210A48FFF73CFD094C2046C7
:101CDC00FFF7A0FB00212046FFF734FD6420FEF740
:101CEC0077FAFBE70800002020090020000C0140D7
:101CFC00CC0B0020B4090020F0B404999EB2170C50
:101D0C0095B2002300E001333F2B11DCCA5C002AA2
:101D1C00F9D0084A02EB8302946820F81460D2F8D8
:101D2C00084120F81470D2F8082220F81250EAE783
:101D3C00F0BC704708000020002306E0054AD2F8EA
:101D4C000823002122F813100133B3F5907FF5DB43
:101D5C00704700BF0800002070B400231C461A46D0
:101D6C0004E030F814508D5401320133B2F5907FF9
:101D7C001DDA012B04D0022B10D0002BF6D1F0E78A
:101D8C00651C30F8155005F00F0530F81460360A54
:101D9C0045EA06158D5401320133E7E7631C30F830
:101DAC0013301B098B54013202340023DEE770BC64
:101DBC007047000010B50C460F4BD3F80C13D3F83A
:101DCC000803FFF7C9FF0A234FF4907221460B4812
:101DDC00FFF7CEF9012210210948FEF763FB01231E
:101DEC0001E001339BB20E2BFBD9002210210448D9
:101DFC00FEF758FB10BD00BF08000020740B00203C
:101E0C000008014030B583B09F4B1B7853B39E4BF9
:101E1C001B78012B48D09C4B1B78022B66D09A4B1D
:101E2C001B78032B00F08280974B1B78042B00F05F
:101E3C009F80954B1B78052B00F0BC80924B1B7838
:101E4C00062B00F0D980904B1B78072B00F0F68006
:101E5C008D4A13780133DBB21370082B00F010811C
:101E6C0003B030BD894D4FF400412846FEF720FBEE
:101E7C00874CD4F80803FFF75FFF04F54473D3E9EC
:101E8C00002304F546710091D4F80803FFF734FFE2
:101E9C00D4F80C13D4F80803FFF78CFF4FF48071BF
:101EAC002846FEF705FBB2E7784D4FF480712846C3
:101EBC00FEF7FEFA764CD4F80803FFF73DFF04F565
:101ECC005673D3E9002304F546710091D4F8080346
:101EDC00FFF712FFD4F80C13D4F80803FFF76AFFCE
:101EEC004FF400712846FEF7E3FA94E7674D4FF480
:101EFC0000712846FEF7DCFA654CD4F80803FFF7AE
:101F0C001BFF04F546730093D4E90023D4F80803AF
:101F1C00FFF7F2FED4F80C13D4F80803FFF74AFFCE
:101F2C004FF480612846FEF7C3FA78E7574D4FF41B
:101F3C0080612846FEF7BCFA554CD4F80803FFF72D
:101F4C00FBFE04F55873D3E9002304F546710091A8
:101F5C00D4F80803FFF7D0FED4F80C13D4F8080318
:101F6C00FFF728FF4FF400612846FEF7A1FA5BE764
:101F7C00464D4FF400612846FEF79AFA444CD4F8CB
:101F8C000803FFF7D9FE04F55A73D3E9002304F5CF
:101F9C0046710091D4F80803FFF7AEFED4F80C1389
:101FAC00D4F80803FFF706FF4FF480512846FEF7DC
:101FBC007FFA3EE7354D4FF480512846FEF778FA0C
:101FCC00334CD4F80803FFF7B7FE04F55C73D3E980
:101FDC00002304F546710091D4F80803FFF78CFE3A
:101FEC00D4F80C13D4F80803FFF7E4FE4FF40051B7
:101FFC002846FEF75DFA21E7244D4FF400512846A0
:10200C00FEF756FA224CD4F80803FFF795FE04F5B8
:10201C005E73D3E9002304F546710091D4F80803EC
:10202C00FFF76AFED4F80C13D4F80803FFF7C2FECE
:10203C004FF480412846FEF73BFA04E7134D4FF46A
:10204C0080412846FEF734FA114CD4F80803FFF708
:10205C0073FE04F56073D3E9002304F54671009117
:10206C00D4F80803FFF748FED4F80C13D4F808038F
:10207C00FFF7A0FE4FF400412846FEF719FAE7E6F9
:10208C00134600221A70EBE69C050020000C014060
:10209C000800002082B00E4B9A6942F001029A614E
:1020AC009A6902F001020092009ADA6942F08052B9
:1020BC00DA61DB6903F080530193019B054A536895
:1020CC0023F0E06343F00073536002B0704700BF2D
:1020DC00001002400000014010B586B000230293AE
:1020EC000393049305930268114B9A4201D006B0F6
:1020FC0010BD104CA36943F00803A361A36903F05E
:10210C0008030093009BC023029312230393032321
:10211C00059302A90848FEF7D9F8E36943F40013C4
:10212C00E361E36903F400130193019BDFE700BF54
:10213C000054004000100240000C014002680C4B9F
:10214C009A4200D0704700B583B0FEF789FA094B6C
:10215C00DA6942F00062DA61DB6903F00063019333
:10216C00019B054B01221A6003B05DF804FB00BF14
:10217C0000280040001002403C04424210B586B0DA
:10218C00002302930393049305930268164B9A421F
:10219C0001D006B010BD03F560439A6942F4805239
:1021AC009A619A6902F480520092009A9A6942F0FC
:1021BC0004029A619B6903F004030193019BA02321
:1021CC0002930223039303230593084C02A9204690
:1021DC00FEF77CF84023029300230393049302A997
:1021EC002046FEF773F8D4E70030014000080140A8
:1021FC0000B583B00368144A934205D0B3F1804F05
:10220C0015D003B05DF804FB104B9A6942F40062E0
:10221C009A619B6903F400630093009B00220121E7
:10222C001920FDF7FBFF1920FEF72CF8E9E703F561
:10223C000433DA6942F00102DA61DB6903F001036D
:10224C000193019BDDE700BF002C01400010024010
:10225C0000B587B00023029303930493059303689E
:10226C00184A934205D0B3F1804F17D007B05DF8F0
:10227C0004FB154B9A6942F004029A619B6903F0C6
:10228C0004030093009B4FF4807302930223039387
:10229C00059302A90D48FEF719F8E7E703F5043397
:1022AC009A6942F004029A619B6903F0040301935A
:1022BC00019B022302930393059302A90348FEF7A3
:1022CC0005F8D3E7002C0140001002400008014043
:1022DC0010B586B000230293039304930593026810
:1022EC00174B9A4201D006B010BD03F558439A69BA
:1022FC0042F480429A619A6902F480420092009AF8
:10230C009A6942F004029A619B6903F004030193F9
:10231C00019B4FF400730293022303930323059351
:10232C00084C02A92046FDF7D1FF4FF480630293BD
:10233C0000230393049302A92046FDF7C7FFD2E7BD
:10234C0000380140000801407047FEE7FEE7FEE759
:10235C00FEE770477047704708B5FDF727FF08BDCB
:10236C0008B50248FFF76BF808BD00BFB4090020A0
:10237C000F4B1A6842F001021A6059680D4A0A4064
:10238C005A601A6822F0847222F480321A601A6839
:10239C0022F480221A605A6822F4FE025A604FF42A
:1023AC001F029A60044B4FF000629A60704700BFA6
:1023BC00001002400000FFF800ED00E0002103E0F7
:1023CC000B4B5B58435004310A480B4B42189A4252
:1023DC00F6D30A4A02E0002342F8043B084B9A4227
:1023EC00F9D3FFF7C5FF00F00FF8FFF721FC70479A
:1023FC00CC240008000000207C0500208005002073
:10240C000C0C0020FEE7000070B500250C4E0D4CA6
:10241C00A41BA410A54209D100F022F800250A4EF5
:10242C000A4CA41BA410A54205D170BD56F825304A
:10243C0098470135EEE756F8253098470135F2E715
:10244C00C4240008C4240008C4240008C8240008BC
:10245C0003460244934200D1704703F8011BF9E78D
:10246C00F8B500BFF8BC08BC9E467047F8B500BF75
:08247C00F8BC08BC9E46704745
:1024840002030405060708090A0B0C0D0E0F1010B1
:102494000102000002030405060708090A0B0C0DDB
:1024A4000E0F1010010200000000000000000000E8
:1024B40001020304060708090000000001020304E6
:0424C40031010008DA
:0424C8000D010008FA
:1024CC000100000010000000FF0FFF0F00000000D3
:1024DC009A00000091000000B0000000B90000005C
:1024EC00B3000000BC000000B6000000BF000000FC
:1024FC009E00000095000000800000008900000094
:10250C00830000008C000000860000008F0000009B
:10251C00710000007A000000740000007D000000D3
:10252C00770000006C000000660000006F000000E7
:10253C00A1000000AA000000A4000000AD000000F3
:10254C00A700000068000000620000006B000000A3
:10255C00210000002A000000240000002D000000D3
:10256C00270000000C000000060000000F00000017
:10257C00510000005A000000540000005D000000F3
:10258C005700000008000000020000000B000000D3
:10259C00310000003A000000340000003D00000053
:1025AC0037000000130000001900000010000000AC
:1025BC00410000004A000000440000004D000000F3
:1025CC0047000000170000001D0000001400000070
:1025DC00930000009900000090000000B100000082
:1025EC00BA000000B4000000BD000000B7000000FD
:1025FC00970000009D000000940000008100000086
:10260C008A000000840000008D000000870000009C
:10261C0078000000720000007B00000075000000D4
:10262C007E000000640000006D00000067000000E8
:10263C00A8000000A2000000AB000000A5000000F4
:10264C00AE000000600000006900000063000000A4
:10265C0028000000220000002B00000025000000D4
:10266C002E000000040000000D0000000700000018
:10267C0058000000520000005B00000055000000F4
:10268C005E000000000000000900000003000000D4
:10269C0038000000320000003B0000003500000054
:1026AC003E0000001B00000012000000180000009B
:1026BC0048000000420000004B00000045000000F4
:1026CC004E0000001F000000160000001C0000005F
:1026DC009B0000009200000098000000B800000071
:1026EC00B2000000BB000000B5000000BE000000FE
:1026FC009F000000960000009C0000008800000075
:10270C00820000008B000000850000008E0000009D
:10271C007000000079000000730000007C000000D5
:10272C00760000007F000000650000006E000000D5
:10273C00A0000000A9000000A3000000AC000000F5
:10274C00A6000000AF000000610000006A0000005D
:10275C002000000029000000230000002C000000D5
:10276C00260000002F000000050000000E000000F5
:10277C005000000059000000530000005C000000F5
:10278C00560000005F000000010000000A0000007D
:10279C003000000039000000330000003C00000055
:1027AC00360000003F0000001A000000110000007D
:1027BC004000000049000000430000004C000000F5
:1027CC00460000004F0000001E0000001500000035
:1027DC00F4090020FC0500208F0BEF0E1F070000F2
:1027EC0001010101010101010101000000000101D1
:1027FC0001000100000100010100000101000001C5
:10280C0001000001010000010100010000010001B4
:10281C0001010000000001010101010101010101A0
:10282C0000000000FF0F0000FF0F0000FF0F000072
:10283C00BF0C0F0CFF0F00000000FF0FFF0F00007C
:10284C00FF0F0000000000000000FF0F0000000060
:10285C00B0030020F00300202003002030040020EF
:10286C0070040020B0040020F0040020300500208B
:10287C000101010101010101000000000000000044
:10288C000101010101010101000000000000000034
:10289C000101010101010101000000000000000024
:1028AC000101010101010101000000000000000014
:1028BC000000000000000000010101010101010104
:1028CC0000000000000000000101010101010101F4
:1028DC0000000000000000010101010101010101E3
:1028EC0000000000000000000101010101010101D4
:1028FC0001010101010101010100000000000001C2
:10290C0001000101010100010100010000010001B1
:10291C0001000100000100010100010101010001A1
:10292C000100000000000001010101010101010191
:10293C00000000000000000000000000000000008B
:10294C000000000000000000000000010100000079
:10295C000000000101000000000000000000000069
:10296C00000000000000000000000000000000005B
:10297C00000000000000000000000000000000004B
:10298C000000010101010000000001000001000035
:10299C000000010000010000000001010101000025
:1029AC00000000000000000000000000000000001B
:1029BC000000000000000000000101010101010005
:1029CC0000010000000001000001000000000100F7
:1029DC0000010000000001000001000000000100E7
:1029EC0000010101010101000000000000000000D5
:1029FC0001010101010101010100000000000001C1
:102A0C0001000000000000010100000000000001B6
:102A1C0001000000000000010100000000000001A6
:102A2C000100000000000001010101010101010190
:0C2A3C0000000008FF0F00000024F40060
:04000005080023C903
:00000001FF
