:020000040800F2
:10000000A01E002001010008AF2B00089924000861
:10001000AD2B00080F070008C930000800000000E1
:10002000000000000000000000000000F72C0008A5
:100030001107000800000000B12B0008F92C00088F
:100040001B0100081B0100081B0100081B01000820
:100050001B0100081B0100081B0100081B01000810
:100060001B0100081B010008130700081B01000802
:100070001B0100081B0100081B0100081B010008F0
:100080001B0100081B0100081B0100081B010008E0
:100090001B0100081B0100081B01000819070008CC
:1000A0001B010008B52D00081B0100081B010008FA
:1000B0001B0100081B0100081B0100081B010008B0
:1000C0001B0100081B0100081B0100081B010008A0
:1000D0001B0100081B0100081B0100081B01000890
:1000E0001B0100081B0100081B010008DFF80CD0F1
:1000F00000F052FA00480047B53E0008A01E00205C
:100100000648804706480047FEE7FEE7FEE7FEE7B1
:10011000FEE7FEE7FEE7FEE7FEE7FEE76D2D0008DF
:10012000ED000008202A04DB203A21FA02F0002129
:10013000704721FA02F3D040C2F1200291400843F7
:100140001946704740EA01039B0703D009E008C93C
:10015000121F08C0042AFAD203E011F8013B00F88C
:10016000013B521EF9D27047D2B201E000F8012BD8
:10017000491EFBD270470022F6E710B513460A4627
:1001800004461946FFF7F0FF204610BD421C10F848
:10019000011B0029FBD1801A704730B50B46014680
:1001A00000202022012409E021FA02F59D4205D316
:1001B00003FA02F5491B04FA02F52844151EA2F1C0
:1001C0000102F1DC30BD2DE9F05F054600209246CA
:1001D0009B4688460646814640241BE02846414609
:1001E00047462246FFF79EFF53465A46C01A9141A2
:1001F00010D311461846224600F0E0F92D1A67EB9D
:1002000001084F4622460120002100F0D7F917EBE4
:1002100000094E41201EA4F10104DFDC48463146AE
:100220002A464346BDE8F09F2DE9FE4F804681EA0D
:100230000300C00F0C46009021F0004123F0004560
:10024000B8EB0200A94105D24046214690461C4623
:100250000B46024623F00040104347D0270DC7F35A
:100260000A00C3F30A510290401A019040286BDA49
:10027000C3F3130040F4801B0098924620B1002382
:10028000D2EB030A63EB0B0B01985946C0F1400215
:10029000504600F093F906460D4650465946019ADD
:1002A00000F09BF910EB08006141002487EA11522D
:1002B00084EAE7731A4340D0009A62B3019A012A94
:1002C0004FEA075215DC001B61EB02014FF00042C0
:1002D00002EA0752CDE90042001C41F58011324686
:1002E0002B4600F09BF903B0BDE8F08F4046214655
:1002F000F9E7001B61EB0201001C41F580130018B7
:100300005B412018A2F5001747EB030140EAD570C6
:10031000B6196D4111E06D084FEA360645EAC07521
:100320004FEA0752001B61EB0201001C41F58011EE
:1003300049084FEA30000019514132462B4603B0BC
:10034000BDE8F04F00F05BB90098012240000023A7
:10035000D0EB020263EBE073009821464FEAE074B1
:10036000B8EB000061EB0401E9E783F000435BE7D1
:1003700081F0004158E72DE9FE4F81EA030404F0C3
:10038000004421F0004100944FF0000B23F00043A3
:1003900050EA01045ED052EA03045BD0C3F30A546E
:1003A000C1F30A552C44A4F2F3340194A0FB025487
:1003B000C1F3130141F48011C3F3130343F4801319
:1003C00001FB024400FB034E840A970A44EA81546D
:1003D00047EA8357A4FB076802958D0A05FB07854A
:1003E0004FEA932C04FB0C542705029D4FEA065854
:1003F00047EA1637B5EB08056EEB070C870E920E31
:1004000047EA811742EA8312A7FB0201B6EB0B0110
:1004100064EB00042B0D43EA0C335E1844EB1C50D4
:10042000DA465146E7FB0201C5F313044FEA0B33EA
:1004300043EA14534FEA0432019C43EA0603A4F151
:100440000C040294009CCDE900B400F0E7F803B07E
:10045000BDE8F08F00200146F9E72DE9F04D81EA73
:10046000030404F0004B21F0004514464FF0000A4D
:1004700023F0004150EA050220D054EA01021DD0C9
:10048000C5F30A570246C5F31303C1F31300C1F3C2
:100490000A5640F4801543F48013A7EB0608101B9E
:1004A000D64608F2FD3873EB050002D308F10108C7
:1004B00001E092185B41B8F1000F03DA0020014619
:1004C000BDE8F08D00204FF48011064684460EE012
:1004D000171B73EB050705D3121B63EB05030643DC
:1004E0004CEA010C49084FEA300092185B4150EA8F
:1004F0000107EDD152EA030012D082EA040083EA38
:100500000501084305D0101BAB4106D20122002390
:1005100006E000224FF0004302E06FF001025310AA
:100520001AEB06004CEB085110EB0A0041EB0B01F3
:10053000BDE8F04D00F063B8C1F30A52C1F31301F6
:1005400040F2FF3341F480119A4202DA0020014662
:10055000704740F233439A42A2F2334202DC5242E5
:10056000FFF7E0BD00F02AB830B5041E71F10004B9
:1005700004DB4FF00044404264EB0101141E73F1B0
:10058000000405DB1C464FF00043524263EB0403BA
:10059000994208BF904230BD064C074D06E0E06826
:1005A00040F0010394E8070098471034AC42F6D3BA
:1005B000FFF7A0FDE8490008084A0008202A04DBEC
:1005C000203A00FA02F1002070479140C2F1200366
:1005D00020FA03F3194390407047202A06DBCB171B
:1005E000203A41FA02F043EAE07306E041FA02F3EE
:1005F000D040C2F12002914008431946704710B51F
:10060000141E73F1000408DA401C41F10001921835
:100610005B411A4301D120F0010010BD2DE9F04DDE
:1006200092469B4611B1B1FA81F202E0B0FA80F233
:1006300020329046FFF7C2FF04460F4640EA0A0008
:1006400041EA0B0153465A46084313D0114653EA78
:10065000010019D0C8F140025046FFF763FD05467E
:100660000E46504659464246FFF7A8FF084305D0BC
:10067000012004E020463946BDE8F08D0020054306
:1006800046EAE0762C4337430A986305E40AA0EB78
:1006900008000022FD0A44EA47540A3002D500202F
:1006A0000146E9E7010510196941DDE9084500192E
:1006B0006941BDE8F04DA2E770B58C1810F8015BF8
:1006C00015F0070301D110F8013B2A1106D110F8EB
:1006D000012B03E010F8016B01F8016B5B1EF9D1EF
:1006E0002B0705D40023521E0DD401F8013BFAE775
:1006F00010F8013BCB1A921C03E013F8015B01F8E0
:10070000015B521EF9D5A142D8D3002070BDFEE78F
:100710007047102000F0A6B8202000F0A3B8704762
:1007200070B5044600F0B0F90546601C02D00448DC
:100730000078044400F0A8F9401BA042FAD370BD31
:100740000C0600202DE9F0418046444E0025F5704E
:10075000434890F83D000127202802D0F770BDE8FB
:10076000F081B6213E4803F0B7FE04463220FFF781
:10077000D7FFB8F1100FF2D1307848B1012C04D076
:10078000022CECD177703570E9E7B7703570E6E789
:10079000B07820B1032CE2D13770B570DFE7707804
:1007A0000028DCD0012C03D1708A71890844708242
:1007B000B6F91210F089814200DD7582022C03D156
:1007C000F18A72891144B182B6F91410814200DDB8
:1007D000B582032C03D1B18A72891144F182B6F932
:1007E0001610814200DDF582042C06D1318A09B948
:1007F00040213182318A491E3182062C06D1318A4C
:10080000491C89B23182402900D13582072C03D19D
:10081000718A7289891A7182B6F91220B1898A4265
:1008200000DA7082082C03D1F28A7389D21AF2821C
:10083000B6F916208A4200DAF082092C03D1B28A76
:100840007389D21AB282B6F914208A4200DAB082D1
:100850000A2C84D13770757081E7000000000020F9
:100860001C06002010B504490A68024202D0086044
:10087000FFF768FF10BD0000140401402DE9F84F98
:1008800000240023DFF8C4914FF00F0809F1040A97
:100890000AF1040B0BF1040ED1E00127A7403A4006
:1008A000BA4275D1DFF8A8C14D68A5EB0C066545C5
:1008B0002BD00DDC032D34D005DC35B3012D19D040
:1008C000022D2FD11BE0112D16D0122D2AD119E0A7
:1008D000B6F5881F19D006DCB6F5803F15D0B6F501
:1008E000801F1FD111E0B6F5001F0ED0B6F5041F12
:1008F00018D10AE0CB6815E0CB681B1D12E0CB686D
:1009000008330FE0CB680C330CE08B6823B1012B6C
:1009100004D00823476105E0042303E008230761AE
:1009200000E00023FF2A01D8054601E000F104059C
:1009300002D84FEA840603E0A4F108064FEA8606CF
:100940002F6808FA06FC27EA0C0703FA06F647EABE
:1009500006072F604D68ED0070D53E4DAE6946F03C
:100960000106AE61AD6905F0010500953A4D24F030
:1009700003067719BE68A5072D0F08FA05FC26EABD
:100980000C06DFF8D8C0604503D14FF0000C17E02B
:1009900054E0DFF8CCC0604502D14FF0010C0FE00D
:1009A000DFF8C0C0604502D14FF0020C08E0DFF86C
:1009B000B8C0604502D14FF0030C01E04FF0040CC9
:1009C0000CFA05FC4CEA060CC7F808C04D68ED03AC
:1009D00005D5D9F800501543C9F8005004E0D9F8FE
:1009E00000509543C9F800504D68AD0305D5DAF8BD
:1009F00000501543CAF8005004E0DAF8005095435F
:100A0000CAF800504D68ED0205D5DBF800501543DB
:100A1000CBF8005004E0DBF800509543CBF80050D1
:100A20004D68AD0205D5DEF800501543CEF80050F4
:100A300004E0DEF800509543CEF80050641C0A68CC
:100A400032FA04F57FF429AFBDE8F88F00040140C5
:100A50000000111000100240000001400008014099
:100A6000000C01400010014000140140C2680A421D
:100A700001D04161704701617047002A01D00161D6
:100A800070470904016170470148806870470000A1
:100A90000C06002070B50446002C04D094F83D00EC
:100AA000002510B106E0012070BD84F83C502046BE
:100AB00000F05EFB242084F83D002068016821F0EE
:100AC0000101016000F0BEFD4F4B6168994203D8FF
:100AD0004E49884203D304E04D49884201D20120A7
:100AE00070BD4C49B0FBF1F12268566826F03F0614
:100AF0000E43566062689A4201D8491C07E04FF4E1
:100B0000967251434FF47A72B1FBF2F1491C22689C
:100B1000166A26F03F06314311626168994210D887
:100B20004900401EB0FBF1F2521CC2F30B02042A32
:100B300001D2042022E0B0FBF1F0401CC0F30B0016
:100B40001CE0A268F2B301EBC10303EB0116431EE4
:100B5000B3FBF6F35B1C43F480431B0549D092B30F
:100B600001EBC10202EB0111401EB0FBF1F0401C91
:100B7000C0F30B0040F4804040F400402168CA6993
:100B80004CF6FF739A431043C861D4E90710014340
:100B90002068026822F0C00211430160D4E9030119
:100BA00001432068826848F2FF339A431143816011
:100BB000D4E9051001432068C26822F0FF02114306
:100BC000C16001E00EE016E02068016841F001011B
:100BD00001602564202084F83D00256384F83E50A0
:100BE000002070BD01EB4106431EB3FBF6F35B1C16
:100BF000B3E70120C2E701EB4101401EB0FBF1F079
:100C0000401CC0F30B00B7E7A086010080841E00E3
:100C100000093D0040420F002DE9FF4F81B004461E
:100C20008B461F46FFF730FF0546012694F83D002E
:100C3000202803D0022005B0BDE8F08F192301223F
:100C40004E492046009501F04AFD08B10220F2E726
:100C500094F83C00012807D0012084F83C0020686B
:100C60000168C90702D005E00220E4E7016841F00D
:100C7000010101602068016821F400610160242005
:100C800084F83D004FF0000AC4F840A03C48E06200
:100C90004FF020092068016841F4807101603B46F3
:100CA00000224FF001112046009501F018FD08B117
:100CB0000120C0E721680BF0FE000861FFF7E4FEA9
:100CC000054620684169C1F340014069C0F38020B6
:100CD0004FF0A0080EE0FFF7D7FE401BB84200D847
:100CE0000FB984F83D8020684169C1F34001406933
:100CF000C0F3802094F83D20A02A02D009B9002832
:100D0000E9D084F83D9020684169C943890718D427
:100D10002168096841F400710160206841698069B7
:100D200000901923012215492046009501F0D7FCB7
:100D300008B101207FE784F83D9084F83CA00020B2
:100D400079E7016841F40071016021686FF4806007
:100D500048611923012209492046009501F0BFFC92
:100D600008B1012067E7761C0398864292D384F885
:100D70003D9084F83CA001205DE7000002001000D7
:100D80000000FFFF2DE9F84F04468A4615469946B4
:100D9000DDF82880FFF778FE064694F83D0020280D
:100DA00002D00220BDE8F88F1923012245492046D0
:100DB000009601F094FC08B10220F3E794F83C009F
:100DC000012807D0012084F83C0020680168C90789
:100DD00002D005E00220E5E7016841F00101016071
:100DE0002068016821F400610160212084F83D0041
:100DF000102084F83E00002727646562A4F82A903A
:100E0000608D20853048E062334642465146204698
:100E100001F05AFB08B10120C4E7206841698069EC
:100E200000903EE032464146204601F01FFD48B1A9
:100E3000206C042804D12068016841F4007101602D
:100E40000120AFE7606A216800780861656A6D1C5F
:100E50006562608D401E6085208D401E80B22085B9
:100E600022685169C94349070BD450B128781061F1
:100E7000606A401C6062608D401E6085208D401E4F
:100E8000208532464146204601F002FC48B1206CE4
:100E9000042804D12068016841F400710160012038
:100EA00080E7208D0028BDD11F3454F81F0C016845
:100EB00041F4007101602020A077E7776777002078
:100EC00070E70000020010000000FFFF2DE9FF4F57
:100ED00083B00446DDE911988A469346109FFFF7D8
:100EE000D3FD054694F83D00202803D0022007B02A
:100EF000BDE8F08F192301229A492046009501F0A0
:100F0000EEFB08B10220F2E794F83C00012807D07C
:100F1000012084F83C0020680168C90702D005E080
:100F20000220E4E7016841F00101016020680168E6
:100F300021F400610160222084F83D00402084F803
:100F40003E00002626646762A4F82A90608D208502
:100F50008548E062CDE900855A4651462046069B09
:100F600001F004FB08B10120C1E7208D70B1012818
:100F700015D0022823D02068016841F48061016007
:100F80002068416980690290784FDFE020684169FC
:100F900081690291016841F400710160F4E7206801
:100FA000016821F48061016072B62068416981693D
:100FB0000291016841F40071016062B6E4E72068C3
:100FC000016841F40061016072B62068416981697D
:100FD0000291016821F48061016062B6D4E70328C0
:100FE0007ED801280BD002281FD043460022394664
:100FF0002046009501F073FBF0B3012077E72A4605
:101000004146204601F0FCFB08B101206FE7206853
:101010000069616A0870606A401C6062208D401E31
:101020002085608D401E608590E043460022394651
:101030002046009501F053FB08B1012057E772B636
:101040002068016841F40071016020680069616AEC
:101050000870606A401C6062218D491E2185618D87
:10106000491E618562B6216809690170606A401C89
:101070006062208D401E00E004E02085608D401EEF
:10108000608563E02068016821F48061016072B6C8
:1010900020680069616A0870606A401C6062208D87
:1010A000401E2085608D401E6085434600223946E3
:1010B0002046009501F013FB08B1012017E72068D6
:1010C000016841F40071016020680069616A08707C
:1010D000606A401C6062218D491E2185618D00E09F
:1010E0000FE0491E618562B6216809690170606A76
:1010F000401C6062208D401E2085608D401E6085F2
:1011000024E02A464146204601F07AFB08B101203E
:10111000EDE620680069616A0870606A401C6062E0
:10112000218D491E2185618D491E618521684A698D
:10113000D24352070AD409690170606A401C606298
:10114000208D401E2085608D401E6085208D0028EA
:101150007FF445AF20203C346070A67026700020DC
:10116000C5E60000020010000000FFFF04000100BF
:1011700010B586B000210291039104910591006899
:101180000F4988421AD10F4CA06940F00800A061B5
:10119000A06900F008000190C02002901220039086
:1011A0000320059002A90848FFF768FBE06940F4B6
:1011B0000010E061E06900F40010019006B010BD7D
:1011C0000054004000100240000C014002488168B9
:1011D00002781144816070470C06002010B5074862
:1011E000016841F010010160032000F077F8002051
:1011F00000F006F800F026F8002010BD00200240A4
:1012000070B504460D4D4FF47A712878B1FBF0F0BB
:101210000B490968B1FBF0F000F0FCFD08B10120BA
:1012200070BD102C07D200222146501E00F036F867
:101230006C60002070BD012070BD00000C06002015
:101240001806002008B50C48816941F00101816150
:10125000816901F001010091C16941F08051C161D2
:10126000C06900F0805000900449486820F0E060B8
:1012700040F00070486008BD0010024000000140CE
:10128000002809DB00F01F02012191404009800085
:1012900000F1E020C0F8001170470000F0B40D46E6
:1012A0000D4B1B68C3F30223C3F10704042C00D9C0
:1012B0000424191D072901D2002300E0DB1E0126AA
:1012C00006FA04F1491E294099409E40761E1640B8
:1012D0003143F0BC01F00CBF0CED00E000F0070161
:1012E000054A10684FF6FF03184040EA0120034901
:1012F00008431060704700000CED00E00000FA05A4
:10130000014901200862704700000E4210B586B006
:1013100001462AA090E81C00C068CDE9033402927F
:1013200005902AA0006801900020294C012922D0B4
:10133000022939D010291CD161682268D20118D540
:1013400002A8C1F38342805CC90309D5616801AA80
:10135000C1F34041515C1F4AB2FBF1F1484301E047
:101360001C4948436168490203D440000321B0FB93
:10137000F1F006B010BD216AC1F30122012A03D1A8
:10138000890701D5D003F4E7022A05D1616A8907EC
:1013900002D549F64040ECE7032AEAD121688903E7
:1013A000E7D547F61220E4E700F05CF96168C1F385
:1013B0008131491C4900B0FBF1F0DAE70203040572
:1013C000060708090A0B0C0D0E0F10100102000091
:1013D0000010024000093D002DE9F8430446DFF803
:1013E000F8802078C0075FD00027D8F81C00C00024
:1013F0000BD4D8F81C0040F08050C8F81C00D8F876
:101400001C0000F0805000900127344D2868C00572
:1014100012D4286840F480702860FFF735FB064638
:1014200007E0FFF731FB801B642802D90320BDE8E9
:10143000F8832868C005F4D5D8F8200000F440707F
:1014400010B3A18801F4407181421DD0D8F820006A
:1014500020F44070224901220A6000220A60C8F884
:101460002000C00710D0FFF70FFB054641F2883679
:1014700006E0FFF709FB401BB04201D90320D6E785
:10148000D8F820008007F4D5D8F82000616820F44F
:1014900040700843C8F82000012F05D1D8F81C007F
:1014A00020F08050C8F81C002078800707D5D8F8B5
:1014B0000400A16820F440400843C8F804002078E4
:1014C000C00607D5D8F80400E16820F4800008437E
:1014D000C8F804000020AAE7001002400070004095
:1014E000400442422DE9F04704460D46002C17D037
:1014F000DFF83081D8F8000000F00700A84211D2D0
:10150000D8F8000020F007002843C8F80000D8F8F9
:10151000000000F00700A84204D00120BDE8F087D9
:101520000120FBE72068404E810712D5400703D514
:10153000706840F4E06070602078000703D5706840
:1015400040F4605070607068A16820F0F0000843BB
:1015500070602078C0072CD06068012806D002286F
:1015600009D0316889070BD40120D7E73168890396
:1015700006D40120D2E73168890101D40120CDE7EA
:10158000716821F0030101437160FFF77DFA07469E
:1015900041F2883906E0FFF777FAC01B484501D9C8
:1015A0000320BBE77068616800F00C00B0EB810FAE
:1015B000F1D1D8F8000000F00700A8420ED9D8F801
:1015C000000020F007002843C8F80000D8F8000009
:1015D00000F00700A84201D001209FE720784007D3
:1015E00005D57068E16820F4E060084370602078F9
:1015F000000706D57068216920F4605040EAC100F8
:10160000706000F03FF87168084AC1F30311515C43
:10161000C8400749086007480068FFF7F1FD00204F
:101620007CE700000020024000100240D049000882
:1016300018060020100600200148006870470000CE
:101640001806002000B5FFF7F7FF04494968044A6F
:10165000C1F30221515CC84000BD000000100240EF
:10166000E049000800B5FFF7E7FF04494968044A6C
:10167000C1F3C221515CC84000BD0000001002400F
:10168000E049000885B015A090E80E00C068CDE9DB
:1016900002230191049015A000680090144A51683B
:1016A00001F00C00042804D0082804D0114805B02B
:1016B00070471148FBE701A8C1F38343C05CC9032D
:1016C00009D55168C1F340411DF801100A4A504341
:1016D000B0FBF1F0EBE708494843E8E702030405F3
:1016E000060708090A0B0C0D0E0F1010010200006E
:1016F0000010024000127A0000093D002DE9F84F69
:101700000446002C0ED02078D94DC0075ED0686802
:10171000C0F3810001280BD06868C0F38100022863
:1017200003D00CE00120BDE8F88F6868C00306D53F
:10173000286880034AD56068A8BB0120F3E7606889
:10174000B0F5803F11D0A8B1B0F5A02F1BD028680C
:1017500020F480302860286820F4802028606068A9
:1017600030B3FFF791F906461EE0286840F4803058
:101770002860F4E7286820F480302860286820F486
:1017800080202860EBE7286840F4802028602868E3
:1017900040F480302860E2E7FFF776F9801B642888
:1017A00002D90320BFE711E028688003F4D50DE0DB
:1017B000FFF76AF9064606E0FFF766F9801B642822
:1017C00001D90320AFE728688003F5D42078DFF83B
:1017D000A48280074FF0010A4FF0000945D56868E0
:1017E00010F00C0F07D06868C0F38100022812D1F6
:1017F0006868C0030FD42868800704D520690128D1
:1018000001D001208FE72868616920F0F80040EAE4
:10181000C100286029E02069B8B1C8F800A0FFF72E
:1018200033F9064606E0FFF72FF9801B022801D99D
:10183000032078E728688007F5D52868616920F0DB
:10184000F80040EAC10028600FE0C8F80090FFF7F8
:101850001BF9064606E0FFF717F9801B022801D99D
:10186000032060E728688007F5D42078000726D594
:101870008148A16999B1C0F800A0FFF705F90646B3
:1018800006E0FFF701F9801B022801D903204AE78F
:10189000686A8007F5D5012001F08CF90FE0C0F8E7
:1018A0000090FFF7F1F8064606E0FFF7EDF8801B21
:1018B000022801D9032036E7686A8007F5D420782A
:1018C000400773D50026E869C00008D4E86940F0F5
:1018D0008050E861E86900F0805000900126DFF850
:1018E0009CB1DBF80000C00514D4DBF8000040F424
:1018F0008070CBF80000FFF7C7F8074606E0FFF757
:10190000C3F8C01B642801D903200CE7DBF80000F2
:10191000C005F4D5E068012812D0B0B105281DD06B
:10192000286A20F001002862286A20F0040028625A
:10193000E06841F2883B28B3FFF7A6F807461DE0B0
:10194000286A40F001002862F2E7286A20F00100CE
:101950002862286A20F004002862E9E7286A40F03B
:1019600004002862286A40F001002862E0E7FFF7DF
:101970008BF8C01B584501D90320D4E6286A80079C
:10198000F5D50DE0FFF780F8074606E0FFF77CF895
:10199000C01B584501D90320C5E6286A8007F5D445
:1019A000012E03D1E86920F08050E861E069A0B31E
:1019B0006968C1F38101022946D0022805D0C8F820
:1019C0006090FFF761F804463AE0C8F86090FFF7CE
:1019D0005BF8064606E0FFF757F8801B022801D99E
:1019E0000320A0E628688001F5D4206AB0F5803F86
:1019F00005D16868A16820F4003008436860D4E924
:101A000008010843696821F4741108436860C8F844
:101A100060A0FFF739F8044607E026E0FFF734F846
:101A2000001B022801D903207DE628688001F5D536
:101A30001BE0FFF729F8001B022801D9032072E6FA
:101A400028688001F5D410E001280CD06868226A6B
:101A500000F48031914204D1616A00F47010884230
:101A600003D001205FE601205DE600205BE6000078
:101A700000100240000042428004424200700040D8
:101A800070B50446002C03D0607C002610B105E040
:101A9000012070BD2674204600F04CF802206074CE
:101AA000204600F061F8042510B16574012070BD76
:101AB000204601F091F810B16574012070BD2068D6
:101AC000416821F007014160A06820B11848016811
:101AD00021F0010101601648001F0168A26821F48D
:101AE0006071114301606068411C04D10120FFF75F
:101AF0000DFC98B1401E21688A6822F00F0242EA6C
:101B000010428A602168CA6860F30F02CA602046EA
:101B100001F07CF828B16574012070BD6574012066
:101B200070BDE67301206073A0736074002070BD07
:101B3000306C004008B50068084988420DD1FFF7B5
:101B4000DFFB0748C16941F00061C161C06900F075
:101B50000060009003490120086008BD0028004093
:101B6000001002403C04424270B50446002C0AD0EA
:101B70002068416821F008014160FEF785FF0546B5
:101B80004FF47A7608E0012070BDFEF77DFF401B20
:101B9000B04201D9032070BD206840680007F4D529
:101BA000002070BD70B50446002C05D00025A5624C
:101BB00094F8510010B106E0012070BD84F8505037
:101BC000204600F02FF8022084F8510020680168B8
:101BD00021F040010160D4E901010843D4E9031276
:101BE0001143084361690843218B01F400710843E4
:101BF000E1690843216A0843A16A08432168086033
:101C0000A069042101EA1040216848602068C16988
:101C100021F40061C1616565012084F85100002054
:101C200070BD000030B585B0002401940294039487
:101C3000049400681449884223D11448816941F40E
:101C400080518161816901F480510091816941F085
:101C500004018161806900F004000090A0200190DF
:101C60000220029003200490094D01A92846FEF7A6
:101C700005FE402101910294039401A92846FEF734
:101C8000FDFD05B030BD00000030014000100240F5
:101C9000000801402DE9F84F04468B4692461D4648
:101CA000002694F8500001280DD04FF0010984F867
:101CB0005090FEF7E9FE074694F85100B04601281F
:101CC00004D00226A0E00220BDE8F88FBBF1000F8F
:101CD0001CD05FEA0A0019D0032084F85100C4F830
:101CE0005480C4F830B0A4F834A0A4F836A0C4F8E6
:101CF0003880A4F83C80A4F83E80C4F84480C4F83E
:101D00004080A068B0F5004F02D006E001267BE0DD
:101D10002068016841F4804101602068016849063B
:101D200003D4016841F040010160E068B0F5006F44
:101D300005D0606878B3BAF1010F2DD04DE060682E
:101D400010B1BAF1010F20D1206B21680088C86062
:101D5000206B801C2063E08E401EE08615E020682A
:101D60008168890709D5216B0988C160206B801CB7
:101D70002063E08E401EE08607E0FEF785FEC01B74
:101D8000A84201D3681C04D11DB1E08E0028E6D121
:101D900026E0032638E0FFE7206B2168007808730F
:101DA000206B401C2063E08E401EE08615E020681A
:101DB0008168890709D5216B09780173206B401C64
:101DC0002063E08E401EE08607E0FEF75DFEC01B4C
:101DD000A84201D3681C0ED16DB1E08E0028E6D177
:101DE0003A462946204600F02BFF08B120206065C6
:101DF000A06810B105E0032606E02068C16880688D
:101E00000090606D00B1012684F8519084F85080F4
:101E1000304659E710B5401EB0F1807F01D3012054
:101E200010BD4FF0E02460610F21601701F060F9F0
:101E30000020A06107202061002010BD704770477E
:101E400010B590F83C20012A22D0012280F83C20D5
:101E5000CA6800238C6822F4407222434C6822F442
:101E6000806222430C6822F4006222430C6922F44F
:101E7000805222434C6922F400522243C96922F461
:101E800080420A4301684A6480F83C30002010BD5B
:101E9000022010BD70B590F83C20012A19D001260F
:101EA00000F83C6F0222427050F83C2C5468936852
:101EB00024F070050C682C4323F080034968194313
:101EC000546050F83C2C9160467000210170002055
:101ED00070BD022070BD0168CA6842F00102CA608C
:101EE0000068816801F00701062903D0016841F00C
:101EF0000101016000207047704770B504462068FA
:101F000001694FF00005C943890716D4C168C94368
:101F1000890712D4E91E01610120207720688069B9
:101F2000800703D02046FFF7E7FF05E0204600F0DA
:101F3000FDF8204600F0EEF9257720680169C943D5
:101F4000490718D4C168C943490714D46FF0040184
:101F50000161022020772068806910F4407F03D05F
:101F60002046FFF7C9FF05E0204600F0DFF82046D5
:101F700000F0D0F9257720680169C943090717D413
:101F8000C168C943090713D46FF008010161042037
:101F900020772068C069800703D02046FFF7ACFF98
:101FA00005E0204600F0C2F8204600F0B3F925779E
:101FB00020680169C943C90618D4C168C943C90664
:101FC00014D46FF010010161082020772068C069E7
:101FD00010F4407F03D02046FFF78EFF05E0204637
:101FE00000F0A4F8204600F095F9257720680169F3
:101FF000C943C90708D1C168C943C90704D1891EAB
:102000000161204600F088F920680169C94309068A
:1020100009D4C168C943090605D46FF08001016184
:102020002046FFF70BFF20680169C943490609D420
:10203000C168C943490605D46FF0400101612046DB
:1020400000F0BEF920680169C94389060BD4C16854
:10205000C943890607D46FF0200101612046BDE81D
:102060007040FFF7ECBE70BD10B586B00021029144
:10207000039104910591154C0168154B02221548F6
:10208000A14210D1996941F004019961996901F067
:1020900004010191C11402910392059202A9FEF775
:1020A000EDFB06B010BDB1F1804FFAD1996941F056
:1020B00004019961996901F004010191029203926E
:1020C000059202A9FEF7DAFBEBE70000002C0140C5
:1020D000001002400008014070B5044694F83C002E
:1020E00001280DD0012584F83C50022084F83D00E1
:1020F00042B1042A0AD0082A0CD00C2A11D10DE0D2
:10210000022070BD206800F09FFE0AE0206800F009
:10211000CBFE06E0206800F0F9FE02E0206800F047
:1021200025FF3C3465700020207070BD704710B5ED
:102130000446002C03D094F83D0010B107E00120C4
:1021400010BD002084F83C00204600F00DF802206D
:1021500084F83D00211D206800F032FE012084F843
:102160003D00002010BD000008B50068B0F1804FB0
:1021700008D10548C16941F00101C161C06900F0A1
:102180000100009008BD00000010024010B5044698
:102190000122206800F04AFE09492068884203D1E4
:1021A000416C41F4004141642068816801F00701FD
:1021B000062903D0016841F001010160002010BD33
:1021C000002C014070B504460D4694F83C000128EF
:1021D0000DD0012684F83C60022084F83D0042B115
:1021E000042A1AD0082A2DD00C2A53D13EE002200E
:1021F00070BD2946206800F027FE2068816941F003
:10220000080181612068816921F0040181612068F1
:1022100081692A69114381613CE02946206800F008
:1022200043FE2068816941F4006181612068816911
:1022300021F480618161206881692A6941EA022173
:10224000816127E02946206800F060FE2068C169AE
:1022500041F00801C1612068C16921F00401C16138
:102260002068C1692A691143C16113E029462068C9
:1022700000F07CFE2068C16941F40061C161206802
:10228000C16921F48061C1612068C1692A6941EA9C
:102290000221C1613C3466700020207070BD10B511
:1022A0000446002C03D094F83D0010B107E0012053
:1022B00010BD002084F83C00204600F00DF80220FC
:1022C00084F83D00211D206800F07AFD012084F88B
:1022D0003D00002010BD000008B500680B49884291
:1022E00012D10B48816941F400618161806900F479
:1022F00000600090002211461920FEF7CFFFBDE8D4
:1023000008401920FEF7BCBF08BD0000002C0140AA
:10231000001002407047000070B5264C264D204644
:10232000217940794FF4807600292CD002F09EFA72
:10233000D4E9060102F0EAFA0A234FF490721F482A
:10234000E169FFF7A7FC012231462846FEF795FB1D
:10235000012210212846FEF790FB0122521C92B266
:102360000F2AFBD3002210212846FEF786FB00220D
:1023700031462846FEF781FB00202071607901F08C
:1023800035FB607170BD02F071FA012231462846BA
:10239000FEF773FB0122521C92B20F2AFBD30022DC
:1023A00031462846FEF769FB607901F01FFB60713A
:1023B00070BD0000000000200008014084060020DD
:1023C000704770B50446002C04D094F839000025FD
:1023D00010B106E0012070BD84F83850204600F0AE
:1023E00023F8242084F839002068C16821F40051C2
:1023F000C160204600F0DEFD2068016921F49041B3
:1024000001612068416921F02A0141612068C168A9
:1024100041F40051C160E563202084F8390084F85C
:102420003A00002070BD000030B585B00024019452
:1024300002940394049400681449884224D11448F7
:10244000816941F480418161816901F48041009199
:10245000816941F004018161806900F0040000900D
:102460004FF4007001900220029003200490094D67
:1024700001A92846FEF702FA291501910294039456
:1024800001A92846FEF7FAF905B030BD0038014031
:102490000010024000080140704701684A69D243B9
:1024A00052050FD46FF480624A61002140F8301F5A
:1024B000202242738173026942F0040202610173B7
:1024C0000120704700207047F8B504460D461746B6
:1024D0001E46E06A082808D0012806D010F5803F83
:1024E00003D0206B122806D00AE02068016841F46E
:1024F0008071016004E02068016841F4807101602E
:102500003B4600224FF001112046009600F0E7F80C
:1025100008B10120F8BD2069B0F5804F0FD005F457
:102520004070F02141EAD0102168086133463A46F4
:102530000D49204600F010F930B10120F8BD2168A6
:1025400005F0FE00086102E02168E8B20861064972
:1025500033463A46891F204600F0FEF808B10120B4
:10256000F8BD0020F8BD0000080001002DE9F84F7B
:102570000446DDE90AB60F4690461D46206801680C
:1025800041F4806101602068016841F4807101605C
:102590004FF001195B46002249462046009600F0A4
:1025A0009EF810B10120BDE8F88F216807F0FE0009
:1025B0000861DFF8D8A033465A465146204600F05D
:1025C000CBF808B10120EEE72068416980690090EE
:1025D00032465946204600F049F948B1206C04289B
:1025E00004D12068016841F4007101600120DAE73C
:1025F000284608F0FF0501280DD021684FEA182071
:10260000086132465946204600F030F968B1206C26
:10261000042803D007E02068056108E0206801680D
:1026200041F4007101600120BDE720680561324678
:102630005946204600F01AF948B1206C042804D10C
:102640002068016841F4007101600120ABE7206857
:10265000016841F4807101605B46002249462046D2
:10266000009600F03CF808B101209CE72168F8B220
:1026700040F00100086133465A465146204600F0BA
:102680006BF808B101208EE700208CE70200010002
:1026900070B504460D4616460DE02046FFF7FDFED8
:1026A00008B1012070BD681C05D0FEF7EDF9801B54
:1026B000A84207D835B120684069C0434007ECD430
:1026C000002070BD002044F8300F20216173A073FA
:1026D000216941F0200121612073012070BD2DE9A5
:1026E000F0470446DDF820900E4690461D46C6F39E
:1026F000074708E0681C06D0FEF7C6F9A0EB090002
:10270000A8420FD875B1012F19D02068806926EA38
:1027100000000004000C1DD000204045EAD000203D
:10272000BDE8F087002044F8300F20216173A073CA
:10273000216941F02001216120730120F0E7206828
:10274000406926EA00000004000C01D00020E4E704
:102750000120E2E70120E0E72DE9F04704460E46BC
:10276000154698464FF000094FF0200AC6F3074778
:1027700025E020684069C043400517D420680168FF
:1027800041F40071016021686FF480604861C4F811
:10279000309084F83DA084F83E90206C40F0040016
:1027A000206484F83C900120BDE8F087681C06D0C6
:1027B000FEF76AF9A0EB0800A8420BD855B1012F2B
:1027C00016D02068806926EA00000004000CD0D1F1
:1027D0000020E9E7C4F8309084F83DA084F83E90EA
:1027E000206C40F02000206484F83C900120DBE75E
:1027F0002068406926EA00000004000CE8D0B8E731
:102800002DE9F04104460D46164600274FF02008FA
:1028100019E04069C043C0060FD421686FF0100072
:102820004861276384F83D8084F83E70206C206402
:1028300084F83C700120BDE8F081FEF725F9801B8B
:10284000A84207D835B120684169C9434906E0D498
:102850000020F0E744F8307F84F80D80A7732069EA
:1028600040F02000206127730120E4E770B50446A2
:102870000D4616460DE02046FFF70FFE08B1012079
:1028800070BD681C05D0FEF7FFF8801BA84207D872
:1028900035B120684069C0430006ECD4002070BD0B
:1028A000002044F8300F20216173A073216941F0AA
:1028B000200121612073012070BD00002DE9F0434B
:1028C00085B00024019402940394049434488169EF
:1028D00041F010018161816901F01001009181696D
:1028E00041F020018161816901F02001009181693D
:1028F00041F004018161816901F004010091816965
:1029000041F008018161806900F008000090DFF863
:10291000948048F21015002229464046FEF7ADF893
:10292000DFF884904FF60377002239464846FEF7D9
:10293000A4F801950125029503940226049601A9A5
:102940004046FDF79BFF019702950394049601A969
:102950004846FDF793FF082001900294039501A9D2
:102960004846FDF78BFF30200190104802900394F9
:1029700001A94846FDF782FF002202210A20FEF746
:102980008DFC0A20FEF77CFC002202211720FEF7B6
:1029900085FC1720FEF774FC05B0BDE8F08300004D
:1029A0000010024000080140000C0140000021100E
:1029B00010B50D480B4901600C4941600021816050
:1029C000C1604FF48042026141618161C161016275
:1029D000FEF760F8002803D0BDE81040FDF79FBE69
:1029E00010BD0000005400401C060020A08601001D
:1029F00010B50A48084901604FF0FF3141604FF4BB
:102A000080718160FFF73CF8002803D0BDE81040DA
:102A1000FDF785BE10BD00000028004070060020B4
:102A200010B50F480D4901604FF4827141600021DB
:102A30008160C160016141614FF400728261C161D6
:102A40000162416281620A21C162FFF7ABF800288E
:102A500003D0BDE81040FDF762BE10BD003001405C
:102A60008406002010B592B00024109411941C210B
:102A700009A8FDF780FB202101A8FDF77CFB214878
:102A80001F4901604460846043F6FF71C1600461C6
:102A900044618461FFF703FC08B1FDF740FE20208C
:102AA0001090119410A91748FFF7F4F908B1FDF739
:102AB00036FE602009900A940B940D940E940F94A6
:102AC0000C2209A90F48FFF77DFB08B1FDF727FE8F
:102AD000019402940394049405944FF400500690DA
:102AE000089401A90748FFF7ABF908B1FDF717FEF5
:102AF000702009900348FFF7B7FA12B010BD00002C
:102B0000002C0140DC06002030B589B00024079479
:102B100008941C216846FDF72EFB15484FF08041B4
:102B20000160446084600125C56004618461FFF731
:102B3000FEFA08B1FDF7F3FD0794089407A90C48C5
:102B4000FFF7A8F908B1FDF7EAFD302000900195E4
:102B500002940494042269460548FFF7BDFA08B1BF
:102B6000FDF7DDFD01950248FFF77EFA09B030BDA3
:102B70001C07002010B50C480A4901604FF4E131F0
:102B8000416000218160C16001610C22426181616C
:102B9000C161FFF716FC002803D0BDE81040FDF727
:102BA000BEBD10BD003801405C070020FEE7704745
:102BB0007047000008B507494FF4FA520968B1FBA5
:102BC000F2F14143009100BF0098411E0091FAD2FA
:102BD00008BD00001806002070B50546FDF754FF3B
:102BE00004464FF47A7606E0FDF74EFF001BB04234
:102BF00001D9032070BD286840688006F4D5286894
:102C0000416841F010014160002070BD70B505467B
:102C10002868416821F010014160FDF735FF044646
:102C20004FF47A7606E0FDF72FFF001BB04201D982
:102C3000032070BD286840688006F4D5002070BD70
:102C400038B504460B46009200228021204600F051
:102C500009F828B1606D40F020006065032038BDA0
:102C6000002038BD2DE9F04104460E4617461D46AA
:102C7000DDF8188008E0681C06D0FDF705FFA0EB22
:102C80000800A8420BD255B12068806836EA0000DF
:102C90002FD00020B842EED10020BDE8F08120689E
:102CA000416821F0E00141606068B0F5827F0BD19E
:102CB000A068B0F5004F02D0B0F5806F04D1206855
:102CC000016821F040010160A06AB0F5005F09D100
:102CD0002068016821F4005101602068016841F416
:102CE00000510160012050346070002020700320EA
:102CF000D3E70120CEE77047FEF768BA30B593B04E
:102D0000282109A8FDF737FA142104A8FDF733FAA2
:102D100000240094019402940394052009904FF438
:102D200080300A9001250C95109409A8FEF7E6FC66
:102D300008B1FDF7F4FC0F20049005950694079464
:102D40000894002104A8FEF7CDFB08B1FDF7E7FCCD
:102D500000954FF4807001906846FEF73DFB002817
:102D600001D0FDF7DCFC13B030BD00000D48016858
:102D700041F00101016041680B4A11404160016866
:102D80000A4A11400160016821F480210160416814
:102D900021F4FE0141604FF41F0181600449C0032A
:102DA00008607047001002400000FFF8FFFFF6FEC9
:102DB00008ED00E00148FFF7A0B80000DC060020A5
:102DC000F0B50268164C174D174E4FF08047A042E1
:102DD00005D0B84203D0A84201D0B04203D122F0BE
:102DE00070034A681A43A04205D0B84203D0A842F3
:102DF00001D0B04203D122F44073CA681A434B6930
:102E000022F080021A4302608A68C2620A68826203
:102E1000A04201D10969016301214161F0BD0000B7
:102E2000002C0140000400400008004010B501F0F3
:102E30001F0101238B40046A9C430462036A8A4099
:102E40001343036210BD000030B5026A22F0010294
:102E50000262036A4268846924F0700424F0030566
:102E60000C682C4323F002058B682B430D4DA842C0
:102E700006D123F00805CB6843EA050323F00403D9
:102E800009D122F4807222F400724D6945EA0205EC
:102E90008A6942EA050242608461496841630362CB
:102EA00030BD0000002C014030B5026A22F0100253
:102EB0000262036A4268846924F4E04424F44074A2
:102EC0000D6844EA052423F020038D6843EA0513C6
:102ED0000D4DA84206D123F08003CD6843EA0513C7
:102EE00023F0400309D122F4806222F400624D698C
:102EF00042EA85028D6942EA85024260846149683E
:102F00008163036230BD0000002C014030B5026ACD
:102F100022F480720262036A4268C46924F0700479
:102F200024F003050C682C4323F400738D6843EAF6
:102F300005230D4DA84206D123F40063CD6843EA72
:102F4000052323F4806309D122F4805222F4005235
:102F50004D6942EA05128D6942EA05124260C46178
:102F60004968C163036230BD002C014030B5026A7C
:102F700022F480520262036A4268C46924F4E04485
:102F800024F440740D6844EA052423F400538D684A
:102F900043EA0533064DA84204D122F480424D692C
:102FA00042EA85124260C46149680164036230BD2F
:102FB000002C01402DE9F041044620680169E268D7
:102FC00021F4405111430161A16820690143606906
:102FD00001432068C26841F20C639A430A43C2600D
:102FE00020684169A26921F440711143416135496A
:102FF000206864253226884232D1FEF733FB00EB8D
:10300000C00101EB001061686FF018078900B0FB88
:10301000F1F2B2FBF5F2B0FBF1F37A4303EB82027B
:10302000B0FBF1F306EB0212B2FBF5F2B3FBF5F3E2
:1030300002F0F00202EB0312B0FBF1F3B0FBF1F08F
:10304000B0FBF5F0784303EB800006EB0010B0FB1B
:10305000F5F0216800F00F0010448860BDE8F081B1
:10306000FEF7F0FA00EBC00101EB001061686FF0B1
:1030700018078900B0FBF1F2B2FBF5F2B0FBF1F3F7
:103080007A4303EB8202B0FBF1F306EB0212B2FBD0
:10309000F5F2B3FBF5F302F0F00202EB0312B0FB22
:1030A000F1F3B0FBF1F0B0FBF5F0784303EB8000F7
:1030B00006EB0010B0FBF5F0216800F00F001044A3
:1030C0008860CBE700380140FEE7000037B51446C2
:1030D0000846064B6A46214600F0ECF8044669466D
:1030E000002000F07EFC20463EBD0000E3390008D1
:1030F0000907090E002804DB00F1E02080F8001425
:10310000704700F00F0000F1E02080F8141D7047B8
:1031100002E008C8121F08C1002AFAD170477047A0
:10312000002001E001C1121F002AFBD170470000FE
:103130002DE9FF5F82B00021DDE90430020DDDF8EA
:1031400040B0034318D044F61050A2F2FF3242437D
:103150001514119801281FD0A5EB0B00401C5FEA45
:10316000000A4FF000064E4FDFF83891B046504647
:1031700015D5CAF1000413E0119801244AA30128CF
:1031800001D16FEA0B010298119AC0E90031C0E940
:10319000024206B0BDE8F09FCBF10000DFE7044635
:1031A0000021404A491842EB0450CDE9001012E0DA
:1031B000E00707D032463B4640464946FDF7DBF87C
:1031C0008046894632463B4610461946FDF7D3F8FD
:1031D00006460F466410002CEAD1DDE90401DDE962
:1031E0000023BAF1000F06DAFDF7C5F842464B4658
:1031F000FDF7C1F805E0FDF730F942464B46FDF713
:103200002CF904460E460022284BFDF7ADF903D8F1
:103210004FF0FF30014607E00022254B20463146A3
:10322000FDF702F8FDF788F9102409E0002C0ADB0D
:103230000A220023FCF7C7FF039B30321A55641E95
:1032400050EA0102F2D1641C039AC4F11103144440
:10325000119A012A03D0012208430DD10AE0084344
:1032600004D000204FF0110B119072E7A3EB0B0577
:103270006D1E0DE05B4504DD4FF0000205F1010518
:1032800004E003DA4FF00002A5F10105002AECD0BA
:1032900002981199C0E90231C0E9004579E70000C0
:1032A000000014400000F03F300000000000F04338
:1032B0000000E03F2DE9FF4F95B09B46894606464A
:1032C00000250FE2252877D100242746F84A01215E
:1032D000059400E0044316F8013F203B01FA03F097
:1032E0001042F7D130782A2811D06FF02F033078B0
:1032F000A0F13002092A16D8059A44F0020402EB24
:10330000820203EB42021044761C0590EFE759F865
:10331000042B0592002A03DA504244F4005405902D
:1033200044F00204761C30782E2816D116F8010FCE
:1033300044F004042A280DD06FF02F023078A0F159
:103340003003092B09D807EB870302EB4303C718A7
:10335000761CF3E759F8047B761C30786C280FD084
:1033600006DC4C2817D068280DD06A2814D104E058
:10337000742810D07A280FD10DE044F400140AE02C
:1033800044F4801401E044F440147278824202D183
:1033900004F58014761C761C307866280BD013DC7C
:1033A000582877D009DC002875D04528F6D0462863
:1033B000F4D047281AD19DE118E0632835D064285D
:1033C00079D0652812D195E1702873D008DC672880
:1033D000F1D069286FD06E280DD06F2806D1B5E0E6
:1033E00073282CD0752875D0782874D05A46179930
:1033F00090476D1C75E1C4F30250022809D00328E0
:103400000DD0D9F8001004280DD00D6009F1040981
:1034100067E1D9F80010EA17C1E90052F6E7D9F8D8
:1034200000100D80F2E70D70F0E719F8041B8DF81D
:10343000001000208DF80100EA46012003E059F851
:1034400004AB4FF0FF3061074FF0000102D40DE0F4
:1034500008F101018846B9420FDA8045F8DB1AF815
:1034600008100029F4D108E008F1010188468142E2
:10347000FADB1AF808100029F6D105985B46A0EB94
:10348000080721463846179A00F094FA284400EBC2
:10349000080507E04DE029E10DE01AF8010B5A4656
:1034A00017999047B8F10108F7D25B462146384694
:1034B000179A13E142E00A220092C4F302524FF03D
:1034C000000A022A08D059F804CB032A4FEAEC710B
:1034D0000AD00DE029E02AE009F1070121F00702F6
:1034E000F2E802C1914609E00FFA8CFC4FEAEC7158
:1034F000042A03D14FFA8CFC4FEAEC71002907DA59
:103500000A460021DCF1000C61EB02012D2202E0F1
:10351000220504D52B228DF80420012203E0E207C6
:1035200001D02022F7E7904659E00A2102E010225C
:103530000DE010214FF0000A00910BE010224FF037
:10354000000A44F004040827009203E008224FF028
:10355000000A0092C4F30252022A05D059F804CBA3
:103560000021032A08D009E009F1070121F0070230
:10357000F2E802C1914605E01FFA8CFC042A01D151
:103580000CF0FF0C4FF00008220728D5702806D059
:10359000009B83F0100353EA0A0305D00EE040229B
:1035A0008DF80420012208E05CEA010206D03022F6
:1035B0008DF804208DF8050002229046009B83F0D0
:1035C000080353EA0A030AD15CEA010201D1620747
:1035D00005D530228DF804204FF001087F1E5828B1
:1035E00004D034A003900EA802900DE036A0F9E7B5
:1035F00053466046009AFCF7E6FD84460398825CD9
:103600000298401E029002705CEA0100F0D102981C
:1036100006A9081A00F1200A600702D524F48034B4
:1036200000E00127574502DDA7EB0A0000E000207B
:1036300000EB0A01009005984144401A0590E00310
:1036400006D45B462146179A059800F0B3F9054465
:10365000002706E001A85A46C05D179990476D1CE7
:103660007F1C4745F6DBE0030CD55B462146179AE5
:10367000059800F09FF9054404E030205A46179958
:1036800090476D1C0099481E00900029F5DC08E069
:10369000029802995A460078491C0291179990475E
:1036A0006D1CBAF10001AAF1010AF1DC65E100002C
:1036B0000928010030313233343536373839616208
:1036C00063646566000000003031323334353637CC
:1036D00038394142434445460000000000F058F9A3
:1036E0000544761C307800287FF4ECAD19B02846EC
:1036F000BDE8F08F620700D4062709F1070222F027
:10370000070CFCE80223E14603F000485FEA080CDE
:1037100002D00FF2702C0DE05FEA045C02D50FF2CC
:10372000682C07E05FEAC47C02D00FF2602C01E055
:10373000AFF2700C4FF0FF3823F00043CDF850C0CB
:1037400065280CD006DC452809D046281DD047281E
:103750003DD13DE0662818D067287ED138E00021B1
:10376000112F01DB112000E0781CCDE9000106A932
:103770000EA8FFF7DDFCDDE90F010E9A0391002191
:10378000009207F1010A04914DE04FF000400097CC
:10379000CDE9011006A90EA8FFF7CAFCDDE90F026A
:1037A00003920E9B11990022DDF80CA00093049265
:1037B00011B9791C00EB010AB7EB0A0004D4C0F17F
:1037C000FF3007F1010A0490AAEB0700019044E0E2
:1037D000012F00DA01270021112F01DD112000E067
:1037E0003846CDE9000106A90EA8FFF7A1FCDDE9E6
:1037F0000F010E9A0391002104910092BA4621070D
:103800000CD40399514500DA8A46BAF1010F05DD5F
:10381000009AAAF10101515C302908D0B84202DABD
:1038200010F1040F06DA0121CDE9011015E0AAF12B
:103830000101E9E7002805DC049901440491AAEBA1
:10384000000102E0411C514500DD8A460499401AFE
:10385000401C01904FF000400290200704D40198D2
:10386000504501DBCDF8048000208DF84F00029810
:103870000DF14F07B0F1004F25D02B200E9002988C
:103880004FF0020800280CDA404202902D200E90E2
:1038900007E00A210298FCF780FC3031029007F81B
:1038A000011DB8F10001A8F10108F2DC029800281E
:1038B000EFD1791E0E980870307800F0200040F0AB
:1038C000450007F8020D12A8C01B00F10708149864
:1038D000007800B1012000EB0A01019801EBE071D2
:1038E00005984144401A401E0590E00306D45B460B
:1038F0002146179A059800F05DF805441498007861
:1039000018B15A46179990476D1CE00324D55B46C1
:103910002146179A059800F04DF805441CE00498DC
:10392000002807DBDDE90301884203DD0098405CE5
:10393000179901E0179930205A469047049805F1ED
:103940000105401C04900198401E019004D12E20D6
:103950005A46179990476D1CBAF10001AAF1010A65
:10396000DDDC05E017F8010B5A46179990476D1CEE
:10397000B8F10001A8F10108F4DC5B462146179A72
:103980000598ABE62D0000002B0000002000000091
:103990002DE9F041044600251E461746880404D44C
:1039A00005E039462020B0476D1C641EF9D5284635
:1039B000BDE8F0812DE9F041044600251E46904601
:1039C000C80301D5302700E02027880404D505E08E
:1039D00041463846B0476D1C641EF9D52846BDE8FF
:1039E000F0810A68531C0B601070704770B5044674
:1039F0001D4D002C03D1A9152846FDF737F8012CE1
:103A000003D161022846FDF731F8022C03D161028F
:103A10002846FDF72BF8032C04D14FF4006128460B
:103A2000FDF724F8042C03D1A1022846FDF71EF867
:103A3000052C04D14FF400512846FDF717F8062C49
:103A400004D14FF480412846FDF710F8072C04D12B
:103A50004FF400412846FDF709F8641CA0B208287D
:103A600000D1002070BD0000000C01400FB42DE912
:103A7000F04FE1B0DDF844B3CF99CE980CB20A0410
:103A800042EA10410DB206B24FF00008C146C246EC
:103A900000274FF47A620FFA8BF0944201DB002486
:103AA0008046A4F1010C40F69F734FEA5B019C45F0
:103AB00001D200248846954201DB00258146A5F10C
:103AC000010C9C4501D200258946B6F57A6F01DBD1
:103AD00000268246701E984237D200268A4634E07D
:103AE000A1B2CD9A8A9800F0D9F9A9B2CD9AAB9833
:103AF00000F0D4F9B1B2CD9ACC9800F0CFF91748C4
:103B00004FF4BE72164980695F906846FCF71AFB55
:103B1000134810380FC800F099F9104801210171BD
:103B2000D298FCF7FDFDB7F57A6F02D10120FCF7C2
:103B3000F7FD07EB0B0007B204EB080004B205EB3E
:103B4000090005B206EB0A0006B2D0988742C7DD2D
:103B500061B0BDE8F00F5DF814FB0000000000202C
:103B6000AC0700200FB42DE9F04FE1B0DDF844B30D
:103B7000CF99CE980CB20A0442EA10410DB206B2B7
:103B80004FF00008C146C2464FF47A670FFA8BF037
:103B9000BC4201DB3C468046A4F1010C40F69F7319
:103BA0004FF4FA624FEA5B019C4501D21446884605
:103BB000BC46654501DB65468146A5F1010E9E4583
:103BC00001D215468946664501DB66468246701E6F
:103BD000984231D216468A462EE0A1B2CD9A8A98F2
:103BE00000F05CF9A9B2CD9AAB9800F057F9B1B2E8
:103BF000CD9ACC9800F052F913484FF4BE72134995
:103C000080695F906846FCF79DFA104810380FC82D
:103C100000F01CF90C4801210171D298FCF780FDDD
:103C2000A7EB0B0007B2A4EB080004B2A5EB090058
:103C300005B2A6EB0A0006B2D0988742CDDA61B091
:103C4000BDE8F00F5DF814FB00000020AC07002079
:103C50000021084600F0D8B80021012000F0D4B8B7
:103C60000021022000F0D0B80021032000F0CCB8E1
:103C700010B5012000F088F8BDE810400320FCF7E3
:103C80004FBD000070B504463220FCF749FD2A4DB7
:103C900020466C604FF4FA74234605224E21FCF74F
:103CA000BBFF58B1234605227E216868FCF7B4FFAC
:103CB00008B1002070BD7E20287001E04E202870E1
:103CC0002D20FCF72DFD302000F05EF80520FCF7DC
:103CD00027FD302000F058F80120FCF721FD3020AE
:103CE00000F052F80820FCF71BFD202000F04CF8F3
:103CF0000820FCF715FD282000F046F80120FCF70D
:103D00000FFD082000F040F80120FCF709FD01201C
:103D100000F03AF80320FCF703FD062000F034F829
:103D20000120FCF7FDFC0C2000F02EF80320FCF72E
:103D3000F7FC012070BD0000040600200FB430B570
:103D400087B00BAA02A80A99FFF7C0F900200190DA
:103D5000002402AD04E0285D00F036F8641CE4B2F3
:103D600002A8FCF713FAA04201D9142CF3D305489A
:103D70000078002802D01020FCF7E4FC07B030BC2B
:103D80005DF814FB030000201CB5010100F0F000F9
:103D900040F00C028DF8042040F008008DF805007A
:103DA00041F00C008DF8060041F008008DF8070086
:103DB000C82000900348042301AA01784068FCF75A
:103DC000E1FF1CBD040600201CB5010100F0F0005D
:103DD00040F00D028DF8042040F009008DF8050038
:103DE00041F00D008DF8060041F009008DF8070044
:103DF000C82000900348042301AA01784068FCF71A
:103E0000C1FF1CBD0406002070B5054601F00F047B
:103E1000002D04D144F080042046FFF7B5FF012DAA
:103E200004D144F0C0042046FFF7AEFF022D04D1B8
:103E300044F094042046FFF7A7FF032D05D144F07A
:103E4000D400BDE87040FFF79FBF70BD0FB4F0B560
:103E5000689900200E4C0F4D0F4E05AB54F82070A2
:103E600033F8102021F8172003EB400255F820C04A
:103E7000B2F8847021F81C7056F82070B2F808214E
:103E800021F81720401C4028E8DBF0BC5DF814FB4B
:103E900000030020000400200005002010B50023CE
:103EA000D45C012C01D120F813105B1C402BF7DBF4
:103EB00010BD0000ADF5456DFDF790F9FEF71EFF52
:103EC000FEF7FCFCFEF774FDFEF792FDFEF7A8FD81
:103ED000FEF7C8FDFEF718FEFEF74CFECD4DC5F807
:103EE000805005F18400C5F804018430C5F88801CC
:103EF000C94C4FF40046002231462046FCF7BDFD78
:103F0000002271102046FCF7B8FD00226114204603
:103F1000FCF7B3FD0022A1142046FCF7AEFD002201
:103F2000E1142046FCF7A9FD002221152046FCF7EC
:103F3000A4FD002261152046FCF79FFD0022A1157B
:103F40002046FCF79AFD0421A5F18000FEF71EF93A
:103F5000A5F1C000FDF7BFFF0C21A5F1C000FEF7E1
:103F600015F9A5F5C070FFF78DFE6420FCF7D8FBAE
:103F7000A5F5C072B621104600F0C8F96420FCF720
:103F8000CFFBA5F5C072B421104600F0BFF9642044
:103F9000FCF7C6FBFFF76CFE6420FCF7C1FB0A23AD
:103FA0000222B621A5F5C070FCF736FE00286FD0BE
:103FB0009AA0FFF7C3FEFFF74FFE0A230222B421A7
:103FC0009B48FCF729FE00286BD09AA0FFF7B6FEAD
:103FD000FFF73EFE4FF47A70FCF7A2FBFFF748FEB6
:103FE000012231462046FCF748FD91486830FDF734
:103FF000D9FD8F4E944C683606F1180706F140093A
:10400000207800285AD0A06900F06EFC884936223A
:1040100068310DF6F830FCF795F8F08EADF82E0CFF
:10402000386ACDF8300CB88CADF8340CF08FADF8A0
:10403000360C112249460DF63840FCF783F896F805
:1040400051008DF8490C706DCDF84C0CD4E9060187
:10405000CDE9120148220DF608416846FCF772F8D6
:104060000DF6F8300FC800F07DFCFFF701FEFFF7FA
:10407000EFFD76A0FFF762FEFFF7EEFD76A0FFF7FB
:104080005DFEFFF7EDFD78A0FFF758FE13E0FFE7B8
:10409000FFF7DEFD3220FCF743FB77A0FFF74EFE73
:1040A00089E73220FCF73CFB77A0FFF747FE8FE75C
:1040B0003220FCF735FB20780028F9D1A078B8B180
:1040C000FFF7D6FDFFF7C4FD73A0FFF737FE4FF4EF
:1040D000456A05F1100808E0524641466846FCF77B
:1040E00031F895E80F0000F059FAA0780028F3D1D4
:1040F0006078002884D0FFF7BBFDFFF7A9FD6BA017
:10410000FFF71CFEFFF7A8FD6BA0FFF717FEFFF7F8
:10411000A7FD6CA0FFF712FEFFF7A6FD6CA0FFF74E
:104120000DFEA079208220896082A082E0826CE06E
:10413000A06900F0D9FB608A218A82B2674830F812
:10414000210081B2A06900F0D9FBE08A218A82B205
:10415000634830F8210081B2A06900F0CFFBA08A4B
:10416000218A82B25F4830F8210081B2A06900F054
:10417000C5FB2F49362268310DF6F830FBF7E2FF18
:10418000F08EADF82E0C386ACDF8300CB88CADF846
:10419000340CF08FADF8360C112249460DF638403C
:1041A000FBF7D0FF96F851008DF8490C706DCDF8F3
:1041B0004C0CD4E90601CDE9120148220DF6084164
:1041C0006846FBF7BFFF0DF6F8300FC800F0CAFBDA
:1041D000FFF74EFDFFF73CFD218A43A0FFF7AEFD40
:1041E000FFF73AFDB4F9121042A0FFF7A7FDFFF761
:1041F00037FDB4F9161041A0FFF7A0FDFFF734FD1D
:10420000B4F914103FA0FFF799FD607800283FF43F
:10421000F7AE8DE79C070020000C01404B657970DC
:10422000616420496E6974204661696C65640000B0
:104230001C060020576865656C20496E697420462D
:1042400061696C6564000000000000204D61696ECA
:10425000204D656E7500000031202D204170706C7E
:1042600069636174696F6E0032202D2050696E2081
:104270004D617070696E67004B65797061642052A2
:104280006561647921000000576865656C2052659E
:10429000616479210000000050726573732033203F
:1042A000746F20676F206261636B00004C4544208F
:1042B00023203132330000005245443A2032353554
:1042C0000000000047524E3A203235350000000011
:1042D000424C553A203235350000000000030020E2
:1042E00000040020000500204C45442023202564C4
:1042F000000000005245443A2025640047524E3ADF
:1043000020256400424C553A2025640070B50446CF
:104310000D4600235E222946204600F032F9632331
:1043200080222946204600F02CF90A20FCF7F8F9F3
:1043300001232B222946204600F023F901232C22B9
:104340002946204600F01DF900232D22294620464B
:1043500000F017F900232E222946204600F011F91B
:1043600001232F222946204600F00BF90123302299
:104370002946204600F005F9FF2331222946204630
:1043800000F0FFF8022332222946204600F0F9F817
:10439000062341222946204600F0F3F80323422257
:1043A0002946204600F0EDF8062343222946204600
:1043B00000F0E7F8032344222946204600F0E1F804
:1043C000062345222946204600F0DBF80323462237
:1043D0002946204600F0D5F80623472229462046E4
:1043E00000F0CFF8032348222946204600F0C9F800
:1043F000062349222946204600F0C3F803234A2217
:104400002946204600F0BDF806234B2229462046C7
:1044100000F0B7F803234C222946204600F0B1F8FB
:1044200006234D222946204600F0ABF803234E22F6
:104430002946204600F0A5F806234F2229462046AB
:1044400000F09FF8032350222946204600F099F8F7
:10445000062351222946204600F093F803235222D6
:104460002946204600F08DF806235322294620468F
:1044700000F087F8032354222946204600F081F8F3
:10448000062355222946204600F07BF803235622B6
:104490002946204600F075F8062357222946204673
:1044A00000F06FF8032358222946204600F069F8EF
:1044B00010235C222946204600F063F804235D2285
:1044C0002946204600F05DF829462046BDE87040A8
:1044D0008C235E2200F055B810B500F042F8012898
:1044E0001CD002281CD004281CD008281CD010285E
:1044F0001CD020281CD040281CD080281CD0B0F50F
:10450000807F1BD0B0F5007F1AD0B0F5806F19D036
:10451000B0F5006F18D0C8B1002010BD012010BD4B
:10452000042010BD072010BD0A2010BD022010BDC0
:10453000052010BD082010BD0B2010BD032010BDAC
:10454000062010BD092010BD0C2010BD002010BD9C
:104550003EB5069C0A25CDE901350094FCF7B6FC72
:104560003EBD1CB50022019201AA00920223002246
:10457000FFF7EEFF9DF804009DF8051040EA0120CA
:104580001CBD1CB58DF804208DF805300A22009260
:10459000022301AAFCF7F6FB1CBD00000FB42DE9B5
:1045A000F04FADF5037D4FF47A6600270A240A2503
:1045B000AD48D0E9081267926691D0E91412699269
:1045C0006891D0E90A126B926A91D0E916126D9245
:1045D0006C91D0E90C126F926E91D0E91812719221
:1045E0007091D0E90E1273927291D0E91A127592FD
:1045F0007491D0E9101277927691D0E91C127992D9
:104600007891D0E912127B927A91C16F806F7D917F
:104610007C904FF0000890A882900DF5CC7909EBC2
:10462000C80A629664956394DAE90001DFF838B24B
:1046300061910BF1800BCDF87CB160904FF4BE72AC
:1046400068468299FBF77EFD8CA80FC8FFF70EFA2B
:10465000629764956394DAE90001CDF87CB16191C9
:1046600060904FF4BE7268468299FBF76BFD8CA890
:104670000FC8FFF777FA7E98FCF752F808F10108A7
:1046800009EBC80B629664956394DBE90001DFF8DF
:10469000D8A161910AF1C00ACDF87CA160904FF4D5
:1046A000BE7268468299FBF74DFD8CA80FC8FFF7D4
:1046B000DDF9629764956394DBE90001CDF87CA194
:1046C000619160904FF4BE7268468299FBF73AFDA3
:1046D0008CA80FC8FFF746FA7E98FCF721F808F17E
:1046E000010809EBC800639462966495819003C841
:1046F0000AF1400BCDF87CB1619160904FF4BE722D
:1047000068468299FBF71EFD8CA80FC8FFF7AEF92B
:10471000639481986297649503C8CDF87CB16191E8
:1047200060904FF4BE7268468299FBF70BFD8CA82F
:104730000FC8FFF717FA7E98FBF7F2FF08F10108A0
:1047400009EBC800629664956394809003C86090FA
:104750000AF180005F9061914FF4BE7268468299C1
:10476000FBF7F0FC8CA80FC8FFF780F962978098E0
:104770006495639403C860900AF180005F90619132
:104780004FF4BE7268468299FBF7DCFC8CA80FC818
:10479000FFF7E8F97E98FBF7C3FF08F1010809EB82
:1047A000C8006296649563947F9003C8CDF87CB18D
:1047B000619160904FF4BE7268468299FBF7C2FC2B
:1047C0008CA80FC8FFF752F97F986297649563949D
:1047D00003C8CDF87CB1619160904FF4BE72684619
:1047E0008299FBF7AFFC8CA80FC8FFF7BBF97E9846
:1047F000FBF796FF08F1010809EBC809629664957A
:104800006394D9E90001CDF87CA1619160904FF4E7
:10481000BE7268468299FBF795FC8CA80FC8FFF71B
:1048200025F9629764956394D9E90001CDF87CA1DC
:10483000619160904FF4BE7268468299FBF782FCEA
:104840008CA80FC8FFF78EF97E98FBF769FF08F177
:104850000108B8F10C0FFFF6E0AE0DF5037DBDE8E1
:10486000F00F5DF814FB00000000002070B5044656
:104870001C4D002C04D14FF400412846FCF7F6F8FB
:10488000012C03D121022846FCF7F0F8022C03D1B9
:1048900021022846FCF7EAF8032C04D14FF480618A
:1048A0002846FCF7E3F8042C03D161022846FCF704
:1048B000DDF8052C04D14FF480512846FCF7D6F8DA
:1048C000062C04D14FF400512846FCF7CFF8072CF2
:1048D00006D12846BDE870404FF48041FCF7C6B8C9
:1048E00070BD0000000C0140002100224FF49073C5
:1048F00020F81120491C9942FADB7047B2F5805F1D
:1049000001D340F6FF7220F81120704770B50022E5
:10491000002300244FF4907520E024B1012C09D02D
:10492000022C1BD113E030F8134024098C54521C84
:10493000012413E05E1C10F8134030F81660C6F333
:10494000032646EA04148C54521C022406E05C1C24
:1049500010F814408C54521C9B1C0024AA42DCDB2F
:1049600070BD00000FB470B5DDE91A04164D0122C8
:104970002A702146FFF7CAFF0A234FF4907221469E
:1049800004A8FDF787F90122104C16023146204693
:10499000FCF773F8012210212046FCF76EF8012283
:1049A000521C92B20F2AFBD3002210212046FCF7A2
:1049B00064F8002231462046FCF75FF8002028709A
:1049C00070BC5DF814FB00000006002000080140E8
:1049D00000000000000000000102030406070809AF
:1049E0000000000001020304084A00080000002043
:1049F0001C060000B8060008184C00081C06002021
:104A0000841800002031000892011AF40B83A00FD3
:104A100013FC1314207C1542203AFF166BFF0F087D
:104A200009100E4908590C7A081AFA080E49243957
:104A300018490C6A010161092808B9377912190867
:104A4000390D091908C9370112691FF93C091C37CA
:104A5000091249C90809142559026909092E1009C2
:104A6000363889394901598D6995F908390B290872
:104A70005904393949DE390A69488915091608B9CE
:104A8000319912B98A69189908B91809113009269B
:104A900008C95832B232B532A032A332A6329132AE
:104AA00094329732BD32BA32AF32AC32A9329E3232
:104AB0009B32983282328532703273327632613272
:104AC000643267328D328A327F327C3279326E3292
:104AD0006B326832523255324032433246323132D2
:104AE000343237325D325A324F324C3249323E32F2
:104AF0003B323832223225321032132A16E4313258
:104B0000043207322D322A321F321C3219320E3251
:104B10000B320832B132B432B732A232A5329032FF
:104B200093329632BE32BB32B832AD32AA329F32A5
:104B30009C329932813284328732723275326032DD
:104B4000633266328E328B3288327D327A326F3205
:104B50006C3269325132543257324232453230323D
:104B6000333236325E325B3258324D324A323F3265
:104B70003C3239322132243227321272153203325A
:104B800006322E322B3228321D321A320F320C32BC
:104B90000932B032B332B632A132A432A7329232E5
:104BA0009532BF32BC32B932AE32AB32A8329D320E
:104BB0009A32803283328632713274327732623284
:104BC00065328F328C3289327E327B3278326D326E
:104BD0006A325032533256324132443247323232E4
:104BE00035325F325C3259324E324B3248323D32CE
:104BF0003A32203223322632113214321732023244
:104C000005322F322C3229321E321B3218320DF26D
:084C10000A320182101324F4A2
:04000005080000ED02
:00000001FF
