:020000040800F2
:10000000603C002001010008193C00085D2B00083D
:100010000134000839080008F5420008000000001B
:10002000000000000000000000000000613E000829
:100030003D080008000000001B3C0008633E00086B
:100040001B0100081B0100081B0100081B01000820
:100050001B0100081B0100081B0100081B01000810
:100060001B0100081B0100083F0800081B010008D5
:100070001B0100081B0100081B0100081B010008F0
:100080001B0100081B0100081B0100081B010008E0
:100090001B0100081B0100081B010008490800089B
:1000A0001B010008353F00081B0100081B01000868
:1000B0001B0100081B0100081B0100081B010008B0
:1000C0001B0100081B0100081B0100081B010008A0
:1000D0001B0100081B0100081B0100081B01000890
:1000E0001B0100081B0100081B010008DFF80CD0F1
:1000F00000F052FA0048004711560008603C00200A
:100100000648804706480047FEE7FEE7FEE7FEE7B1
:10011000FEE7FEE7FEE7FEE7FEE7FEE7DD3E00085E
:10012000ED000008202A04DB203A21FA02F0002129
:10013000704721FA02F3D040C2F1200291400843F7
:100140001946704740EA01039B0703D009E008C93C
:10015000121F08C0042AFAD203E011F8013B00F88C
:10016000013B521EF9D27047D2B201E000F8012BD8
:10017000491EFBD270470022F6E710B513460A4627
:1001800004461946FFF7F0FF204610BD421C10F848
:10019000011B0029FBD1801A704730B50B46014680
:1001A00000202022012409E021FA02F59D4205D316
:1001B00003FA02F5491B04FA02F52844151EA2F1C0
:1001C0000102F1DC30BD2DE9F05F054600209246CA
:1001D0009B4688460646814640241BE02846414609
:1001E00047462246FFF79EFF53465A46C01A9141A2
:1001F00010D311461846224600F0E0F92D1A67EB9D
:1002000001084F4622460120002100F0D7F917EBE4
:1002100000094E41201EA4F10104DFDC48463146AE
:100220002A464346BDE8F09F2DE9FE4F804681EA0D
:100230000300C00F0C46009021F0004123F0004560
:10024000B8EB0200A94105D24046214690461C4623
:100250000B46024623F00040104347D0270DC7F35A
:100260000A00C3F30A510290401A019040286BDA49
:10027000C3F3130040F4801B0098924620B1002382
:10028000D2EB030A63EB0B0B01985946C0F1400215
:10029000504600F093F906460D4650465946019ADD
:1002A00000F09BF910EB08006141002487EA11522D
:1002B00084EAE7731A4340D0009A62B3019A012A94
:1002C0004FEA075215DC001B61EB02014FF00042C0
:1002D00002EA0752CDE90042001C41F58011324686
:1002E0002B4600F09BF903B0BDE8F08F4046214655
:1002F000F9E7001B61EB0201001C41F580130018B7
:100300005B412018A2F5001747EB030140EAD570C6
:10031000B6196D4111E06D084FEA360645EAC07521
:100320004FEA0752001B61EB0201001C41F58011EE
:1003300049084FEA30000019514132462B4603B0BC
:10034000BDE8F04F00F05BB90098012240000023A7
:10035000D0EB020263EBE073009821464FEAE074B1
:10036000B8EB000061EB0401E9E783F000435BE7D1
:1003700081F0004158E72DE9FE4F81EA030404F0C3
:10038000004421F0004100944FF0000B23F00043A3
:1003900050EA01045ED052EA03045BD0C3F30A546E
:1003A000C1F30A552C44A4F2F3340194A0FB025487
:1003B000C1F3130141F48011C3F3130343F4801319
:1003C00001FB024400FB034E840A970A44EA81546D
:1003D00047EA8357A4FB076802958D0A05FB07854A
:1003E0004FEA932C04FB0C542705029D4FEA065854
:1003F00047EA1637B5EB08056EEB070C870E920E31
:1004000047EA811742EA8312A7FB0201B6EB0B0110
:1004100064EB00042B0D43EA0C335E1844EB1C50D4
:10042000DA465146E7FB0201C5F313044FEA0B33EA
:1004300043EA14534FEA0432019C43EA0603A4F151
:100440000C040294009CCDE900B400F0E7F803B07E
:10045000BDE8F08F00200146F9E72DE9F04D81EA73
:10046000030404F0004B21F0004514464FF0000A4D
:1004700023F0004150EA050220D054EA01021DD0C9
:10048000C5F30A570246C5F31303C1F31300C1F3C2
:100490000A5640F4801543F48013A7EB0608101B9E
:1004A000D64608F2FD3873EB050002D308F10108C7
:1004B00001E092185B41B8F1000F03DA0020014619
:1004C000BDE8F08D00204FF48011064684460EE012
:1004D000171B73EB050705D3121B63EB05030643DC
:1004E0004CEA010C49084FEA300092185B4150EA8F
:1004F0000107EDD152EA030012D082EA040083EA38
:100500000501084305D0101BAB4106D20122002390
:1005100006E000224FF0004302E06FF001025310AA
:100520001AEB06004CEB085110EB0A0041EB0B01F3
:10053000BDE8F04D00F063B8C1F30A52C1F31301F6
:1005400040F2FF3341F480119A4202DA0020014662
:10055000704740F233439A42A2F2334202DC5242E5
:10056000FFF7E0BD00F02AB830B5041E71F10004B9
:1005700004DB4FF00044404264EB0101141E73F1B0
:10058000000405DB1C464FF00043524263EB0403BA
:10059000994208BF904230BD064C074D06E0E06826
:1005A00040F0010394E8070098471034AC42F6D3BA
:1005B000FFF7A0FD2061000840610008202A04DB4D
:1005C000203A00FA02F1002070479140C2F1200366
:1005D00020FA03F3194390407047202A06DBCB171B
:1005E000203A41FA02F043EAE07306E041FA02F3EE
:1005F000D040C2F12002914008431946704710B51F
:10060000141E73F1000408DA401C41F10001921835
:100610005B411A4301D120F0010010BD2DE9F04DDE
:1006200092469B4611B1B1FA81F202E0B0FA80F233
:1006300020329046FFF7C2FF04460F4640EA0A0008
:1006400041EA0B0153465A46084313D0114653EA78
:10065000010019D0C8F140025046FFF763FD05467E
:100660000E46504659464246FFF7A8FF084305D0BC
:10067000012004E020463946BDE8F08D0020054306
:1006800046EAE0762C4337430A986305E40AA0EB78
:1006900008000022FD0A44EA47540A3002D500202F
:1006A0000146E9E7010510196941DDE9084500192E
:1006B0006941BDE8F04DA2E770B58C1810F8015BF8
:1006C00015F0070301D110F8013B2A1106D110F8EB
:1006D000012B03E010F8016B01F8016B5B1EF9D1EF
:1006E0002B0705D40023521E0DD401F8013BFAE775
:1006F00010F8013BCB1A921C03E013F8015B01F8E0
:10070000015B521EF9D5A142D8D3002070BD000074
:100710000FB410B5044603A83590002036903790EA
:1007200038903C203990B4203A9022A2002135988C
:1007300002F0B9FF24A20121359802F0B4FF012193
:100740003C9124A20221359802F0ADFF02213D9197
:1007500023A20321359802F0A6FF03213E9124A293
:100760000421359802F09FFF04213F9125A2052125
:10077000359802F098FF25A20621359802F093FFE4
:1007800024A20721359802F08EFF24A20821359873
:1007900002F089FF23A20921359802F084FF342159
:1007A00044914FF4887203A92046FFF7CBFC10BC9C
:1007B0005DF814FB20416E696D6174696F6E204DA8
:1007C000656E753A00000000204A6F656C204D6F21
:1007D000646520002048616C6C6F7765656E000071
:1007E000204F726967696E616C2046616465000024
:1007F000204D65727279204368726973746D6173FC
:100800000000000020526F772035000020526F77E3
:100810002036000020526F772037000020526F777B
:1008200020380000204261636B20746F204D6169A5
:100830006E204D656E75000000BFFEE7704710B575
:10084000102000F069F810BD10B5202000F064F809
:1008500010BD704770B5044600F00AFA06462546FA
:10086000681C10B104480078054400BF00F000FA8D
:10087000801BA842FAD370BD9807002010B5A8B01D
:1008800004462A22214913A8FFF75CFC1F48408D2B
:10089000ADF876001D48C06A1E901C48006B1F9082
:1008A00009221A49343120A8FFF74CFC174890F868
:1008B0003D008DF88900154890F83E008DF88A00BB
:1008C0001248006C23901148406C24900F48806CB3
:1008D00025900E48C06C26900C48006D27900C485F
:1008E0000088442217A9CDE911406846FFF72AFC89
:1008F00013A80FC802F0B2FF054908800846008817
:1009000010B901200349087028B010BDA0070020CD
:10091000140300202003002010B50446044800689A
:10092000204020B1024804602046FFF7A7FF10BD19
:10093000140401402DE9F8470346002294466EE175
:100940004FF0010808FA02F4D1F8008008EA040028
:10095000A0427DD1DFF8DCA2D1F80480A8EB0A091F
:10096000D0453AD014DCB8F1030F50D009DCB8F10F
:10097000000F31D0B8F1010F1CD0B8F1020F49D1EE
:1009800020E0B8F1110F18D0B8F1120F42D11EE0DB
:10099000B9F5881F25D006DCB9F5803F20D0B9F520
:1009A000801F37D11AE0B9F5001F18D0B9F5041F20
:1009B00030D117E0D1F80CC02DE0D1F80C8008F14F
:1009C000040C28E0D1F80C8008F1080C23E0D1F8E1
:1009D0000C8008F10C0C1EE000BF00BF00BF00BF80
:1009E00000BF00BFD1F80880B8F1000F02D14FF06E
:1009F000040C0BE0D1F80880B8F1010F03D14FF0DF
:100A0000080C1C6102E04FF0080C5C6103E04FF041
:100A1000000C00E000BF00BFFF2801D8984601E0AD
:100A200003F104084646FF2802D84FEA820803E093
:100A3000A2F108084FEA88084746D6F800804FF030
:100A40000F0909FA07F928EA09080CFA07F900E082
:100A500088E048EA0908C6F80080D1F8048008F068
:100A60008058B8F1805F7DD100BFDFF8CC81D8F825
:100A7000188048F00108DFF8C091C9F81880C8460E
:100A8000D8F8188008F00108CDF8008000BF00BF3A
:100A90004FEAB9384FEA920958F829504FEA82785C
:100AA0004FEA18794FF00F0808FA09F825EA080507
:100AB000DFF88881434502D14FF0000816E0DFF8E7
:100AC0008081434502D14FF001080FE0DFF87481C7
:100AD000434502D14FF0020808E0DFF86C8143453E
:100AE00002D14FF0030801E04FF004084FEA827989
:100AF0004FEA197908FA09F848EA0505DFF84C8148
:100B00004FEA920948F82950D1F8048008F4803857
:100B1000B8F5803F0AD1DFF83881D8F8008048EA7C
:100B20000008DFF82C91C9F8008009E0DFF8208187
:100B3000D8F8008028EA0008DFF81491C9F800808E
:100B4000D1F8048008F40038B8F5003F10D1DFF880
:100B5000008108F10408D8F8008048EA0008DFF8AE
:100B6000F09000E05AE009F10409C9F800800DE0B6
:100B7000DFF8DC8008F10408D8F8008028EA0008D3
:100B8000DFF8CC9009F10409C9F80080D1F804809D
:100B900008F48018B8F5801F0ED1DFF8B48008F192
:100BA0000808D8F8008048EA0008DFF8A49009F1A6
:100BB0000809C9F800800DE0DFF8948008F1080802
:100BC000D8F8008028EA0008DFF8849009F10809C5
:100BD000C9F80080D1F8048008F40018B8F5001FA7
:100BE0000ED1DFF86C8008F10C08D8F8008048EAD4
:100BF0000008DFF85C9009F10C09C9F800800DE0ED
:100C0000DFF84C8008F10C08D8F8008028EA0008CA
:100C1000DFF83C9009F10C09C9F80080521CD1F8AA
:100C2000008028FA02F8B8F1000F7FF489AEBDE821
:100C3000F887000000001110001002400008014079
:100C4000000C014000100140001401400800014068
:100C500000040140C2680A400AB1416100E001613C
:100C600070470AB1016101E00B04036170470000A5
:100C7000014800687047000090070020014691F885
:100C80003D00704770B504460CB9012070BD94F862
:100C90003D0028B9002084F83C00204600F0E0FB2D
:100CA000242084F83D002068006820F001002168BD
:100CB000086000F0D5FE05465C496068884206D8A9
:100CC0005B48854201D2012007E0002005E0594839
:100CD000854201D2012000E00020012800D1D5E7A3
:100CE0005548B5FBF0F62068406820F03F003043DF
:100CF000216848604D496068884201D8701C07E04F
:100D00004FF4967070434FF47A71B0FBF1F0401CD1
:100D10002168096A21F03F010843216808624349BC
:100D20006068884214D8681E61684900B0FBF1F021
:100D3000401CC0F30B00042801D204203DE0681ED3
:100D400061684900B0FBF1F0401CC0F30B0034E0D7
:100D5000A06838B9681E616801EB4101B0FBF1F091
:100D6000401C0AE0681E616801EBC10202EB011140
:100D7000B0FBF1F0401C40F48040C0F30B0008B918
:100D800001201AE0A06848B9681E616801EB4101C2
:100D9000B0FBF1F0401CC0F30B000CE0681E616872
:100DA00001EBC10202EB0111B0FBF1F0401CC0F3FA
:100DB0000B0040F4804040F400402168C9694CF6C3
:100DC000FF72914308432168C861D4E907010843D1
:100DD0002168096821F0C001084321680860D4E94E
:100DE000031008432168896848F2FF3291430843A1
:100DF00021688860D4E9050108432168C96821F0A9
:100E0000FF0108432168C8602068006840F00100C5
:100E10002168086000202064202084F83D00002024
:100E2000206384F83E0000BF30E70000A086010088
:100E300080841E0000093D0040420F002DE9F84F5C
:100E400004460F4690461E46FFF712FF05464FF038
:100E5000010994F83D0020287ED1192301225E4922
:100E60002046009501F0BCFF10B10220BDE8F88FCC
:100E700000BF94F83C00012801D10220F6E70120D0
:100E800084F83C0000BF2068006800F0010028B929
:100E90002068006840F00100216808602068006850
:100EA00020F4006021680860242084F83D000020C0
:100EB00020644A48E06200BF2068006840F4807007
:100EC00021680860334600224FF00111204600954A
:100ED00001F086FF08B10120C8E707F0FE00216895
:100EE0000861FFF7C5FE054620684069C0F3400A67
:100EF00020684069C0F3802B10E0FFF7B9FE401B6B
:100F0000B04200D816B9A02084F83D00206840699E
:100F1000C0F3400A20684069C0F3802B94F83D007C
:100F2000A02805D0BAF1000F02D1BBF1000FE4D028
:100F3000202084F83D0020684069C0F3400028B3B9
:100F40002068006840F400702168086000BF00203D
:100F500000902068406900E03BE0009020688069D4
:100F6000009000BF00BF192301221B4920460095B5
:100F700001F036FF08B1012078E7202084F83D0019
:100F800000BF002084F83C0000BF6FE720680068C5
:100F900040F40070216808606FF480602168486147
:100FA000192301220C492046009501F019FF08B1D0
:100FB00001205BE709F10109C145FFF47DAF202065
:100FC00084F83D0000BF002084F83C0000BF0120F1
:100FD0004CE702204AE70000020010000000FFFF7B
:100FE0002DE9F8430446894616461F46DDF8208061
:100FF000FFF73EFE054694F83D0020287ED11923D8
:10100000012251492046009501F0EAFE10B102206C
:10101000BDE8F88300BF94F83C00012801D102200C
:10102000F6E7012084F83C0000BF2068006800F06B
:10103000010028B92068006840F0010021680860BC
:101040002068006820F4006021680860212084F88E
:101050003D00102084F83E00002020646662678511
:10106000608D20853948E0622B464246494620463D
:1010700001F096FD08B10120CAE700BF00200090F2
:1010800020684069009020688069009000BF00BF20
:1010900044E02A464146204601F087FF50B1206CCB
:1010A000042805D12068006840F4007021680860B9
:1010B0000120ADE7606A007821680861606A401C21
:1010C0006062608D401E6085208D401E20852068F6
:1010D0004069C0F3800070B1208D60B1606A007813
:1010E00021680861606A401C6062608D401E6085F6
:1010F000208D401E20852A46414600E022E0204601
:1011000001F040FE50B1206C042805D12068006831
:1011100040F4007021680860012079E7208D0028E4
:10112000B7D12068006840F4007021680860202072
:1011300084F83D00002084F83E0000BF84F83C00A5
:1011400000BF65E7022063E7020010000000FFFF18
:101150002DE9FC5F04460F4690469946DDE90CAB4D
:101160000E9EFFF785FD054694F83D00202872D1BC
:1011700019230122B7492046009501F031FE10B134
:101180000220BDE8FC9F00BF94F83C00012801D17B
:101190000220F6E7012084F83C0000BF20680068C8
:1011A00000F0010028B92068006840F001002168C3
:1011B00008602068006820F4006021680860222030
:1011C00084F83D00402084F83E0000202064C4F8EC
:1011D00024A0A4F82AB0608D20859F48E0624B4689
:1011E000424639462046CDE9006501F02FFD08B1A1
:1011F0000120C6E7208D88B900BF0020019020683B
:101200004069019020688069019000BF00BF20689C
:10121000006840F40070216808604BE0208D0128D0
:101220001AD12068006820F480602168086072B6D6
:1012300000BF00200190206840690190206880690B
:10124000019000BF00BF2068006840F40070216872
:10125000086062B62EE0FBE0208D022819D12068DC
:10126000006840F400602168086072B600BF00208A
:10127000019020684069019020688069019000BF5A
:1012800000BF2068006820F480602168086062B6B2
:1012900010E02068006840F480602168086000BFAA
:1012A00000200190206840690190206880690190C9
:1012B00000BF00BFBDE0208D032870D8208D01281D
:1012C00015D12A463146204601F02FFE08B10120F3
:1012D00057E720680069616A0870606A401C6062B4
:1012E000208D401E2085608D401E6085A1E0208DF0
:1012F00002282CD13346002258492046009501F09F
:101300006FFD08B101203CE772B62068006840F428
:1013100000702168086020680069616A0870606A6E
:10132000401C6062208D401E2085608D401E6085BF
:1013300062B620680069616A0870606A401C606279
:10134000208D401E2085608D401E608571E03346F3
:10135000002242492046009501F042FD08B10120DB
:101360000FE72068006820F480602168086072B68A
:1013700020680069616A0870606A401C6062208DA4
:10138000401E2085608D401E608533460022334913
:101390002046009501F024FD10B10120F1E621E086
:1013A0002068006840F400702168086020680069C7
:1013B000616A0870606A401C6062208D401E208552
:1013C000608D401E608562B620680069616A0870A1
:1013D000606A401C6062208D401E2085608D401E2A
:1013E000608526E02A463146204601F09EFD08B180
:1013F0000120C6E620680069616A0870606A401CC6
:101400006062208D401E2085608D401E60852068B2
:101410004069C0F3800060B120680069616A0870AB
:10142000606A401C6062208D401E2085608D401ED9
:101430006085208D00287FF43EAF202084F83D0099
:10144000002084F83E0000BF84F83C0000BF98E60E
:10145000022096E6020010000000FFFF04000100D9
:1014600010B586B0044600200290039004900590C9
:1014700015492068884225D100BF1448806940F092
:101480000800124988610846806900F00800019050
:1014900000BF00BFC02002901220039003200590DF
:1014A00002A90B48FFF746FA00BF0848C06940F49C
:1014B00000100649C8610846C06900F40010019098
:1014C00000BF00BF06B010BD005400400010024035
:1014D000000C0140034800680349097808440149A9
:1014E00008607047900700209807002010B5084852
:1014F000006840F0100006490860032000F0A8F8DA
:10150000002000F007F800F02BF8002010BD0000CC
:101510000020024070B504460E4800784FF47A71FE
:10152000B1FBF0F00C490968B1FBF0F5284600F07A
:1015300032FF08B1012070BD102C07D200222146D5
:10154000501E00F047F80548046001E00120F2E772
:101550000020F0E7980700209C0700209407002057
:1015600008B500BF1148806940F001000F4988614B
:101570000846806900F00100009000BF00BF00BF76
:101580000846C06940F08050C8610846C06900F054
:101590008050009000BF00BF00BF0549486820F0A0
:1015A000E06040F00070486000BF08BD00100240DD
:1015B0000000014001460846002809DB00F01F0337
:1015C00001229A4043099B0003F1E023C3F8002164
:1015D00000BF70472DE9F05F80460D461646002794
:1015E00002F09CFE074639462A46334601F00700C2
:1015F000C0F1070ABAF1040F02D94FF0040A01E062
:10160000C0F1070AD14600F1040ABAF1070F02D26D
:101610004FF0000A01E0A0F1030AD4464FF0010A9E
:101620000AFA09FAAAF1010A0AEA020A0AFA0CFA03
:101630004FF0010B0BFA0CFBABF1010B0BEA030BA8
:101640004AEA0B042146404602F070FEBDE8F09FD6
:1016500000BF00F00702064B19684FF6FF03194060
:10166000044B0B4343EA0221014B196000BF704752
:101670000CED00E00000FA05012001490862704706
:1016800000000E422DE9F04385B006463BA30FCB88
:1016900001AC0FC43DA0006800904FF00008002589
:1016A00000270024A146012E30D0022E55D0102E46
:1016B0005ED137484468006800F0807000B301A82C
:1016C000C4F38341475C04F4803070B13048406813
:1016D000C0F340401DF8008004F4803040B12D4834
:1016E000B0FBF8F000FB07F502E02A4807FB00F525
:1016F0002748406800F48000B0F5800F01D1A9466A
:1017000003E068000321B0FBF1F932E02048046AED
:1017100004F44070B0F5807F05D104F0020010B1F0
:101720004FF4004918E004F44070B0F5007F07D191
:101730001748406A00F0020010B149F640490BE03A
:1017400004F44070B0F5407F06D11148006800F401
:10175000003008B147F612290BE000F091F90C496E
:101760004968C1F38131491C4900B0FBF1F900E03F
:1017700000BF00BF484605B0BDE8F0830203040582
:10178000060708090A0B0C0D0E0F101001020000CD
:101790000010024000093D00F8B50446002600256F
:1017A000207800F0010000286BD000274348C06972
:1017B00000F0805070B900BF4048C06940F08050D0
:1017C0003E49C8610846C06900F08050009000BFE3
:1017D00000BF01273A48006800F48070B0B938486B
:1017E000006840F4807036490860FFF741FA064609
:1017F00006E0FFF73DFA801B642801D90320F8BDFD
:101800002F48006800F480700028F2D02B48006A4E
:1018100000F440752DB3A08800F44070A84220D099
:101820002648006A20F440750120264908600020FF
:1018300008602248056205F0010090B1FFF718FA30
:10184000064608E0FFF714FA801B41F2883188420F
:1018500001D90320D3E71948006A00F002000028EC
:10186000F0D01648006A20F44070616808431349BC
:101870000862012F04D10846C06920F08050C86179
:1018800000BF207800F00200022807D10B48406812
:1018900020F44040A168084308494860207800F0DF
:1018A0001000102807D10548406820F48000E16846
:1018B0000843024948600020A1E7000000100240F0
:1018C000007000404004424270B504460D460CB919
:1018D000012070BD5A48006800F00700A8420ED2EF
:1018E0005748006820F0070028435549086008461B
:1018F000006800F00700A84201D00120E9E7207845
:1019000000F0020002281DD1207800F00400042815
:1019100005D14C48406840F4E0604A49486020786E
:1019200000F00800082805D14648406840F460509F
:10193000444948604348406820F0F000A1680843EB
:1019400040494860207800F0010078B360680128C1
:1019500006D13C48006800F4003090B90120B8E797
:101960006068022806D13748006800F0007040B96E
:101970000120AEE73348006800F0020008B90120FA
:10198000A7E73048406820F00300616808432D490C
:101990004860FFF76DF9064609E0FFF769F9801B1B
:1019A00041F28831884202D9032092E707E02548B6
:1019B000406800F00C006168B0EB810FEDD1204869
:1019C000006800F00700A8420ED91D48006820F00A
:1019D000070028431A4908600846006800F007001D
:1019E000A84201D0012074E7207800F00400042808
:1019F00007D11448406820F4E060E16808431149C9
:101A00004860207800F00800082808D10D48406898
:101A100020F46050216940EAC1000A49486000F0A2
:101A20003FF808494968C1F30311074A515CC840AF
:101A30000649086006480068FFF76CFD002048E78B
:101A40000020024000100240086100089C070020AE
:101A50009407002001480068704700009C070020A0
:101A600000B5FFF7F7FF04494968C1F30221034AB3
:101A7000515CC84000BD0000001002401861000821
:101A800000B5FFF7E7FF04494968C1F3C221034AE3
:101A9000515CC84000BD0000001002401861000801
:101AA000F0B585B00FF26C0C9CE8E01001A8A0E83E
:101AB000E0101CA52D6800950021002200230024C1
:101AC0000020194D696801F00C05F5B1042D02D014
:101AD000082D19D101E0154819E001ADC1F3834685
:101AE000AC5D01F4803555B10F4D6D68C5F34045CF
:101AF0001DF805200D4D6543B5FBF2F302E00B4DDB
:101B000004FB05F3184602E000BF094800BF00BF10
:101B100005B0F0BD02030405060708090A0B0C0D09
:101B20000E0F1010010200000010024000093D00DD
:101B300000127A00F8B504460CB90120F8BD2078EF
:101B400000F00100002878D0F848406800F00C0050
:101B500004280CD0F548406800F00C00082811D18A
:101B6000F248406800F48030B0F5803F0AD1EF4879
:101B7000006800F4003000285FD0606800285CD165
:101B80000120DBE700BF6068B0F5803F06D1E74881
:101B9000006840F48030E549086028E0606858B982
:101BA000E248006820F48030E04908600846006898
:101BB00020F4802008601AE06068B0F5A02F0BD1F7
:101BC000DA48006840F48020D84908600846006878
:101BD00040F4803008600AE0D448006820F4803087
:101BE000D24908600846006820F48020086000BFE1
:101BF000606888B1FFF73CF8054606E0FFF738F863
:101C0000401B642801D9032098E7C848006800F405
:101C100000300028F2D010E0FFF72AF8054606E071
:101C2000FFF726F8401B642801D9032086E7BF4848
:101C3000006800F400300028F2D1207800F00200A3
:101C4000022857D1B948406800F00C0050B1B7489D
:101C5000406800F00C00082818D1B448406800F42F
:101C6000803098B9B148006800F0020020B12069C6
:101C7000012801D0012061E7AC48006820F0F8009D
:101C8000616940EAC100A949086033E02069E8B110
:101C90000120A7490860FEF7EBFF054606E0FEF7C6
:101CA000E7FF401B022801D9032047E79F4800684F
:101CB00000F002000028F2D09C48006820F0F800F4
:101CC000616940EAC1009949086013E00020984921
:101CD0000860FEF7CDFF054606E0FEF7C9FF401B92
:101CE000022801D9032029E79048006800F002008B
:101CF0000028F2D1207800F0080008282DD1A06932
:101D0000B8B101208B490860FEF7B2FF054606E036
:101D1000FEF7AEFF401B022801D903200EE78348DF
:101D2000406A00F002000028F2D0012001F0E2FF3A
:101D300013E000207F490860FEF79AFF054606E0A1
:101D4000FEF796FF401B022801D90320F6E67748EC
:101D5000406A00F002000028F2D1207800F0040070
:101D6000042873D100277148C06900F0805070B911
:101D700000BF6E48C06940F080506C49C861084699
:101D8000C06900F08050009000BF00BF01276A4882
:101D9000006800F48070B0B96748006840F4807053
:101DA00065490860FEF764FF054606E0FEF760FF40
:101DB000401B642801D90320C0E65F48006800F496
:101DC00080700028F2D000BFE068012806D1574893
:101DD000006A40F001005549086227E0E06858B900
:101DE0005248006A20F00100504908620846006A23
:101DF00020F00400086219E0E06805280BD14B4888
:101E0000006A40F00400494908620846006A40F050
:101E1000010008620AE04548006A20F001004349D9
:101E200008620846006A20F00400086200BFE0680B
:101E3000A0B1FEF71DFF054609E0FEF719FF401BA4
:101E400041F28831884202D9032077E622E0374800
:101E5000006A00F002000028EFD012E0FEF708FF51
:101E6000054608E0FEF704FF401B41F28831884236
:101E700001D9032062E62D48006A00F00200002824
:101E8000F0D1012F05D12948C06920F080502749A1
:101E9000C86100BFE069C8B32448406800F00C0086
:101EA000082860D0E069022848D10020204908664F
:101EB000FEF7DEFE054606E0FEF7DAFE401B0228CE
:101EC00001D903203AE61948006800F000700028A4
:101ED000F2D1206AB0F5803F07D11448406820F461
:101EE0000030A168084311494860D4E9080108435B
:101EF0000E49496821F4741108430C4948600120D7
:101F00000B490866FEF7B4FE054607E03DE0FEF724
:101F1000AFFE401B022801D903200FE603480068EA
:101F200000F000700028F2D02FE000000010024006
:101F300000004242800442420070004000201449E8
:101F40000866FEF795FE054606E0FEF791FE401B8B
:101F5000022801D90320F1E50E48006800F0007066
:101F60000028F2D111E0E069012800D1E6E5094836
:101F7000466806F48031206A814204D106F470116B
:101F8000606A814201D00120D8E50020D6E500003A
:101F9000000042420010024070B5044600250CB912
:101FA000012070BD607C20B900202074204600F024
:101FB0005BF802206074204600F076F818B1042027
:101FC00060740120EDE7204601F0A8FE18B104205E
:101FD00060740120E5E72068406820F00700216870
:101FE0004860A06828B11F48006820F001001D4922
:101FF00008601C48001F006820F46070A168084356
:102000001849091F08606068401C08B1656809E04C
:102010000120FFF737FB05461DB90420607401203D
:10202000BFE76D1E2068806820F00F0040EA154071
:10203000216888602068C06865F30F002168C86067
:10204000204601F088FE18B1042060740120A8E742
:102050000021E17301216173A173012060740020EC
:102060009FE70000306C004038B504460B492068FB
:10207000884212D1FFF700FB00BF0948C06940F059
:1020800000600749C8610846C06900F00060009020
:1020900000BF00BF01200349086038BD0028004090
:1020A000001002403C04424270B5044600250CB9C1
:1020B000012070BD2068406820F008002168486059
:1020C000FEF7D6FD054607E0FEF7D2FD401BB0F552
:1020D0007A7F01D90320ECE72068406800F008000F
:1020E0000028F1D00020E4E710B504460CB9012027
:1020F00010BD606A00B900BF0021A16294F85100D0
:1021000028B9002084F85000204600F031F8022061
:1021100084F851002068006820F0400021680860C1
:10212000D4E901010843E168084321690843616972
:102130000843218B01F400710843E1690843216AD7
:102140000843A16A0843216808600421A06901EAE4
:102150001040216848602068C06920F40060216850
:10216000C86100206065012084F851000020BFE7AD
:1021700010B586B0044600200290039004900590AC
:102180001949206888422DD100BF1848806940F461
:102190008050164988610846806900F4805001909B
:1021A00000BF00BF00BF0846806940F0040088619E
:1021B0000846806900F00400019000BF00BFA02025
:1021C0000290022003900320059002A90848FEF720
:1021D000B1FB4020029000200390049002A9044823
:1021E000FEF7A8FB06B010BD003001400010024011
:1021F000000801402DE9F84F0446884616461D4662
:102200004FF0000A00BF94F85000012802D10220CC
:10221000BDE8F88F012084F8500000BFFEF728FDCC
:102220000746B14694F85100012802D04FF0020A47
:10223000A7E0B8F1000F00D016B94FF0010AA0E0F6
:10224000032084F8510000206065C4F83080A68621
:10225000E686A063A087E08760642064A068B0F58C
:10226000004F05D12068006840F480402168086074
:102270002068006800F04000402805D02068006811
:1022800040F0400021680860E068B0F5006F2FD191
:10229000606810B1B9F1010F09D1206B0088216885
:1022A000C860206B801C2063E08E401EE0861BE02F
:1022B0002068806800F0020002280AD1206B0088A4
:1022C0002168C860206B801C2063E08E401EE08681
:1022D0000AE0FEF7CDFCC01BA84201D3681C00B980
:1022E00015B94FF0030A4CE0E08E0028E0D12EE053
:1022F000606810B1B9F1010F09D1206B0078216835
:102300000873206B401C2063E08E401EE0861BE0BB
:102310002068806800F0020002280AD1206B007853
:1023200021680873206B401C2063E08E401EE0860D
:102330000AE0FEF79DFCC01BA84201D3681C00B94F
:1023400015B94FF0030A1CE0E08E0028E0D13A46B0
:102350002946204601F01CFD08B120206065A068D8
:1023600050B900BF002000902068C068009020682D
:102370008068009000BF00BF606D08B14FF0010A97
:1023800000BF012084F8510000BF002084F85000F5
:1023900000BF50463CE770B504462546681EB0F1C4
:1023A000807F01D301200FE0681E4FF0E0214861DB
:1023B0000F214FF0FF3001F0B9FF00204FF0E02176
:1023C000886107200861002070BD7047704710B514
:1023D0000346002200BF93F83C00012801D10220EF
:1023E00010BD012083F83C0000BF22F0FF00CC6844
:1023F00040EA040222F440708C6840EA040222F4AD
:1024000080604C6840EA040222F400600C6840EAF4
:10241000040222F480500C6940EA040222F40050C5
:102420004C6940EA040222F48040CC6940EA04028C
:102430001868426400BF002083F83C0000BF00BF62
:10244000CEE710B5024600BF92F83C00012801D14A
:10245000022010BD012082F83C0000BF022082F85B
:102460003D00106843681068846823F070030868B2
:10247000034324F0800448680443106843601068F4
:102480008460012082F83D0000BF002082F83C00FB
:1024900000BF00BFDDE701460868C06840F00100EA
:1024A0000B68D8600868806800F00702062A05D02B
:1024B0000868006840F001000B6818600020704751
:1024C000704710B5044620680069C0F34000D8B1D9
:1024D0002068C068C0F34000B0B16FF0020021680E
:1024E0000861012020772068806900F0030018B19E
:1024F0002046FFF7E5FF05E0204600F02DF92046D5
:1025000000F042FA0020207720680069C0F38000C4
:10251000D8B12068C068C0F38000B0B16FF004008B
:1025200021680861022020772068806900F44070EB
:1025300018B12046FFF7C4FF05E0204600F00CF973
:10254000204600F021FA0020207720680069C0F3BF
:10255000C000D8B12068C068C0F3C000B0B16FF04F
:10256000080021680861042020772068C06900F015
:10257000030018B12046FFF7A3FF05E0204600F056
:10258000EBF8204600F000FA002020772068006970
:10259000C0F30010D8B12068C068C0F30010B0B11B
:1025A0006FF0100021680861082020772068C0695A
:1025B00000F4407018B12046FFF782FF05E0204686
:1025C00000F0CAF8204600F0DFF9002020772068EC
:1025D000006900F0010058B12068C06800F00100F7
:1025E00030B16FF0010021680861204600F0CEF99B
:1025F00020680069C0F3C01058B12068C068C0F3FB
:10260000C01030B16FF08000216808612046FFF7EC
:10261000DCFE20680069C0F3801058B12068C068F3
:10262000C0F3801030B16FF040002168086120468F
:1026300000F016FA20680069C0F3401058B1206815
:10264000C068C0F3401030B16FF02000216808610D
:102650002046FFF7BBFE10BD10B586B00446002033
:1026600002900390049005901B492068884217D17E
:1026700000BF1A48806940F0040018498861084684
:10268000806900F00400019000BF00BFC8140290F0
:1026900002200390059002A91148FEF74BF919E0BA
:1026A0002068B0F1804F15D100BF0C48806940F020
:1026B00004000A4988610846806900F0040001901E
:1026C00000BF00BF022002900390059002A90448B9
:1026D000FEF730F906B010BD002C0140001002409A
:1026E0000008014070B504460E46154600BF94F838
:1026F0003C00012801D1022070BD012084F83C007B
:1027000000BF022084F83D0035B1042D09D0082D0A
:102710000CD00C2D14D10EE03146206801F05EFC87
:102720000FE03146206801F089FC0AE0314620685C
:1027300001F0B8FC05E03146206801F0E7FC00E05C
:1027400000BF00BF012084F83D0000BF002084F8D6
:102750003C0000BF00BFCFE7704710B504460CB97E
:10276000012010BD94F83D0028B9002084F83C00F9
:10277000204600F00DF8022084F83D00211D20685D
:1027800001F0E0FB012084F83D000020E9E70000B3
:1027900008B50168B1F1804F0DD100BF0649C96984
:1027A00041F00101044AD1611146C96901F00101FA
:1027B000009100BF00BF08BD0010024070B5044684
:1027C0000E4601223146206801F0F6FB0D492068D3
:1027D000884201D1012000E0002028B12068406C2F
:1027E00040F40040216848642068806800F00705D4
:1027F000062D05D02068006840F0010021680860BF
:10280000002070BD002C014070B504460D461646F0
:1028100000BF94F83C00012801D1022070BD0120C6
:1028200084F83C0000BF022084F83D0036B1042E3D
:102830001BD0082E31D00C2E5ED145E029462068F1
:1028400001F0CCFB2068806940F0080021688861B5
:102850002068806920F00400216888612068806910
:10286000296908432168886147E02946206801F00A
:10287000E5FB2068806940F4006021688861206879
:10288000806920F4806021688861206880692969F6
:1028900040EA0120216888612FE02946206801F084
:1028A00001FC2068C06940F008002168C861206808
:1028B000C06920F004002168C8612068C0692969E6
:1028C00008432168C86118E02946206801F01EFC11
:1028D0002068C06940F400602168C8612068C06950
:1028E00020F480602168C8612068C069296940EAD5
:1028F00001202168C86100E000BF00BF012084F80A
:102900003D0000BF002084F83C0000BF00BF85E709
:1029100010B504460CB9012010BD94F83D0028B94B
:10292000002084F83C00204600F00CF8022084F8D7
:102930003D00211D206801F005FB012084F83D00C9
:102940000020E9E738B504460D492068884215D1D2
:1029500000BF0C48806940F400600A49886108465D
:10296000806900F40060009000BF00BF00221146A3
:102970001920FEF72FFE1920FEF71CFE38BD0000BF
:10298000002C0140001002407047000010B50446C2
:102990002D480078D8B92D48007803F03FFB01227C
:1029A00011022B48FEF75DF9012001E0411C88B2BD
:1029B0000F28FBDB00224FF480712548FEF751F908
:1029C0002248007802F048F92049087010BD1E48DE
:1029D0000078012836D11D48007803F01FFB1D4800
:1029E00001681D48006803F05EFB0A234FF49072F3
:1029F000184801681948FFF7FDFB0122110214482D
:102A0000FEF72FF9012210211148FEF72AF90120C3
:102A100001E0411C88B20F28FBDB002210210C488A
:102A2000FEF71FF900224FF480710948FEF719F9EB
:102A30000020054908700548007802F00DF90349A7
:102A40000870C3E700BFC1E7090000200A000020AA
:102A500000080140100000200C00002008080020A1
:102A6000704710B504460CB9012010BDA06900B133
:102A700000E000BF94F8390028B9002084F838003D
:102A8000204600F027F8242084F839002068C06828
:102A900020F400502168C860204601F05BFB2068EC
:102AA000006920F49040216808612068406920F0A6
:102AB0002A00216848612068C06840F400502168FD
:102AC000C8600020E063202084F8390084F83A00D0
:102AD0000020CAE710B586B004460020029003909B
:102AE000049005901A49206888422ED100BF1948E9
:102AF000806940F48040174988610846806900F485
:102B00008040019000BF00BF00BF0846806940F0D0
:102B1000040088610846806900F00400019000BF4D
:102B200000BF48150290022003900320059002A9DF
:102B30000948FDF7FFFE4FF48060029000200390EB
:102B4000049002A90448FDF7F5FE06B010BD000090
:102B500000380140001002400008014000E07047CA
:102B6000FDE7014608684069C0F38020B0B16FF40A
:102B700080600A68506100200863202081F83D00D1
:102B8000002081F83E00086C40F00400086400BF9B
:102B9000002081F83C0000BF012070470020FCE7C6
:102BA0002DE9F84304460D4617469846E66A082E76
:102BB00004D0012E02D016F5803F06D120680068AF
:102BC00040F480702168086008E0206B122805D16D
:102BD0002068006840F48070216808603B4600224D
:102BE0004FF001112046CDF8008000F0F9F810B147
:102BF0000120BDE8F8832069B0F5804F04D105F0CD
:102C0000FE002168086112E005F44070F02141EAFD
:102C1000E0102168086143463A460B49204600F01F
:102C200022F908B10120E4E7E8B2216808614346CF
:102C30003A460549891F204600F015F908B10120E0
:102C4000D7E70020D5E70000080001002DE9F84390
:102C500004460F4615469946DDE908862068006857
:102C600040F48060216808602068006840F480704B
:102C700021680860434600224FF00111204600966B
:102C800000F0AEF810B10120BDE8F88307F0FE00B7
:102C900021680861334642463949204600F0E3F88E
:102CA00008B10120F0E700BF0020009020684069D3
:102CB000009020688069009000BF00BF3246414606
:102CC000204600F072F950B1206C042805D120682C
:102CD000006840F40070216808600120D4E7B9F171
:102CE000010F03D1E8B22168086117E0C5F307209E
:102CF0002168086132464146204600F056F950B13D
:102D0000206C042805D12068006840F40070216818
:102D100008600120B8E7E8B2216808613246414600
:102D2000204600F042F950B1206C042805D12068FB
:102D3000006840F40070216808600120A4E7206862
:102D4000006840F4807021680860434600224FF01C
:102D500001112046009600F043F808B1012093E7E6
:102D6000F8B240F001002168086133464246044948
:102D7000204600F078F808B1012085E7002083E7BD
:102D80000200010070B504460D46164620E02046BC
:102D9000FFF7E7FE08B1012070BD681CC0B1FDF768
:102DA00067FF801BA84200D895B90020206320202F
:102DB00084F83D00002084F83E00206C40F02000A4
:102DC000206400BF002084F83C0000BF0120E3E73E
:102DD00020684069C0F380000028D8D00020DBE7DD
:102DE0002DE9F04104460D4617461E46DDF81880D1
:102DF0001CE0701CD0B1FDF73BFFA0EB0800B04217
:102E000000D89EB900202063202084F83D000020D7
:102E100084F83E00206C40F02000206400BF0020B9
:102E200084F83C0000BF0120BDE8F081C5F30740F5
:102E300001280AD120684069A9B20840A9B2884295
:102E400001D101200BE0002009E020688069A9B2CF
:102E50000840A9B2884201D1012000E00020B84218
:102E6000C7D00020E0E72DE9F04104460D461646A4
:102E70001F463DE020684069C0F38020E8B120682B
:102E8000006840F40070216808606FF48060216879
:102E9000486100202063202084F83D00002084F851
:102EA0003E00206C40F00400206400BF002084F845
:102EB0003C0000BF0120BDE8F081701CC0B1FDF7EF
:102EC000D7FEC01BB04200D896B900202063202056
:102ED00084F83D00002084F83E00206C40F0200083
:102EE000206400BF002084F83C0000BF0120E2E71E
:102EF000C5F3074001280AD120684069A9B20840FB
:102F0000A9B2884201D101200BE0002009E020682D
:102F10008069A9B20840A9B2884201D1012000E02D
:102F200000200028A6D00020C5E770B504460D4655
:102F3000164632E020684069C0F30010A0B16FF07F
:102F400010002168486100202063202084F83D00A3
:102F5000002084F83E00206C206400BF002084F82C
:102F60003C0000BF012070BDFDF782FE801BA8421F
:102F700000D895B900202063202084F83D0000206F
:102F800084F83E00206C40F02000206400BF002048
:102F900084F83C0000BF0120E5E720684069C0F3E9
:102FA00080100028C6D00020DDE770B504460D462D
:102FB000164620E02046FFF7D4FD08B1012070BD81
:102FC000681CC0B1FDF754FE801BA84200D895B91B
:102FD00000202063202084F83D00002084F83E007B
:102FE000206C40F02000206400BF002084F83C00EA
:102FF00000BF0120E3E720684069C0F3C01000284B
:10300000D8D00020DBE7000000B585B0002001909B
:1030100002900390049000BF3F48806940F0100088
:103020003D4988610846806900F01000009000BFAB
:1030300000BF00BF0846806940F020008861084654
:10304000806900F02000009000BF00BF00BF08466C
:10305000806940F0040088610846806900F004003F
:10306000009000BF00BF00BF0846806940F0080024
:1030700088610846806900F00800009000BF00BF2A
:10308000002248F210112548FDF7EBFD00224FF613
:1030900003712348FDF7E5FD48F21010019001206F
:1030A0000290002003900220049001A91B48FDF724
:1030B00041FC4FF603700190012002900020039024
:1030C0000220049001A91648FDF734FC0820019065
:1030D000002002900120039001A91148FDF72AFC6D
:1030E000302001900F4802900020039001A90C4865
:1030F000FDF720FC002202210A20FEF76BFA0A20CD
:10310000FEF758FA002202211720FEF763FA172073
:10311000FEF750FA05B000BD001002400008014063
:10312000000C01400000211010B50B480B4908604D
:103130000B484860002109488160C1604FF480411C
:103140000161002141618161C1610162FDF79AFD68
:1031500008B1FDF77EFB10BD00540040A007002021
:10316000A086010010B50848084908604FF0FF30FC
:1031700048604FF4807105488160FEF70DFF08B18B
:10318000FDF767FB10BD000000280040F407002099
:1031900010B50E480E4908604FF482704860002157
:1031A0000B488160C160016141614FF40071816130
:1031B0000021C1610162416281620A21C162FEF7A0
:1031C00093FF08B1FDF745FB10BD00000030014042
:1031D0000808002000B591B000200F9010901C212D
:1031E00008A8FCF7C8FF20216846FCF7C4FF244864
:1031F000244908600020486000212248816043F68D
:10320000FF71C1600021016141618161FFF780FBB5
:1032100008B1FDF71EFB20200F90002010900FA991
:103220001848FFF70EF908B1FDF713FB602008906E
:10323000002009900A900C900D900E900C2208A985
:103240001048FFF7E1FA08B1FDF703FB00200090FA
:1032500001900290039004904FF4005005900020DC
:10326000079069460748FFF7B2F808B1FDF7F1FA91
:10327000702008900348FFF7EFF911B000BD00007F
:10328000002C01406008002000B589B000200790A4
:1032900008901C216846FCF76EFF4FF080401849EB
:1032A0000860002048600021154881600121C1604C
:1032B000002101618161FFF750FA08B1FDF7C9FAF9
:1032C00000200790089007A90D48FFF7BAF808B149
:1032D000FDF7BFFA302000900120019000200290FD
:1032E0000490042269460648FFF7FCF908B1FDF78F
:1032F000B0FA012001900248FFF7AEF909B000BD15
:10330000A008002010B50B480B4908604FF4E130CD
:103310004860002108488160C16001610C21416161
:1033200000218161C161FFF79CFB08B1FDF791FAB3
:1033300010BD000000380140E008002010B5042452
:103340000120204981F80C010846C1F8C80000207E
:10335000C1F8CC00C1F8D000C1F8D4003C20C1F8BD
:10336000D800601E00EB80008000C1F8DC0016A2CF
:10337000D1F8C800002100F096F933201149C1F8B6
:10338000E00014A2D1F8C800012100F08CF9352129
:103390000C48C0F8E410014612A2D1F8C80002217E
:1033A00000F081F936210748C0F8E810014611A263
:1033B000D1F8C800032100F076F933210148C0F8A4
:1033C000EC1010BD20180020204D61696E204D6565
:1033D0006E753A00202D20416E696D6174696F6EC3
:1033E00073200000202D2050696E204D617070699F
:1033F0006E670000202D204F7074696F6E7300009F
:1034000000BFFEE70FB410B5C0B004467BA8859995
:1034100050F82100332809D14FF4887243A920467F
:10342000FCF790FE40B010BC5DF814FB7BA88599BA
:1034300050F82100342816D100208DF81802012000
:10344000374981F80C01020210316846FCF77AFE18
:1034500033480FC800F06AF84FF4887243A9204639
:10346000FCF770FEDEE77BA8859950F8210035282F
:1034700016D100208DF8180201202A4981F80C018C
:10348000020210316846FCF75DFE26480FC800F0C6
:103490004DF84FF4887243A92046FCF753FEC1E76C
:1034A0007BA8859950F82100362816D100208DF888
:1034B000180201201C4981F80C01020210316846F3
:1034C000FCF740FE18480FC800F030F84FF488723F
:1034D00043A92046FCF736FEA4E77BA8859950F85F
:1034E0002100012801DB012000E000207BA9859A52
:1034F00051F822100A2901DC012100E000210840D6
:1035000030B14FF4887243A92046FCF71BFE89E7CF
:103510004FF4887243A92046FCF714FE00BF81E7F0
:103520002018002030190020401A00200FB430B5B8
:1035300085B008A83A906C4601F004FF01F0EAFE5D
:10354000142320463C9A3A9900F0C9F8684601F0E5
:103550006DFF0A20FDF77EF901F0E2FE3C9800F1D4
:103560001402142320463A9900F0B9F8684601F095
:103570005DFF0A20FDF76EF901F0D8FE3C9800F1DE
:103580002802142320463A9900F0A9F8684601F071
:103590004DFF0A20FDF75EF901F0CEFE3C9800F1E8
:1035A0003C02142320463A9900F099F8684601F04D
:1035B0003DFFDDE93C10401A142190FBF1F0C5B24B
:1035C0000021284601F09EFF0A20FDF743F905B0CF
:1035D00030BC5DF814FB0FB410B5C0B004467A9946
:1035E0007898884209D14FF4887243A92046FCF7A5
:1035F000A9FD40B010BC5DF814FB79997898884219
:1036000005D177981430779079981430799078981C
:10361000143078908598401C85904FF4807247A9AB
:103620006846FCF78FFD43A80FC8FFF77FFF4FF4F4
:10363000887243A92046FCF785FD00BFD9E70FB487
:1036400010B5C0B0044676997898884209D14FF4F5
:10365000887243A92046FCF775FD40B010BC5DF8A8
:1036600014FB77997898884205D177981438779029
:103670007998143879907898143878908598401E05
:1036800085904FF4807247A96846FCF75BFD43A81C
:103690000FC8FFF74BFF4FF4887243A92046FCF791
:1036A00051FD00BFD9E72DE9F04105460E4617460A
:1036B000002410E03846FCF769FDA04205D2002046
:1036C000142101FB0651085504E0385D142101FB6B
:1036D00006510855641C142CECDBBDE8F08130B5B4
:1036E0000446002003E08D182D5C2554401C9842B0
:1036F000F9DB30BD0FB410B56420FDF7ABF802AABA
:10370000B62102A802F020F96420FDF7A3F802AA6E
:10371000B42102A802F018F96420FDF79BF801F02B
:1037200011FE6420FDF796F801F0F4FD25A001F0EC
:103730007DFE01F0F5FD28A001F078FE01F0F6FD18
:103740002BA001F073FE01F0F7FD2DA001F06EFE3D
:1037500042F21070FDF77EF801F0F4FD01F0E0FD9B
:103760000A230222B62102A8FDF768FB30B93220F5
:10377000FDF770F827A001F059FE02E029A001F042
:1037800055FE01F0D3FD0A230222B42102A8FDF761
:1037900055FB30B93220FDF75DF827A001F046FE59
:1037A00002E029A001F042FE4FF47A70FDF752F8D2
:1037B00001F0C8FD01F0AEFD012001F0CBFD10BC11
:1037C0005DF814FB387838783820524742204C4551
:1037D0004420437562650000465720566572736940
:1037E0006F6E3A2076312E302E312E3000000000E0
:1037F00044657369676E65642062793A0000000071
:103800004A6F656C204D69636861656C6973203A25
:103810005E2900004B6579706164205265616479AE
:10382000210000004B657970616420496E69742045
:103830004661696C65640000576865656C20526577
:103840006164792100000000576865656C20496E4D
:103850006974204661696C65640000000FB4F0B5BE
:10386000ADF5057DA09D9F9C0020E3490870E349CC
:1038700008708AAE96F83D0020280FD0102C02D197
:103880000120DD490870202C02D10120DB4908709D
:1038900028460DF5057DF0BC5DF814FB202C7DD18C
:1038A00000BF8AA8FDF7EAF92028FAD1D4480078A9
:1038B000D4490870D2480278B4218AA802F095F958
:1038C000CF490870D0480078FCF7C4FFCC48007896
:1038D000432801D1012000E00020CA49097843298A
:1038E00001D0012100E000210840002862D0C74833
:1038F00090F80C01012819D14FF48272C3490C31A0
:103900006846FCF71FFCC1480EC841A8FFF77AFDC6
:103910004FF4887241A9BD48FCF714FCBB48D0F8AD
:103920000811E03030F8210085B23EE0B84890F848
:103930000C01012819D14FF48272B5490C31684647
:10394000FCF700FCB2480EC841A8FFF75BFD4FF43E
:10395000887241A9AE48FCF7F5FBAD48D0F80811D4
:10396000E03030F8210085B21FE0AA4890F80C0141
:1039700001281AD14FF48272A6490C316846FCF72F
:10398000E1FBA4480EC841A8FFF73CFD4FF4887244
:1039900041A9A048FCF7D6FB9E4800E01AE1D0F808
:1039A0000811E03030F8210085B2582094490870A1
:1039B0009449087092480078452801D1012000E020
:1039C0000020904909784E2901D1012100E0002111
:1039D00008408B490978532901D1012100E00021D9
:1039E000884A1278452A01D1012200E000221140C4
:1039F000084383490978572901D1012100E00021BA
:103A0000804A1278532A01D1012200E0002211409D
:103A100008437B4909784E2901D1012100E00021AA
:103A2000784A1278572A01D1012200E00022114081
:103A30000843E8B3754890F80C01012811D14FF400
:103A4000827272490C316846FCF77CFB6F480EC8E5
:103A500041A8FFF7F4FD4FF4887241A96B48FCF7C9
:103A600071FB6B4890F80C01012811D14FF4827260
:103A700067490C316846FCF765FB65480EC841A8EC
:103A8000FFF7DDFD4FF4887241A96148FCF75AFB4E
:103A9000604890F80C01012813D14FF482725D49FF
:103AA0000C316846FCF74EFB5A480EC841A800E0AE
:103AB00007E0FFF7C4FD4FF4887241A95548FCF7B1
:103AC00041FB4F480078572801D1012000E0002039
:103AD0004C4909784E2901D1012100E0002108401C
:103AE000474909784E2901D1012100E00021454ACA
:103AF0001278452A01D1012200E00022114008433A
:103B00003F490978452901D1012100E000213D4AC2
:103B10001278532A01D1012200E00022114008430B
:103B200037490978532901D1012100E00021354AA4
:103B30001278572A01D1012200E0002211400843E7
:103B4000E8B3324890F80C01012811D14FF4827289
:103B50002E490C316846FCF7F5FA2C480EC841A8EE
:103B6000FFF739FD4FF4887241A92848FCF7EAFABB
:103B7000274890F80C01012811D14FF48272244992
:103B80000C316846FCF7DEFA21480EC841A8FFF761
:103B900022FD4FF4887241A91D48FCF7D3FA1D4855
:103BA00090F80C01012813D14FF4827219490C319D
:103BB0006846FCF7C7FA17480EC841A800E007E0BE
:103BC000FFF709FD4FF4887241A91248FCF7BAFAD1
:103BD00028465EE6102C0DD1B6218AA801F09AFF86
:103BE000074609480078FCF735FE0A2F01D100206E
:103BF0004FE600BF28464CE67C0700207D070020EA
:103C00007B0700207A070020790700202018002079
:103C100030190020401A0020704770470FB470B56B
:103C20000446062505A837900020389039903A9030
:103C30003C203B90681E00EB800080003C9019A265
:103C400000213798FFF72FFD33203D9019A2012165
:103C50003798FFF728FD33213E9118A202213798AB
:103C6000FFF721FD33213F9118A203213798FFF779
:103C70001AFD3321409119A204213798FFF713FD53
:103C80003321419119A205213798FFF70CFD34210A
:103C900042914FF4887205A92046FCF753FA70BC94
:103CA0005DF814FB2050696E204D617070696E677D
:103CB0003A000000204C4544202330002052454467
:103CC0002056616C3A203430303000002047524E8C
:103CD0002056616C3A2032303030000020424C5582
:103CE0002056616C3A203130303000002042616350
:103CF0006B00000008B508490968C9084FF47A72DA
:103D0000B1FBF2F14143009100BF00BF00994A1E90
:103D100000920029F9D108BD9C07002070B5044627
:103D20000025FCF7A5FF054607E0FCF7A1FF401BB7
:103D3000B0F57A7F01D9032070BD2068406800F09B
:103D400020000028F1D02068406840F01000216871
:103D500048600020F0E770B5044600252068406800
:103D600020F0100021684860FCF782FF054607E05C
:103D7000FCF77EFF401BB0F57A7F01D9032070BDB0
:103D80002068406800F020000028F1D00020F6E70D
:103D9000F8B504460D4616462B46002280212046E3
:103DA000009600F009F828B1606D40F020006065D1
:103DB0000320F8BD0020FCE72DE9F04104460E4643
:103DC00017461D46DDF818803EE0681CD8B3FCF7A6
:103DD0004FFFA0EB0800A84200D2A5BB20684068B6
:103DE00020F0E000216848606068B0F5827F0DD166
:103DF000A068B0F5004F03D0A068B0F5806F05D182
:103E00002068006820F0400021680860A06AB0F5D2
:103E1000005F0DD100BF2068006820F400502168C9
:103E200008602068006840F400502168086000BF06
:103E3000012084F8510000BF002084F8500000BF2A
:103E40000320BDE8F081FFE7206880683040B04281
:103E500001D1012000E00020B842B6D10020F0E7F7
:103E6000704710B5FDF736FB10BD00B593B02821A3
:103E700009A8FCF780F9142104A8FCF77CF90020BC
:103E80000090019002900390052009904FF480303B
:103E90000A9001200C900020109009A8FDF74AFE1E
:103EA00008B1FCF7D6FC0F200490012005900020FB
:103EB000069007900890002104A8FDF705FD08B1C1
:103EC000FCF7C7FC01200090000201906846FDF756
:103ED00063FC08B1FCF7BDFC13B000BD11480068DD
:103EE00040F001000F490860084640680E4908404C
:103EF0000C494860084600680C49084009490860B8
:103F00000846006820F4802008600846406820F4D5
:103F1000FE0048604FF41F008860C8030449086031
:103F200070470000001002400000FFF8FFFFF6FE9F
:103F300008ED00E010B50248FEF7C3FA10BD00001E
:103F40006008002010B50268184B984208D0B0F104
:103F5000804F05D0164B984202D0164B984203D1A1
:103F600022F070024B681A43104B984208D0B0F10F
:103F7000804F05D00E4B984202D00E4B984203D191
:103F800022F44072CB681A4322F080034C6943EA62
:103F9000040202608B68C3620B688362034B984221
:103FA00001D10B6903630123436110BD002C014063
:103FB000000400400008004030B501F01F05012456
:103FC00004FA05F3046A9C430462046A01F01F05C5
:103FD00002FA05F52C43046230BD000030B5056AD5
:103FE00025F001050562026A4368846924F07004C3
:103FF00024F003040D682C4322F002028D682A434A
:104000000D4DA84206D100BF22F00802CD682A4318
:1040100022F00402084DA84207D123F4807323F450
:1040200000734D692B438D692B43436084614D6858
:104030004563026230BD0000002C014030B5056AC6
:1040400025F010050562026A4368846924F4E0449F
:1040500024F440740D6844EA052422F020028D689F
:1040600042EA05120E4DA84207D100BF22F080029D
:10407000CD6842EA051222F04002094DA84209D15A
:1040800023F4806323F400634D6943EA85038D695B
:1040900043EA8503436084614D688563026230BDF5
:1040A000002C014030B5056A25F480750562026A6E
:1040B0004368C46924F0700424F003040D682C43A1
:1040C00022F400728D6842EA05220F4DA84207D102
:1040D00000BF22F40062CD6842EA052222F4806229
:1040E000094DA84209D123F4805323F400534D69AC
:1040F00043EA05138D6943EA05134360C4614D68C3
:10410000C563026230BD0000002C014030B5056A75
:1041100025F480550562036A4468C26922F4E042CE
:1041200022F440720D6842EA052223F400538D68A0
:1041300043EA0533064DA84204D124F480444D6976
:1041400044EA85144460C2614D680564036230BD71
:10415000002C014070B504462168096921F44051E2
:10416000E2681143226811612269A1681143626902
:1041700041EA02052168C96841F20C629143294372
:104180002268D1602168496921F44071A269114314
:1041900022685161564A2168914254D1FDF770FC62
:1041A00000EBC00101EB001162689200B1FBF2F17B
:1041B00000EBC00202EB001263689B00B2FBF3F25B
:1041C0006423B2FBF3F202EBC20303EB0212A1EB96
:1041D0008201322202EB01116422B1FBF2F101F003
:1041E000F00100EBC00202EB001263689B00B2FB1F
:1041F000F3F26423B2FBF3F201EB021200EBC00115
:1042000001EB001163689B00B1FBF3F100EBC0030D
:1042100003EB00136668B600B3FBF6F36426B3FB4A
:10422000F6F303EBC30606EB0313A1EB8301322382
:1042300003EB01116423B1FBF3F101F00F01114411
:104240002268916053E0FDF70BFC00EBC00101EB2D
:10425000001162689200B1FBF2F100EBC00202EBC8
:10426000001263689B00B2FBF3F26423B2FBF3F22B
:1042700002EBC20303EB0212A1EB8201322202EB3A
:1042800001116422B1FBF2F101F0F00100EBC00278
:1042900002EB001263689B00B2FBF3F26423B2FBF3
:1042A000F3F201EB021200EBC00101EB00116368B5
:1042B0009B00B1FBF3F100EBC00303EB0013666856
:1042C000B600B3FBF6F36426B3FBF6F303EBC306C9
:1042D00006EB0313A1EB8301322303EB01116423EB
:1042E000B1FBF3F101F00F0111442268916070BD40
:1042F0000038014000BFFEE737B514460846064BBC
:104300006A46214600F0F8F804466946002000F0AD
:104310008AFC20463EBD0000274C00080248006889
:10432000C0F30220704700000CED00E010B500283B
:1043300004DB0A07130E054A135406E00A07140E9D
:10434000034A00F00F031B1FD45410BD00E400E02B
:1043500018ED00E002E008C8121F08C1002AFAD1D7
:1043600070477047002001E001C1121F002AFBD1F5
:10437000704700002DE9FF5F82B00021DDE90430C5
:10438000020DDDF840B0034318D044F61050A2F2FD
:10439000FF3242431514119801281FD0A5EB0B00E2
:1043A000401C5FEA000A4FF000064E4FDFF83891DC
:1043B000B046504615D5CAF1000413E01198012407
:1043C0004AA3012801D16FEA0B010298119AC0E9B2
:1043D0000031C0E9024206B0BDE8F09FCBF1000019
:1043E000DFE704460021404A491842EB0450CDE97A
:1043F000001012E0E00707D032463B4640464946EF
:10440000FBF7B9FF8046894632463B4610461946BF
:10441000FBF7B1FF06460F466410002CEAD1DDE938
:104420000401DDE90023BAF1000F06DAFBF7A3FF70
:1044300042464B46FBF79FFF05E0FCF70EF842466D
:104440004B46FCF70AF804460E460022284BFCF7C0
:104450008BF803D84FF0FF30014607E00022254BD0
:1044600020463146FBF7E0FEFCF766F8102409E031
:10447000002C0ADB0A220023FBF7A5FE039B303247
:104480001A55641E50EA0102F2D1641C039AC4F169
:1044900011031444119A012A03D0012208430DD1BB
:1044A0000AE0084304D000204FF0110B119072E78E
:1044B000A3EB0B056D1E0DE05B4504DD4FF0000224
:1044C00005F1010504E003DA4FF00002A5F1010552
:1044D000002AECD002981199C0E90231C0E90045E8
:1044E00079E70000000014400000F03F30000000B9
:1044F0000000F0430000E03F2DE9FF4F95B09B46E0
:104500008946064600250FE2252877D10024274654
:10451000F84A0121059400E0044316F8013F203BCE
:1045200001FA03F01042F7D130782A2811D06FF049
:104530002F033078A0F13002092A16D8059A44F0EA
:10454000020402EB820203EB42021044761C059047
:10455000EFE759F8042B0592002A03DA504244F49D
:104560000054059044F00204761C30782E2816D1B1
:1045700016F8010F44F004042A280DD06FF02F0222
:104580003078A0F13003092B09D807EB870302EB41
:104590004303C718761CF3E759F8047B761C307880
:1045A0006C280FD006DC4C2817D068280DD06A285C
:1045B00014D104E0742810D07A280FD10DE044F40F
:1045C00000140AE044F4801401E044F440147278CA
:1045D000824202D104F58014761C761C307866285D
:1045E0000BD013DC582877D009DC002875D045287B
:1045F000F6D04628F4D047281AD19DE118E0632868
:1046000035D0642879D0652812D195E1702873D00F
:1046100008DC6728F1D069286FD06E280DD06F288C
:1046200006D1B5E073282CD0752875D0782874D0C1
:104630005A46179990476D1C75E1C4F30250022841
:1046400009D003280DD0D9F8001004280DD00D6032
:1046500009F1040967E1D9F80010EA17C1E900522D
:10466000F6E7D9F800100D80F2E70D70F0E719F8C1
:10467000041B8DF8001000208DF80100EA4601208F
:1046800003E059F804AB4FF0FF3061074FF0000131
:1046900002D40DE008F101018846B9420FDA8045E5
:1046A000F8DB1AF808100029F4D108E008F101013C
:1046B00088468142FADB1AF808100029F6D10598DD
:1046C0005B46A0EB080721463846179A00F094FA9B
:1046D000284400EB080507E04DE029E10DE01AF859
:1046E000010B5A4617999047B8F10108F7D25B467B
:1046F00021463846179A13E142E00A220092C4F399
:1047000002524FF0000A022A08D059F804CB032ABB
:104710004FEAEC710AD00DE029E02AE009F1070127
:1047200021F00702F2E802C1914609E00FFA8CFC81
:104730004FEAEC71042A03D14FFA8CFC4FEAEC717A
:10474000002907DA0A460021DCF1000C61EB0201C6
:104750002D2202E0220504D52B228DF8042001220F
:1047600003E0E20701D02022F7E7904659E00A2152
:1047700002E010220DE010214FF0000A00910BE042
:1047800010224FF0000A44F004040827009203E0CE
:1047900008224FF0000A0092C4F30252022A05D008
:1047A00059F804CB0021032A08D009E009F10701D8
:1047B00021F00702F2E802C1914605E01FFA8CFCE5
:1047C000042A01D10CF0FF0C4FF00008220728D575
:1047D000702806D0009B83F0100353EA0A0305D02B
:1047E0000EE040228DF80420012208E05CEA01027C
:1047F00006D030228DF804208DF805000222904664
:10480000009B83F0080353EA0A030AD15CEA010221
:1048100001D1620705D530228DF804204FF0010840
:104820007F1E582804D034A003900EA802900DE0FB
:1048300036A0F9E753466046009AFBF7C4FC84466D
:104840000398825C0298401E029002705CEA0100AC
:10485000F0D1029806A9081A00F1200A600702D5D3
:1048600024F4803400E00127574502DDA7EB0A005D
:1048700000E0002000EB0A01009005984144401A36
:104880000590E00306D45B462146179A059800F090
:10489000B3F90544002706E001A85A46C05D179900
:1048A00090476D1C7F1C4745F6DBE0030CD55B464B
:1048B0002146179A059800F09FF9054404E030203E
:1048C0005A46179990476D1C0099481E0090002980
:1048D000F5DC08E0029802995A460078491C0291DA
:1048E000179990476D1CBAF10001AAF1010AF1DC99
:1048F00065E10000092801003031323334353637A4
:10490000383961626364656600000000303132331B
:1049100034353637383941424344454600000000BB
:1049200000F058F90544761C307800287FF4ECAD8F
:1049300019B02846BDE8F08F620700D4062709F1B8
:10494000070222F0070CFCE80223E14603F00048CE
:104950005FEA080C02D00FF2702C0DE05FEA045CF5
:1049600002D50FF2682C07E05FEAC47C02D00FF298
:10497000602C01E0AFF2700C4FF0FF3823F00043E1
:10498000CDF850C065280CD006DC452809D0462853
:104990001DD047283DD13DE0662818D067287ED13C
:1049A00038E00021112F01DB112000E0781CCDE957
:1049B000000106A90EA8FFF7DDFCDDE90F010E9A44
:1049C00003910021009207F1010A04914DE04FF09C
:1049D00000400097CDE9011006A90EA8FFF7CAFC18
:1049E000DDE90F0203920E9B11990022DDF80CA065
:1049F0000093049211B9791C00EB010AB7EB0A008D
:104A000004D4C0F1FF3007F1010A0490AAEB0700BB
:104A1000019044E0012F00DA01270021112F01DD70
:104A2000112000E03846CDE9000106A90EA8FFF7E5
:104A3000A1FCDDE90F010E9A03910021049100927F
:104A4000BA4621070CD40399514500DA8A46BAF1D7
:104A5000010F05DD009AAAF10101515C302908D04F
:104A6000B84202DA10F1040F06DA0121CDE9011093
:104A700015E0AAF10101E9E7002805DC04990144E9
:104A80000491AAEB000102E0411C514500DD8A4679
:104A90000499401A401C01904FF0004002902007FA
:104AA00004D40198504501DBCDF8048000208DF836
:104AB0004F0002980DF14F07B0F1004F25D02B2089
:104AC0000E9002984FF0020800280CDA4042029043
:104AD0002D200E9007E00A210298FBF75EFB303193
:104AE000029007F8011DB8F10001A8F10108F2DCFD
:104AF00002980028EFD1791E0E980870307800F0E7
:104B0000200040F0450007F8020D12A8C01B00F17C
:104B100007081498007800B1012000EB0A01019801
:104B200001EBE07105984144401A401E0590E003F6
:104B300006D45B462146179A059800F05DF80544B7
:104B40001498007818B15A46179990476D1CE003E5
:104B500024D55B462146179A059800F04DF8054488
:104B60001CE00498002807DBDDE90301884203DD2F
:104B70000098405C179901E0179930205A469047F9
:104B8000049805F10105401C04900198401E019015
:104B900004D12E205A46179990476D1CBAF1000196
:104BA000AAF1010ADDDC05E017F8010B5A46179956
:104BB00090476D1CB8F10001A8F10108F4DC5B46D8
:104BC0002146179A0598ABE62D0000002B00000047
:104BD000200000002DE9F041044600251E4617463E
:104BE000880404D405E039462020B0476D1C641EBB
:104BF000F9D52846BDE8F0812DE9F04104460025AD
:104C00001E469046C80301D5302700E020278804BF
:104C100004D505E041463846B0476D1C641EF9D501
:104C20002846BDE8F0810A68531C0B60107070477D
:104C30000146002000BF02E000220A54401C402828
:104C4000FADB70470246002000BF02E0135C0B5401
:104C5000401C4028FADB704710B5044624B94FF4D5
:104C600080711C48FBF7F6FF012C03D16102194843
:104C7000FBF7F0FF022C03D161021648FBF7EAFFB5
:104C8000032C04D14FF400611248FBF7E3FF042C1E
:104C900003D1A1020F48FBF7DDFF052C04D14FF42F
:104CA00000510C48FBF7D6FF062C04D14FF480418D
:104CB0000848FBF7CFFF072C04D14FF4004105480B
:104CC000FBF7C8FF601C84B2082C00D100242046EA
:104CD00010BD0000000C01400FB42DE9F047F4B006
:104CE000E0AD95E86006DDF89083DF9F64A8FFF7EC
:104CF0009FFF002400BF27E0385D012823D164A96D
:104D0000085564A84FF4BE7280A9619660956290C0
:104D10006846FBF717FA7CA80FC800F03FFC0E4866
:104D200000684FF4BE720D495F906846FBF70AFABF
:104D30000A4810380FC800F007FC01200849087025
:104D40004046FBF787FD641C402CD5DB74B0BDE802
:104D5000F0075DF814FB00000C0000203009002073
:104D6000090000200FB42DE9F047F4B0DFAD95E85D
:104D7000E006DDF8908364A92846FFF763FF00246E
:104D800000BF2AE064A8005D295D0840012823D106
:104D9000002064A9085564A84FF4BE7280A96197E9
:104DA000609662906846FBF7CDF97CA80FC800F0CA
:104DB000F5FB0D4800684FF4BE7280A95F9068460D
:104DC000FBF7C0F97CA80FC800F0BEFB0120074923
:104DD00008704046FBF73EFD641C402CD2DB74B0EB
:104DE000BDE8F0075DF814FB0C000020090000206E
:104DF0000FB42DE9F04FE3B0DDF84483D09FD39C8E
:104E00000FFA88F5380C40EA084006B20FFA87F925
:104E10004FF0000B0020629061908246B5F57A6FEA
:104E200002DB00250FFA84FBB5F57A6F01DA012069
:104E300000E00020002D01DD012100E000210840FC
:104E400030B10025204604EBD07149100FFA81FBE8
:104E5000B6F57A6F02DB002620B26290B6F57A6F63
:104E600001DA012000E00020002E01DD012100E038
:104E70000021084030B10026204604EBD0714910D3
:104E800009B26291B9F57A6F03DB4FF0000920B2E5
:104E90006190B9F57A6F01DA012000E00020B9F1E4
:104EA000000F01DD012100E00021084038B14FF082
:104EB0000009204604EBD071491009B2619131E03C
:104EC000A9B2CF9A8C9800F096FBB1B2CF9AAD9868
:104ED00000F091FB1FFA89F1CF9ACE9800F08BFB7E
:104EE000144800684FF4BE7213495F906846FBF7A0
:104EF00029F9114810380FC800F026FB01200F498E
:104F00000870D498FBF7A6FC0AEB04000FFA80FAAD
:104F100005EB0B0005B26298304406B26198484434
:104F20000FFA80F9D2988245CADD63B0BDE8F00F70
:104F30005DF814FB0C00002030090020090000205F
:104F40000FB42DE9F04FE3B0DDF84483D09FD39C3C
:104F50000FFA88F5380C40EA084006B20FFA87F9D4
:104F60004FF0000B0020629061904FF47A6AB5F523
:104F70007A6F02DB55460FFA84FBB5F57A6F01DADA
:104F8000012000E00020002D01DD012100E00021D2
:104F9000084038B14FF4FA65204604EBD07149104F
:104FA0000FFA81FBB6F57A6F03DB4FF47A6620B215
:104FB0006290B6F57A6F01DA012000E00020002E41
:104FC00001DD012100E00021084038B14FF4FA660C
:104FD000204604EBD071491009B26291B9F57A6F9D
:104FE00003DB4FF47A6920B26190B9F57A6F01DA88
:104FF000012000E00020B9F1000F01DD012100E0F7
:105000000021084038B14FF4FA69204604EBD07112
:10501000491009B2619132E0A9B2CF9A8C9800F0A0
:10502000EAFAB1B2CF9AAD9800F0E5FA1FFA89F129
:10503000CF9ACE9800F0DFFA154800684FF4BE72A0
:1050400014495F906846FBF77DF8124810380FC886
:1050500000F07AFA012010490870D498FBF7FAFBA7
:10506000AAEB04000FFA80FAA5EB0B0005B26298D8
:10507000301A06B26198A9EB00000FFA80F9D298B5
:105080008245C9DA63B0BDE8F00F5DF814FB00009B
:105090000C00002030090020090000202DE9F0411B
:1050A000E6B04FF4FA6600270A240A254FF4FA788E
:1050B00055E02E4962966495639403C961916090AE
:1050C0002B484FF4BE722B495F906846FBF73AF8C5
:1050D000284810380FC8FFF78BFE27496296649561
:1050E000639403C96191609024484FF4BE722149D2
:1050F0005F906846FBF726F81E4810380FC8FFF788
:1051000077FE4046FBF7A6FB1848629764956394C8
:1051100003C86191609016484FF4BE7215495F90C4
:105120006846FBF70FF8134810380FC8FFF708FF61
:10513000114862976495639403C8619160900F4829
:105140004FF4BE720B495F906846FAF7FBFF0948BF
:1051500010380FC8FFF7F4FE4046FBF77BFB08480A
:1051600000780028A5D066B0BDE8F0815803002083
:10517000F0050020300900206803002030060020E0
:10518000200300202DE9F041E6B04FF4FA66002735
:105190000A240A254FF4FA78002057490870A2E043
:1051A000564862966495639403C861916090544830
:1051B0004FF4BE7253495F906846FAF7C3FF5148F7
:1051C00010380FC8FFF714FE4C486297649563943B
:1051D00003C8619160904A484FF4BE7249495F909C
:1051E0006846FAF7AFFF474810380FC8FFF7A8FE28
:1051F000424962966495639403C961916090424804
:105200004FF4BE723F495F906846FAF79BFF3D48F6
:1052100010380FC8FFF7ECFD384862976495639427
:1052200003C86191609038484FF4BE7235495F9071
:105230006846FAF787FF334810380FC8FFF780FE3B
:105240002E4962966495639403C9619160902F48DA
:105250004FF4BE722B495F906846FAF773FF2948F6
:1052600010380FC8FFF7C4FD244862976495639413
:1052700003C86191609025484FF4BE7221495F9048
:105280006846FAF75FFF1F4810380FC8FFF758FE4F
:105290001A4962966495639403C9619160901C48B1
:1052A0004FF4BE7217495F906846FAF74BFF1548F6
:1052B00010380FC8FFF79CFD1048629764956394FF
:1052C00003C86191609012484FF4BE720D495F901F
:1052D0006846FAF737FF0B4810380FC8FFF730FE63
:1052E0004046FBF7B7FA0448007800283FF458AF6F
:1052F00066B0BDE8F08100002003002050030020CC
:105300007006002030090020B0060020F0060020C2
:105310003007002010B50021084600F0F3F810BD5A
:1053200010B50021012000F0EDF810BD10B50021EE
:10533000022000F0E7F810BD10B50021032000F0B6
:10534000E1F810BD10B5012000F090F80320FBF744
:1053500081FA10BD10B504461CB10F2000F086F88C
:1053600002E00C2000F082F810BD000010B50446E9
:105370003220FBF76FFA2B4804604FF4FA730522D2
:105380004E210068FBF75AFD70B14FF4FA73052205
:105390007E2124480068FBF751FD08B1002010BDB4
:1053A0007E202149087002E04E201F4908702D2000
:1053B000FBF750FA302000F059F80520FBF74AFAC5
:1053C000302000F053F80120FBF744FA302000F0C1
:1053D0004DF80820FBF73EFA202000F047F808209F
:1053E000FBF738FA282000F041F80120FBF732FAE9
:1053F000082000F03BF80120FBF72CFA012000F018
:1054000035F80320FBF726FA062000F02FF80120DC
:10541000FBF720FA0C2000F029F80320FBF71AFA1A
:105420000120BCE7180300201C0300200FB410B5B6
:1054300086B009A8009001A8009A0899FEF75CFFC1
:1054400000200090002405E001A9085D00F034F878
:10545000601CC4B201A8FAF799FEA04201D9142C2D
:10546000F2DB06B010BC5DF814FB00007CB504460E
:10547000F02000EA041504F0F00646F00C008DF868
:10548000040046F008008DF8050045F00C008DF88A
:10549000060045F008008DF80700C820042301AA83
:1054A00000900348017803480068FBF799FD7CBD34
:1054B0001C030020180300207CB50446F02000EAFD
:1054C000041504F0F00646F00D008DF8040046F0D7
:1054D00009008DF8050045F00D008DF8060045F037
:1054E00009008DF80700C820042301AA0090034892
:1054F000017803480068FBF773FD7CBD1C030020A6
:105500001803002070B504460E4606F00F0524B9B6
:1055100045F080052846FFF7A9FF012C04D145F08E
:10552000C0052846FFF7A2FF022C04D145F09405E0
:105530002846FFF79BFF032C04D145F0D4052846ED
:10554000FFF794FF70BD00000FB410B5659C0020FC
:1055500018E002A931F810100D4A52F8202024F862
:10556000121023A931F810100A4A52F8202024F80A
:10557000121044A931F81010074A52F8202024F8DC
:105580001210401C4028E4DB10BC5DF814FB000046
:105590001400002014010020140200200FB4F0B504
:1055A00069AC70CCA9B2200C40EA054082B2A3B22B
:1055B00000201BE0375C012F08D1259F27F8101031
:1055C000469F27F81020679F27F81030375C67B98F
:1055D0000027DDF894C02CF81070DDF818C12CF805
:1055E0001070DDF89CC12CF81070401C4028E1DBE5
:1055F000F0BC5DF814FB10B50346002005E0145C18
:10560000012C01D123F81010401C4028F7DB10BDFD
:10561000ADF5456DFBF76AFFFEF727FCFDF7F4FCDF
:10562000FDF782FDFDF79EFDFDF7B2FDFDF7D2FD12
:10563000FDF72AFEFDF766FEFDF780FE4FF482724D
:1056400094496846FAF77EFD92480C380EC80DF56D
:105650003460FBF75DF84FF488720DF534618D48C6
:105660000C38FAF76FFD4FF482728B496846FAF7EF
:1056700069FD89480C380EC80DF53460FEF7CEFA86
:105680004FF488720DF5346183480C38FAF75AFDEF
:105690004FF4827281496846FAF754FD7F480C380E
:1056A0000EC80DF53460FEF7B9FA4FF488720DF5A7
:1056B00034617A480C38FAF745FD79480146C1F85B
:1056C00080008430C1F804018430C1F888010022D0
:1056D0004FF400417348FBF7C4FA00224FF48041B5
:1056E0007048FBF7BEFA00224FF400516D48FBF7FB
:1056F000B8FA00224FF480516A48FBF7B2FA002250
:105700004FF400616748FBF7ACFA00224FF4806168
:105710006448FBF7A6FA00224FF400716148FBF7DA
:10572000A0FA00224FF480715E48FBF79AFA042138
:105730005D48FDF743F85D48FCF7ADFE0C215B4882
:10574000FDF73CF85A48FFF711FE2A2258490DF69A
:10575000FC30FAF7F7FC5648408DADF8260C54485B
:10576000C06ACDF8280C5248006BCDF82C0C0922E9
:105770004F4934310DF54360FAF7E4FC4C4890F89A
:105780003D008DF8390C4A4890F83E008DF83A0CEF
:105790004748006CCDF83C0C4548406CCDF8400CB7
:1057A0004348806CCDF8440C4148C06CCDF8480C9F
:1057B0003F48006DCDF84C0C44220DF60C41684674
:1057C000FAF7C0FC0DF6FC300FC8FDF793FF01227D
:1057D000D1033448FBF745FA3648FCF785FC3648D8
:1057E000006800F055FC0120344908700202344979
:1057F0006846FAF7A7FC324810380FC8FDF796FE46
:1058000047E002E00120FBF725F82E480088332806
:10581000F8D00AE04FF44562214910316846FAF7A2
:1058200091FC1F480FC800F04FF826480088042854
:10583000F0D00AE04FF44562194910316846FAF792
:1058400081FC17480FC800F05FFA1E480088032843
:10585000F0D00AE04FF44562114910316846FAF77A
:1058600071FC0F480FC8FFF719FC16480088022882
:10587000F0D00AE04FF44562094910316846FAF762
:1058800061FC07480FC8FFF77DFC0E48008801281F
:10589000F0D0B6E73C1900204C1A00205C1B002019
:1058A00020090020000C0140A00800206008002012
:1058B000A0070020080800200C000020090000209C
:1058C00030180020140300200FB4F0B5E5B04FF4F9
:1058D0007A6600270A24642500201849087025E00C
:1058E000174962966495639403C961916090154865
:1058F0004FF4BE726EA95F906846FAF723FC6AA85F
:105900000FC8FFF7E9F90E4962976495639403C9DC
:10591000619160900B484FF4BE726EA95F9068462B
:10592000FAF710FC6AA80FC8FFF71CFA03480078C2
:105930000028D5D065B0F0BC5DF814FB2003002032
:1059400040030020B003002070B504460D46164603
:1059500000235E222946204600F0C1F963238022FD
:105960002946204600F0BBF90A20FAF773FF01230D
:105970002B222946204600F0B2F901232C22294689
:10598000204600F0ACF900232D222946204600F0E5
:10599000A6F900232E222946204600F0A0F9012373
:1059A0002F222946204600F09AF901233022294669
:1059B000204600F094F9FF2331222946204600F0CA
:1059C0008EF9022332222946204600F088F9062368
:1059D00041222946204600F082F90323422229462B
:1059E000204600F07CF9062343222946204600F099
:1059F00076F9032344222946204600F070F9062355
:105A000045222946204600F06AF90323462229460A
:105A1000204600F064F9062347222946204600F07C
:105A20005EF9032348222946204600F058F9062350
:105A300049222946204600F052F903234A222946EA
:105A4000204600F04CF906234B222946204600F060
:105A500046F903234C222946204600F040F906234C
:105A60004D222946204600F03AF903234E222946CA
:105A7000204600F034F906234F222946204600F044
:105A80002EF9032350222946204600F028F9062348
:105A900051222946204600F022F9032352222946AA
:105AA000204600F01CF9062353222946204600F028
:105AB00016F9032354222946204600F010F9062344
:105AC00055222946204600F00AF90323562229468A
:105AD000204600F004F9062357222946204600F00C
