:020000040800F2
:10000000700B00200101000829260008311E00089D
:10001000A1230008B9060008092700080000000015
:10002000000000000000000000000000552600084D
:10003000BD060008000000002B2600085726000817
:100040001B0100081B0100081B0100081B01000820
:100050001B0100081B0100081B0100081B01000810
:100060001B0100081B010008BF0600081B01000857
:100070001B0100081B0100081B0100081B010008F0
:100080001B0100081B0100081B0100081B010008E0
:100090001B0100081B0100081B010008C90600081D
:1000A0001B0100081B0100081B0100081B010008C0
:1000B0001B0100081B0100081B0100081B010008B0
:1000C0001B0100081B0100081B0100081B010008A0
:1000D0001B0100081B0100081B0100081B01000890
:1000E0001B0100081B0100081B010008DFF80CD0F1
:1000F00000F052FA0048004789320008700B0020D7
:100100000648804706480047FEE7FEE7FEE7FEE7B1
:10011000FEE7FEE7FEE7FEE7FEE7FEE7B1260008A2
:10012000ED000008202A04DB203A21FA02F0002129
:10013000704721FA02F3D040C2F1200291400843F7
:100140001946704740EA01039B0703D009E008C93C
:10015000121F08C0042AFAD203E011F8013B00F88C
:10016000013B521EF9D27047D2B201E000F8012BD8
:10017000491EFBD270470022F6E710B513460A4627
:1001800004461946FFF7F0FF204610BD421C10F848
:10019000011B0029FBD1801A704730B50B46014680
:1001A00000202022012409E021FA02F59D4205D316
:1001B00003FA02F5491B04FA02F52844151EA2F1C0
:1001C0000102F1DC30BD2DE9F05F054600209246CA
:1001D0009B4688460646814640241BE02846414609
:1001E00047462246FFF79EFF53465A46C01A9141A2
:1001F00010D311461846224600F0E0F92D1A67EB9D
:1002000001084F4622460120002100F0D7F917EBE4
:1002100000094E41201EA4F10104DFDC48463146AE
:100220002A464346BDE8F09F2DE9FE4F804681EA0D
:100230000300C00F0C46009021F0004123F0004560
:10024000B8EB0200A94105D24046214690461C4623
:100250000B46024623F00040104347D0270DC7F35A
:100260000A00C3F30A510290401A019040286BDA49
:10027000C3F3130040F4801B0098924620B1002382
:10028000D2EB030A63EB0B0B01985946C0F1400215
:10029000504600F093F906460D4650465946019ADD
:1002A00000F09BF910EB08006141002487EA11522D
:1002B00084EAE7731A4340D0009A62B3019A012A94
:1002C0004FEA075215DC001B61EB02014FF00042C0
:1002D00002EA0752CDE90042001C41F58011324686
:1002E0002B4600F09BF903B0BDE8F08F4046214655
:1002F000F9E7001B61EB0201001C41F580130018B7
:100300005B412018A2F5001747EB030140EAD570C6
:10031000B6196D4111E06D084FEA360645EAC07521
:100320004FEA0752001B61EB0201001C41F58011EE
:1003300049084FEA30000019514132462B4603B0BC
:10034000BDE8F04F00F05BB90098012240000023A7
:10035000D0EB020263EBE073009821464FEAE074B1
:10036000B8EB000061EB0401E9E783F000435BE7D1
:1003700081F0004158E72DE9FE4F81EA030404F0C3
:10038000004421F0004100944FF0000B23F00043A3
:1003900050EA01045ED052EA03045BD0C3F30A546E
:1003A000C1F30A552C44A4F2F3340194A0FB025487
:1003B000C1F3130141F48011C3F3130343F4801319
:1003C00001FB024400FB034E840A970A44EA81546D
:1003D00047EA8357A4FB076802958D0A05FB07854A
:1003E0004FEA932C04FB0C542705029D4FEA065854
:1003F00047EA1637B5EB08056EEB070C870E920E31
:1004000047EA811742EA8312A7FB0201B6EB0B0110
:1004100064EB00042B0D43EA0C335E1844EB1C50D4
:10042000DA465146E7FB0201C5F313044FEA0B33EA
:1004300043EA14534FEA0432019C43EA0603A4F151
:100440000C040294009CCDE900B400F0E7F803B07E
:10045000BDE8F08F00200146F9E72DE9F04D81EA73
:10046000030404F0004B21F0004514464FF0000A4D
:1004700023F0004150EA050220D054EA01021DD0C9
:10048000C5F30A570246C5F31303C1F31300C1F3C2
:100490000A5640F4801543F48013A7EB0608101B9E
:1004A000D64608F2FD3873EB050002D308F10108C7
:1004B00001E092185B41B8F1000F03DA0020014619
:1004C000BDE8F08D00204FF48011064684460EE012
:1004D000171B73EB050705D3121B63EB05030643DC
:1004E0004CEA010C49084FEA300092185B4150EA8F
:1004F0000107EDD152EA030012D082EA040083EA38
:100500000501084305D0101BAB4106D20122002390
:1005100006E000224FF0004302E06FF001025310AA
:100520001AEB06004CEB085110EB0A0041EB0B01F3
:10053000BDE8F04D00F063B8C1F30A52C1F31301F6
:1005400040F2FF3341F480119A4202DA0020014662
:10055000704740F233439A42A2F2334202DC5242E5
:10056000FFF7E0BD00F02AB830B5041E71F10004B9
:1005700004DB4FF00044404264EB0101141E73F1B0
:10058000000405DB1C464FF00043524263EB0403BA
:10059000994208BF904230BD064C074D06E0E06826
:1005A00040F0010394E8070098471034AC42F6D3BA
:1005B000FFF7A0FD90380008B0380008202A04DBBF
:1005C000203A00FA02F1002070479140C2F1200366
:1005D00020FA03F3194390407047202A06DBCB171B
:1005E000203A41FA02F043EAE07306E041FA02F3EE
:1005F000D040C2F12002914008431946704710B51F
:10060000141E73F1000408DA401C41F10001921835
:100610005B411A4301D120F0010010BD2DE9F04DDE
:1006200092469B4611B1B1FA81F202E0B0FA80F233
:1006300020329046FFF7C2FF04460F4640EA0A0008
:1006400041EA0B0153465A46084313D0114653EA78
:10065000010019D0C8F140025046FFF763FD05467E
:100660000E46504659464246FFF7A8FF084305D0BC
:10067000012004E020463946BDE8F08D0020054306
:1006800046EAE0762C4337430A986305E40AA0EB78
:1006900008000022FD0A44EA47540A3002D500202F
:1006A0000146E9E7010510196941DDE9084500192E
:1006B0006941BDE8F04DA2E700BFFEE7704710B505
:1006C000102000F0A1F910BD10B5202000F09CF919
:1006D00010BD704770B5044600F034FB0646254651
:1006E000681C10B104480078054400BF00F02AFBE4
:1006F000801BA842FAD370BD3400002070B5EEB064
:1007000005460020B7490870B74E96F83D002028EE
:1007100003D0012008706EB070BD102D7ED100BFD7
:10072000B14800F015FB2028FAD1B0480078B04954
:100730000870AE480278B621AB4803F014F8AB4914
:100740000870AC480078FFF7C5FFA8480078452836
:1007500001D1012000E00020A54909784E2901D1EE
:10076000012100E00021084080B1D422A24968465E
:10077000FFF7E8FCA0480C380EC836A801F00EFFC1
:10078000E02236A99C480C38FFF7DCFC974800783B
:10079000532801D1012000E000209549097845291E
:1007A00001D1012100E00021084080B1D42292490A
:1007B0006846FFF7C7FC90480C380EC836A801F011
:1007C000EDFEE02236A98C480C38FFF7BBFC8748C9
:1007D0000078572801D1012000E0002084490978E1
:1007E000532901D1012100E00021084080B1D42229
:1007F00081496846FFF7A6FC7F480C380EC836A82A
:1008000001F0CCFEE02236A97B480C38FFF79AFCB9
:10081000764800784E2802D1012001E09EE00020B9
:1008200073490978572901D1012100E000210840CE
:1008300080B1D42270496846FFF784FC6E480C38BA
:100840000EC836A801F0AAFEE02236A96A480C3884
:10085000FFF778FC65480078572801D1012000E0B7
:100860000020634909784E2901D1012100E00021CF
:10087000084080B1D42260496846FFF763FC5E48B7
:100880000C380EC836A801F05BFEE02236A95A48A3
:100890000C38FFF757FC554800784E2801D101204D
:1008A00000E0002052490978452901D1012100E0EA
:1008B0000021084080B1D4224F496846FFF742FC2E
:1008C0004D480C380EC836A801F03AFEE02236A991
:1008D00049480C38FFF736FC44480078452801D1D8
:1008E000012000E0002042490978532901D101216B
:1008F00000E00021084080B1D4223F496846FFF75C
:1009000021FC3D480C380EC836A801F019FEE02243
:1009100036A939480C38FFF715FC344800785328BD
:1009200001D1012000E0002031490978572901D187
:10093000012100E00021084080B1D4222E49684600
:10094000FFF700FC2C480C380EC836A801F0F8FD63
:10095000E02236A928480C38FFF7F4FB202D3ED1C1
:1009600000BF214800F0F4F92028FAD1B4211E4834
:1009700002F08EFE04460A20FFF7ACFE1F48007806
:1009800090B1012C06D101201D49087000201B499F
:100990000870C0E6022C06D101201A490870002018
:1009A00016490870B7E6B6E61548007848B1012C3C
:1009B00006D1012011490870002011490870AAE6EB
:1009C000A9E61048007848B10A2C06D101200B494D
:1009D000087000200B4908709DE69CE600BF00BF30
:1009E00099E60000220000203C0000201E000020AC
:1009F0001D0000201C0000209C0000201F00002083
:100A0000210000202000002010B5044604480068A2
:100A1000204020B1024804602046FFF76FFE10BD61
:100A2000140401402DE9F8470346002294466EE184
:100A30004FF0010808FA02F4D1F8008008EA040037
:100A4000A0427DD1DFF8DCA2D1F80480A8EB0A092E
:100A5000D0453AD014DCB8F1030F50D009DCB8F11E
:100A6000000F31D0B8F1010F1CD0B8F1020F49D1FD
:100A700020E0B8F1110F18D0B8F1120F42D11EE0EA
:100A8000B9F5881F25D006DCB9F5803F20D0B9F52F
:100A9000801F37D11AE0B9F5001F18D0B9F5041F2F
:100AA00030D117E0D1F80CC02DE0D1F80C8008F15E
:100AB000040C28E0D1F80C8008F1080C23E0D1F8F0
:100AC0000C8008F10C0C1EE000BF00BF00BF00BF8F
:100AD00000BF00BFD1F80880B8F1000F02D14FF07D
:100AE000040C0BE0D1F80880B8F1010F03D14FF0EE
:100AF000080C1C6102E04FF0080C5C6103E04FF051
:100B0000000C00E000BF00BFFF2801D8984601E0BC
:100B100003F104084646FF2802D84FEA820803E0A2
:100B2000A2F108084FEA88084746D6F800804FF03F
:100B30000F0909FA07F928EA09080CFA07F900E091
:100B400088E048EA0908C6F80080D1F8048008F077
:100B50008058B8F1805F7DD100BFDFF8CC81D8F834
:100B6000188048F00108DFF8C091C9F81880C8461D
:100B7000D8F8188008F00108CDF8008000BF00BF49
:100B80004FEAB9384FEA920958F829504FEA82786B
:100B90004FEA18794FF00F0808FA09F825EA080516
:100BA000DFF88881434502D14FF0000816E0DFF8F6
:100BB0008081434502D14FF001080FE0DFF87481D6
:100BC000434502D14FF0020808E0DFF86C8143454D
:100BD00002D14FF0030801E04FF004084FEA827998
:100BE0004FEA197908FA09F848EA0505DFF84C8157
:100BF0004FEA920948F82950D1F8048008F4803867
:100C0000B8F5803F0AD1DFF83881D8F8008048EA8B
:100C10000008DFF82C91C9F8008009E0DFF8208196
:100C2000D8F8008028EA0008DFF81491C9F800809D
:100C3000D1F8048008F40038B8F5003F10D1DFF88F
:100C4000008108F10408D8F8008048EA0008DFF8BD
:100C5000F09000E05AE009F10409C9F800800DE0C5
:100C6000DFF8DC8008F10408D8F8008028EA0008E2
:100C7000DFF8CC9009F10409C9F80080D1F80480AC
:100C800008F48018B8F5801F0ED1DFF8B48008F1A1
:100C90000808D8F8008048EA0008DFF8A49009F1B5
:100CA0000809C9F800800DE0DFF8948008F1080811
:100CB000D8F8008028EA0008DFF8849009F10809D4
:100CC000C9F80080D1F8048008F40018B8F5001FB6
:100CD0000ED1DFF86C8008F10C08D8F8008048EAE3
:100CE0000008DFF85C9009F10C09C9F800800DE0FC
:100CF000DFF84C8008F10C08D8F8008028EA0008DA
:100D0000DFF83C9009F10C09C9F80080521CD1F8B9
:100D1000008028FA02F8B8F1000F7FF489AEBDE830
:100D2000F887000000001110001002400008014088
:100D3000000C014000100140001401400800014077
:100D40000004014001480068704700002C000020AA
:100D5000014691F83D00704770B504460CB901207A
:100D600070BD94F83D0028B9002084F83C0020466E
:100D700000F0E0FB242084F83D002068006820F0AB
:100D800001002168086000F0ADFD05465C4960681F
:100D9000884206D85B48854201D2012007E0002046
:100DA00005E05948854201D2012000E000200128D9
:100DB00000D1D5E75548B5FBF0F62068406820F033
:100DC0003F003043216848604D496068884201D83F
:100DD000701C07E04FF4967070434FF47A71B0FBCB
:100DE000F1F0401C2168096A21F03F0108432168A5
:100DF000086243496068884214D8681E61684900E7
:100E0000B0FBF1F0401CC0F30B00042801D2042019
:100E10003DE0681E61684900B0FBF1F0401CC0F382
:100E20000B0034E0A06838B9681E616801EB41012D
:100E3000B0FBF1F0401C0AE0681E616801EBC102E2
:100E400002EB0111B0FBF1F0401C40F48040C0F314
:100E50000B0008B901201AE0A06848B9681E616853
:100E600001EB4101B0FBF1F0401CC0F30B000CE0C2
:100E7000681E616801EBC10202EB0111B0FBF1F0E9
:100E8000401CC0F30B0040F4804040F40040216857
:100E9000C9694CF6FF72914308432168C861D4E9DF
:100EA000070108432168096821F0C001084321684F
:100EB0000860D4E9031008432168896848F2FF32CA
:100EC0009143084321688860D4E9050108432168FB
:100ED000C96821F0FF0108432168C86020680068E4
:100EE00040F001002168086000202064202084F880
:100EF0003D000020206384F83E0000BF30E7000082
:100F0000A086010080841E0000093D0040420F00C1
:100F10002DE9F84F04460F4690461E46FFF712FF94
:100F200005464FF0010994F83D0020287ED1192391
:100F300001225E492046009501F0BCF810B1022064
:100F4000BDE8F88F00BF94F83C00012801D10220D1
:100F5000F6E7012084F83C0000BF2068006800F03C
:100F6000010028B92068006840F00100216808608D
:100F70002068006820F4006021680860242084F85C
:100F80003D00002020644A48E06200BF20680068FD
:100F900040F4807021680860334600224FF0011150
:100FA0002046009501F086F808B10120C8E707F057
:100FB000FE0021680861FFF7C5FE0546206840690C
:100FC000C0F3400A20684069C0F3802B10E0FFF7AF
:100FD000B9FE401BB04200D816B9A02084F83D00ED
:100FE00020684069C0F3400A20684069C0F3802B44
:100FF00094F83D00A02805D0BAF1000F02D1BBF152
:10100000000FE4D0202084F83D0020684069C0F340
:10101000400028B32068006840F400702168086030
:1010200000BF002000902068406900E03BE0009095
:1010300020688069009000BF00BF192301221B496E
:101040002046009501F036F808B1012078E720200D
:1010500084F83D0000BF002084F83C0000BF6FE72B
:101060002068006840F40070216808606FF48060B8
:1010700021684861192301220C492046009501F09E
:1010800019F808B101205BE709F10109C145FFF436
:101090007DAF202084F83D0000BF002084F83C0094
:1010A00000BF01204CE702204AE7000002001000C8
:1010B0000000FFFF2DE9F8430446894616461F4607
:1010C000DDF82080FFF73EFE054694F83D0020281D
:1010D0007ED11923012251492046009500F0EAFFF4
:1010E00010B10220BDE8F88300BF94F83C0001284D
:1010F00001D10220F6E7012084F83C0000BF2068FF
:10110000006800F0010028B92068006840F0010084
:10111000216808602068006820F400602168086089
:10112000212084F83D00102084F83E000020206437
:1011300066626785608D20853948E0622B464246AD
:101140004946204600F096FE08B10120CAE700BFDC
:10115000002000902068406900902068806900901D
:1011600000BF00BF44E02A464146204601F087F810
:1011700050B1206C042805D12068006840F400704C
:10118000216808600120ADE7606A00782168086185
:10119000606A401C6062608D401E6085208D401E2C
:1011A000208520684069C0F3800070B1208D60B157
:1011B000606A007821680861606A401C6062608D26
:1011C000401E6085208D401E20852A46414600E055
:1011D00022E0204600F040FF50B1206C042805D1E9
:1011E0002068006840F4007021680860012079E7F9
:1011F000208D0028B7D12068006840F40070216875
:101200000860202084F83D00002084F83E0000BFE4
:1012100084F83C0000BF65E7022063E7020010008D
:101220000000FFFF2DE9FC5F04460F4690469946FB
:10123000DDE90CAB0E9EFFF785FD054694F83D00F9
:10124000202872D119230122B7492046009500F0C9
:1012500031FF10B10220BDE8FC9F00BF94F83C00B4
:10126000012801D10220F6E7012084F83C0000BFEC
:101270002068006800F0010028B92068006840F08C
:101280000100216808602068006820F4006021687F
:101290000860222084F83D00402084F83E000020B1
:1012A0002064C4F824A0A4F82AB0608D20859F484B
:1012B000E0624B46424639462046CDE9006500F0E3
:1012C0002FFE08B10120C6E7208D88B900BF00209D
:1012D000019020684069019020688069019000BFFA
:1012E00000BF2068006840F40070216808604BE08F
:1012F000208D01281AD12068006820F480602168C0
:10130000086072B600BF002001902068406901901B
:1013100020688069019000BF00BF2068006840F429
:1013200000702168086062B62EE0FBE0208D022884
:1013300019D12068006840F400602168086072B626
:1013400000BF0020019020684069019020688069FA
:10135000019000BF00BF2068006820F48060216811
:10136000086062B610E02068006840F48060216880
:10137000086000BF0020019020684069019020684B
:101380008069019000BF00BFBDE0208D032870D8A8
:10139000208D012815D12A463146204600F02FFF26
:1013A00008B1012057E720680069616A0870606A27
:1013B000401C6062208D401E2085608D401E60852F
:1013C000A1E0208D02282CD1334600225849204626
:1013D000009500F06FFE08B101203CE772B620686E
:1013E000006840F400702168086020680069616A44
:1013F0000870606A401C6062208D401E2085608DF0
:10140000401E608562B620680069616A0870606A83
:10141000401C6062208D401E2085608D401E6085CE
:1014200071E03346002242492046009500F042FE1A
:1014300008B101200FE72068006820F4806021686F
:10144000086072B620680069616A0870606A401CB2
:101450006062208D401E2085608D401E6085334671
:10146000002233492046009500F024FE10B10120EF
:10147000F1E621E02068006840F40070216808600F
:1014800020680069616A0870606A401C6062208D93
:10149000401E2085608D401E608562B62068006910
:1014A000616A0870606A401C6062208D401E208561
:1014B000608D401E608526E02A463146204600F0B9
:1014C0009EFE08B10120C6E620680069616A0870C6
:1014D000606A401C6062208D401E2085608D401E29
:1014E000608520684069C0F3800060B120680069B1
:1014F000616A0870606A401C6062208D401E208511
:10150000608D401E6085208D00287FF43EAF202036
:1015100084F83D00002084F83E0000BF84F83C00C1
:1015200000BF98E6022096E6020010000000FFFFD0
:101530000400010010B586B004460020029003901C
:101540000490059015492068884225D100BF1448B1
:10155000806940F00800124988610846806900F0FF
:101560000800019000BF00BFC0200290122003902D
:101570000320059002A90B48FFF754FA00BF084862
:10158000C06940F400100649C8610846C06900F40B
:101590000010019000BF00BF06B010BD0054004015
:1015A00000100240000C014003480068034909781C
:1015B00008440149086070472C00002034000020D6
:1015C00010B50848006840F0100006490860032084
:1015D00000F0A8F8002000F007F800F02BF8002039
:1015E00010BD00000020024070B504460E4800788F
:1015F0004FF47A71B1FBF0F00C490968B1FBF0F5DA
:10160000284600F0FBFB08B1012070BD102C07D26A
:1016100000222146501E00F047F80548046001E012
:101620000120F2E70020F0E734000020380000201D
:101630003000002008B500BF1148806940F001006B
:101640000F4988610846806900F00100009000BFE2
:1016500000BF00BF0846C06940F08050C86108461E
:10166000C06900F08050009000BF00BF00BF054976
:10167000486820F0E06040F00070486000BF08BD9E
:10168000001002400000014001460846002809DB26
:1016900000F01F0301229A4043099B0003F1E0235D
:1016A000C3F8002100BF70472DE9F05F80460D466A
:1016B0001646002701F03CF8074639462A463346CD
:1016C00001F00700C0F1070ABAF1040F02D94FF088
:1016D000040A01E0C0F1070AD14600F1040ABAF198
:1016E000070F02D24FF0000A01E0A0F1030AD4462E
:1016F0004FF0010A0AFA09FAAAF1010A0AEA020AF3
:101700000AFA0CFA4FF0010B0BFA0CFBABF1010BD0
:101710000BEA030B4AEA0B042146404601F010F89D
:10172000BDE8F09F00BF00F00702064B19684FF6B6
:10173000FF031940044B0B4343EA0221014B19609C
:1017400000BF70470CED00E00000FA0570B50446DC
:101750000D460CB9012070BD5A48006800F0070022
:10176000A8420ED25748006820F007002843554988
:1017700008600846006800F00700A84201D0012078
:10178000E9E7207800F0020002281DD1207800F05F
:101790000400042805D14C48406840F4E0604A4900
:1017A0004860207800F00800082805D146484068C5
:1017B00040F46050444948604348406820F0F000DD
:1017C000A168084340494860207800F0010078B3E0
:1017D0006068012806D13C48006800F4003090B9E8
:1017E0000120B8E76068022806D13748006800F099
:1017F000007040B90120AEE73348006800F00200F5
:1018000008B90120A7E73048406820F0030061686C
:1018100008432D494860FFF795FA064609E0FFF7AF
:1018200091FA801B41F28831884202D9032092E765
:1018300007E02548406800F00C006168B0EB810FBC
:10184000EDD12048006800F00700A8420ED91D48DD
:10185000006820F0070028431A490860084600681D
:1018600000F00700A84201D0012074E7207800F0C2
:101870000400042807D11448406820F4E060E168BF
:10188000084311494860207800F00800082808D172
:101890000D48406820F46050216940EAC1000A49BF
:1018A000486000F02FF808494968C1F30311074A5E
:1018B000515CC8400649086006480068FFF794FE7E
:1018C000002048E70020024000100240763800085F
:1018D00038000020300000200148006870470000F8
:1018E0003800002000B5FFF7F7FF04494968C1F34D
:1018F0000221034A515CC84000BD000000100240B4
:1019000086380008F0B585B00FF26C0C9CE8E0104A
:1019100001A8A0E8E0101CA52D6800950021002278
:10192000002300240020194D696801F00C05F5B171
:10193000042D02D0082D19D101E0154819E001ADA0
:10194000C1F38346AC5D01F4803555B10F4D6D6830
:10195000C5F340451DF805200D4D6543B5FBF2F379
:1019600002E00C4D04FB05F3184602E000BF0848F6
:1019700000BF00BF05B0F0BD02030405060708095B
:101980000A0B0C0D0E0F1010010200000010024097
:1019900000127A0000093D00F8B504460CB9012098
:1019A000F8BD207800F00100002878D0F8484068A1
:1019B00000F00C0004280CD0F548406800F00C0042
:1019C000082811D1F248406800F48030B0F5803F1B
:1019D0000AD1EF48006800F4003000285FD060684A
:1019E00000285CD10120DBE700BF6068B0F5803FD4
:1019F00006D1E748006840F48030E549086028E0F7
:101A0000606858B9E248006820F48030E049086016
:101A10000846006820F4802008601AE06068B0F58D
:101A2000A02F0BD1DA48006840F48020D849086024
:101A30000846006840F4803008600AE0D448006836
:101A400020F48030D24908600846006820F48020E5
:101A5000086000BF606888B1FFF774F9054606E0CA
:101A6000FFF770F9401B642801D9032098E7C848A4
:101A7000006800F400300028F2D010E0FFF762F9AF
:101A8000054606E0FFF75EF9401B642801D90320F4
:101A900086E7BF48006800F400300028F2D12078C3
:101AA00000F00200022857D1B948406800F00C004D
:101AB00050B1B748406800F00C00082818D1B4486D
:101AC000406800F4803098B9B148006800F0020026
:101AD00020B12069012801D0012061E7AC480068ED
:101AE00020F0F800616940EAC100A949086033E0CC
:101AF0002069E8B10120A7490860FFF723F90546EE
:101B000006E0FFF71FF9401B022801D9032047E731
:101B10009F48006800F002000028F2D09C4800684E
:101B200020F0F800616940EAC1009949086013E0BB
:101B3000002098490860FFF705F9054606E0FFF721
:101B400001F9401B022801D9032029E790480068C9
:101B500000F002000028F2D1207800F008000828E8
:101B60002DD1A069B8B101208B490860FFF7EAF8D0
:101B7000054606E0FFF7E6F8401B022801D90320DE
:101B80000EE78348406A00F002000028F2D00120EE
:101B900000F04CFD13E000207F490860FFF7D2F809
:101BA000054606E0FFF7CEF8401B022801D90320C6
:101BB000F6E67748406A00F002000028F2D120786B
:101BC00000F00400042873D100277148C06900F0B8
:101BD000805070B900BF6E48C06940F080506C49B9
:101BE000C8610846C06900F08050009000BF00BF87
:101BF00001276A48006800F48070B0B9674800683F
:101C000040F4807065490860FFF79CF8054606E0DF
:101C1000FFF798F8401B642801D90320C0E65F480D
:101C2000006800F480700028F2D000BFE06801284E
:101C300006D15748006A40F001005549086227E084
:101C4000E06858B95248006A20F001005049086223
:101C50000846006A20F00400086219E0E0680528E0
:101C60000BD14B48006A40F004004949086208461D
:101C7000006A40F0010008620AE04548006A20F06E
:101C80000100434908620846006A20F00400086227
:101C900000BFE068A0B1FFF755F8054609E0FFF77F
:101CA00051F8401B41F28831884202D9032077E67F
:101CB00022E03748006A00F002000028EFD012E06E
:101CC000FFF740F8054608E0FFF73CF8401B41F2FB
:101CD0008831884201D9032062E62D48006A00F06D
:101CE00002000028F0D1012F05D12948C06920F059
:101CF00080502749C86100BFE069C8B324484068E4
:101D000000F00C00082860D0E069022848D10020CB
:101D100020490866FFF716F8054606E0FFF712F8B7
:101D2000401B022801D903203AE61948006800F058
:101D300000700028F2D1206AB0F5803F07D1144826
:101D4000406820F40030A168084311494860D4E994
:101D5000080108430E49496821F4741108430C49ED
:101D6000486001200B490866FEF7ECFF054607E0D6
:101D70003DE0FEF7E7FF401B022801D903200FE6F4
:101D80000348006800F000700028F2D02FE0000047
:101D900000100240000042428004424200700040B5
:101DA000002014490866FEF7CDFF054606E0FEF761
:101DB000C9FF401B022801D90320F1E50E48006845
:101DC00000F000700028F2D111E0E069012800D194
:101DD000E6E50948466806F48031206A814204D16C
:101DE00006F47011606A814201D00120D8E500201C
:101DF000D6E50000000042420010024070B50446E3
:101E00002546681EB0F1807F01D301200FE0681ED7
:101E10004FF0E02148610F214FF0FF3000F090FCBF
:101E200000204FF0E021886107200861002070BD8C
:101E300000BFFEE7014608684069C0F38020B0B1EA
:101E40006FF480600A68506100200863202081F8E8
:101E50003D00002081F83E00086C40F0040008645A
:101E600000BF002081F83C0000BF01207047002027
:101E7000FCE700002DE9F84304460D461746984656
:101E8000E66A082E04D0012E02D016F5803F06D156
:101E90002068006840F480702168086008E0206BCA
:101EA000122805D12068006840F48070216808601D
:101EB0003B4600224FF001112046CDF8008000F093
:101EC000F9F810B10120BDE8F8832069B0F5804F22
:101ED00004D105F0FE002168086112E005F44070AD
:101EE000F02141EAE0102168086143463A460B4977
:101EF000204600F022F908B10120E4E7E8B22168A9
:101F0000086143463A460549891F204600F015F905
:101F100008B10120D7E70020D5E700000800010044
:101F20002DE9F84304460F4615469946DDE9088633
:101F30002068006840F480602168086020680068BC
:101F400040F4807021680860434600224FF0011180
:101F50002046009600F0AEF810B10120BDE8F883ED
:101F600007F0FE00216808613346424639492046A1
:101F700000F0E3F808B10120F0E700BF0020009076
:101F800020684069009020688069009000BF00BF11
:101F900032464146204600F072F950B1206C0428C8
:101FA00005D12068006840F40070216808600120B5
:101FB000D4E7B9F1010F03D1E8B22168086117E055
:101FC000C5F307202168086132464146204600F0EB
:101FD00056F950B1206C042805D12068006840F4FF
:101FE0000070216808600120B8E7E8B22168086144
:101FF00032464146204600F042F950B1206C042898
:1020000005D12068006840F4007021680860012054
:10201000A4E72068006840F48070216808604346A7
:1020200000224FF001112046009600F043F808B15D
:10203000012093E7F8B240F00100216808613346BF
:1020400042460449204600F078F808B1012085E7AF
:10205000002083E70200010070B504460D461646D5
:1020600020E02046FFF7E6FE08B1012070BD681CA5
:10207000C0B1FEF767FE801BA84200D895B90020CA
:102080002063202084F83D00002084F83E00206C6E
:1020900040F02000206400BF002084F83C0000BF16
:1020A0000120E3E720684069C0F380000028D8D011
:1020B0000020DBE72DE9F04104460D4617461E4699
:1020C000DDF818801CE0701CD0B1FEF73BFEA0EBE1
:1020D0000800B04200D89EB900202063202084F878
:1020E0003D00002084F83E00206C40F02000206479
:1020F00000BF002084F83C0000BF0120BDE8F08153
:10210000C5F3074001280AD120684069A9B20840F8
:10211000A9B2884201D101200BE0002009E020682B
:102120008069A9B20840A9B2884201D1012000E02B
:102130000020B842C7D00020E0E72DE9F041044676
:102140000D4616461F463DE020684069C0F38020DA
:10215000E8B12068006840F40070216808606FF4FE
:1021600080602168486100202063202084F83D00C1
:10217000002084F83E00206C40F00400206400BF82
:10218000002084F83C0000BF0120BDE8F081701CF5
:10219000C0B1FEF7D7FDC01BB04200D896B90020F1
:1021A0002063202084F83D00002084F83E00206C4D
:1021B00040F02000206400BF002084F83C0000BFF5
:1021C0000120E2E7C5F3074001280AD120684069F1
:1021D000A9B20840A9B2884201D101200BE0002039
:1021E00009E020688069A9B20840A9B2884201D1FB
:1021F000012000E000200028A6D00020C5E770B52F
:1022000004460D46164632E020684069C0F30010CF
:10221000A0B16FF0100021684861002020632020E9
:1022200084F83D00002084F83E00206C206400BF4C
:10223000002084F83C0000BF012070BDFEF782FD45
:10224000801BA84200D895B900202063202084F884
:102250003D00002084F83E00206C40F02000206407
:1022600000BF002084F83C0000BF0120E5E72068A3
:102270004069C0F380100028C6D00020DDE770B5AB
:1022800004460D46164620E02046FFF7D3FD08B170
:10229000012070BD681CC0B1FEF754FD801BA84230
:1022A00000D895B900202063202084F83D0000204C
:1022B00084F83E00206C40F02000206400BF002025
:1022C00084F83C0000BF0120E3E720684069C0F3C8
:1022D000C0100028D8D00020DBE7000000B585B092
:1022E0000020019002900390049000BF1A4880697A
:1022F00040F00400184988610846806900F0040035
:10230000009000BF00BF00BF0846806940F0080091
:1023100088610846806900F00800009000BF00BF97
:10232000302001900D4802900020039001A90C4834
:10233000FEF778FB002202210A20FFF7B5F90A20F8
:10234000FFF7A2F9002202211720FFF7ADF91720AD
:10235000FFF79AF905B000BD0010024000002110FF
:10236000000C014010B50B480B4908600B48486051
:10237000002109488160C1604FF480410161002162
:1023800041618161C1610162FEF7E6FC08B1FEF7BF
:10239000A0F910BD005400403C000020A0860100C0
:1023A00000BFFEE70FB430B585B06C4600F062FEAA
:1023B00000F048FE142320463C9A3A9900F029F98F
:1023C000684600F0CBFE0A20FEF784F900F040FEDC
:1023D0003C9800F11402142320463A9900F019F9B0
:1023E000684600F0BBFE0A20FEF774F900F036FEE6
:1023F0003C9800F12802142320463A9900F009F98C
:10240000684600F0ABFE0A20FEF764F900F02CFEEF
:102410003C9800F13C02142320463A9900F0F9F868
:10242000684600F09BFEDDE93C10401A142190FB49
:10243000F1F0C5B20021284600F004FF0A20FEF7A3
:1024400049F905B030BC5DF814FB00000FB410B5BD
:10245000044603A8359000203690379038903C20F1
:102460003990B4203A901DA20021359800F0C4F8AC
:102470001FA20121359800F0BFF81FA20221359854
:1024800000F0BAF81EA20321359800F0B5F81EA29C
:102490000421359800F0B0F81DA20521359800F010
:1024A000ABF81DA20621359800F0A6F81CA2072162
:1024B000359800F0A1F81CA20821359800F09CF88E
:1024C0001BA20921359800F097F8E02203A92046C5
:1024D000FDF738FE10BC5DF814FB000020546F704F
:1024E000206F66204D61696E204D656E750000009D
:1024F00020526F772031000020526F772032000089
:1025000020526F772033000020526F772034000074
:1025100020526F772035000020526F772036000060
:1025200020526F772037000020526F77203800004C
:1025300020426F74746F6D206F66204D656E75005C
:102540000FB410B5B4B004466E996C98884208D1A7
:10255000E02237A92046FDF7F5FD34B010BC5DF848
:1025600014FB6D996C98884205D16B9814306B9070
:102570006D9814306D906C9814306C90D0223BA9FB
:102580006846FDF7DFFD37A80FC8FFF70BFFE02215
:1025900037A92046FDF7D6FD00BFDEE70FB410B522
:1025A000B4B004466A996C98884208D1E02237A9F1
:1025B0002046FDF7C7FD34B010BC5DF814FB6B99E5
:1025C0006C98884205D16B9814386B906D981438CC
:1025D0006D906C9814386C90D0223BA96846FDF73A
:1025E000B1FD37A80FC8FFF7DDFEE02237A920466E
:1025F000FDF7A8FD00BFDEE730B50346002005E08B
:10260000145C142505FB01352C54401C1428F7DB01
:1026100030BD30B50446002003E08D182D5C2554F4
:10262000401C9842F9DB30BD7047704708B5084937
:102630000968C9084FF47A72B1FBF2F14143009185
:1026400000BF00BF00994A1E00920029F9D108BDC1
:1026500038000020704710B5FEF7A6FF10BD00B58A
:102660008FB0282105A8FDF786FD14216846FDF7E7
:1026700082FD022005900120099010200A90002080
:102680000C9005A8FFF788F908B1FEF722F80F2093
:102690000090002001900290039004900021684671
:1026A000FFF754F808B1FEF714F80FB000BD0000B2
:1026B0001148006840F001000F4908600846406872
:1026C0000E4908400C494860084600680C4908401B
:1026D000094908600846006820F480200860084620
:1026E000406820F4FE0048604FF41F008860C80373
:1026F0000449086070470000001002400000FFF825
:10270000FFFFF6FE08ED00E000BFFEE737B5144618
:102710000846064B6A46214600F0F8F8044669462A
:10272000002000F08AFC20463EBD00003B3000083F
:1027300002480068C0F30220704700000CED00E082
:1027400010B5002804DB0A07130E054A135406E0EF
:102750000A07140E034A00F00F031B1FD45410BDC8
:1027600000E400E018ED00E002E008C8121F08C114
:10277000002AFAD170477047002001E001C1121F02
:10278000002AFBD1704700002DE9FF5F82B00021D5
:10279000DDE90430020DDDF840B0034318D044F603
:1027A0001050A2F2FF3242431514119801281FD095
:1027B000A5EB0B00401C5FEA000A4FF000064E4FED
:1027C000DFF83891B046504615D5CAF1000413E041
:1027D000119801244AA3012801D16FEA0B01029844
:1027E000119AC0E90031C0E9024206B0BDE8F09F8D
:1027F000CBF10000DFE704460021404A491842EBD4
:102800000450CDE9001012E0E00707D032463B4605
:1028100040464946FDF7AFFD8046894632463B4675
:1028200010461946FDF7A7FD06460F466410002C1A
:10283000EAD1DDE90401DDE90023BAF1000F06DA8F
:10284000FDF799FD42464B46FDF795FD05E0FDF786
:1028500004FE42464B46FDF700FE04460E460022AB
:10286000284BFDF781FE03D84FF0FF30014607E00B
:102870000022254B20463146FDF7D6FCFDF75CFED5
:10288000102409E0002C0ADB0A220023FDF79BFC40
:10289000039B30321A55641E50EA0102F2D1641CC7
:1028A000039AC4F111031444119A012A03D001229E
:1028B00008430DD10AE0084304D000204FF0110B6B
:1028C000119072E7A3EB0B056D1E0DE05B4504DD77
:1028D0004FF0000205F1010504E003DA4FF00002B9
:1028E000A5F10105002AECD002981199C0E9023146
:1028F000C0E9004579E70000000014400000F03F07
:10290000300000000000F0430000E03F2DE9FF4FE1
:1029100095B09B468946064600250FE2252877D1CB
:1029200000242746F84A0121059400E0044316F8E4
:10293000013F203B01FA03F01042F7D130782A28FA
:1029400011D06FF02F033078A0F13002092A16D889
:10295000059A44F0020402EB820203EB42021044A7
:10296000761C0590EFE759F8042B0592002A03DA4C
:10297000504244F40054059044F00204761C307830
:102980002E2816D116F8010F44F004042A280DD081
:102990006FF02F023078A0F13003092B09D807EB34
:1029A000870302EB4303C718761CF3E759F8047B4F
:1029B000761C30786C280FD006DC4C2817D068289D
:1029C0000DD06A2814D104E0742810D07A280FD1D1
:1029D0000DE044F400140AE044F4801401E044F4EF
:1029E00040147278824202D104F58014761C761C61
:1029F000307866280BD013DC582877D009DC002803
:102A000075D04528F6D04628F4D047281AD19DE144
:102A100018E0632835D0642879D0652812D195E173
:102A2000702873D008DC6728F1D069286FD06E2831
:102A30000DD06F2806D1B5E073282CD0752875D03D
:102A4000782874D05A46179990476D1C75E1C4F3E5
:102A50000250022809D003280DD0D9F8001004280C
:102A60000DD00D6009F1040967E1D9F80010EA17EB
:102A7000C1E90052F6E7D9F800100D80F2E70D70B9
:102A8000F0E719F8041B8DF8001000208DF8010004
:102A9000EA46012003E059F804AB4FF0FF3061072C
:102AA0004FF0000102D40DE008F101018846B9425F
:102AB0000FDA8045F8DB1AF808100029F4D108E095
:102AC00008F1010188468142FADB1AF80810002952
:102AD000F6D105985B46A0EB080721463846179AC1
:102AE00000F094FA284400EB080507E04DE029E1E6
:102AF0000DE01AF8010B5A4617999047B8F10108F2
:102B0000F7D25B4621463846179A13E142E00A2283
:102B10000092C4F302524FF0000A022A08D059F87A
:102B200004CB032A4FEAEC710AD00DE029E02AE039
:102B300009F1070121F00702F2E802C1914609E01C
:102B40000FFA8CFC4FEAEC71042A03D14FFA8CFC8B
:102B50004FEAEC71002907DA0A460021DCF1000C8B
:102B600061EB02012D2202E0220504D52B228DF813
:102B70000420012203E0E20701D02022F7E790467B
:102B800059E00A2102E010220DE010214FF0000A66
:102B900000910BE010224FF0000A44F004040827D3
:102BA000009203E008224FF0000A0092C4F30252A0
:102BB000022A05D059F804CB0021032A08D009E0E5
:102BC00009F1070121F00702F2E802C1914605E090
:102BD0001FFA8CFC042A01D10CF0FF0C4FF0000806
:102BE000220728D5702806D0009B83F0100353EAF3
:102BF0000A0305D00EE040228DF80420012208E0EF
:102C00005CEA010206D030228DF804208DF8050020
:102C100002229046009B83F0080353EA0A030AD17C
:102C20005CEA010201D1620705D530228DF804204B
:102C30004FF001087F1E582804D034A003900EA83E
:102C400002900DE036A0F9E753466046009AFDF782
:102C5000BAFA84460398825C0298401E0290027081
:102C60005CEA0100F0D1029806A9081A00F1200AD6
:102C7000600702D524F4803400E00127574502DDC7
:102C8000A7EB0A0000E0002000EB0A010090059885
:102C90004144401A0590E00306D45B462146179A4A
:102CA000059800F0B3F90544002706E001A85A464C
:102CB000C05D179990476D1C7F1C4745F6DBE0030C
:102CC0000CD55B462146179A059800F09FF90544FC
:102CD00004E030205A46179990476D1C0099481E11
:102CE00000900029F5DC08E0029802995A46007825
:102CF000491C0291179990476D1CBAF10001AAF185
:102D0000010AF1DC65E100000928010030313233AD
:102D10003435363738396162636465660000000017
:102D20003031323334353637383941424344454601
:102D30000000000000F058F90544761C30780028A7
:102D40007FF4ECAD19B02846BDE8F08F620700D4DF
:102D5000062709F1070222F0070CFCE80223E146EE
:102D600003F000485FEA080C02D00FF2702C0DE06F
:102D70005FEA045C02D50FF2682C07E05FEAC47CCE
:102D800002D00FF2602C01E0AFF2700C4FF0FF3870
:102D900023F00043CDF850C065280CD006DC452850
:102DA00009D046281DD047283DD13DE0662818D0DF
:102DB00067287ED138E00021112F01DB112000E0CF
:102DC000781CCDE9000106A90EA8FFF7DDFCDDE9BE
:102DD0000F010E9A03910021009207F1010A04915C
:102DE0004DE04FF000400097CDE9011006A90EA874
:102DF000FFF7CAFCDDE90F0203920E9B1199002236
:102E0000DDF80CA00093049211B9791C00EB010AC3
:102E1000B7EB0A0004D4C0F1FF3007F1010A0490B7
:102E2000AAEB0700019044E0012F00DA01270021FE
:102E3000112F01DD112000E03846CDE9000106A97F
:102E40000EA8FFF7A1FCDDE90F010E9A0391002106
:102E500004910092BA4621070CD40399514500DA37
:102E60008A46BAF1010F05DD009AAAF10101515C11
:102E7000302908D0B84202DA10F1040F06DA012135
:102E8000CDE9011015E0AAF10101E9E7002805DC10
:102E9000049901440491AAEB000102E0411C514550
:102EA00000DD8A460499401A401C01904FF0004012
:102EB0000290200704D40198504501DBCDF804802E
:102EC00000208DF84F0002980DF14F07B0F1004F30
:102ED00025D02B200E9002984FF0020800280CDA23
:102EE000404202902D200E9007E00A210298FDF743
:102EF00054F93031029007F8011DB8F10001A8F132
:102F00000108F2DC02980028EFD1791E0E980870B3
:102F1000307800F0200040F0450007F8020D12A8BC
:102F2000C01B00F107081498007800B1012000EBE5
:102F30000A01019801EBE07105984144401A401ED6
:102F40000590E00306D45B462146179A059800F0E9
:102F50005DF805441498007818B15A4617999047BF
:102F60006D1CE00324D55B462146179A059800F0B6
:102F70004DF805441CE00498002807DBDDE9030157
:102F8000884203DD0098405C179901E017993020D2
:102F90005A469047049805F10105401C0490019899
:102FA000401E019004D12E205A46179990476D1C5F
:102FB000BAF10001AAF1010ADDDC05E017F8010B06
:102FC0005A46179990476D1CB8F10001A8F1010805
:102FD000F4DC5B462146179A0598ABE62D0000000D
:102FE0002B000000200000002DE9F04104460025E0
:102FF0001E461746880404D405E039462020B04711
:103000006D1C641EF9D52846BDE8F0812DE9F0411C
:10301000044600251E469046C80301D5302700E02F
:103020002027880404D505E041463846B0476D1C8A
:10303000641EF9D52846BDE8F0810A68531C0B6070
:103040001070704710B50021084600F0FBF810BD65
:1030500010B50021012000F0F5F810BD10B50021D9
:10306000022000F0EFF810BD10B50021032000F0A1
:10307000E9F810BD10B5012000F098F80320FDF725
:1030800029FB10BD10B504461CB10F2000F08EF8CE
:1030900002E00C2000F08AF810BD000010B50446D4
:1030A0003220FDF717FB2B4804604FF4FA7305221A
:1030B0004E210068FDF72CFF70B14FF4FA73052222
:1030C0007E2124480068FDF723FF08B1002010BDD1
:1030D0007E202149087002E04E201F4908702D20F3
:1030E000FDF7F8FA302000F061F80520FDF7F2FA5C
:1030F000302000F05BF80120FDF7ECFA302000F002
:1031000055F80820FDF7E6FA202000F04FF80820D7
:10311000FDF7E0FA282000F049F80120FDF7DAFA7F
:10312000082000F043F80120FDF7D4FA012000F058
:103130003DF80320FDF7CEFA062000F037F8012015
:10314000FDF7C8FA0C2000F031F80320FDF7C2FAB1
:103150000120BCE724000020280000200FB410B597
:1031600086B009A8009001A8009A0899FFF7CEFA46
:1031700000200090002405E001A9085D00F03CF863
:10318000601CC4B201A8FDF701F8A04201D9142CBB
:10319000F2DB05480078012802D12020FDF7AEFAC5
:1031A00006B010BC5DF814FB220000207CB504467C
:1031B000F02000EA041504F0F00646F00C008DF84B
:1031C000040046F008008DF8050045F00C008DF86D
:1031D000060045F008008DF80700C820042301AA66
:1031E00000900348017803480068FDF763FF7CBD49
:1031F00028000020240000207CB50446F02000EACE
:10320000041504F0F00646F00D008DF8040046F0B9
:1032100009008DF8050045F00D008DF8060045F019
:1032200009008DF80700C820042301AA0090034874
:10323000017803480068FDF73DFF7CBD28000020B1
:103240002400002070B504460E4606F00F0524B990
:1032500045F080052846FFF7A9FF012C04D145F071
:10326000C0052846FFF7A2FF022C04D145F09405C3
:103270002846FFF79BFF032C04D145F0D4052846D0
:10328000FFF794FF70BD0000EEB06148007861491F
:103290000870614800784870604800788870D422CF
:1032A0005F496846FCF74EFF5D480C380EC836A8EB
:1032B000FFF7CCF8E02236A959480C38FCF742FF5A
:1032C00057480C380146C1F8C800FEF779F9FFF7F6
:1032D000C6F9FFF703F8FFF745F85248FFF7DEFE9F
:1032E00010B10120401C00BF6420FDF7F3F94D4AE6
:1032F000B421104600F0E6F84A4AB621104600F024
:10330000E1F86420FDF7E6F90A230222B4214548DA
:10331000FDF7FEFD40B9FFF795FE3220FDF7DAF923
:1033200041A0FFF71BFF02E043A0FFF717FFFFF7E5
:103330008FFE0A230222B6213A48FDF7E9FD30B993
:103340003220FDF7C7F941A0FFF708FF02E043A0D4
:10335000FFF704FFFFF776FE4FF47A70FDF7BAF936
:10336000FFF788FE0120FFF78DFE00202949087035
:10337000487088700A203E49088047E03D48007840
:10338000012814D1FFF776FED0222549091D684691
:10339000FCF7D8FE22480C380FC8FFF703F802E00C
:1033A0000120FDF797F9334800780128F8D032481A
:1033B000007801280BD1FFF75DFEFFF743FE2FA039
:1033C000FFF7CCFE00BF2C4800780128FBD0304826
:1033D000007801281AD1FFF74DFEFFF733FE2DA02C
:1033E000FFF7BCFEFFF734FE2DA0FFF7B7FEFFF797
:1033F00035FE2EA0FFF7B2FEFFF736FE2EA0FFF738
:10340000ADFE00BF224800780128FBD0B6E70000DF
:1034100014000020170000201500002016000020D6
:103420009C0000203C0000204B65797061642052B4
:1034300065616479210000004B6579706164204901
:103440006E6974204661696C656400005768656543
:103450006C20526561647921000000005768656541
:103460006C20496E6974204661696C6564000000D7
:103470000C0000201F000020210000205072657306
:1034800073203120746F20676F206261636B0000CE
:10349000200000204C45442023203132330000001E
:1034A0005245443A203235350000000047524E3A2A
:1034B0002032353500000000424C553A2032353577
:1034C0000000000070B504460D46164600235E223B
:1034D0002946204600F0BBF9632380222946204676
:1034E00000F0B5F90A20FDF7F5F801232B22294653
:1034F000204600F0ACF901232C222946204600F09A
:10350000A6F900232D222946204600F0A0F9002329
:103510002E222946204600F09AF901232F2229461F
:10352000204600F094F9012330222946204600F07D
:103530008EF9FF2331222946204600F088F9022324
:1035400032222946204600F082F9062341222946EC
:10355000204600F07CF9032342222946204600F051
:1035600076F9062343222946204600F070F903230A
:1035700044222946204600F06AF9062345222946BE
:10358000204600F064F9032346222946204600F035
:103590005EF9062347222946204600F058F9032306
:1035A00048222946204600F052F90623492229469E
:1035B000204600F04CF903234A222946204600F019
:1035C00046F906234B222946204600F040F9032302
:1035D0004C222946204600F03AF906234D2229467E
:1035E000204600F034F903234E222946204600F0FD
:1035F0002EF906234F222946204600F028F90323FE
:1036000050222946204600F022F90623512229465D
:10361000204600F01CF9032352222946204600F0E0
:1036200016F9062353222946204600F010F90323F9
:1036300054222946204600F00AF90623552229463D
:10364000204600F004F9032356222946204600F0C4
:10365000FEF8062357222946204600F0F8F80323F7
:1036600058222946204600F0F2F810235C22294611
:10367000204600F0ECF804235D222946204600F0A5
:10368000E6F88C235E222946204600F0E0F870BD63
:1036900070B505460E463146284600F04DF8044602
:1036A000012C00D170BD022C01D10420FAE7042CBA
:1036B00001D10720F6E7082C01D10A20F2E7102CEF
:1036C00001D10220EEE7202C01D10520EAE7402CB1
:1036D00001D10820E6E7802C01D10B20E2E7B4F508
:1036E000807F01D10320DDE7B4F5007F01D1062002
:1036F000D8E7B4F5806F01D10920D3E7B4F5006FA6
:1037000001D10C20CEE70CB90020CBE70020C9E79F
:103710002DE9FE4305460E4617461C46DDF8288077
:103720000A2023463A463146CDE9008402902846D5
:10373000FDF778FDBDE8FE832DE9FC4104460D460A
:103740000020019001AF0223002229462046009765
:10375000FFF7DEFF9DF804009DF8051040EA012602
:103760003046BDE8FC812DE9F04106460F4615467E
:1037700039463046FFF7E0FF0446012C00D100E057
:103780000020032C01D1012100E000210843812CFD
:1037900001D1012100E000210843832C01D1012146
:1037A00000E00021084310B15320BDE8F081042C53
:1037B00001D1012000E00020062C01D1012100E010
:1037C000002108430C2C01D1012100E00021084315
:1037D0000E2C01D1012100E00021084308B157203F
:1037E000E3E7102C01D1012000E00020182C01D1CA
:1037F000012100E000210843302C01D1012100E02B
:1038000000210843382C01D1012100E000210843A8
:1038100008B14E20C9E7402C01D1012000E0002072
:10382000602C01D1012100E000210843C02C01D10E
:10383000012100E000210843E02C01D1012100E03A
:103840000021084308B14520AFE72846ADE72DE940
:10385000FC4106460F4614461D468DF804408DF87F
:1038600005500A20022301AA394600903046FDF790
:1038700021FCBDE8FC810000000000000000010206
:103880000304060708090000000001020304000009
:10389000B0380008000000203C0000006827000845
:1038A000EC3800083C000020340B000078270008AA
:1038B0000000000000000000000000000000000008
:1038C0000C00002000000000000000000A58580111
:1038D00000000000000000000000000000000000E8
:0C38E00010000000010000000024F400B3
:04000005080000ED02
:00000001FF
