:020000040800F2
:1000000000500020BD1C0008591C00085B1C0008A3
:100010005D1C00085F1C0008611C00080000000057
:10002000000000000000000000000000631C000849
:10003000651C000800000000671C0008691C00081F
:10004000051D0008051D0008051D0008051D000808
:10005000051D0008051D0008051D0008051D0008F8
:10006000051D0008051D0008051D0008051D0008E8
:10007000051D0008051D0008051D0008051D0008D8
:10008000051D0008051D0008051D0008051D0008C8
:10009000051D0008051D0008051D0008051D0008B8
:1000A000051D0008051D0008051D0008051D0008A8
:1000B000051D0008051D0008051D0008051D000898
:1000C000051D0008051D0008051D0008051D000888
:1000D000051D0008051D0008051D0008051D000878
:1000E000051D0008051D0008051D00080000000092
:1000F0000000000000000000000000000000000000
:0C01000000000000000000005FF808F1A3
:10010C0010B5054C237833B9044B13B10448AFF345
:10011C0000800123237010BD0C00002000000000A3
:10012C00601D000808B5034B1BB103490348AFF32E
:10013C00008008BD0000000010000020601D0008B9
:10014C0010B504460E4B18784FF47A73B3FBF0F3EA
:10015C000C4A1068B0FBF3F000F082F868B90F2C71
:10016C0001D901200AE0002221464FF0FF3000F0B7
:10017C0043F8054B1C60002000E0012010BD00BFBF
:10018C0000000020080000200400002008B5074AE9
:10019C00136843F010031360032000F01BF80020D9
:1001AC00FFF7CEFF01F0ECFB002008BD0020024061
:1001BC00034A1168034B1B780B441360704700BF54
:1001CC002800002000000020014B1868704700BF79
:1001DC0028000020074AD36823F4E0631B041B0C9F
:1001EC00000200F4E060034343F0BF6343F40033C8
:1001FC00D360704700ED00E030B4174BDB68C3F3FD
:10020C000223C3F10704042C28BF04241D1D062D52
:10021C0018D9033B4FF0FF3505FA04F421EA040129
:10022C00994005FA03F322EA0303194300280BDB78
:10023C000901C9B200F1604000F5614080F800137B
:10024C0030BC70470023E5E700F00F000901C9B28C
:10025C00024B1954F4E700BF00ED00E014ED00E090
:10026C000138B0F1807F0AD2064B5860064AF02163
:10027C0082F823100020986007221A607047012032
:10028C00704700BF10E000E000ED00E0F0B482B079
:10029C0000252C46A3E07F4FBB4210D007D97E4FE0
:1002AC00BB420CD007F58037BB4208D013E0A7F552
:1002BC008017BB4203D007F57027BB4207D18B6870
:1002CC00002B58D0012B51D04261082503E0A7F533
:1002DC008017BB42F3D0FF2E4FD88446FF2E4FD849
:1002EC00A200DCF800300F27974023EA070305FA39
:1002FC0002F21343CCF800304B6813F0805F6DD0E2
:10030C00664B9A6942F001029A619B6903F0010302
:10031C000193019BA208971C614B53F8273004F002
:10032C000307BF004FF00F0C0CFA07FC23EA0C0C70
:10033C005C4B98422AD003F58063984200F08A8087
:10034C0003F58063984200F0878003F58063984240
:10035C001AD004231BE0CD68BDE7CD680435BAE79D
:10036C00CD680835B7E7CD680C35B4E702610825D0
:10037C00B1E70025AFE70425ADE700F1040CADE7CC
:10038C00A4F108029200ACE7032300E00023BB4079
:10039C0043EA0C030232424F47F822304B6813F405
:1003AC00803F5BD0404A1368334313604B6813F4AF
:1003BC00003F59D03C4A5368334353604B6813F4A5
:1003CC00801F57D0384A9368334393604B6813F4BB
:1003DC00001F55D0344AD3681E43D66001340B68D5
:1003EC0033FA04F252D00122A24003EA020632EAA6
:1003FC000303F3D14B68122B3FF64DAF122B3FF694
:10040C006AAF01A757F823F0CB020008630300087A
:10041C006D0300087F030008E3020008E3020008F4
:10042C00E3020008E3020008E3020008E30200080C
:10043C00E3020008E3020008E3020008E3020008FC
:10044C00E3020008E3020008E30200086703000867
:10045C007303000801239AE7022398E7124A1368F2
:10046C0023EA06031360A1E70F4A536823EA060345
:10047C005360A3E70C4A936823EA06039360A5E74D
:10048C00094AD36823EA0606D660A7E702B0F0BC97
:10049C00704700BF00002210000031100010024015
:1004AC000000014000080140000401400AB1016154
:1004BC007047090401617047002800F0C280F8B54C
:1004CC00044690F83D30002B6DD0242384F83D3049
:1004DC002268136823F00103136000F051FC62687A
:1004EC005A4B9A4264D85A4B98428CBF0023012332
:1004FC00002B40F0A880574DA5FB0035AF0C2668AB
:10050C00716821F03F0141EA9541716021680B6AE5
:10051C0023F03F0365684D4A95424FD87A1C13432C
:10052C000B622568E96921F44F4121F0FF016368F2
:10053C00464A93424CD801385B00B0FBF3F00130D3
:10054C0040F6FC73184278D0C0F30B030B43EB61FD
:10055C0021680B6823F0C003E269206A024313434D
:10056C000B6021688B6823F4034323F0FF0322699B
:10057C00E068024313438B602168CB6823F0FF03D0
:10058C006269A06902431343CB602268136843F08D
:10059C000103136000202064202384F83D30206385
:1005AC0084F83E00F8BD80F83C3001F00BFA8CE783
:1005BC00294B98428CBF0023012399E74FF4967284
:1005CC0002FB07F2254DA5FB025292090132A6E768
:1005DC00A268BAB9461E03EB4307B6FBF7F6013621
:1005EC00C6F30B06B6FA86F6760946BBC2B9421EAE
:1005FC0003EB4303B2FBF3F20132C2F30B0242F4FE
:10060C000043A3E7461E03EB830707EB8707B6FB04
:10061C00F7F60136C6F30B06B6FA86F67609E4E76A
:10062C00421E03EB830303EB8303B2FBF3F20132B1
:10063C00C2F30B0242F4404388E7042386E701230C
:10064C0084E7012070470120ACE700BFA0860100C1
:10065C007F841E0083DE1B43FF083D00D34D6210D8
:10066C00F0B587B0002873D0054690F82932DBB17D
:10067C00032385F82932286800F0BBFF2C4654F878
:10068C00107B6E460FCC0FC6236833602B1D0ECB30
:10069C00384600F09EFF044658B1022385F82932F3
:1006AC000124204607B0F0BD80F8283201F0B8FADA
:1006BC00DEE70021286800F0A6FF234611E005EBD9
:1006CC004312012182F8291082F82830D3860021A8
:1006DC0082F82B109163D1639A1C5201A9500133FB
:1006EC00DBB269688B42EAD312E005EB44120023BB
:1006FC0082F8293182F8284182F82B31C2F838313E
:10070C00C2F83C3104F10A025201AB500134E4B29C
:10071C00A142EAD82C4654F8107B6E460FCC0FC67B
:10072C00236833602B1D0ECB384600F06EFF044659
:10073C0020B1022385F829320124B2E7002385F881
:10074C002430012385F82932286800F074FFA8E7CB
:10075C000124A6E7014B01221A60704720000E42CB
:10076C0082B0084B1B68084AA2FB03235B0A00FB00
:10077C0003F3019300BF019B5A1E0192002BF9D188
:10078C0002B0704708000020D34D6210002800F022
:10079C00F18170B582B00446036813F0010F2CD0C0
:1007AC00AA4B5B6803F00C03042B1DD0A74B5B68B2
:1007BC0003F00C03082B12D06368B3F5803F41D0D3
:1007CC00002B55D103F1804303F504331A6822F44E
:1007DC0080321A601A6822F480221A6037E09B4B30
:1007EC005B6813F4803FE7D0984B1B6813F4003F11
:1007FC0003D06368002B00F0BF81236813F0020F55
:10080C0075D0924B5B6813F00C0F5FD08F4B5B680D
:10081C0003F00C03082B54D02369002B00F08980C3
:10082C008B4B01221A60FFF7CFFC0546874B1B68E8
:10083C0013F0020F74D1FFF7C7FC401B0228F5D947
:10084C0003209EE1814A136843F48033136063688C
:10085C0043B3FFF7B9FC05467C4B1B6813F4003F10
:10086C00CBD1FFF7B1FC401B6428F5D9032088E1FC
:10087C00B3F5A02F09D0754B1A6822F480321A6098
:10088C001A6822F480221A60E1E703F18043A3F591
:10089C003C331A6842F480221A601A6842F480329F
:1008AC001A60D4E7FFF790FC0546684B1B6813F4FD
:1008BC00003FA2D0FFF788FC401B6428F5D9032029
:1008CC005FE1624B5B6813F4803FA5D15F4B1B6803
:1008DC0013F0020F03D02369012B40F04F815B4AC8
:1008EC00136823F0F803616943EAC10313602368BA
:1008FC0013F0080F32D0A369002B45D0554B0122C1
:10090C001A60FFF761FC0546504B5B6A13F0020F4F
:10091C0021D1FFF759FC401B0228F5D9032030E107
:10092C004A4A136823F0F803616943EAC103136070
:10093C00DDE7474B00221A60FFF746FC0546434BA8
:10094C001B6813F0020FD2D0FFF73EFC401B0228AD
:10095C00F5D9032015E10120FFF702FF236813F0FE
:10096C00040F00F09780394BDB6913F0805F1DD1C9
:10097C00364BDA6942F08052DA61DB6903F080535E
:10098C000193019B012512E0324B00221A60FFF704
:10099C001BFC05462D4B5B6A13F0020FDED0FFF7F4
:1009AC0013FC401B0228F5D90320EAE000252A4B52
:1009BC001B6813F4807F11D0E368012B22D0002B2D
:1009CC0038D103F1804303F504331A6A22F0010293
:1009DC001A621A6A22F004021A6218E01E4A13689C
:1009EC0043F480731360FFF7EFFB06461A4B1B684A
:1009FC0013F4807FE0D1FFF7E7FB801B6428F5D967
:100A0C000320BEE0114A136A43F001031362E3684A
:100A1C0073B3FFF7D9FB06460C4B1B6A13F0020F9E
:100A2C0037D1FFF7D1FB801B41F288339842F3D9C1
:100A3C000320A6E0052B11D0044B1A6A22F0010208
:100A4C001A621A6A22F004021A62E0E700100240ED
:100A5C000000424280044242007000404D4B1A6A32
:100A6C0042F004021A621A6A42F001021A62CEE7DC
:100A7C00FFF7AAFB0646474B1B6A13F0020F08D080
:100A8C00FFF7A2FB801B41F288339842F3D9032075
:100A9C0077E0E5B9E369002B72D03E4A526802F068
:100AAC000C02082A56D0022B17D03B4B00221A609E
:100ABC00FFF78AFB0446374B1B6813F0007F47D0C7
:100ACC00FFF782FB001B0228F5D9032059E0314ABD
:100ADC00D36923F08053D361DCE72F4B00221A60DB
:100AEC00FFF772FB05462B4B1B6813F0007F06D0FB
:100AFC00FFF76AFB401B0228F5D9032041E0236A6B
:100B0C00B3F5803F1AD023494B6823F47413226A3F
:100B1C00606A024313434B601F4B01221A60FFF7BC
:100B2C0053FB04461B4B1B6813F0007F0ED1FFF7E1
:100B3C004BFB001B0228F5D9032022E0154A536811
:100B4C0023F40033A1680B435360DCE7002018E06A
:100B5C00002016E0012B16D00E4B5B6803F480319D
:100B6C00226A914211D103F47013626A93420ED13E
:100B7C00002006E001207047012002E0012000E087
:100B8C00002002B070BD0120FBE70120F9E7012035
:100B9C00F7E700BF001002406000424286B0164BDF
:100BAC000FCB0DF1180C0CE90F0040F20123ADF83E
:100BBC000430124B5B6803F00C02082A02D0104878
:100BCC0006B07047C3F38342624412F8102C13F43E
:100BDC00803F0CD0094B5B68C3F34043634413F86C
:100BEC00143C074800FB02F0B0FBF3F0E8E70548C3
:100BFC0000FB02F0E4E700BF781D00080010024083
:100C0C0000127A0000093D00002800F0A08070B5A9
:100C1C000D460446524B1B6803F007038B420BD264
:100C2C004F4A136823F007030B431360136803F058
:100C3C0007038B4240F08D80236813F0020F17D00E
:100C4C0013F0040F04D0474A536843F4E063536035
:100C5C00236813F0080F04D0424A536843F46053DE
:100C6C005360404A536823F0F003A1680B43536070
:100C7C00236813F0010F31D06368012B20D0022BB5
:100C8C0025D0384A126812F0020F64D035494A68F0
:100C9C0022F0030213434B60FFF796FA0646314BE2
:100CAC005B6803F00C036268B3EB820F16D0FFF79E
:100CBC008BFA801B41F288339842F0D9032045E02F
:100CCC00284A126812F4003FE0D101203EE0254A88
:100CDC00126812F0007FD9D1012037E0204B1B683D
:100CEC0003F00703AB420AD91D4A136823F007032C
:100CFC002B431360136803F00703AB422DD1236819
:100D0C0013F0040F06D0174A536823F4E063E1682C
:100D1C000B435360236813F0080F07D0114A536834
:100D2C0023F46053216943EAC1035360FFF736FF94
:100D3C000C4B5B68C3F303130B4AD35CD8400B4BCF
:100D4C0018600B4B1868FFF7FBF9002070BD0120F1
:100D5C0070470120FAE70120F8E70120F6E700BF11
:100D6C0000200240001002408C1D000808000020EA
:100D7C0004000020014B1868704700BF08000020D9
:100D8C0008B5FFF7F7FF044B5B68C3F30223034A74
:100D9C00D35CD84008BD00BF001002409C1D000869
:100DAC0008B5FFF7E7FF044B5B68C3F3C223034AA4
:100DBC00D35CD84008BD00BF001002409C1D000849
:100DCC0070B582B00446036813F0010F34D03E4B6B
:100DDC00DB6913F0805F47D13B4BDA6942F08052FC
:100DEC00DA61DB6903F080530193019B0125374BDA
:100DFC001B6813F4807F39D0334B1B6A13F4407398
:100E0C0011D0626802F440729A420CD02E4A136AD6
:100E1C0023F440702E4901260E6000260E601062ED
:100E2C0013F0010F36D1284A136A23F4407361681A
:100E3C000B431362002D3ED1236813F0020F06D032
:100E4C00214A536823F44043A1680B435360236841
:100E5C0013F0100F34D01C4A536823F48003E1685C
:100E6C000B43536000202CE00025C0E7174A1368A1
:100E7C0043F480731360FFF7A7F90646134B1B6806
:100E8C0013F4807FB8D1FFF79FF9801B6428F5D944
:100E9C00032016E0FFF798F906460B4B1B6A13F07C
:100EAC00020FC0D1FFF790F9801B41F288339842B2
:100EBC00F3D9032005E0D36923F08053D361BBE75A
:100ECC00002002B070BD00BF001002400070004056
:100EDC004004424210B586B00446364B0FCB0DF1A0
:100EEC00180C0CE90F0040F20123ADF80430022C71
:100EFC0052D0102C04D0012C2CD0002006B010BDE8
:100F0C002D4B5A68186810F08070F7D0C2F38343E9
:100F1C0006A90B4413F8100C12F4803F16D0264B84
:100F2C005B68C3F340430B4413F8142C234BB3FB03
:100F3C00F2F300FB03F0204B5B6813F4800FDDD160
:100F4C0040001F4BA3FB00304008D7E71D4B03FBB1
:100F5C0000F0F0E7184B1B6A40F202321A40B2F56F
:100F6C00817F24D003F44073B3F5007F04D0B3F534
:100F7C00407F09D00020C1E70F4A526A12F0020FDD
:100F8C00F5D049F64040B9E70B4B186810F4003027
:100F9C00B4D04FF22440B1E7FFF702FF064B5B6879
:100FAC00C3F3813301335B00B0FBF3F0A6E74FF4DE
:100FBC000040A3E7781D00080010024000127A00E0
:100FCC00ABAAAAAA00093D0038B50446FFF7FCF805
:100FDC00054623685A6812F0200F07D1FFF7F4F882
:100FEC00401BB0F57A7FF4D9032004E05A6842F034
:100FFC0010025A60002038BD38B5044602685368A8
:10100C0023F010035360FFF7DFF8054623685B6895
:10101C0013F0200F07D1FFF7D7F8401BB0F57A7FFC
:10102C00F4D9032000E0002038BDC0B138B5054626
:10103C000268536823F008035360FFF7C5F80446B1
:10104C002B685B6813F0080F07D1FFF7BDF8001B86
:10105C00B0F57A7FF4D9032000E0002038BD0120E0
:10106C0070470000002857D010B50446437C4BB1A4
:10107C00022363742046FFF7D8FF38B1042363744E
:10108C00012010BD037400F0CFFCF1E72046FFF700
:10109C009BFF60BB2268536823F007035360A3686F
:1010AC0023B11E4A136B23F0010313631B4AD36A4B
:1010BC0023F46073A1680B43D3626268B2F1FF3F03
:1010CC0019D021688B6823F00F0343EA12438B601D
:1010DC002168CB681B0C1B0492B21343CB602046D7
:1010EC00FFF78AFF88B1042363740120C9E7042346
:1010FC0063740120C5E70120FFF7ECFE08B1421E26
:10110C00DFE7042363740120BBE70023E3730123AF
:10111C006373A3736374B4E701207047006C0040E1
:10112C00002839D010B504460023836290F8513062
:10113C00002B2CD0022384F851302268136823F042
:10114C00400313606368A2681343E2681343226987
:10115C00134362691343A26902F400721343E269F8
:10116C001343226A1343A16A22680B431360638BF7
:10117C00226803F0040353602268D36923F40063EC
:10118C00D36100206065012384F8513010BD80F8D4
:10119C00503000F069FCCDE70120704770B4036A51
:1011AC0023F001030362036A4668826922F073022A
:1011BC000C6844EA020523F002028B6813430D4CC1
:1011CC00A04209D00B4CA0420DD0466085614A6804
:1011DC004263036270BC704723F00803CA68134370
:1011EC0023F00403EEE726F440764A6932438E6915
:1011FC001643EAE7002C014030B4036A23F48073F1
:10120C000362036A4568C26922F073020C682243C8
:10121C0023F400738C6843EA04230F4CA04209D0DA
:10122C000D4CA0420ED04560C2614A68C263036295
:10123C0030BC704723F40063CC6843EA042323F4E6
:10124C008063EDE725F440554C6945EA04158C693B
:10125C0045EA0415E7E700BF002C014030B4036AEF
:10126C0023F480530362036A4468C26922F4E642A1
:10127C000D6842EA052223F400538D6843EA0533D6
:10128C00074DA84206D04460C2614A6802640362FA
:10129C0030BC704724F480444D6944EA8514F2E76D
:1012AC00002C014003681B4A90420AD0B0F1804FD9
:1012BC0007D0A2F59432904203D002F5806290429E
:1012CC0003D123F070034A681343124A90420AD0A8
:1012DC00B0F1804F07D0A2F59432904203D002F5C2
:1012EC008062904203D123F44073CA68134323F005
:1012FC0080034A69134303608B68C3620B68836283
:10130C00044B984202D00123436170470B6903637D
:10131C00F9E700BF002C0140B0B110B5044690F8BD
:10132C003D3063B1022384F83D30214651F8040B63
:10133C00FFF7B8FF012384F83D30002010BD80F882
:10134C003C3000F0CBFBEDE70120704730B4036A72
:10135C0023F010030362036A4468826922F4E642B4
:10136C000D6842EA052223F020038D6843EA051339
:10137C000E4DA84209D00D4DA8420ED0446082619A
:10138C004A688263036230BC704723F08003CD68E7
:10139C0043EA051323F04003EDE724F440644D6960
:1013AC0044EA85048D6944EA8504E7E7002C014092
:1013BC0090F83C30012B28D010B50446012380F85E
:1013CC003C30022380F83D300C2A0BD8DFE802F0C9
:1013DC00070A0A0A110A0A0A150A0A0A19000068F9
:1013EC00FFF7DCFE012384F83D30002084F83C003C
:1013FC0010BD0068FFF7AAFFF4E70068FFF7FCFEDA
:10140C00F0E70068FFF72AFFECE70220704790F83E
:10141C003C30012B1CD070B4012680F83C600223B8
:10142C0080F83D3002685568936825F070050C68AB
:10143C002C4323F080054B682B4354600268936067
:10144C0080F83D60002380F83C30184670BC704733
:10145C000220704790F83C30012B22D0012380F8F9
:10146C003C30CB6823F440738A68134323F48063C5
:10147C004A68134323F400630A68134323F480532C
:10148C000A69134323F400534A69134323F480433A
:10149C00CA69134302685364002380F83C30184631
:1014AC00704702207047000038B504460268136983
:1014BC0023F44053C1680B431361836802691343DF
:1014CC0042691A430168CB6823F4B05323F00C0330
:1014DC001343CB600268536923F4407381690B4357
:1014EC0053610268214B9A421FD0FFF749FC00EB75
:1014FC00800000EB800063689B00B0FBF3F01C4D98
:10150C00A5FB00325109642303FB11031B01323389
:10151C00A5FB03235B0903F0F00202EB011203F0BD
:10152C000F03216813448B6038BDFFF739FC00EBC7
:10153C00800000EB800063689B00B0FBF3F00C4D67
:10154C00A5FB00325109642303FB11031B01323349
:10155C00A5FB03235B0903F0F00202EB011203F07D
:10156C000F03216813448B60DEE700BF0038014095
:10157C001F85EB5158B310B5044690F839300BB3B6
:10158C00242384F839302268D36823F40053D360C1
:10159C002046FFF789FF2268136923F490431361F7
:1015AC002268536923F02A0353612268D36843F4F9
:1015BC000053D3600020E063202384F8393084F892
:1015CC003A3010BD80F8383000F0EEFAD8E7012040
:1015DC00704784B001A880E80E00002004B070476A
:1015EC00B0F840309BB243F43F43A0F840300020A9
:1015FC007047B0F8403023F47C535B045B0CA0F8CC
:10160C004030002070470020704784B038B505ADDD
:10161C0085E80E000123A0F840300025A0F84050CA
:10162C00A0F84450A0F85050FFF7DAFF2846BDE868
:10163C00384004B070470020704700002DE9F0419D
:10164C0088B0002404940594069407942E4B9A6950
:10165C0042F010029A619A6902F010020092009A0C
:10166C009A6942F020029A619A6902F02002019272
:10167C00019A9A6942F004029A619A6902F0040292
:10168C000292029A9A6942F008029A619B6903F0ED
:10169C0008030393039BDFF87880224648F210017D
:1016AC004046FEF703FF194D22464FF603712846BC
:1016BC00FEF7FCFE48F210030493012605960694EF
:1016CC000227079704A94046FEF7E0FD4FF6037387
:1016DC00049305960694079704A92846FEF7D6FDB1
:1016EC00082304930594069604A92846FEF7CEFD1C
:1016FC00302304930594069404A92846FEF7C6FDEE
:10170C0008B0BDE8F08100BF00100240000C0140A1
:10171C000008014008B50948094B0360094B4360B8
:10172C0000238360C3604FF4804202614361836194
:10173C00C3610362FEF7C0FE08BD00BF2C00002091
:10174C0000540040A086010008B50648064B036013
:10175C004FF0FF3343604FF480738360FFF782FCDC
:10176C0008BD00BFC00000200028004008B50B4891
:10177C000B4B03604FF48273436000238360C360A0
:10178C00036143614FF400728261C361036243627F
:10179C0083620A23C362FFF7C3FC08BD1401002057
:1017AC000030014030B593B000241094119409948A
:1017BC000A940B940C940D940E940F9420222146B1
:1017CC0001A800F0BFFA184D184B2B606C60AC6090
:1017DC00EC602C616C61AC612846FFF79DFD1094A8
:1017EC00119410A92846FFF712FE09940A940B9441
:1017FC000C940D940E940F94224609A92846FFF7D9
:10180C00D7FD019402940394049405944FF400536F
:10181C000693089401A92846FFF71CFE284600F001
:10182C0083F913B030BD00BFD4000020002C014060
:10183C0030B58BB00024089409940194029403945D
:10184C000494059406940794104D4FF080432B603C
:10185C006C60AC60EC602C61AC612846FFF75CFD01
:10186C000894099408A92846FFF7D1FD0194029425
:10187C000394059404220DEB02012846FFF798FD12
:10188C00284600F051F90BB030BD00BF6C010020B0
:10189C0008B50848084B03604FF4E133436000235C
:1018AC008360C36003610C2242618361C361FFF7F3
:1018BC0061FE08BD800000200038014008B50748D3
:1018CC00074B03600823436002238360002383617A
:1018DC00C3610362FEF7C4FE08BD00BFAC0100206B
:1018EC00005C004070B594B000240F9410940594E3
:1018FC000694079408940994019402940394049414
:10190C0005230A934FF480330B930C9401250D950A
:10191C000E950226119612934FF4801313930AA876
:10192C00FEF734FF0F230593069690230793089434
:10193C000994294605A8FFF767F9112301934FF481
:10194C00807302934FF48003049301A8FFF738FAD5
:10195C0014B070BD08B5FEF719FCFFF7C3FFFFF715
:10196C006DFEFFF7D7FEFFF7EFFEFFF7FFFEFFF769
:10197C0019FFFFF75DFFFFF78BFFFFF79FFFFEE7F8
:10198C0082B00E4B9A6942F001029A619A6902F098
:10199C0001020092009ADA6942F08052DA61DB6946
:1019AC0003F080530193019B054A536823F0E063D5
:1019BC0043F00073536002B0704700BF0010024048
:1019CC000000014010B586B00023029303930493EA
:1019DC0005930268114B9A4201D006B010BD104C11
:1019EC00A36943F00803A361A36903F00803009300
:1019FC00009BC0230293122303930323059302A994
:101A0C000848FEF743FCE36943F40013E361E36920
:101A1C0003F400130193019BDFE700BF0054004067
:101A2C0000100240000C014002680C4B9A4200D09E
:101A3C00704700B583B0FEF78DFE094BDA6942F0B2
:101A4C000062DA61DB6903F000630193019B054BD3
:101A5C0001221A6003B05DF804FB00BF00280040AF
:101A6C00001002403C04424210B586B000230293A1
:101A7C000393049305930268164B9A4201D006B067
:101A8C0010BD03F560439A6942F480529A619A69D9
:101A9C0002F480520092009A9A6942F004029A6110
:101AAC009B6903F004030193019BA023029302237F
:101ABC00039303230593084C02A92046FEF7E6FB8B
:101ACC004023029300230393049302A92046FEF7BC
:101ADC00DDFBD4E7003001400008014082B0036810
:101AEC000F4A934204D0B3F1804F0CD002B0704730
:101AFC000C4B9A6942F400629A619B6903F400638F
:101B0C000093009BF2E703F50433DA6942F001021B
:101B1C00DA61DB6903F001030193019BE6E700BF87
:101B2C00002C01400010024000B587B00023029346
:101B3C000393049305930368184A934205D0B3F1B9
:101B4C00804F17D007B05DF804FB154B9A6942F033
:101B5C0004029A619B6903F004030093009B4FF409
:101B6C008073029302230393059302A90D48FEF799
:101B7C008DFBE7E703F504339A6942F004029A619E
:101B8C009B6903F004030193019B022302930393CB
:101B9C00059302A90348FEF779FBD3E7002C01401B
:101BAC00001002400008014010B586B000230293DB
:101BBC000393049305930268174B9A4201D006B025
:101BCC0010BD03F558439A6942F480429A619A69B0
:101BDC0002F480420092009A9A6942F004029A61DF
:101BEC009B6903F004030193019B4FF40073029370
:101BFC000223039303230593084C02A92046FEF706
:101C0C0045FB4FF48063029300230393049302A9D2
:101C1C002046FEF73BFBD2E70038014000080140AC
:101C2C000268094B9A4200D0704782B003F5DA3350
:101C3C00DA6942F40002DA61DB6903F40003019310
:101C4C00019B02B0704700BF005C00407047FEE78C
:101C5C00FEE7FEE7FEE770477047704708B5FEF7F2
:101C6C00A7FA08BD0F4B1A6842F001021A605968B6
:101C7C000D4A0A405A601A6822F0847222F48032AB
:101C8C001A601A6822F480221A605A6822F4FE0242
:101C9C005A604FF41F029A60044B4FF000629A6036
:101CAC00704700BF001002400000FFF800ED00E09C
:101CBC00002103E00B4B5B58435004310A480B4B9B
:101CCC0042189A42F6D30A4A02E0002342F8043B37
:101CDC00084B9A42F9D3FFF7C5FF00F00FF8FFF756
:101CEC0039FE7047AC1D0008000000200C000020DD
:101CFC000C00002018040020FEE7000070B5002640
:101D0C000C4D0D4C641BA410A64209D100F022F816
:101D1C0000260A4D0A4C641BA410A64205D170BDC6
:101D2C0055F8043B98470136EEE755F8043B9847C5
:101D3C000136F2E7A41D0008A41D0008A41D00082C
:101D4C00A81D000803460244934200D1704703F8D3
:101D5C00011BF9E7F8B500BFF8BC08BC9E467047FC
:0C1D6C00F8B500BFF8BC08BC9E467047EC
:101D780002030405060708090A0B0C0D0E0F1010C4
:101D88000000000000000000000000000102030441
:0C1D980006070809000000000102030417
:041DA4003101000801
:041DA8000D01000821
:0C1DAC0001000000100000000024F40002
:0400000508001CBD16
:00000001FF
