:020000040800F2
:10000000800D002001010008631700087D1500081D
:1000100061170008A7010008BD1B000800000000D0
:100020000000000000000000000000008718000829
:10003000A9010008000000006517000889180008E1
:100040001B0100081B0100081B0100081B01000820
:100050001B0100081B0100081B0100081B01000810
:100060001B0100081B0100081B0100081B01000800
:100070001B0100081B0100081B0100081B010008F0
:100080001B0100081B0100081B0100081B010008E0
:100090001B0100081B0100081B0100081B010008D0
:1000A0001B0100082D1900081B0100081B01000896
:1000B0001B0100081B0100081B0100081B010008B0
:1000C0001B0100081B0100081B0100081B010008A0
:1000D0001B0100081B0100081B0100081B01000890
:1000E0001B0100081B0100081B010008DFF80CD0F1
:1000F00000F02AF800480047FD1B0008800D002092
:100100000648804706480047FEE7FEE7FEE7FEE7B1
:10011000FEE7FEE7FEE7FEE7FEE7FEE7E51800087C
:10012000ED000008D2B201E000F8012B491EFBD21D
:1001300070470022F6E710B513460A4604461946F2
:10014000FFF7F0FF204610BD064C074D06E0E068C3
:1001500040F0010394E8070098471034AC42F6D30E
:10016000FFF7C8FF101E0008301E000830B58C18BD
:1001700010F8012B12F00F0301D110F8013B120906
:1001800006D110F8012B03E010F8015B01F8015BC8
:100190005B1EF9D101E001F8013B521EFBD1A142E7
:1001A000E6D3002030BDFEE77047000070B504467E
:1001B00000F004F90546601C02D0044800780444AD
:1001C00000F0FCF8401BA042FAD370BD10030020E1
:1001D0002DE9F84FDFF8B891002409F1040A0AF17B
:1001E000040B23460F270BF1040EC9E00125A5409F
:1001F0002A40AA427DD1674ED1F804C0ACEB060874
:10020000B44532D014DCBCF1030F3AD009DCBCF1A8
:10021000000F2AD0BCF1010F1CD0BCF1020F31D16C
:100220001DE0BCF1110F17D0BCF1120F2AD119E05B
:10023000B8F5881F19D006DCB8F5803F15D0B8F5A1
:10024000801F1FD111E0B8F5001F0ED0B8F5041FB4
:1002500018D10AE0CB6815E0CB681B1D12E0CB6813
:1002600008330FE0CB680C330CE08B682BB1012B0B
:100270004FF0080303D0456104E0042302E0056168
:1002800000E00023FF2A01D8064601E000F1040641
:100290004FEA840501D9A5F12005D6F8008007FAB8
:1002A00005FC28EA0C0803FA05F548EA0508C6F833
:1002B00000804D68ED0062D5374DAE6946F001060D
:1002C000AE61AD6924F0030605F001050095334DDC
:1002D00006EB050CDCF80850A607360F07FA06F8FF
:1002E00025EA0805DFF8B880404503D14FF0000843
:1002F00017E044E0DFF8AC80404502D14FF0010840
:100300000FE0DFF8A480404502D14FF0020808E07A
:10031000DFF89880404502D14FF0030801E04FF02C
:10032000040808FA06F848EA0508CCF808804D6881
:10033000D9F80060ED034D4601D5164300E0964321
:100340002E604D68DAF80060AD03554601D51643BE
:1003500000E096432E604D68DBF80060ED025D46DC
:1003600001D5164300E096432E604D68DEF800602C
:10037000AD02754601D5164300E096432E60641C1D
:100380000D682A46E5407FF431AFBDE8F88F0000E4
:100390000004014000001110001002400000014064
:1003A00000080140000C0140001001400014014011
:1003B0000AB1016170470904FBE700000148806849
:1003C000704700001003002070B504001BD094F8A3
:1003D0003D00002520B984F83C50204600F0AEF8DE
:1003E000242084F83D002068016821F001010160AB
:1003F00000F0E0FA4D4A6168914201D84C4900E0B2
:100400004C49884201D2012070BD4B492368B0FBA2
:10041000F1F15E6826F03F060E435E60636893422A
:1004200006D94FF4967359434FF47A73B1FBF3F145
:100430002368491C1E6A26F03F0631431962616831
:10044000914210D84900401EB0FBF1F2521CC2F399
:100450000B02042A01D2042022E0B0FBF1F0401C80
:10046000C0F30B001CE0A368F3B301EBC10202EB85
:100470000116421EB2FBF6F2521C42F480421205F3
:1004800049D093B301EBC10202EB0111401EB0FB56
:10049000F1F0401CC0F30B0040F4804040F40040F9
:1004A0002168CA694CF6FF739A431043C861D4E9C6
:1004B0000701084321680A6822F0C002104308605F
:1004C000D4E9030101432068826848F2FF339A436C
:1004D00011438160D4E9050108432168CA6822F00C
:1004E000FF021043C86001E00EE016E020680168DA
:1004F00041F0010101602564202084F83D0025635E
:1005000084F83E50002070BD01EB4106421EB2FB54
:10051000F6F2521CB3E70120C2E701EB4101401E95
:10052000B0FBF1F0401CC0F30B00B7E7A086010060
:1005300080841E0000093D0040420F0010B586B0C7
:100540000021009101910291039100680F498842B6
:100550001AD10F4CA06940F00800A061A06969465B
:1005600000F008000490C0200090122001900320A9
:1005700003900848FFF72CFEE06940F40010E061AA
:10058000E06900F40010049006B010BD0054004073
:1005900000100240000C01400248816802781144BA
:1005A0008160704710030020074810B5016841F0D2
:1005B00010010160032000F075F8002000F006F83B
:1005C00000F024F8002010BD0020024070B50D4D51
:1005D00004464FF47A712878B1FBF0F00A490968B3
:1005E000B1FBF0F000F078FD48B9102C07D20022E2
:1005F0002146501E00F036F800206C6070BD0120CE
:1006000070BD0000100300201C0300200C4808B53A
:10061000816941F001018161816901F0010100916D
:10062000C16941F08051C161C06900F08050009003
:100630000448416821F0E06141F00071416008BD6B
:100640000010024000000140002809DB00F01F02FA
:10065000012191404009800000F1E020C0F8001124
:1006600070470000F0B40E4B1B680C46C3F3022326
:10067000C3F10705042D00D90425191D072901D24E
:10068000002300E0DB1E012606FA05F1491E214089
:1006900099409E40761E16403143F0BC01F08FBA5F
:1006A0000CED00E0064900F0070208684FF6FF0372
:1006B000184040EA0220034A1043086070470000D7
:1006C0000CED00E00000FA050149012008627047C6
:1006D00000000E4210B529A401461DCC86B08DE85D
:1006E0001D002AA02A4C006804900020012923D074
:1006F00002293AD010291DD161682268D20119D58A
:10070000C1F38342C9031DF8020009D5616804AA38
:10071000C1F34041515C1F4AB2FBF1F1484301E093
:100720001D4948436168490204D440005FF0030159
:10073000B0FBF1F006B010BD226AC2F3012101291D
:1007400003D1920701D5C803F4E7022905D1626AF3
:10075000920702D549F64040ECE70329EAD1216827
:100760008903E7D54FF22440E4E700F033F96168EC
:10077000C1F38131491C4900DAE700000203040596
:10078000060708090A0B0C0D0E0F101001020000DD
:100790000010024000127A0000093D002DE9F843E4
:1007A00005460078354CC00754D0E0690026C000EB
:1007B00008D4E06940F08050E061E069012600F073
:1007C000805000902E480168C90512D40168804607
:1007D00041F480710160FFF7F1FD074605E000BFBD
:1007E000FFF7ECFDC01B642823D8D8F80000C00533
:1007F000F6D5206A10F4407021D0A98801F4407128
:1008000081421CD0206A1F49012220F440700A60F6
:1008100000220A602062C00711D0FFF7CFFD074613
:1008200041F2883808E000BFFFF7C8FDC11B414511
:1008300002D90320BDE8F883206A8007F4D5206A36
:10084000696820F44070084320621EB1E06920F01E
:100850008050E0612878800705D56068A96820F499
:100860004040084360602878C00605D56068E968A4
:1008700020F48000084360600020DBE700100240A5
:1008800000700040400442422DE9F0470F46050049
:1008900061D0434E306800F00700B84209D230689A
:1008A00020F0070038433060306800F00700B8429D
:1008B00051D128683B4C810712D5400703D56068A9
:1008C00040F4E06060602878000703D5606840F479
:1008D000605060606068A96820F0F00008436060C4
:1008E0002878C00728D06868012810D0216802281D
:1008F00010D0890700292EDA616821F00301014335
:100900006160FFF75BFD804641F288390DE02168A8
:100910008903EFE78901EDE7FFF750FDA0EB080140
:10092000494502D90320BDE8F0876068696800F096
:100930000C00B0EB810FEFD1306800F00700B84237
:100940000BD9306820F0070038433060306800F081
:100950000700B84201D00120E5E72878400705D517
:100960006068E96820F4E060084360602878000768
:1009700006D56068296920F4605040EAC1006060D3
:1009800000F038F86168084AC1F30311515CC840AF
:100990000649086006480068FFF718FE0020C2E715
:1009A0000020024000100240F81D00081C03002037
:1009B000140300200448054900684968044AC1F34B
:1009C0000221515CC84070471C0300200010024007
:1009D000081E00080448054900684968044AC1F334
:1009E000C221515CC84070471C0300200010024027
:1009F000081E000812A185B00FC98DE80F0014A0D1
:100A0000144A006804905168134801F00C03042B49
:100A100010D0082B0ED1C1F38343C9031DF8030086
:100A20000AD5516804AAC1F34041515C0A4A5043B7
:100A3000B0FBF1F005B0704708494843FAE7000001
:100A400002030405060708090A0B0C0D0E0F10100F
:100A5000010200000010024000127A0000093D006F
:100A60002DE9F84F040070D02078C04DC00749D060
:100A70006868C0F38100012807D06868C0F381006E
:100A8000022809D16868C00306D52868800339D5D3
:100A900060680028E7D035E06068B0F5803F0BD093
:100AA00010B1B0F5A02F11D0286820F48030286054
:100AB000286820F4802002E0286840F48030286014
:100AC000606890B1FFF77AFC06460AE0286840F4B7
:100AD00080202860F0E700BFFFF770FC801B6428CF
:100AE00073D828688003F7D50CE0FFF767FC06464B
:100AF00005E000BFFFF762FC801B6428F0D828687F
:100B00008003F7D420789A4E80074FF001094FF008
:100B1000000839D5686810F00C0F07D06868C0F37A
:100B20008100022809D16868C00306D428688007BC
:100B300014D52069012808D110E02069B0B1C6F8A9
:100B40000090FFF73BFC074605E00AE1FFF736FCA3
:100B5000C01B0228C4D828688007F7D528686169B7
:100B600020F0F80040EAC10028600DE0C6F80080DF
:100B7000FFF724FC074604E0FFF720FCC01B022817
:100B800023D828688007F7D4207800072CD5794827
:100B9000A169D9B1C0F80090FFF710FC074604E046
:100BA000FFF70CFCC01B02280FD8686A8007F7D536
:100BB00071484FF4FA510068B0FBF1F0009000BFAB
:100BC0000098411E0091FAD20EE080E0C0F800804B
:100BD000FFF7F4FB074604E0FFF7F0FBC01B022819
:100BE00075D8686A8007F7D42078400760D5E8692F
:100BF0000027C00008D4E86940F08050E861E86947
:100C0000012700F0805000905C480168C90513D4AA
:100C10000168834641F480710160FFF7CFFB824693
:100C200006E000BFFFF7CAFBA0EB0A0064284ED81D
:100C3000DBF80000C005F5D5E06801280AD008B14E
:100C4000052813D0286A20F001002862286A20F0C5
:100C5000040002E0286A40F001002862E06841F2E6
:100C6000883B98B1FFF7AAFB82460BE0286A40F068
:100C700004002862EEE700BFFFF7A0FBA0EB0A012B
:100C800059455AD8286A8007F6D50CE0FFF796FB3D
:100C9000824605E0FFF792FBA0EB0A0159454CD8CC
:100CA000286A8007F6D41FB1E86920F08050E86117
:100CB000E06988B36968C1F38101022944D0022840
:100CC000C6F8608004D0FFF779FB044638E034E0D2
:100CD000FFF774FB074604E0FFF770FBC01B022818
:100CE0002BD828688001F7D4206AB0F5803F05D161
:100CF0006868A16820F4003008436860D4E90801FE
:100D00000843696821F4741108436860C6F860906C
:100D1000FFF754FB044606E025E000BFFFF74EFB5B
:100D2000001B022809D828688001F7D51BE000BF06
:100D3000FFF744FB001B022802D90320BDE8F88F0F
:100D400028688001F4D40EE00128F7D06868226A90
:100D500000F48031914204D1616A00F4701088423D
:100D600001D00120EAE70020E8E70000001002407F
:100D700000004242800442421C03002000700040F8
:100D800070B5040003D0607C002610B105E001209E
:100D900070BD2674204600F043F80220607420469F
:100DA00000F058F8042578BB204600F0DCFC58BB66
:100DB0002068416821F007014160A06820B1174810
:100DC000016821F0010101601448001F0168A26858
:100DD00021F46071114301606068411C04D101205D
:100DE000FFF778FC80B1401E21688A6822F00F026C
:100DF00042EA10428A602168CA6860F30F02CA6042
:100E0000204600F0CBFC08B16574C0E7E673012012
:100E10006073A0736074002070BD0000306C0040EF
:100E200008B50068084988420DD1FFF74DFC074816
:100E3000C16941F00061C161C069054900F000600D
:100E400000900120086008BD00280040001002400A
:100E50003C04424270B504000AD02068416821F089
:100E600008014160FFF7AAFA05464FF47A7608E0D8
:100E7000012070BDFFF7A2FA401BB04201D9032048
:100E800070BD206840680007F4D5002070BD70B5C3
:100E9000040005D00025A56294F8510010B106E0C9
:100EA000012070BD84F85050204600F02FF8022039
:100EB00084F851002068016821F040010160D4E904
:100EC00001010843D4E9031211430843616908434F
:100ED000218B01F400710843E1690843216A08434A
:100EE000A16A084321680860A069042101EA104052
:100EF000216848602068C16921F40061C1616565AD
:100F0000012084F85100002070BD000030B585B08C
:100F100000240094019402940394006814498842C8
:100F200023D11448816941F480518161816901F4C0
:100F300080510491816941F00401816180690E4D05
:100F400000F004000490A0200090022001900320F3
:100F5000039069462846FFF73BF94020CDE900049D
:100F6000694628460294FFF733F905B030BD00000A
:100F70000030014000100240000801402DE9F84F08
:100F8000044690F8500000271D4616468946012861
:100F90000DD04FF0010B84F850B0FFF70FFA8046E8
:100FA00094F85100BA46012804D002278EE00220AE
:100FB000BDE8F88FB9F1000F7DD0002E7BD0032063
:100FC00084F85100C4F854A0C4F83090A686E68690
:100FD000C4F838A0A4F83CA0A4F83EA0C4F844A0EB
:100FE000C4F840A0A068B0F5004F04D120680168A3
:100FF00041F48041016020680168490603D401681A
:1010000041F040010160E068B0F5006F606803D016
:1010100030B3012E24D040E008B1012E1CD1206B4A
:1010200021680088C86006E020688168890709D5C2
:10103000216B0988C160206B801C2063E08E401EFC
:10104000E08609E0FFF7BAF9A0EB0800A84202D356
:10105000681C01D031E07DB3E08E0028E4D11FE0B0
:10106000206B21680078087306E020688168890792
:1010700009D5216B09780173206B401C2063E08E39
:10108000401EE08609E0FFF799F9A0EB0800A842AE
:1010900002D3681C01D010E075B1E08E0028E4D1C5
:1010A00042462946204600F094FB08B120206065A6
:1010B000A06820B107E008E0FFE7032706E020680A
:1010C000C16880680090606D00B1012784F851B05C
:1010D00084F850A038466BE710B5401EB0F1807F11
:1010E00001D3012010BD4FF0E02460610F21601793
:1010F00000F065FD0020A06107202061002010BDE8
:101100007047704710B590F83C20012A22D0012288
:1011100080F83C20CA688C6822F4407222434C68F4
:1011200022F4806222430C6822F4006222430C699C
:1011300022F4805222434C6922F400522243C969AE
:10114000002322F480420A4301684A6480F83C305C
:10115000002010BD022010BD70B590F83C20012A7F
:1011600019D0012400F83C4F0222427050F83C3C58
:101170005A689D6822F070060A684968324325F073
:10118000800529435A6050F83C2C9160447000213E
:101190000170084670BD022070BD0168CA6842F047
:1011A0000102CA600068816801F00701062903D0C6
:1011B000016841F00101016000207047704770B57F
:1011C0000446006801694FF00005C943890715D43A
:1011D000C168C943890711D4E91E01610120207744
:1011E000206880698007204602D0FFF7E7FF04E00F
:1011F00000F0F7F8204600F055F9257720680169DE
:10120000C943490717D4C168C943490713D46FF0CC
:1012100004010161022020772068806910F4407F7A
:10122000204602D0FFF7CAFF04E000F0DAF82046BB
:1012300000F038F9257720680169C943090716D4F9
:10124000C168C943090712D46FF008010161042085
:1012500020772068C0698007204602D0FFF7AEFFE4
:1012600004E000F0BEF8204600F01CF92577206865
:101270000169C943C90617D4C168C943C90613D453
:101280006FF010010161082020772068C06910F418
:10129000407F204602D0FFF791FF04E000F0A1F864
:1012A000204600F0FFF8257720680169C943C90787
:1012B00008D1C168C943C90704D1891E016120460C
:1012C00000F0F1F820680169C943090609D4C16832
:1012D000C943090605D46FF0800101612046FFF77C
:1012E0000FFF20680169C943490609D4C168C94391
:1012F000490605D46FF040010161204600F0D4F8A2
:1013000020680169C94389060BD4C168C9438906AD
:1013100007D46FF0200101612046BDE87040FFF75F
:10132000F0BE70BD10B586B0002100910191029110
:101330000391134C0368134902221348A3420CD1B2
:101340008B6943F004038B618969039201F0040106
:1013500004918115CDE900120DE0B3F1804F0DD15C
:101360008B6943F004038B618969009201F00401E9
:101370000192CDE903216946FEF72AFF06B010BDB0
:10138000002C0140001002400008014070B50446E6
:1013900090F83C0001280DD0012584F83C50022033
:1013A00084F83D0042B1042A0AD0082A0CD00C2A45
:1013B00011D10DE0022070BD206800F001FB0AE0B1
:1013C000206800F025FB06E0206800F04DFB02E0FD
:1013D000206800F075FB84F83D50002084F83C0044
:1013E00070BD704710B5040003D094F83D0010B1F3
:1013F00007E0012010BD002084F83C00204600F0EA
:101400000DF8022084F83D00211D206800F094FAB8
:10141000012084F83D00002010BD000008B5114AED
:1014200001681148914211D1816941F400618161E3
:101430008069002200F40060009001211920FFF76C
:1014400011F9BDE808401920FFF7FEB8B1F1804F4F
:1014500007D1C16941F00101C161C06900F001001B
:10146000009008BD002C01400010024010B5044659
:101470000068012200F096FA09492068884203D1E9
:10148000416C41F4004141642068816801F007012A
:10149000062903D0016841F001010160002010BD60
:1014A000002C014070477047704770B5040004D0AD
:1014B00094F83900002510B106E0012070BD84F8D1
:1014C0003850204600F022F8242084F839002068A3
:1014D000C16821F40051C160204600F013FB206870
:1014E000016921F4904101612068416921F02A01DC
:1014F00041612068C16841F40051C160E56320206A
:1015000084F8390084F83A00002070BD30B585B009
:1015100000240094019402940394006814498842C2
:1015200024D11448816941F480418161816901F4C9
:1015300080410491816941F00401816180690E4D0F
:1015400000F0040004904FF400700090022001901D
:101550000320039069462846FEF73AFE2815CDE998
:101560000004694628460294FEF732FE05B030BDFD
:10157000003801400010024000080140FEE7000072
:101580002DE9F04385B000242D4800940194029485
:101590000394816941F010018161816901F01001BA
:1015A0000491816941F020018161816901F020018C
:1015B0000491816941F004018161816901F00401B4
:1015C0000491816941F0080181618069DFF87480CC
:1015D00000F0080048F21005049000222946404619
:1015E000FEF7E6FEDFF860904FF6037700223946FB
:1015F0004846FEF7DDFE0095022601250396CDE95B
:10160000015469464046FEF7E3FD00970396CDE995
:10161000015469464846FEF7DBFD08208DE831009D
:1016200069464846FEF7D4FD3020CDE900046946FE
:1016300048460294FEF7CCFD05B0BDE8F0830000FB
:101640000010024000080140000C01400B480A490C
:101650004FF4007201604FF482714160002181609B
:10166000C1600161C0E90512C1610162416281622C
:101670000A21C162FFF70BBC003001408803002043
:1016800030B591B000240F941C2108A81094FEF7E7
:1016900050FD20216846FEF74CFD1A48184943F6D4
:1016A000FF75C0E90014C0E902450461446184612A
:1016B000FFF798FE2020CDE90F040FA91148FFF78E
:1016C0004BFD70200890CDE909540B940C940D94B7
:1016D000002208A90B480E94FFF758FE00944FF41F
:1016E0000050CDE9044002940194039469460548F2
:1016F0000794FFF707FD0348FFF714FE11B030BD54
:10170000002C0140E003002030B589B0002407948C
:101710001C2168460894FEF70CFD10484FF08041EC
:101720000125C0E90014C0E9024504618461FFF7A6
:1017300059FE079407A909480894FFF70DFD3020CA
:101740000090CDE901540422694604480494FFF74F
:101750001DFE0248FFF7E6FD09B030BD2004002061
:10176000FEE77047704770B50446FEF727FE054652
:101770004FF47A7606E0FEF721FE401BB04201D915
:10178000032070BD206840688006F4D52068416859
:1017900041F010014160002070BD000070B50446AA
:1017A0000068416821F010014160FEF707FE054620
:1017B0004FF47A7607E000BFFEF700FE401BB04210
:1017C00001D9032070BD206840688006F4D5002050
:1017D00070BD38B50B46009204460022802100F00F
:1017E00008F8002804D0606D40F0200060650320F8
:1017F00038BD2DE9F0411D4617460E460446DDF87A
:10180000188008E0681C06D0FEF7D8FDA0EB0800A1
:10181000A8420BD255B12068806836EA000030D06B
:101820000020B842EED10020BDE8F0812068416878
:1018300021F0E00141606068B0F5827F0BD1A068C3
:10184000B0F5004F02D0B0F5806F04D12068016878
:1018500021F040010160A06AB0F5005F09D1206865
:10186000016821F4005101602068016841F40051D1
:101870000160012084F85100002084F8500003200A
:10188000D2E70120CDE77047FEF786BE30B593B0B2
:1018900028216846FEF74DFC14210AA8FEF749FCF2
:1018A00000240F940520009010944FF48030119480
:1018B000129401250190039507946846FFF7D0F82C
:1018C0000F200A90CDE90B540D9400210AA80E9424
:1018D000FEF7DAFF2802CDE90F500FA8FEF75EFFF2
:1018E00013B030BD0D48016841F00101016041684D
:1018F0000B4A1140416001680A4A114001600168C9
:1019000021F480210160416821F4FE0141604FF41F
:101910001F0181600449C003086070470010024045
:101920000000FFF8FFFFF6FE08ED00E00148FFF7BA
:1019300046BC0000E0030020F0B50268164B174CCF
:10194000174D4FF08047984205D0B84203D0A042CF
:1019500001D0A84203D122F070064A68324398426F
:1019600005D0B84203D0A04201D0A84203D122F44E
:101970004074CA6822434C6922F08002224302600C
:101980008A68C2620A688262984201D10969016369
:1019900001214161F0BD0000002C01400004004025
:1019A0000008004010B501F01F030121046A9940AE
:1019B0008C430462016A9A401143016210BD000029
:1019C00030B5026A22F001020262026A4368846949
:1019D00024F073050C682C4322F002058A682A4320
:1019E0000A4DA8420BD122F00805CA6823F44073BF
:1019F0002A434D6922F004021D438B692B43436047
:101A0000846149684163026230BD0000002C0140DE
:101A100030B5026A22F010020262026A43688469E9
:101A20000D6824F4E64444EA05248D6822F020027F
:101A300042EA05120B4DA8420ED1CD6822F0800279
:101A400042EA05124D6923F4406343EA85038D6938
:101A500022F0400243EA8503436084614968816360
:101A6000026230BD002C014030B5026A22F480725F
:101A70000262036A4268C46923F4007324F07305A8
:101A80000C682C438D6843EA05230C4DA8420ED107
:101A9000CD6823F4006343EA05234D6922F44052E4
:101AA00042EA05128D6923F4806342EA051242601E
:101AB000C4614968C163036230BD0000002C01406D
:101AC00030B5026A22F480520262046A4268C36935
:101AD0000D6823F4E64343EA05238D6824F400549B
:101AE00044EA0534064DA84204D14D6922F48042EF
:101AF00042EA85124260C36149680164046230BDF4
:101B0000002C01402DE9F041044600680169E268BB
:101B100021F44051114301612169A06808436169C2
:101B200008432168CA6841F20C639A430243CA60C1
:101B300020684169A26921F44071114341611E4945
:101B4000206864253226884202D1FEF743FF01E077
:101B5000FEF730FF00EBC00101EB001160686FF091
:101B600018078000B1FBF0F2B2FBF5F2B1FBF0F325
:101B70007A4303EB8202B1FBF0F306EB0212B2FBF5
:101B8000F5F2B3FBF5F302F0F00202EB0312B1FB46
:101B9000F0F3B1FBF0F0B0FBF5F0784303EB80001D
:101BA00006EB0010B0FBF5F0216800F00F001044C8
:101BB0008860BDE8F081000000380140FEE70907B9
:101BC000090E002804DB00F1E02080F800147047C3
:101BD00000F00F0000F1E02080F8141D704702E0D3
:101BE00008C8121F08C1002AFAD1704770470020A8
:101BF00001E001C1121F002AFBD17047FEF7D4FC9F
:101C0000FFF744FEFFF7BCFC414840490024016057
:101C10004049C0E901144FF48045C0E903454461DF
:101C20008461C4610462FEF7CFFB39483A495430FD
:101C3000AE110160611EC0E90116FFF7A1F8FFF7C0
:101C400005FDFFF71DFDFFF75FFD354833490160D6
:101C50004FF4E131C0E901140C21C460C0E9044132
:101C60008461C461FFF721FC2E4F2D4A2E4CD7E929
:101C700002014032C2E980010122D1032046FEF771
:101C800097FB002229462046FEF792FB00226114B2
:101C90002046FEF78DFB0022A1142046FEF788FBAC
:101CA0000022E1142046FEF783FB00222115204686
:101CB000FEF77EFB002261152046FEF779FB00222D
:101CC00031462046FEF774FB154804214038FFF7E3
:101CD000CDFB13488038FFF760FA114800218038A7
:101CE000FFF7C4FB40F6FF7500246420FEF75EFAA0
:101CF000786800F04DF8786820F81450D7E90010A3
:101D000000F054F8641CC02CEFDBEDE700540040F9
:101D100020030020A0860100002800400038014078
:101D20006004002000000020000C0140F0B50022FB
:101D3000144613464FF4907618E0BBB1012B05D042
:101D4000022B10D11AE000BF00EB440530F814C09C
:101D5000AF784FEA1C2C3F01C7F3031747EA0C1773
:101D60008F54521C5B1CB242E7DBF0BD10F81450DC
:101D70008D54521C5B1CB242E6DBF0BD6B88A41C88
:101D80001B098B540023521CB242EFDBF0BD000054
:101D900005490020024649684FF4907321F810204D
:101DA000401C9842FADB70470000002010B50F4835
:101DB0000C46D0E90010FFF7B9FF0A234FF49072E8
:101DC00021460B48FFF7DAF80A4C01221021204681
:101DD000FEF7EEFA0121491C89B20F29FBD32046F8
:101DE0000022BDE810401021FEF7E2BA00000020FA
:101DF00088030020000801400000000000000000EF
:101E000001020304060708090000000001020304A0
:101E1000301E000800000020200300006C010008B4
:101E2000C41F000820030020600A0000EE1B000809
:101E30005D60080020E0060020FF0FFF0F429A427D
:101E40009142B042B942B342BC42B642BF429E4206
:101E500095428042894283428C4286428F4271423F
:101E60007A4274427D4277426C4266426F42A1429E
:101E7000AA42A442AD42A742684262426B4221425A
:101E80002A4224422D4227420C4206420F4251422E
:101E90005A4254425D425742084202420B4231428A
:101EA0003A4234423D4237421342194210424142C3
:101EB0004A4244424D42474217421D421442934215
:101EC00099429042B142BA42B442BD42B7429742AF
:101ED0009D42944281428A4284428D4287427842A6
:101EE00072427B4275427E4264426D426742A84222
:101EF000A242AB42A542AE426042694263422842DE
:101F000022422B4225422E4204420D4207425842B1
:101F100052425B4255825E4209420342384232429B
:101F20003B4235423E421B42124218424842424224
:101F30004B4245424E421F4216421C429B42924235
:101F40009842B842B242BB42B542BE429F4296421C
:101F50009C42884282428B4285428E427042794244
:101F600073427C4276427F4265426E42A042A94261
:101F7000A342AC42A642AF4261426A422042294299
:101F800023422C4226422F4205420E4250425942E1
:101F900053425C4256425F4201420A423042394259
:101FA00033423C4236423F421A4211424042494289
:101FB00043424C4246424F421E4215420192101487
:041FC00024F4000005
:04000005080000ED02
:00000001FF
