:020000040800F2
:10000000080400209D010008FD0E0008070C0008F0
:10001000FB0E0008E5010008591000080000000070
:100020000000000000000000000000009D0F00081C
:10003000E7010008000000001F0F00089F0F0008E4
:10004000B7010008B7010008B7010008B7010008B0
:10005000B7010008B7010008B7010008B7010008A0
:10006000B7010008B7010008B7010008B701000890
:10007000B7010008B7010008B7010008B701000880
:10008000B7010008B7010008B7010008B701000870
:10009000B7010008B7010008B7010008B701000860
:1000A000B7010008B7010008B7010008B701000850
:1000B000B7010008B7010008B7010008B701000840
:1000C000B7010008B7010008B7010008B701000830
:1000D000B7010008B7010008B7010008B701000820
:1000E000B7010008B7010008B7010008B701000810
:1000F000B7010008B7010008B7010008B701000800
:10010000B7010008B7010008B7010008B7010008EF
:10011000B7010008B7010008B7010008B7010008DF
:10012000B7010008B7010008B7010008B7010008CF
:10013000B7010008B7010008B7010008B7010008BF
:10014000B7010008B7010008B7010008B7010008AF
:10015000B7010008B7010008B7010008B70100089F
:10016000B7010008B7010008B7010008B70100088F
:10017000B7010008B7010008B7010008000000003F
:10018000B7010008B7010008DFF80CD000F018F83C
:1001900000480047791000080804002006488047FE
:1001A00006480047FEE7FEE7FEE7FEE7FEE7FEE75C
:1001B000FEE7FEE7FEE7FEE71510000889010008EC
:1001C000064C074D06E0E06840F0010394E80700A4
:1001D00098471034AC42F6D3FFF7DAFFC810000896
:1001E000E8100008FEE770472DE9F84FDFF898B1F6
:1001F00000234FF0010C4FF0030A4FF00F090BF1F1
:10020000040EB9E00CFA03F4224070D04D68022DC0
:1002100001D0122D0ED1DD0800EB8508D8F8205052
:100220005E07F70E09FA07F6B5430E69BE402E4386
:10023000C8F8206007685E0091F804800AFA06F5A5
:1002400008F00308AF4308FA06F848EA0708C0F8C0
:1002500000804F68012F05D0022F03D0112F01D04D
:10026000122F13D1D0F80880CF6828EA0508B740CC
:1002700047EA08078760D0F804800F7928EA040865
:10028000C7F300179F4047EA08074760D1F804808A
:100290006FEA0807BF0706D1C76AA743C8F3C004BF
:1002A0009C403C43C462C468AC438D68B540254360
:1002B000C5604C68E4005ED5344C256E45F0010500
:1002C0002566246E23F0030504F001040094304CED
:1002D0002E19B4689D072F0F09FA07F5AC43B0F14A
:1002E000904F05D02B4DA84204D101251CE042E0DF
:1002F000002519E0284DA84201D1022514E0274D20
:10030000A84201D103250FE0254DA84201D10425C3
:100310000AE0244DA84201D1052505E0224DA8425E
:1003200001D1062500E00725BD402543B560DBF877
:1003300000405D464E689443F60300D514432C609C
:10034000DEF8004075464E689443B60300D514436A
:100350002C600D4D08352C684E689443F60200D58C
:1003600014432C60084D0C352C684E689443B6023B
:1003700000D514432C605B1C0A6832FA03F57FF445
:1003800041AF00F013B8000000040140001002402B
:10039000000001400004004800080048000C00482C
:1003A00000100048001400480018004818BCBDE8C0
:1003B000E08F0AB18161704781627047014800682F
:1003C000704700000000002002480168491C0160DD
:1003D0007047000000000020094810B501680024A3
:1003E00041F480710160032000F084F8002000F0E7
:1003F00009F808B1012401E000F01CF8204610BD06
:100400000020024070B5054609484FF47A71002477
:100410000068B0FBF1F000F0DEFB08B1012404E05D
:1004200000222946501E00F045F8204670BD00000D
:10043000040000201E4808B5016E41F0010101666C
:10044000016E01F001010091816D41F080518165E3
:10045000806D00F080500090032000F04BF80022E7
:1004600011466FF00B0000F025F8002211466FF0E6
:100470000A0000F01FF8002211466FF0090000F09A
:1004800019F800221146501F00F014F800221146FE
:10049000101F00F00FF800221146901E00F00AF81D
:1004A0000022BDE808401146501E00F003B80000CD
:1004B00000100240F0B40E4B1B680C46C3F302233D
:1004C000C3F10705042D00D90425191D072901D200
:1004D000002300E0DB1E012606FA05F1491E21403B
:1004E00099409E40761E16403143F0BC00F007BD97
:1004F0000CED00E0064900F0070208684FF6FF0324
:10050000184040EA0220034A104308607047000088
:100510000CED00E00000FA051649B0F5007F086810
:10052000C0F3412009D0022805D0086820F4C0603B
:1005300040F480600860002070470128FBD0086804
:1005400020F4C06040F4007008600B48322200685C
:1005500050430A4AB0FBF2F0401C00E0401E4A69DA
:10056000520501D50028F9D148694005E3D503209B
:1005700070470000007000400400002040420F005F
:100580000248006800F4C06070470000007000403E
:100590002DE9F0470F46050058D03F4E306800F077
:1005A0000700B84209D2306820F0070038433060B5
:1005B000306800F00700B84248D12878374CC007AF
:1005C0002CD06868032811D0022812D0216898B175
:1005D000490500293ADAA16821F003010143A1602D
:1005E000FFF7ECFE804641F2883910E0216889016E
:1005F000EFE721688903ECE78907EAE7FFF7DEFE0A
:10060000A0EB0801494502D90320BDE8F087A068A6
:10061000696800F00C00B0EB810FEFD128788007FB
:1006200005D5A068A96820F0F0000843A0603068F4
:1006300000F00700B8420BD9306820F007003843BB
:100640003060306800F00700B84201D00120DCE7DC
:100650002878400705D5A068E96820F4E0600843E1
:10066000A0602878000706D5A068296920F46050AA
:1006700040EAC100A06000F01DF8A168084AC1F37B
:100680000311515C01F01F01C84006490860BDE834
:10069000F0470020FFF7B6BE0020024000100240E5
:1006A000881000080400002001480068704700001E
:1006B0000400002070B52549002318468A68CC68DC
:1006C00012F00C0204F00306214C4FEA640509D035
:1006D0000C2A05D0042A26D0082A00D1284670BD4D
:1006E000012E10D10B681B0704D4D1F89430C3F34A
:1006F000032302E00B68C3F30313164E56F82330AE
:100700007AB10C2AEBD1C86800F00302C868C0F3C4
:100710000210401C022A08D0032A09D0B3FBF0F0D3
:1007200008E0184670BD204670BDB4FBF0F001E053
:10073000B5FBF0F0CA68C968C2F306225043C1F3A2
:100740004161491C4900B0FBF1F070BD001002404E
:100750000024F400981000082DE9F84305007CD02F
:10076000FD4CA06800F00C06E06800F00307287854
:10077000C00661D576B10C2E01D1012F0AD0A8692F
:100780000028206878D040F001002060FFF716FEB6
:10079000804659E02068800702D5A8690028DED08D
:1007A000286A2168090703D5216801F0F00104E0F7
:1007B000D4F89410F02202EA1111884215D900F001
:1007C000AFFB002849D1206840F008002060206875
:1007D000296A20F0F000084320606068E96920F48D
:1007E0007F4040EA0120606015E0206840F008008A
:1007F00020602068296A20F0F000084320606068CB
:10080000E96920F47F4040EA01206060286A00F036
:1008100087FB0028D6D1FFF74DFFA168CF4AC1F36F
:100820000311515C01F01F01C840CD490860002050
:10083000FFF7E8FD00287DD12FE000BFFFF7BEFDE8
:10084000A0EB0800022876D820688007F6D520683B
:1008500040F008002060206801E0BBE00CE0296A5D
:1008600020F0F000084320606068E96920F47F40D0
:1008700040EA0120606010E020F001002060FFF7F6
:100880009DFD804606E000BFFFF798FDA0EB080045
:100890000228D8D820688007F6D42878C00740D02E
:1008A000082E18D00C2E01D1032F14D06868B0F593
:1008B000803F17D0B0F5A02F206817D020F48030EB
:1008C0002060206820F4802020606868E0B1FFF795
:1008D00075FD804614E02068800322D568680028F2
:1008E00078D01EE0206840F48030EDE740F48020AE
:1008F0002060F7E7FFF762FDA0EB08006428A2D8AC
:1009000020688003F6D50CE0FFF758FD804605E02F
:10091000FFF754FDA0EB0800642894D820688003FA
:10092000F6D4287880073BD5042E11D00C2E04D1A4
:10093000022F01E036E1A1E00AD0E8680028206833
:100940001ED040F480702060FFF738FD07460CE0B1
:10095000206840050CD5E8680028C1D008E000BF39
:10096000FFF72CFDC01B022893D820684005F7D55F
:100970006068297C20F0F85040EA016060600FE078
:1009800020F480702060FFF719FD074605E000BFE6
:10099000FFF714FDC01B022870D820684005F7D46B
:1009A0002878000729D568690028D4F8940012D067
:1009B00040F00100C4F89400FFF700FD074604E092
:1009C000FFF7FCFCC01B022858D8D4F8940080071D
:1009D000F6D512E0EDE020F00100C4F89400FFF736
:1009E000EDFC074605E000BFFFF7E8FCC01B02284E
:1009F00044D8D4F894008007F6D42878400768D506
:100A0000A06D0027C00008D4A06D40F08050A06504
:100A1000A06D012700F08050009052480168C90580
:100A200012D40168814641F480710160FFF7C6FC71
:100A3000804605E0FFF7C2FCA0EB080002281DD8A5
:100A4000D9F80000C005F5D5A868012817D00528F9
:100A5000D4F8900018D020F00100C4F89000D4F829
:100A6000900020F0040000BFC4F89000A86841F294
:100A70008839D0B1FFF7A2FC804611E06BE0D4F8D2
:100A8000900040F00100EFE740F00400C4F890004F
:100A9000F5E700BFFFF792FCA0EB080149455AD8E3
:100AA000D4F890008007F5D50EE0FFF787FC80466C
:100AB00006E000BFFFF782FCA0EB0801494570D8B3
:100AC000D4F890008007F5D41FB1A06D20F08050BD
:100AD000A065A86AF0B30C2E6BD00228206820F025
:100AE0008070206004D0206810F0205F47D04AE07A
:100AF000FFF764FC064604E0FFF760FC801B022859
:100B00004FD820688001F7D4286BE96A00011038BB
:100B10000843696BAA6B0902120941EA4241084382
:100B2000A98F114A490802EB4151084395F840103A
:100B30004908120102EB41610843E060206840F07F
:100B400080702060E06840F08070E060FFF736FC65
:100B5000054610E02BE024E0001002408810000859
:100B600004000020007000400000E0FFFFF726FCBA
:100B7000401B022815D820688001F7D517E0E068EF
:100B800020F00300E060E0680B490840E060FFF7F8
:100B900015FC054608E000BFFFF710FC401B0228CB
:100BA00002D90320BDE8F88320688001F4D4002036
:100BB000F8E70120F6E70000FFFFEEFE4FF0E0212E
:100BC0000428086903D020F004000861704740F051
:100BD0000400FAE7704710B5401EB0F1807F01D3E2
:100BE000012010BD4FF0E02460610F21601700F07C
:100BF00086F90020A06107202061002010BD10B5FB
:100C0000FFF7E8FF10BDFEE72DE9F04FB34887B0CE
:100C1000C16C41F01001C164C16C01F0100105917B
:100C2000C16C41F00401C164C16C01F00401059183
:100C3000C16C41F08001C164C16C01F0800105917B
:100C4000C16C41F00101C164C16C01F00101059169
:100C5000C16C41F00201C164C16C01F00201059157
:100C6000C16C41F00801C164C06C002200F00800B2
:100C7000059040F209119A48FFF79BFB00220C21D6
:100C80009848FFF796FB012251029748FFF791FB26
:100C900000224FF400619448FFF78BFB0022802173
:100CA0009248FFF786FBF420009001A9022000245F
:100CB000032581E831000D20049069468848FFF73C
:100CC00093FA082000900120CDE90104022003904E
:100CD00069468348FFF788FA854E4FF41050CDE9F6
:100CE0000006694602948048FFF77EFA4FF0070A33
:100CF000CDE900A469467C480294FFF775FA4FF4E9
:100D0000FC7000900220CDE901040B27CDE90347D8
:100D100069467548FFF768FA2F20CDE900040220E4
:100D200002906946B002FFF75FFA1020CDE9000695
:100D300069460294B002FFF757FA48F2C07000907B
:100D40000220CDE90104CDE903476946B002FFF76F
:100D50004BFA4FF2332000900220CDE90104CDE997
:100D6000034769465F48FFF73FFA01204FF0040848
:100D7000CDE90080CDE9020569465A48FFF734FA0B
:100D80004FF4807000900120CDE902050190694682
:100D90005348FFF729FA4FF4007000900220CDE984
:100DA00001040D20CDE9034069464D48FFF71CFAC8
:100DB0004FF47C40009001AA02204FF00A0982E81B
:100DC000310269464648FFF70FFAA8024FF0120BAE
:100DD000CDE9000B02AA012082E8210169464148C1
:100DE000FFF702FA4FF47F4000900220CDE90104A2
:100DF000CDE9034769463D48FFF7F6F94FF4206017
:100E000000900120CDE90104694637480394FFF7BB
:100E1000EBF9E802009001AA022082E8310269465B
:100E2000B002FFF7E1F905270097CDE901646946B3
:100E30002E48FFF7D9F91A20009001AA022082E873
:100E4000B10069462948FFF7CFF9602000900220E1
:100E5000019002AA012082E8210469462348FFF795
:100E6000C3F98020009001AA012082E83100694680
:100E70001E48FFF7B9F9082000900120CDE90104D0
:100E8000694618480394FFF7AFF9C020CDE9000B7D
:100E900002AA012082E8210169461248FFF7A4F95D
:100EA0004FF48070CDE90006694602940D48FFF7C3
:100EB0009BF901200090CDE901046946084803949C
:100EC000FFF792F90220CDE9000669460294044832
:100ED000FFF78AF907B000F00DB8000000100240DB
:100EE000001000480004004800080048000C0048BA
:100EF0000000121030BCBDE8C08FFEE77047090744
:100F0000090E002806DA00F00F0000F1E02080F85A
:100F1000141D704700F1E02080F8001470477047FE
:100F2000F8B51C4D06460024A86DC00002D5FFF799
:100F300027FB0DE0A86D40F08050A865A86D00F07B
:100F400080500090FFF71CFBA96D21F08051A9652E
:100F5000B0F5007F04D0802E07D94FF003040AE0DB
:100F6000802E08D9A02E01D804E001D1022402E08D
:100F7000702E00D101240848016821F007012143A7
:100F80000160006800F00700A04201D00120F8BD18
:100F90000020F8BD0010024000200240704710B54C
:100FA000FFF712FABDE81040FFF729BE10B596B062
:100FB0001020009000240120CDE906046020089054
:100FC0000A946846FFF7C8FB00B1FEE70F20CDE9A1
:100FD000110413941494002111A81594FFF7D8FA62
:100FE00000B1FEE74FF40070FFF796FA00B1FEE79C
:100FF000FFF75AFB4FF47A71B0FBF1F0FFF7EBFD0E
:101000000420FFF7DBFD00221146501EFFF752FAC5
:1010100016B010BD0D48016841F4700101600C4824
:10102000016841F001010160002181600268094B03
:101030001A4002608214C260026822F480220260B8
:1010400081610249C00380390860704788ED00E083
:1010500000100240FFFFF6EAFEE702E008C8121F98
:1010600008C1002AFAD170477047002001E001C191
:10107000121F002AFBD17047FFF7AEF9FFF796FF6A
:10108000FFF7C2FDFEE700000000000000000000C6
:101090000102030406070809A0860100400D0300B1
:1010A000801A060000350C0040420F0080841E00AC
:1010B00000093D0000127A000024F40000366E01A1
:1010C0000048E801006CDC02E81000080000002085
:1010D000080000005A100008F01000080800002066
:1010E000000400006A1000080000000000093D0034
:040000050800018965
:00000001FF
