:020000040800F2
:10000000780600209D0100080F230008A11E0008AB
:100010000D2300088D020008B52F00080000000025
:100020000000000000000000000000001F26000883
:100030008F0200080000000031230008212600087C
:10004000B7010008B7010008B7010008B7010008B0
:10005000B7010008B7010008B7010008B7010008A0
:10006000B7010008B701000891020008B7010008B5
:10007000B7010008B7010008B7010008B701000880
:10008000B7010008B7010008B7010008B701000870
:10009000B7010008B7010008B7010008B701000860
:1000A000B7010008B7010008B7010008B701000850
:1000B000B7010008B7010008B7010008B701000840
:1000C000B7010008B7010008B7010008B701000830
:1000D000B7010008B7010008B7010008B701000820
:1000E000B7010008B7010008B7010008B701000810
:1000F000B7010008B7010008B7010008B701000800
:10010000B7010008B7010008B7010008B7010008EF
:10011000B7010008B7010008B7010008B7010008DF
:10012000B7010008B7010008B7010008B7010008CF
:10013000B7010008B7010008B7010008B7010008BF
:10014000B7010008B7010008B7010008B7010008AF
:10015000B7010008B7010008B7010008B70100089F
:10016000B7010008B7010008B7010008B70100088F
:10017000B7010008B7010008B7010008B70100087F
:10018000B7010008B7010008DFF80CD000F06CF8E8
:1001900000480047D52F0008780600200648804711
:1001A00006480047FEE7FEE7FEE7FEE7FEE7FEE75C
:1001B000FEE7FEE7FEE7FEE7F126000889010008FA
:1001C0002DE9F05F0546002092469B46884606468C
:1001D000814640241BE0284641464746224600F01F
:1001E00032F853465A46C01A914110D31146184668
:1001F000224600F019F82D1A67EB01084F462246F7
:100200000120002100F010F817EB00094E41201EDC
:10021000A4F10104DFDC484631462A46434600F09B
:1002200000B830BCBDE8C09F202A04DB203A00FAA9
:1002300002F1002070479140C2F1200320FA03F33D
:10024000194390407047202A04DB203A21FA02F03B
:100250000021704721FA02F3D040C2F12002914000
:100260000843194670470000064C074D06E0E06859
:1002700040F0010394E8070098471034AC42F6D3ED
:10028000FFF786FF94300008B4300008FEE770479F
:10029000102000F083BB00002DE9F047044690F8E1
:1002A00050009AB00D464FF00008012813D00120ED
:1002B00084F85000304E20684FF00009B0420ED153
:1002C0002E4F0097384601F0FAFD8246206801F073
:1002D000F6FD60B10EE002201AB0BDE8F087616D56
:1002E00041F02001616584F850900120F4E7BAF1F3
:1002F000000F09D0606D40F0200060654FF00108EC
:1003000084F850904046E7E71D4829681D4A0029B7
:10031000816840F61F7321F460411BD094F830C00F
:1003200041EA4C31D5F804C041EA0C018160B16862
:10033000BE6801F0010106F001069268314302F047
:1003400001021143DCD1AA682968114382689A43EB
:1003500011430EE08160B168BD6801F0010105F054
:1003600001059268294302F001021143C8D1816856
:1003700099438160C4E7000000000450000104506C
:1003800000030450000204502DE9F84F00270446F2
:10039000009790F85000DFF8B8930D46B846012852
:1003A00011D0012684F85060206801F084FD60B10E
:1003B000606D40F0200060655FF0010784F85080B8
:1003C000384600F0DDB90220FBE768680C230528F9
:1003D00012D8022807D0032807D0042807D0052800
:1003E00007D0062007E06B6006E0122003E018202B
:1003F00001E04FF480706860D5E9002103EA9113B1
:10040000206801F01F0118444FF01F0C0CFA01FC8A
:10041000036BC2F3846223EA0C038A401343036331
:10042000206801F048FD8246206801F040FD5AEA4C
:1004300000001DD1AA682968206801F044FD2068E9
:100440006969C268C2F3C102520091402A69042A54
:100450000FD000EB82002B68DFF8F8C2026E03F0C9
:10046000F84302EA0C020B431A4342F000410166D2
:1004700072E0002101F015FD400320684FF00001FB
:1004800072D001F00EFD90FAA0F0B0FA80F1286869
:1004900042036ED090FAA0F0B0FA80F0814204D10D
:1004A00000221146206801F01DFD0121206801F0A5
:1004B000F8FC400320684FF001015DD001F0F1FC31
:1004C00090FAA0F0B0FA80F12868420359D090FA6F
:1004D000A0F0B0FA80F0814204D10022012120680E
:1004E00001F000FD0221206801F0DBFC40032068E0
:1004F0004FF0020148D001F0D4FC90FAA0F0B0FA1D
:1005000080F12868420344D090FAA0F0B0FA80F05D
:10051000814204D100220221206801F0E3FC032182
:10052000206801F0BEFC400320684FF0030133D087
:1005300001F0B7FC90FAA0F0B0FA80F1286842030D
:100540002FD090FAA0F0B0FA80F0814204D10022BE
:100550000321206801F0C6FC2068816811F0010FBA
:1005600022D0ACE000E004E001F09BFCC0F3846129
:100570008DE7C0F3846091E701F093FCC0F38461E0
:10058000A2E7C0F38460A6E701F08BFCC0F38461AE
:10059000B7E7C0F38460BBE701F083FCC0F384617C
:1005A000CCE7C0F38460D0E72A7B296850F8B03FDD
:1005B000C1F3120C23EA0C0302F0180C664A22FA6B
:1005C0000CF20A4013430360E968494577D1286873
:1005D00041031CD090FAA0F1B1FA81F1491C01F05D
:1005E0001F0109294FEA403132D8002912D000BF3B
:1005F00090FAA0F1B1FA81F101F1010101F01F01BE
:1006000006FA01F609D100BFC0F3846109E0C0F326
:100610008461E3E7C0F38461EEE790FAA0F1B1FAF8
:1006200081F101F1010101F01F0146EA816102D16E
:10063000C0F3846003E090FAA0F0B0FA80F000F11B
:10064000010000F01F0000EB400041EA005132E0E1
:1006500000290ED090FAA0F1B1FA81F101F1010167
:1006600001F01F0106FA01F606D100BFC0F3846154
:1006700006E0C0F38461F1E790FAA0F1B1FA81F1EC
:1006800001F1010101F01F0146EA816102D1C0F3CD
:10069000846003E090FAA0F0B0FA80F000F101006D
:1006A00000F01F002D4A00EB400002EB005041EA31
:1006B000000141F00071AA68206801F004FC28489C
:1006C0002A6802423FF47AAE26488168264E274BBC
:1006D000274D01F0E071B2421CD10E021AD42268FB
:1006E0009A4202D0AA427FF469AE826841F40001C6
:1006F00022F0E0720A4382601E481F490068B0FB86
:10070000F1F000EB4000800000E0401E0090002867
:10071000FBD153E6194EB24209D1CE0107D422686B
:100720009A4201D0AA42F4D141F080710AE06FF000
:100730000045EA42EDD14A02EBD422689A42E8D160
:1007400041F48001826822F0E0720A43826035E65B
:1007500000007F4000F0FF03FFFF0700000020FEC5
:100760000000088000030450000052C7000004503D
:100770000002045004000020400D0300000084CB60
:1007800018BCBDE8E08F0000F8B54FF0000504008C
:100790002E46009502D0606D10B107E00120F8BD33
:1007A000204600F0D5F8A66584F85060206881687E
:1007B000C1F3407119B181685B4A114081602068C2
:1007C0008168C1F3007179B98168584A114041F0DC
:1007D00080518160564857490068B0FBF1F000E055
:1007E000401E00900028FBD120688168C1F3007191
:1007F00041B9616D41F010016165A16D41F00101E8
:10080000A165012501F057FB616DC90600D430B127
:10081000606D40F01000606501252846F8BD606DF0
:1008200020F4807040F0020060652068806810F05D
:10083000010F15D140488068404900F001008968E7
:1008400001F0010108433E49896801F001010843B4
:1008500006D13C4960688A6822F47C1202438A60AF
:10086000E168606B627E0843A16841EA4231084357
:1008700094F8201040EA0140012904D1A18C324AA9
:1008800002EB41410843A16A29B101F47071E26AA7
:10089000014342EA01002268D1682C4B1940014310
:1008A000D160206801F007FB0646206801F0FFFADE
:1008B000304315D1207E94F830102268800340EA3E
:1008C0004101D06844F2020398430843D06094F891
:1008D000380001280CD02068016921F00101016174
:1008E000206901282068016B21F00F0111D013E06D
:1008F000D4E90F010843D4E91112114308432168D8
:100900000A6940F2FC739A43104340F00100086109
:10091000E6E7E269521E11430163606D20F00200B8
:1009200040F00100606578E7C0FFFF5FC0FFFF7F18
:1009300004000020400D030000000450000104509A
:1009400000020450000304500000FEFF07C0F0FF47
:1009500008B500680649884208D10648C16C41F4D0
:100960000051C164C06C00F40050009008BD00004C
:10097000000004500010024070B5044600F008F971
:100980000546601C00D0641C00F002F9401BA04228
:10099000FAD370BD0220FFF7EFBF0000044910B585
:1009A0000A68024202D00860FFF7F4FF10BD0000A1
:1009B000140401402DE9F84FDFF898B100234FF0FF
:1009C000010C4FF0030A4FF00F090BF1040EB9E0D0
:1009D0000CFA03F4224070D04D68022D01D0122D84
:1009E0000ED1DD0800EB8508D8F820505E07F70E21
:1009F00009FA07F6B5430E69BE402E43C8F82060D9
:100A000007685E0091F804800AFA06F508F003080A
:100A1000AF4308FA06F848EA0708C0F800804F68B4
:100A2000012F05D0022F03D0112F01D0122F13D187
:100A3000D0F80880CF6828EA0508B74047EA0807D9
:100A40008760D0F804800F7928EA0408C7F30017FC
:100A50009F4047EA08074760D1F804806FEA08071B
:100A6000BF0706D1C76AA743C8F3C0049C403C43F4
:100A7000C462C468AC438D68B5402543C5604C680A
:100A8000E4005ED5344C256E45F001052566246EE4
:100A900023F0030504F001040094304C2E19B468CF
:100AA0009D072F0F09FA07F5AC43B0F1904F05D021
:100AB0002B4DA84204D101251CE042E0002519E09D
:100AC000284DA84201D1022514E0274DA84201D1AA
:100AD00003250FE0254DA84201D104250AE0244D4D
:100AE000A84201D1052505E0224DA84201D10625E5
:100AF00000E00725BD402543B560DBF800405D46BA
:100B00004E689443F60300D514432C60DEF8004091
:100B100075464E689443B60300D514432C600D4DC2
:100B200008352C684E689443F60200D514432C60B7
:100B3000084D0C352C684E689443B60200D514431A
:100B40002C605B1C0A6832FA03F57FF441AF00F0B9
:100B500013B80000000401400010024000000140F2
:100B60000004004800080048000C0048001000483D
:100B7000001400480018004818BCBDE8E08F426926
:100B80004A40426170470AB1816170478162704793
:100B9000014800687047000000000020024801681A
:100BA000491C0160704700000000002010B50024BF
:100BB000032000F08FF8002000F008F808B10124AD
:100BC00001E000F01BF8204610BD000070B505469E
:100BD00009484FF47A7100240068B0FBF1F000F08E
:100BE0002AFF08B1012404E000222946501E00F02B
:100BF00051F8204670BD0000040000201E4808B5D2
:100C0000016E41F001010166016E01F001010091E8
:100C1000816D41F080518165806D00F080500090C1
:100C2000032000F057F8002211466FF00B0000F08F
:100C300031F8002211466FF00A0000F02BF8002274
:100C400011466FF0090000F025F800221146501FF0
:100C500000F020F800221146101F00F01BF80022BF
:100C60001146901E00F016F80022BDE8084011461B
:100C7000501E00F00FB800000010024000F01F02EC
:100C8000012191404009800000F1E020C0F80011EE
:100C900070470000F0B40E4B1B680C46C3F30223F0
:100CA000C3F10705042D00D90425191D072901D218
:100CB000002300E0DB1E012606FA05F1491E214053
:100CC00099409E40761E16403143F0BC01F020BB97
:100CD0000CED00E0064900F0070208684FF6FF033C
:100CE000184040EA0220034A1043086070470000A1
:100CF0000CED00E00000FA051649B0F5007F086829
:100D0000C0F3412009D0022805D0086820F4C06053
:100D100040F480600860002070470128FBD008681C
:100D200020F4C06040F4007008600B483222006874
:100D300050430A4AB0FBF2F0401C00E0401E4A69F2
:100D4000520501D50028F9D148694005E3D50320B3
:100D500070470000007000400400002040420F0077
:100D60000248006800F4C060704700000070004056
:100D70000248016841F00401016070470010024020
:100D80002DE9F84F044600270088E54D3E46010551
:100D900004F1200B1DD5606E78B1B0F5800F11D035
:100DA000B0F5000F04D0B0F5400F22D001270FE0BE
:100DB000E86840F48030E8601BE00021201D01F06D
:100DC000B9FA03E00021584601F04AFB070010D0B1
:100DD0003E462088C00426D5A06EC0B1B0F1807F09
:100DE0001AD0B0F1007F0DD0B0F1407F19D00127AB
:100DF00018E0D5F88800616E20F440000843C5F87B
:100E00008800E6E7E86840F48030E86009E0002107
:100E1000201D01F08FFA03E00021584601F020FB6D
:100E20000746F7B13E46206880033AD5A86D4FF0DB
:100E30000008C00009D4A86D40F08050A865A86DD6
:100E40004FF0010800F080500090DFF8D8A2DAF8E7
:100E5000001041F48071CAF80010FFF799FE814636
:100E600010E0D5F88800A16E20F040700843C5F866
:100E70008800D8E7FFF78CFEA0EB0900022801D913
:100E8000032705E0DAF80000C005F3D5002F7CD079
:100E90004FEA0706B8F1000F03D0A86D20F080508C
:100EA000A8652078C00707D0D5F88800A16B20F08E
:100EB00003000843C5F888002078800707D5D5F8D7
:100EC0008800E16B20F00C000843C5F8880020780A
:100ED000400707D5D5F88800216C20F03000084382
:100EE000C5F888002078000707D5D5F88800616C20
:100EF00020F0C0000843C5F888002078C00607D558
:100F0000D5F88800A16C20F440700843C5F888002B
:100F10002078800607D5D5F88800E16C20F4406081
:100F20000843C5F888002088800507D5D5F88800D3
:100F3000E16D20F440200843C5F888002088400572
:100F400007D5D5F88800216E20F440100843C5F875
:100F500088002078400607D5D5F88800216D20F458
:100F600040500843C5F888002078000607D5D5F81A
:100F70008800616D20F440400843C5F8880020884F
:100F8000C00509D5D5F8880000E01CE0A16D20F46B
:100F900040300843C5F8880020884FF0006780047F
:100FA0004FF080684FD5D5F88800E16E20F04060A2
:100FB0000843C5F88800E06EB8423CD1E86840F4C8
:100FC0008010E8603FE0D5F8900010F4407015D034
:100FD000D4F88410814211D0D5F89000D5F8901043
:100FE00020F4407041F48031C5F89010D5F890108D
:100FF00021F48031C5F89010C5F89000C00710D0DA
:10100000FFF7C6FD074641F2883906E0FFF7C0FD4D
:10101000C11B494501D903263CE7D5F8900080075C
:10102000F4D5D5F89000D4F8841020F4407008432B
:10103000C5F890002EE7404505D10121201D01F0A3
:1010400079F900B106462068000317D5D5F8880065
:10105000216F20F040600843C5F88800206FB84237
:1010600004D1E86840F48010E86007E0404505D10D
:101070000121201D01F05EF900B106462068400301
:1010800017D5D5F88800616F20F040600843C5F897
:101090008800606FB84204D1E86840F48010E860CE
:1010A00007E0404505D10121201D01F043F900B1C1
:1010B0000646208840041AD5D5F88800A16F20F094
:1010C00040500843C5F88800A06FB0F1805F03D09E
:1010D000B0F1005F05D00AE00221201D01F02AF9DD
:1010E00003E00221584601F0BBF900B10646208812
:1010F000000407D5D5F88800E16F20F08040084350
:10110000C5F888002068C00307D555F8880FD4F8C3
:10111000801020F0004008432860304600F004B8FA
:10112000001002400070004018BCBDE8E08F0000D5
:101130002DE9F0470F46050058D03F4E306800F0CB
:101140000700B84209D2306820F007003843306009
:10115000306800F00700B84248D12878374CC00703
:101160002CD06868032811D0022812D0216898B1C9
:10117000490500293ADAA16821F003010143A16081
:10118000FFF706FD804641F2883910E021688901A9
:10119000EFE721688903ECE78907EAE7FFF7F8FC46
:1011A000A0EB0801494502D90320BDE8F087A068FB
:1011B000696800F00C00B0EB810FEFD12878800750
:1011C00005D5A068A96820F0F0000843A060306849
:1011D00000F00700B8420BD9306820F00700384310
:1011E0003060306800F00700B84201D00120DCE731
:1011F0002878400705D5A068E96820F4E060084336
:10120000A0602878000706D5A068296920F46050FE
:1012100040EAC100A06000F041F8A168084AC1F3AB
:101220000311515C01F01F01C84006490860BDE888
:10123000F0470020FFF7CABC002002400010024027
:101240004C3000080400002001480068704700008E
:10125000040000200548064900688968054AC1F372
:101260000221515C01F01F01C840704704000020BA
:10127000001002408C300008054806490068896863
:10128000054AC1F3C221515C01F01F01C8407047FB
:1012900004000020001002408C30000870B5254981
:1012A000002318468A68CC6812F00C0204F003068A
:1012B000214C4FEA640509D00C2A05D0042A26D017
:1012C000082A00D1284670BD012E10D10B681B07DB
:1012D00004D4D1F89430C3F3032302E00B68C3F3C2
:1012E0000313164E56F823307AB10C2AEBD1C86896
:1012F00000F00302C868C0F30210401C022A08D0A4
:10130000032A09D0B3FBF0F008E0184670BD204670
:1013100070BDB4FBF0F001E0B5FBF0F0CA68C9683D
:10132000C2F306225043C1F34161491C4900B0FB9E
:10133000F1F070BD001002400024F4005C300008A1
:101340002DE9F84305007CD0FD4CA06800F00C06A8
:10135000E06800F003072878C00661D576B10C2E4E
:1013600001D1012F0AD0A8690028206878D040F068
:1013700001002060FFF70CFC804659E020688007E0
:1013800002D5A8690028DED0286A2168090703D59C
:10139000216801F0F00104E0D4F89410F02202EA90
:1013A0001111884215D901F0DFF8002849D12068D1
:1013B00040F0080020602068296A20F0F00008430F
:1013C00020606068E96920F47F4040EA01206060A5
:1013D00015E0206840F0080020602068296A20F0AD
:1013E000F000084320606068E96920F47F4040EA2B
:1013F00001206060286A01F0B7F80028D6D1FFF715
:101400004DFFA168CF4AC1F30311515C01F01F01E8
:10141000C840CD4908600020FFF7D8FB00287DD1E7
:101420002FE000BFFFF7B4FBA0EB0800022876D83E
:1014300020688007F6D5206840F00800206020680A
:1014400001E0BBE00CE0296A20F0F00008432060D6
:101450006068E96920F47F4040EA0120606010E0A4
:1014600020F001002060FFF793FB804606E000BFFC
:10147000FFF78EFBA0EB08000228D8D82068800771
:10148000F6D42878C00740D0082E18D00C2E01D1F1
:10149000032F14D06868B0F5803F17D0B0F5A02FA7
:1014A000206817D020F480302060206820F480204D
:1014B00020606868E0B1FFF76BFB804614E02068AD
:1014C000800322D56868002878D01EE0206840F4A8
:1014D0008030EDE740F480202060F7E7FFF758FB0D
:1014E000A0EB08006428A2D820688003F6D50CE0A1
:1014F000FFF74EFB804605E0FFF74AFBA0EB080034
:10150000642894D820688003F6D4287880073BD5D7
:10151000042E11D00C2E04D1022F01E036E1A1E0FF
:101520000AD0E868002820681ED040F4807020604F
:10153000FFF72EFB07460CE0206840050CD5E86855
:101540000028C1D008E000BFFFF722FBC01B022823
:1015500093D820684005F7D56068297C20F0F850C2
:1015600040EA016060600FE020F480702060FFF7C7
:101570000FFB074605E000BFFFF70AFBC01B022870
:1015800070D820684005F7D42878000729D5686905
:101590000028D4F8940012D040F00100C4F8940060
:1015A000FFF7F6FA074604E0FFF7F2FAC01B02283D
:1015B00058D8D4F894008007F6D512E0EDE020F07A
:1015C0000100C4F89400FFF7E3FA074605E000BF06
:1015D000FFF7DEFAC01B022844D8D4F89400800735
:1015E000F6D42878400768D5A06D0027C00008D43D
:1015F000A06D40F08050A065A06D012700F08050E4
:10160000009052480168C90512D40168814641F42E
:1016100080710160FFF7BCFA804605E0FFF7B8FA79
:10162000A0EB080002281DD8D9F80000C005F5D5A8
:10163000A868012817D00528D4F8900018D020F009
:101640000100C4F89000D4F8900020F0040000BF1E
:10165000C4F89000A86841F28839D0B1FFF798FA31
:10166000804611E06BE0D4F8900040F00100EFE715
:1016700040F00400C4F89000F5E700BFFFF788FAD7
:10168000A0EB080149455AD8D4F890008007F5D559
:101690000EE0FFF77DFA804606E000BFFFF778FA1C
:1016A000A0EB0801494570D8D4F890008007F5D424
:1016B0001FB1A06D20F08050A065A86AF0B30C2E79
:1016C0006BD00228206820F08070206004D0206851
:1016D00010F0205F47D04AE0FFF75AFA064604E0D0
:1016E000FFF756FA801B02284FD820688001F7D4F4
:1016F000286BE96A000110380843696BAA6B09027C
:10170000120941EA42410843A98F114A490802EBF4
:101710004151084395F840104908120102EB41611C
:101720000843E060206840F080702060E06840F08E
:101730008070E060FFF72CFA054610E02BE024E013
:10174000001002404C3000080400002000700040EF
:101750000000E0FFFFF71CFA401B022815D82068A4
:101760008001F7D517E0E06820F00300E060E06852
:101770000B490840E060FFF70BFA054608E000BFA0
:10178000FFF706FA401B022802D90320BDE8F883C0
:1017900020688001F4D40020F8E70120F6E700007B
:1017A000FFFFEEFE2DE9F04104004FF0010553D09C
:1017B00094F82100002528B9002084F82000204654
:1017C00000F050F8022084F821002168CA20486205
:1017D000216853204862204600F004FFFF260427BA
:1017E00018BB206881681E4A1140816021688868A2
:1017F0006268A369104322691A4310438860216814
:10180000E068086120680169228941EA02410161BA
:101810002068C16821F08001C1602068806880066E
:1018200009D4204600F02EF828B12068466284F8DA
:101830002170012510E02068C16C21F00301C16412
:101840006169E06908432168CA6C1043C864206874
:101850004662012084F821002846BDE8F08100009E
:10186000BFFF8FFF00680549884205D1044850F842
:10187000901F41F4004101607047000000280040C3
:101880000010024070B504460068C16821F0A00154
:10189000C160FFF77DF905464FF47A7607E000BF97
:1018A000FFF776F9401BB04201D9032070BD2068D4
:1018B000C0688006F4D5002070BD2DE9F041040019
:1018C00005D00025A56294F85D0018B107E001205D
:1018D000BDE8F08184F85C50204600F045F8022312
:1018E00084F85D302068016821F040010160E06803
:1018F0004FF4E066B04201D9002101E04FF480517D
:10190000B0F5706F02D0B04200D0A562276B012203
:1019100027B9B04201D9236300E02263D4E901036F
:101920001843D4E9043633431843238B03F400737C
:101930001843E3691843236A1843A36A18432368CA
:101940001860636B606AA66918430427E36807EAB6
:10195000164633431843084321684860256684F8D7
:101960005D200020B4E700002DE9F041254B01681F
:101970000025254802240326052286B099420FD16E
:10198000016E41F480510166006E049200F48050B3
:101990000590E0208DE8710069464FF0904012E01C
:1019A0001A4BDFF86C80994212D1816D41F480416D
:1019B0008165806D049200F48040059098008DE868
:1019C000710069461CE0FEF7F5FF06B0BDE8F08146
:1019D000104A9142F9D1816D41F400418165806DD9
:1019E000062700F4004005904FF440608DE8F100B8
:1019F00069460948FEF7DEFF20208DE8F1006946C0
:101A00004046E0E70030014000100240003800404E
:101A100000040048003C0040000800484FF0E0216E
:101A20000428086903D020F004000861704740F0E2
:101A30000400FAE7704710B5401EB0F1807F01D373
:101A4000012010BD4FF0E02460610F21601700F00D
:101A50005FFC0020A06107202061002010BD10B5B0
:101A6000FFF7E8FF10BD000030B590F83C20012AD8
:101A70003AD0012280F83C20CA688B6822F4407278
:101A80001A434B6822F480621A430B6822F4006206
:101A90001A430B6922F480521A434B6922F4005214
:101AA0001A438B6A22F480421A430B8B22F4702271
:101AB00042EA03420D4D03680024AB4202D00C4DB4
:101AC000AB420CD18D8C22F4700242EA0552CD69F2
:101AD00022F080722A43096A22F000720A435A6493
:101AE00080F83C40002030BD022030BD002C014079
:101AF0000034014070B590F83C20012A24D0012424
:101B000080F83C40022280F83D20026853689568C6
:101B10000E4EB24202D00E4EB24203D123F47006F2
:101B20004B68334323F070060B688968334325F014
:101B30008005294353600268916080F83D40002190
:101B400080F83C10084670BD022070BD002C01409A
:101B50000034014010B5040003D094F83D0010B1EA
:101B600007E0012010BD002084F83C00204600F072
:101B70000DF8022084F83D00211D206800F0DAFDF8
:101B8000012084F83D00002010BD000008B5006869
:101B90000649884208D10648016E41F40061016699
:101BA000006E00F40060009008BD0000002C0140B1
:101BB0000010024070B5044690F83C00012817D090
:101BC000012584F83C50022084F83D00206882689A
:101BD000324E324022F47F4282600868502839D069
:101BE0000DDC202855D005DC98B3102843D150E0F7
:101BF000022070BD30284CD040283CD141E0602804
:101C000030D070280CD0B0F5805F03D0B0F5005F05
:101C100031D112E020688168204A7032114016E00C
:101C2000CB68D1E90121206800F0F1FD21688868C6
:101C3000304040F0770088601DE0CB68D1E9012199
:101C4000206800F0E4FD2068816841F480418160F3
:101C500011E01EE0CA684968206800F073FF502157
:101C6000206806E0CA684968206800F07CFF6021AF
:101C7000206800F0D6FD84F83D50002084F83C0038
:101C800070BDCA684968206800F05CFF4021206888
:101C9000EFE7226801461046EBE7000088FFFEFFF1
:101CA00000B50068094985B088420DD180150090C3
:101CB00002200190002002900390012004906946C8
:101CC0004FF09040FEF776FE05B000BD002C0140BD
:101CD00070B5044690F83C0001280ED0012584F828
:101CE0003C50022084F83D000C2A19D007DC5AB180
:101CF000042A0DD0082A1ED10EE0022070BD102A41
:101D000012D0142A17D113E0206800F093FD12E0DE
:101D1000206800F0DDFD0EE0206800F021FE0AE002
:101D2000206800F065FE06E0206800F09BFE02E0FF
:101D3000206800F0CFFE84F83D50002084F83C007D
:101D400070BD10B5040003D094F83D0010B107E059
:101D5000012010BD002084F83C00204600F00CF863
:101D6000022084F83D00211D206800F0E3FC0120E2
:101D700084F83D00002010BD7047000010B50446F7
:101D80000068012200F036FD1248216881420BD024
:101D90001148814208D01148814205D01048814243
:101DA00002D01048814203D1486C40F4004048649E
:101DB000206882680C490A40062A08D082680A40D6
:101DC000B2F5803F03D0016841F0010101600020BD
:101DD00010BD0000002C01400034014000400140D3
:101DE00000440140004801400700010010B5040014
:101DF00003D094F8710010B107E0012010BD00205D
:101E000084F87000204600F027F8242084F8710040
:101E10002068016821F001010160204600F048FFC0
:101E20000128EBD0606A10B1204600F0AEFE2068B9
:101E3000416821F4904141602068816821F02A01C5
:101E400081602068016841F0010101602046BDE821
:101E5000104000F0FEBE000000B500680D4987B0DC
:101E6000884215D10C48C16D41F00101C165C06DBA
:101E7000022100F0010005900320CDE900010021BE
:101E8000CDE902100820049069460448FEF792FD4F
:101E900007B000BD0080004000100240000800486C
:101EA000FEE700EB8100006E00F0F84070478068AC
:101EB000C0F3C00070478068C0F38000704780683E
:101EC000C0F380007047042310B503EAD1531844CF
:101ED000C1F3045107248C4043698A40A343134350
:101EE000436110BD00EB8100016E21F00041114300
:101EF0000166704730B51B4889B019490024C0E914
:101F0000001484600425C460C0E904450476447666
:101F10000121C16180F820408462C46280F83040B1
:101F2000446380F83840FEF72FFC00B1FEE706A9B5
:101F30000C480694FEF7B0F900B1FEE70A4800909D
:101F40000620CDE901047F200594CDE9030569460B
:101F50000448FEF719FA002800D0FEE709B030BDAA
:101F60000000045008000020000052C72DE9F04F87
:101F70006E4887B0C16C41F00401C164C16C01F0CE
:101F800004010591C16C41F08001C164C16C01F094
:101F900080010591C16C41F00101C164C16C01F087
:101FA00001010591C16C41F00201C164C16C01F0F5
:101FB00002010591C16C41F00801C164C06CDFF8F9
:101FC000709100F00800059000224BF26C01484629
:101FD000FEF7D9FD574F002203213846FEF7D3FD07
:101FE0004FF0904A002241F610615046FEF7CBFDBB
:101FF000012211465048FEF7C6FD002241F6C611E7
:102000004D48FEF7C0FDDFF834B1002204215846E8
:10201000FEF7B9FD002443F2600001250226039477
:102020008DE8610069464846FEF7C4FC48F20C00A2
:102030000090CDE90154694648460394FEF7BAFC86
:10204000032003948DE8610069463846FEF7B2FC30
:102050000F20CDE90004694650460294FEF7AAFC21
:102060004FF4047003948DE8610069465046FEF712
:10207000A1FC334F1020CDE9000769460294484681
:10208000FEF798FC41F205000090CDE90154694645
:1020900029480394FEF78EFC40F6C21003948DE8A5
:1020A000610069462448FEF785FCA8028DE85100CE
:1020B00069462148FEF77EFC4FF4C0700090CDE9E0
:1020C0000164CDE9034669464846FEF773FC4FF4C8
:1020D0000078CDE90084694648460294FEF76AFC20
:1020E0004FF4E0500090CDE9015469465046039406
:1020F000FEF760FC042003948DE8610069465846B1
:10210000FEF758FCCDF80080CDE9017469460A4815
:10211000FEF750FC002211460A20FEF7BBFD0A2004
:10212000FEF7ACFD07B000F00DB800000010024053
:1021300000080048001C004800040048000C00484B
:102140000000111030BCBDE8C08F00000C4810B575
:102150000A4901600B4941604FF0805181600021C4
:102160000C22C160C0E90412816101624162FFF783
:102170003DFE002800D0FEE710BD000000800040BA
:102180006C00002024330300104810B50E49016094
:102190004FF48271416000214FF44072C0E9021295
:1021A0004FF400720161C0E90512C16101620722AA
:1021B0004162C0E90A12016308214163FFF77DFB18
:1021C000002800D0FEE710BD0030014008010020CB
:1021D000104810B50E4901604FF482714160002132
:1021E0004FF44072C0E902124FF400720161C0E97D
:1021F0000512C161016207224162C0E90A1201634E
:1022000008214163FFF759FB002800D0FEE710BD0D
:10221000003800406C010020104810B50E490160E4
:102220004FF48271416000214FF44072C0E9021204
:102230004FF400720161C0E90512C1610162072219
:102240004162C0E90A12016308214163FFF735FBCF
:10225000002800D0FEE710BD003C0040D001002067
:1022600030B5294899B027490024C0E9001441F647
:10227000FF75C0E90245046144618461FFF76AFCAF
:1022800000B1FEE74FF48050159015A91E48FFF7E6
:1022900091FC00B1FEE71C48FFF753FD00B1FEE7DB
:1022A0001294139412A918481494FFF723FC00B158
:1022B000FEE77020CDE90C540B900E940F9410940F
:1022C00000220BA910481194FFF702FD00B1FEE7B0
:1022D00000944FF40050CDE904400194029403941B
:1022E00000030694CDE907400994694606480A941C
:1022F000FFF7BAFB00B1FEE70348FFF7D1FC19B0C6
:1023000030BD0000002C014034020020FEE7704781
:102310000907090E002806DA00F00F0000F1E0209E
:1023200080F8141D704700F1E02080F80014704719
:10233000704700002DE9F041444C05468846E068AE
:102340000026810728680DD0E16801F00301814271
:1023500016D1A8B1E0686968C0F30210401C884239
:102360000ED120E0012804D0022805D0032807D18F
:1023700008E02168890701E021684905002907DB99
:1023800001265FE02168890302D421684903F5E74B
:10239000E1686A686FF00F0321F0730103EB02122A
:1023A00011430143E160206820F080602060FEF767
:1023B000EFFB074605E000BFFEF7EAFBC01B022863
:1023C00037D820680001F7D4B8F1000F18D0B8F161
:1023D000010F1ED0287D4FF07E41400801EB406088
:1023E000A96840EA01202169194A11400843206187
:1023F000206840F080602060FEF7CAFB07461AE0C4
:10240000A868E9680002090940EA41402169114AC7
:10241000EBE7288A1049400801EB4050A96840EAE0
:10242000012021690D4AE0E7FEF7B2FBC01B02283C
:1024300001D9032606E020680001F5D52069A969C5
:10244000084320613046BDE8F081000000100240E2
:10245000FF80FFF9FF80FDFF0000E0FFFF809FFF8E
:102460002DE9F0413D4C06468846E068002581078D
:1024700030680DD0E16801F00301814216D1A8B1A6
:10248000E0687168C0F30210401C88420ED120E061
:10249000012804D0022805D0032807D108E02168CC
:1024A000890701E021684905002907DB012551E082
:1024B0002168890302D421684903F5E7E16872685D
:1024C0006FF00F0321F0730103EB0212114301437C
:1024D000E160206820F080502060FEF759FB07463D
:1024E00005E000BFFEF754FBC01B022829D8206876
:1024F0008000F7D4B8F1000F15D0307C4FF07E414A
:10250000400801EB4060B16840EA01206169144A6B
:10251000114008436061206840F080502060FEF761
:1025200037FB07460FE0B068F1680002090940EA8E
:10253000414061690B4AEBE7FEF72AFBC01B02280A
:1025400001D9032506E020688000F5D5606971692E
:10255000084360612846BDE8F08100000010024099
:10256000FF80FFF9FF80FDFFF8B51C4D06460024F3
:10257000A86DC00002D5FEF7F3FB0DE0A86D40F09A
:102580008050A865A86D00F080500090FEF7E8FB31
:10259000A96D21F08051A965B0F5007F04D0802E8F
:1025A00007D94FF003040AE0802E08D9A02E01D8E5
:1025B00004E001D1022402E0702E00D10124084879
:1025C000016821F0070121430160006800F0070065
:1025D000A04201D00120F8BD0020F8BD001002404B
:1025E0000020024070B504460068C168490614D452
:1025F0004FF0FF31C160FEF7CBFA05464FF47A7613
:1026000007E000BFFEF7C4FA401BB04201D9032027
:1026100070BD2068C0684006F4D5002070BD7047CA
:1026200010B5FEF7BBFABDE81040FFF718BA00007E
:102630002DE9F041B8B01420229005200125249006
:10264000002428959020CDE929404FF00208082168
:102650002CAA404603262F9182E861000727CDE986
:10266000307822A8CDF8C880FEF76AFE00B1FEE7F8
:102670000F20CDE93306A020CDE93504002133A891
:102680003794FEF755FD00B1FEE718480090C005ED
:102690001E90001521901020CDE9026001950005E3
:1026A0001394CDE90680CDE904786846FEF768FB0F
:1026B00000B1FEE74FF40070FEF71EFB00B1FEE72D
:1026C000FEF7C2FD4FF47A71B0FBF1F0FFF7B3F9FA
:1026D0000420FFF7A3F9FEF74BFB00221146501E22
:1026E000FEF7D8FA38B0BDE8F081000020400200C3
:1026F0000D48016841F4700101600C48016841F027
:1027000001010160002181600268094B1A400260EA
:102710008214C260026822F4802202608161024950
:10272000C00380390860704788ED00E00010024067
:10273000FFFFF6EA2DE9F0470268264B264D274EAB
:10274000274F284C4FF0804A984209D0504507D077
:10275000A84205D0B04203D0B84201D0A04204D173
:1027600022F0700C4A6842EA0C02DFF87CC0DFF805
:102770007C80DFF87C9098420FD050450DD0A84265
:102780000BD0B04209D0B84207D0A04205D0604576
:1027900003D0404501D0484503D122F44075CA68B2
:1027A0002A434D6922F080022A4302608A68C2628D
:1027B0000A688262984207D0A04205D0604503D0E3
:1027C000404501D0484501D10969016301214161BA
:1027D000BDE8F087002C01400004004000080040E4
:1027E000000C004000340140004001400044014022
:1027F0000048014010B501F01F030121046A99400F
:102800008C430462016A9A401143016210BD10B505
:10281000846842EA032224F47F440A43224382600C
:1028200010BD826822F070020A4342F00701816005
:10283000704700002DE9F043026A22F001020262B3
:10284000056A436882691C4C25F0020522400C6829
:1028500022F0030214438A68194E2A43174D194F78
:10286000DFF864C0DFF86490A84207D0B04205D01A
:10287000B84203D0604501D0484506D122F008088F
:10288000CA6842EA080222F00402A84207D0B04215
:1028900005D0B84203D0604501D0484505D14D6907
:1028A00023F440731D438B692B4343608461496863
:1028B00041630262BDE8F0838FFFFEFF002C014000
:1028C0000034014000400140004401400048014004
:1028D000F0B5026A22F010020262056A426883695A
:1028E000194C1B4E23400C6823F4407343EA042424
:1028F00025F020038D6843EA0513144DA84201D04A
:10290000B04206D1CF6823F0800343EA071323F0D7
:102910004003A8420AD0B04208D00E4DA84205D0CC
:102920000D4DA84202D00D4DA84207D14D6922F4A9
:10293000406242EA85028D6942EA85024260846112
:10294000496881630362F0BDFF8FFFFE002C0140E8
:102950000034014000400140004401400048014073
:10296000F0B5026A22F480720262056A4368C269A5
:10297000194C1B4E22400C6822F00302144325F42C
:1029800000728D6842EA0522144DA84201D0B0427F
:1029900006D1CF6822F4006242EA072222F4806264
:1029A000A8420AD0B04208D00E4DA84205D00E4D24
:1029B000A84202D00D4DA84207D14D6923F44053DF
:1029C00043EA05138D6943EA05134360C46149680E
:1029D000C1630262F0BD00008FFFFEFF002C0140CA
:1029E00000340140004001400044014000480140E3
:1029F00030B5026A22F480520262046A4268C369F6
:102A0000124D24F400542B400D6823F4407343EA24
:102A100005238D6844EA05340D4DA8420BD00D4DB9
:102A2000A84208D00C4DA84205D00C4DA84202D0B7
:102A30000B4DA84204D14D6922F4804242EA85122E
:102A40004260C36149680164046230BDFF8FFFFECC
:102A5000002C01400034014000400140004401408E
:102A60000048014030B5026A22F480320262046AF2
:102A70004268436D114D2B400D681D4324F4003313
:102A80000C8943EA04430E4CA0420BD00D4CA042EB
:102A900008D00D4CA04205D00C4CA04202D00C4CEA
:102AA000A04204D14C6922F4803242EA04224260FE
:102AB000456549688165036230BD00008FFFFEFFF8
:102AC000002C01400034014000400140004401401E
:102AD0000048014030B5026A22F480120262046AA2
:102AE0004268436D114D24F400142B400D6843EAF5
:102AF00005230D8944EA05540D4DA8420BD00D4D18
:102B0000A84208D00C4DA84205D00C4DA84202D0D6
:102B10000B4DA84204D14D6922F4802242EA85225D
:102B2000426043654968C165046230BDFF8FFFFEA6
:102B3000002C0140003401400040014000440140AD
:102B40000048014010B5036A046A24F001040462DD
:102B5000846924F0F00444EA021423F00A020A43D0
:102B60008461026210BD10B5036A23F01003036292
:102B70008369046A23F4704343EA023224F0A00319
:102B800043EA01118261016210BD90F82410C90767
:102B900006D001684A68836A22F400321A434A6008
:102BA00090F82410890706D501684A68C36A22F4A0
:102BB00080321A434A6090F82410490706D501680C
:102BC0004A68036B22F480221A434A6090F824106A
:102BD000090706D501684A68436B22F400421A438C
:102BE0004A6090F82410C90606D501688A68836B8C
:102BF00022F480521A438A6090F82410890606D580
:102C000001688A68C36B22F400521A438A6090F804
:102C10002410490611D501684A68036C22F4801219
:102C20001A434A60016CB1F5801F06D101684A68F9
:102C3000436C22F4C0021A434A6090F8241009063B
:102C400006D501684A68806C22F4002202434A607B
:102C50007047F8B5002604464667FDF799FF05461C
:102C6000206800686FF07E47000708D52B460022D9
:102C70004FF400112046009700F06AF960B920680F
:102C8000006840070AD52B4600224FF480012046F9
:102C9000009700F05DF908B10320F8BD202084F80A
:102CA000710084F8720084F870600020F8BD0000A4
:102CB0002DE9F0410446016880682369E6691843FC
:102CC00063691025002733431843954A0B68954ED6
:102CD000334003430B6020684168E36821F44051AE
:102CE000194341602168A069914201D0236A1843C9
:102CF0008B6823F4306303438B608B4B21688B48D4
:102D000099420DD1D0F8880010F0030006D00128B8
:102D10005AD0022856D0032859D157E0012556E051
:102D2000834B99420BD1D0F8880010F00C0047D0AB
:102D3000042849D0082845D00C2848D146E07D4BCE
:102D400099420BD1D0F8880010F0300038D010280C
:102D50003AD0202836D0302839D137E0764B994206
:102D60000BD1D0F8880010F0C00029D040282BD01B
:102D7000802827D0C0282AD128E0704B99420ED154
:102D8000D0F8880010F440701AD0B0F5807F1BD0C6
:102D9000B0F5007F16D0B0F5407F18D116E0914213
:102DA00015D1D0F8880010F4406009D0B0F5806FDC
:102DB0000AD0B0F5006F05D0B0F5406F07D105E03F
:102DC000002504E0022502E0042500E008255C4B14
:102DD00000264FF4004091423DD135B1022D07D07D
:102DE000042D07D0082D10D107E0FEF733FA03E0D9
:102DF000184602E0FEF752FAA8B3626802EB4201FD
:102E0000814202D8B0EB023F01D9012775E0DFF81B
:102E100034815DB1022D0CD0042D13D0082DF4D1D6
:102E200050082905401846F1000105E0FEF712FAA6
:102E30000AE050084449F5E70023FDF7C1F9A0F581
:102E4000407156E0FEF72AFA6268010E030250084C
:102E500018187141F0E7E1694FF6EF7881422FD100
:102E6000092DD2D200E048E0DFE805F00609200590
:102E7000230505052600C8E7FEF7ECF901E0FEF79B
:102E8000FBF94100D4F8040001EB5001B1FBF0F074
:102E900080B2A0F110014145B7D84FF6F071014062
:102EA000C0F3420001432068C16026E02749606802
:102EB000EAE7FEF7F3F9E4E74FF480316068E3E70F
:102EC000092DA2D2DFE805F006091E052205050539
:102ED00025009AE7FEF7BEF901E0FEF7CDF90146BD
:102EE000606801EB500100BFB1FBF0F080B2A0F1CF
:102EF0001001414589D82168C86026663846666653
:102F0000BDE8F081606803EB5001EDE7FEF7C6F91C
:102F1000E5E7616800EB5100B0FBF1F0E6E7000087
:102F200000800040F369FFEF0038014000100240CC
:102F30000044004000480040004C00400050004069
:102F40000024F400FFFC0F00000024F40048E80116
:102F50002DE9F041984617460E460446069D1DE0B1
:102F6000681C1BD02DB1FDF713FEA0EB0800A84292
:102F700014D92068016821F4D0710160206881684B
:102F800021F001018160202084F8710084F8720032
:102F9000002084F870000320BDE8F0812068C0693B
:102FA00036EA000004D00020B842D9D00020F3E770
:102FB0000120F9E7FEE702E008C8121F08C1002A55
:102FC000FAD170477047002001E001C1121F002AAA
:102FD000FBD17047FDF7EAFDFFF72AFBFEF7C6FFBE
:102FE000FEF788FFFFF7B2F8FFF7CEF8FFF7F0F82B
:102FF000FFF712F9124811497F2201600021C0E950
:103000000112FF22C0E9032141618161C161FEF724
:10301000C9FB00B1FEE7FFF723F900210948FEF7DD
:10302000ADFE094D4FF480544FF4FA762146284600
:10303000FDF7A5FD3046FDF79FFCF7E700280040AF
:10304000E4000020340200200008004800000000D6
:10305000000000000102030406070809A086010021
:10306000400D0300801A060000350C0040420F009E
:1030700080841E0000093D0000127A000024F40044
:1030800000366E010048E801006CDC020000000020
:1030900001020304B4300008000000200800000012
:1030A000B62F0008BC3000080800002070060000A1
:0C30B000C62F00080000000000093D00D1
:040000050800018965
:00000001FF
