:0400000052EF84F047
:10FEAA0000303132333435363738394142434445EC
:10FEBA00464748494A00437572736F7220486F6D0E
:10FECA0065202620426C696E6B005072696E742040
:10FEDA00726967687420746F206C6566740050726A
:10FEEA00696E74206C65667420746F207269676825
:10FEFA00740042656C6C20636861722048657820E2
:10FF0A007265703B004164647220436F756E74655C
:10FF1A0072203A200020202020202020202020208B
:10FF2A002020004261636B6C69676874204F6E2001
:10FF3A00004261636B6C69676874204F66660042B1
:10FF4A0075737920466C6167203A20005363726F9B
:10FF5A006C6C204C65667420004261636B6C696747
:10FF6A006874204F6E005363726F6C6C205269671D
:10FF7A00687400446973706C6179204F6E20004385
:10FF8A007572736F7220486F6D6500446973706C87
:10FF9A006179204F666600437572736F72204F66EF
:10FFAA006600426C696E6B204F6666004375727319
:10FFBA006F72204F6E00426C696E6B204F6E00505C
:10FFCA0072696E74206174003C2D2D2D2D00403A0B
:10FFDA00302C3000403A312C3100403A322C320079
:10FFEA00403A332C33002D2D2D2D3E0051203D203B
:06FFFA0000307800000059
:020000040001F9
:10000000000E206E30EC86F0B5EC86F0BBEC86F08E
:10001000000E216E070E216401D011D02150020D77
:10002000600EF324D96E000EF420DA6EDECF0DF0F0
:10003000DDCF0EF02150A3EC84F0212AEBD726EC83
:1000400086F0000E0D6E000EE3EC84F0F60E0D6EE1
:10005000FF0E0E6E01EC85F0000E44EC86F0206E73
:10006000000E0D6E040EE3EC84F0FB0E0D6EFF0E21
:100070000E6E01EC85F0000E0D6E060EE3EC84F0C2
:1000800020380F0B0F0B1C6E1D6A320E1C24D96E0C
:10009000000E1D20DA6EDF50D8EC86F0000E0D6EDB
:1000A000070EE3EC84F020500F0B1C6E1D6A320E1D
:1000B0001C24D96E000E1D20DA6EDF50D8EC86F0BD
:1000C000000E0D6E080EE3EC84F02C0ED8EC86F0DA
:1000D000000E226E070E226401D00BD0000E0D6EB2
:1000E00022500A0FE3EC84F02250D8EC86F0222A4A
:1000F000F1D7010E0D6E000EE3EC84F0FC0E0D6ED8
:10010000FE0E0E6E01EC85F0000E206E000E1E6ECF
:10011000010E1E6401D014D0000E1F6E030E1F646A
:1001200001D00CD01EC017F020504DEC86F0186E98
:100130001F5026EC83F0202A1F2AF0D71E2AE8D76A
:10014000130E026E880E016E1AEC85F01200000E7E
:10015000196E30EC86F097EC86F09DEC86F0010E7F
:100160000D6E010EE3EC84F0070E026ED00E016EF0
:100170001AEC85F0E5EC86F0196EB5EC86F0BBEC78
:1001800086F0020E0D6E000EE3EC84F00F0E0D6E85
:10019000FF0E0E6E01EC85F0020E0D6E0F0EE3ECFD
:1001A00084F0FB0E0D6EFF0E0E6E01EC85F0020E5C
:1001B0000D6E110EE3EC84F019380F0B0F0B176E58
:1001C000186A320E1724D96E000E1820DA6EDF502E
:1001D000D8EC86F0020E0D6E120EE3EC84F019508E
:1001E0000F0B176E186A320E1724D96E000E1820E6
:1001F000DA6EDF50D8EC86F0E1EC86F0196E030E73
:100200000D6E000EE3EC84F0490E0D6EFF0E0E6EC7
:1002100001EC85F0030E0D6E0C0EE3EC84F0FB0E8A
:100220000D6EFF0E0E6E01EC85F0030E0D6E0E0EC0
:10023000E3EC84F019380F0B0F0B176E186A320EAF
:100240001724D96E000E1820DA6EDF50D8EC86F035
:10025000030E0D6E0F0EE3EC84F019500F0B176EAA
:10026000186A320E1724D96E000E1820DA6EDF508D
:10027000D8EC86F0130E026E880E016E1AEC85F033
:10028000120020EE7EF010EE25F00A0EDBCFE3FF29
:10029000E806FCE220EE70F010EE17F00D0EDBCF5A
:1002A000E3FFE806FCE230EC86F0B5EC86F0BBEC50
:1002B00086F0C1EC86F0250E306E000E316E010E18
:1002C0000D6E0F0EE3EC84F00FD030C0D9FF31C0BB
:1002D000DAFFDF50D8EC86F0304A312A010E026E88
:1002E000900E016E1AEC85F030C0D9FF31C0DAFFF4
:1002F000DF50D8A4EAD7130E026E880E016E1AECF6
:1003000085F030EC86F0AFEC86F0170E306E000E04
:10031000316E010E0D6E030EE3EC84F00FD030C091
:10032000D9FF31C0DAFFDF50D8EC86F0304A312AED
:10033000010E026E900E016E1AEC85F030C0D9FFEE
:1003400031C0DAFFDF50D8A4EAD7130E026E880E50
:10035000016E1AEC85F0120030EC86F0B5EC86F0F8
:10036000A9EC86F0630E0D6EFF0E0E6E01EC85F0AB
:10037000030E026EE80E016E1AEC85F030EC86F08A
:10038000A3EC86F03B0E0D6EFF0E0E6E01EC85F0B9
:10039000030E026EE80E016E1AEC85F030EC86F06A
:1003A000A9EC86F0630E0D6EFF0E0E6E01EC85F06B
:1003B000030E026EE80E016E1AEC85F0000E176E49
:1003C000050E176401D0120017A019D0000E0D6E93
:1003D000000EE3EC84F01F0E0D6EFF0E0E6E01ECAE
:1003E00085F0000E0D6E000EE3EC84F02D0E0D6E08
:1003F000FF0E0E6E01EC85F0A9EC86F00AD030EC11
:1004000086F03B0E0D6EFF0E0E6E01EC85F0A3EC38
:1004100086F0020E026EEE0E016E1AEC85F0172ABF
:10042000CFD730EC86F0B5EC86F0A10E0D6EFF0E46
:100430000E6E01EC85F0050E026EDC0E016E1AECFC
:1004400085F030EC86F097EC86F0B60E0D6EFF0E60
:100450000E6E01EC85F0050E026EDC0E016E1AECDC
:1004600085F030EC86F09DEC86F0C00E0D6EFF0E30
:100470000E6E01EC85F0050E026EDC0E016E1AECBC
:1004800085F030EC86F0BBEC86F0AC0E0D6EFF0E06
:100490000E6E01EC85F0050E026EDC0E016E1AEC9C
:1004A00085F030EC86F0890E0D6EFF0E0E6E01ECBD
:1004B00085F026EC86F0050E026EDC0E016E1AEC5D
:1004C00085F030EC86F0C00E0D6EFE0E0E6E01EC67
:1004D00085F026EC86F09DEC86F00B0E026EB80ED1
:1004E000016E1AEC85F0120030EC86F0B5EC86F067
:1004F000BBEC86F0000E0D6E000EE3EC84F0700E87
:100500000D6EFF0E0E6E01EC85F0010E0D6E000EED
:10051000E3EC84F0F00E0D6EFF0E0E6E01EC85F034
:10052000000E176E070E176401D00AD06FEC86F02C
:10053000010E026EF40E016E1AEC85F0172AF2D746
:1005400030EC86F0000E0D6E080EE3EC84F0560ED3
:100550000D6EFF0E0E6E01EC85F0010E0D6E080E95
:10056000E3EC84F0D20E0D6EFF0E0E6E01EC85F002
:10057000000E186E070E186401D00AD076EC86F0D3
:10058000010E026EF40E016E1AEC85F0182AF2D7F5
:10059000130E026E880E016E1AEC85F0120053865F
:1005A000040E596EC30E026E500E016E5EEC85F0A5
:1005B000040E036E4E0EAEEC85F0000E026E640E5D
:1005C000016E5EEC85F0300E3AEC86F0110E026E94
:1005D000940E016E5EEC85F0300E3AEC86F0000E63
:1005E000026E960E016E5EEC85F0300E3AEC86F0EF
:1005F000000E026E960E016E5EEC85F0200E3AEC57
:1006000086F0000E026E960E016E5EEC85F0080E0E
:10061000576E5750200984EC86F0000E556ECDECD5
:1006200086F0C7EC86F0020E566E5650040984EC34
:1006300086F05550080984EC86F0080E546E54502C
:10064000100984EC86F030EC86F012001B6E175017
:10065000020DF350020F0D6E1B50050DF350E3EC2D
:1006600084F0FB0E0D6EFF0E0E6E01EC85F0175040
:10067000020DF350020F0D6E1B50050DF350020FCB
:10068000E3EC84F018380F0B0F0B196E1A6A320E58
:100690001924D96E000E1A20DA6EDF50D8EC86F0DD
:1006A0001750020DF350020F0D6E1B50050DF35045
:1006B000030FE3EC84F018500F0B196E1A6A320E18
:1006C0001924D96E000E1A20DA6EDF50D8EC86F0AD
:1006D000120030EC86F0B5EC86F0BBEC86F0000E34
:1006E000176E050E176401D0120017A013D026EC68
:1006F00086F0210E0D6EFF0E0E6E01EC85F026ECDD
:1007000086F07D0E0D6EFF0E0E6E01EC85F0C7ECCF
:1007100086F018D0000E0D6E000EE3EC84F0210E72
:100720000D6EFF0E0E6E01EC85F0000E0D6E000ECC
:10073000E3EC84F0950E0D6EFF0E0E6E01EC85F06D
:10074000CDEC86F0020E026EEE0E016E1AEC85F014
:10075000172AC7D730EC86F0B5EC86F0D80E0D6EB0
:10076000FF0E0E6E01EC85F0010E0D6E010EE3EC36
:1007700084F0DE0E0D6EFF0E0E6E01EC85F0020EA3
:100780000D6E020EE3EC84F0E40E0D6EFF0E0E6EA5
:1007900001EC85F0030E0D6E030EE3EC84F0EA0E1F
:1007A0000D6EFF0E0E6E01EC85F0000E0D6E0C0E40
:1007B000E3EC84F0C90E0D6EFF0E0E6E01EC85F0B9
:1007C0000B0E026EB80E016E1AEC85F0120030ECC2
:1007D00086F0B5EC86F0BBEC86F091EC86F0E80E86
:1007E0000D6EFE0E0E6E01EC85F0010E0D6E000E0C
:1007F000E3EC84F0AB0E0D6EFE0E0E6E01EC85F098
:10080000020E0D6E000EE3EC84F0D40E0D6EFE0EA3
:100810000E6E01EC85F08BEC86F0040E0D6E130E5F
:10082000E3EC84F0AB0E0D6EFE0E0E6E01EC85F067
:1008300091EC86F0130E026E880E016E1AEC85F0B4
:1008400012004B00B1009100A900A100890099009D
:10085000B9004E6F204175746F7363726F6C6C00DA
:100860004175746F7363726F6C6C00000103161C2A
:10087000080000000E1517110E0000001B0E040EDC
:100880001B0000000C1D0F0F060000000A1F1F0EAA
:100890000400000203020E1E0C0000010105091FE6
:1008A00008040000586A576A566A556A546A536ABF
:1008B000420EF66E080EF76E010EF86E00EE60F056
:1008C00010EE61F00900F5CFEEFFE550E150FAE1DE
:1008D000A60EF66E0B0EF76E010EF86E00EE32F0FD
:1008E00010EE21F00900F5CFEEFFE550E150FAE1FE
:1008F000000EF86E0001D3EF86F0026E02C0C9FF51
:10090000C6BE1200C6500F0B080AD8B40CD0C65091
:100910000F0B0B0AD8B407D0C6889EA6FED7C7B463
:100920001200C7501200C6500F0B080AD8B405D0E9
:10093000C6500F0B0B0AD8A41200C7B0FED756EC56
:1009400086F0C55012000F6E070E0F160F38E842E2
:10095000F80B400984EC86F0000E116E000E106E4C
:1009600011BE06D0115010E1080E105CD8B0120074
:1009700010500D24D96E11500E20DA6EDF507DEC30
:1009800086F0104A112AECD712000C6E0C50F009B8
:100990005FEC86F00C50F409F3EC85F00A6E0C5015
:1009A000F409F3EC85F00B6E0C5004095FEC86F053
:1009B0000BC009F0093A0F0E09160F0E09160A505E
:1009C000F00B09101200166E20EE43F010EE0EF040
:1009D000070EDBCFE3FFE806FCE259500D5CD8A020
:1009E00002D059040D6E0D50020D0E0EF324D96E77
:1009F000000EF420DA6EDF501624800984EC86F0B5
:100A000012000DC00FF00EC010F00AD00FC0F6FF9C
:100A100010C0F7FF0800F5507DEC86F00F4A102A51
:100A20000FC0F6FF10C0F7FF0800F5500009D8B45A
:100A30001200ECD7CD90000E046E000E036E0BD0AA
:100A4000FC0ECF6E170ECE6E9E90CD809EA0FED770
:100A5000CD90034A042A0150035C02500458D8B0D8
:100A60001200EED7066E0650FB0B5FEC86F0000E10
:100A7000026E010E016E5EEC85F0065004095FEC1B
:100A800086F0000E026E320E016E5EEC85F01200F2
:100A9000066E065004095FEC86F0000E026E010E31
:100AA000016E5EEC85F00650FB0B5FEC86F0000EED
:100AB000026E320E016E5EEC85F01200CD9001C028
:100AC00003F002C004F0031E041E034A042AFF0EB2
:100AD0000324CE6EFF0E0420CF6E9E90CD809EA08C
:100AE000FED7CD901200036E000E046E56EC86F019
:100AF000C580C5B0FED7035001097DEC84F001EC40
:100B000086F0046EC584C5B4FED7045012000B6E87
:100B10000B50F00B096E0B38F00B0A6EF00E0A1634
:100B20000950081004093AEC86F00A50081004092C
:100B30003AEC86F0120041EC81F074EC82F069EC42
:100B400083F0ACEC81F0AAEC83F011EC82F0E7ECDE
:100B500083F0A7EC80F000EC80F01200046E56ECFD
:100B600086F0C580C5B0FED70450FE0B7DEC84F046
:100B700056EC86F003507DEC84F0C584C5A41200C9
:100B8000FDD79282928492869288928AC180C18295
:100B9000C184C1869380938293849388938AF18ED3
:100BA00094829484120030313233343536373839F8
:100BB00041424344454600000040001400540004F4
:100BC0000E0E0E1F00040000026E3F0EC716000E30
:100BD000C66E000EC56E0250C6120150C712948632
:100BE0009488C68A1200086E0850020932EC85F01B
:100BF000EDEC86F0076E0850020948EC85F00750CE
:100C00001200C6500F0B080AD8B404D0C6500F0B00
:100C10000B0AD8B4C586C7A0FED7C9501200948865
:100C2000948682968298800E016E080EE4EC85F020
:100C3000090EC86E1200F1EC86F0C1EC85F00FECE5
:100C400086F067EC86F0CFEC82F01200020E84ECA6
:100C500086F0750E026E300E016E5EEC85F01200AD
:100C6000010E84EC86F0750E026E300E016E5EECA5
:100C700085F01200076E0750FD0B5FEC86F0075001
:100C8000FD0B48EC85F012000D6E0D507F0B8009B6
:100C900084EC86F0DDEC86F012000D6E0D503F0BFB
:100CA000400984EC86F0DDEC86F01200C5CF01F03F
:100CB0001F0E0116D8A4FAD7C7A41200F7D7056EE5
:100CC00005505310036E4E0EAEEC85F01200CD8E23
:100CD000CD9CCD9ACD98CD96CD92CD9012005484D6
:100CE00054865450100984EC86F0120054945486B3
:100CF0005450100984EC86F012000C6E010E086E40
:100D00000C5087EC85F012000C6E000E086E0C5033
:100D100087EC85F0120056925650040984EC86F058
:100D2000120056825650040984EC86F01200558257
:100D30005550080984EC86F012005580555008097A
:100D400084EC86F012005396EDEC86F05FEC86F0B2
:100D500012005386EDEC86F05FEC86F012005690A0
:100D60005650040984EC86F012005592555008093B
:100D700084EC86F0120055905550080984EC86F0FA
:100D8000120056805650040984EC86F012005584F7
:100D90005550080984EC86F0120055945550080906
:100DA00084EC86F012001BEC86F09BEC85F0FDD7FE
:100DB0000D6E0D507DEC86F01200010EC5EC84F036
:100DC0001200E9EC86F0800B1200E9EC86F07F0B54
:100DD0001200000EC5EC84F012004E0E73EC85F08C
:040DE00012001200EB
:020000040020DA
:08000000FFFFFFFFFFFFFFFF00
:020000040030CA
:0E000000FF011F1EFF8281FF3FC03FE03F4017
:00000001FF
