:020000040800F2
:10000000D00600209D010008CF100008CB1000088A
:10001000CD100008090200089B160008000000002F
:10002000000000000000000000000000A513000810
:100030000B02000800000000F1100008A7130008E0
:10004000B7010008B7010008B7010008B7010008B0
:10005000B7010008B7010008B7010008B7010008A0
:10006000B7010008B7010008B7010008B701000890
:10007000B7010008B7010008B7010008B701000880
:10008000B7010008B7010008B7010008B701000870
:10009000B7010008B7010008B7010008B701000860
:1000A000B7010008B7010008B7010008B701000850
:1000B000B7010008B7010008B7010008B701000840
:1000C000B7010008B7010008B7010008B701000830
:1000D000B7010008B7010008B7010008B701000820
:1000E000B7010008B7010008B7010008B701000810
:1000F000B7010008B7010008B7010008B701000800
:10010000B7010008B7010008B7010008B7010008EF
:10011000B7010008B7010008B7010008B7010008DF
:10012000B7010008B7010008B7010008B7010008CF
:10013000B7010008B7010008B7010008B7010008BF
:10014000B7010008B7010008B7010008B7010008AF
:10015000B7010008B7010008B7010008B70100089F
:10016000B7010008B7010008B7010008B70100088F
:10017000B7010008B7010008B7010008B70100087F
:10018000B7010008B7010008DFF80CD000F02AF82A
:1001900000480047BD160008D006002006488047EA
:1001A00006480047FEE7FEE7FEE7FEE7FEE7FEE75C
:1001B000FEE7FEE7FEE7FEE75914000889010008A4
:1001C00040EA01039B0703D009E008C9121F08C0D9
:1001D000042AFAD203E011F8013B00F8013B521E59
:1001E000F9D27047064C074D06E0E06840F0010385
:1001F00094E8070098471034AC42F6D3FFF7C8FFE5
:100200004417000864170008FEE7704770B50446FD
:1002100000F0F0F80546601C00D0641C00F0EAF81D
:10022000401BA042FAD370BD2DE9F84FDFF898B11A
:1002300000234FF0010C4FF0030A4FF00F090BF1B0
:10024000040EB9E00CFA03F4224070D04D68022D80
:1002500001D0122D0ED1DD0800EB8508D8F8205012
:100260005E07F70E09FA07F6B5430E69BE402E4346
:10027000C8F8206007685E0091F804800AFA06F565
:1002800008F00308AF4308FA06F848EA0708C0F880
:1002900000804F68012F05D0022F03D0112F01D00D
:1002A000122F13D1D0F80880CF6828EA0508B7408C
:1002B00047EA08078760D0F804800F7928EA040825
:1002C000C7F300179F4047EA08074760D1F804804A
:1002D0006FEA0807BF0706D1C76AA743C8F3C0047F
:1002E0009C403C43C462C468AC438D68B540254320
:1002F000C5604C68E4005ED5344C256E45F00105C0
:100300002566246E23F0030504F001040094304CAC
:100310002E19B4689D072F0F09FA07F5AC43B0F109
:10032000904F05D02B4DA84204D101251CE042E09E
:10033000002519E0284DA84201D1022514E0274DDF
:10034000A84201D103250FE0254DA84201D1042583
:100350000AE0244DA84201D1052505E0224DA8421E
:1003600001D1062500E00725BD402543B560DBF837
:1003700000405D464E689443F60300D514432C605C
:10038000DEF8004075464E689443B60300D514432A
:100390002C600D4D08352C684E689443F60200D54C
:1003A00014432C60084D0C352C684E689443B602FB
:1003B00000D514432C605B1C0A6832FA03F57FF405
:1003C00041AF00F013B800000004014000100240EB
:1003D000000001400004004800080048000C0048EC
:1003E00000100048001400480018004818BCBDE880
:1003F000E08F000001480068704700000000002006
:1004000030B58BB0040003D094F8B90218B108E0FD
:1004100001200BB030BD002084F8B802204600F067
:1004200023F8032084F8B902206801F07DF804F174
:10043000100128220D466846FFF7C2FE94E80F001F
:1004400001F02CF80121206801F010F9282229463A
:100450006846FFF7B5FE94E80F0001F0A3F801200D
:1004600084F8B9020020D4E710B5006886B0B0F176
:10047000A04F29D14FF4C0500090022001900020DD
:100480000290032003900A20049069464FF09040A8
:10049000FFF7CAFE0F4CE06C40F48050E064E06C63
:1004A00000F480500590A06DC0000FD4A06D40F006
:1004B0008050A065A06D00F08050059000F0E2F83B
:1004C000A06D20F08050A06506B010BD00F0DAF8F5
:1004D000FAE700000010024002480168491C016070
:1004E000704700000000002010B50024032000F039
:1004F00083F8002000F008F808B1012401E000F0C2
:100500001BF8204610BD000070B5054609484FF4A1
:100510007A7100240068B0FBF1F000F0BEFD08B174
:10052000012404E000222946501E00F045F8204630
:1005300070BD0000040000201E4808B5016E41F0A7
:1005400001010166016E01F001010091816D41F030
:1005500080518165806D00F080500090032000F094
:100560004BF8002211466FF00B0000F025F8002236
:1005700011466FF00A0000F01FF8002211466FF0DC
:10058000090000F019F800221146501F00F014F87D
:1005900000221146101F00F00FF800221146901E95
:1005A00000F00AF80022BDE808401146501E00F095
:1005B00003B8000000100240F0B40E4B1B680C465C
:1005C000C3F30223C3F10705042D00D90425191D27
:1005D000072901D2002300E0DB1E012606FA05F1FF
:1005E000491E214099409E40761E16403143F0BC82
:1005F00000F06EBD0CED00E0064900F0070208684F
:100600004FF6FF03184040EA0220034A10430860F7
:10061000704700000CED00E00000FA051649B0F547
:10062000007F0868C0F3412009D0022805D008687F
:1006300020F4C06040F4806008600020704701280A
:10064000FBD0086820F4C06040F4007008600B48DC
:100650003222006850430A4AB0FBF2F0401C00E02E
:10066000401E4A69520501D50028F9D14869400564
:10067000E3D5032070470000007000400400002014
:1006800040420F000248416841F480614160704778
:10069000007000400248006800F4C060704700002D
:1006A000007000402DE9F84F044600270088E54D12
:1006B0003E46010504F1200B1DD5606E78B1B0F502
:1006C000800F11D0B0F5000F04D0B0F5400F22D04C
:1006D00001270FE0E86840F48030E8601BE000216B
:1006E000201D00F007FD03E00021584600F098FDB2
:1006F000070010D03E462088C00426D5A06EC0B1A9
:10070000B0F1807F1AD0B0F1007F0DD0B0F1407F02
:1007100019D0012718E0D5F88800616E20F4400058
:100720000843C5F88800E6E7E86840F48030E860F0
:1007300009E00021201D00F0DDFC03E00021584607
:1007400000F06EFD0746F7B13E46206880033AD5BB
:10075000A86D4FF00008C00009D4A86D40F080508B
:10076000A865A86D4FF0010800F080500090DFF8F8
:10077000D8A2DAF8001041F48071CAF80010FFF72F
:1007800039FE814610E0D5F88800A16E20F0407057
:100790000843C5F88800D8E7FFF72CFEA0EB090056
:1007A000022801D9032705E0DAF80000C005F3D5D7
:1007B000002F7CD04FEA0706B8F1000F03D0A86DD8
:1007C00020F08050A8652078C00707D0D5F88800B1
:1007D000A16B20F003000843C5F88800207880074B
:1007E00007D5D5F88800E16B20F00C000843C5F868
:1007F00088002078400707D5D5F88800216C20F0C4
:1008000030000843C5F888002078000707D5D5F8E0
:100810008800616C20F0C0000843C5F8880020788B
:10082000C00607D5D5F88800A16C20F440700843B5
:10083000C5F888002078800607D5D5F88800E16CD7
:1008400020F440600843C5F888002088800507D55B
:10085000D5F88800E16D20F440200843C5F88800F1
:100860002088400507D5D5F88800216E20F4401077
:100870000843C5F888002078400607D5D5F88800D9
:10088000216D20F440500843C5F888002078000608
:1008900007D5D5F88800616D20F440400843C5F8BD
:1008A00088002088C00509D5D5F8880000E01CE044
:1008B000A16D20F440300843C5F8880020884FF02F
:1008C000006780044FF080684FD5D5F88800E16E4E
:1008D00020F040600843C5F88800E06EB8423CD183
:1008E000E86840F48010E8603FE0D5F8900010F42C
:1008F000407015D0D4F88410814211D0D5F8900002
:10090000D5F8901020F4407041F48031C5F8901073
:10091000D5F8901021F48031C5F89010C5F89000FA
:10092000C00710D0FFF766FD074641F2883906E0A0
:10093000FFF760FDC11B494501D903263CE7D5F807
:1009400090008007F4D5D5F89000D4F8841020F4F6
:1009500040700843C5F890002EE7404505D10121BD
:10096000201D00F0C7FB00B106462068000317D524
:10097000D5F88800216F20F040600843C5F8880052
:10098000206FB84204D1E86840F48010E86007E0C6
:10099000404505D10121201D00F0ACFB00B1064609
:1009A0002068400317D5D5F88800616F20F04060BB
:1009B0000843C5F88800606FB84204D1E86840F485
:1009C0008010E86007E0404505D10121201D00F0BE
:1009D00091FB00B10646208840041AD5D5F888005E
:1009E000A16F20F040500843C5F88800A06FB0F117
:1009F000805F03D0B0F1005F05D00AE00221201D26
:100A000000F078FB03E00221584600F009FC00B139
:100A100006462088000407D5D5F88800E16F20F04D
:100A200080400843C5F888002068C00307D555F802
:100A3000880FD4F8801020F000400843286030462A
:100A400000F004B8001002400070004018BCBDE87F
:100A5000E08F00002DE9F0470F46050058D03F4ECB
:100A6000306800F00700B84209D2306820F0070073
:100A700038433060306800F00700B84248D1287829
:100A8000374CC0072CD06868032811D0022812D038
:100A9000216898B1490500293ADAA16821F00301DB
:100AA0000143A160FFF7A6FC804641F2883910E0BF
:100AB00021688901EFE721688903ECE78907EAE704
:100AC000FFF798FCA0EB0801494502D90320BDE8D7
:100AD000F087A068696800F00C00B0EB810FEFD1DF
:100AE0002878800705D5A068A96820F0F0000843A1
:100AF000A060306800F00700B8420BD9306820F0E1
:100B0000070038433060306800F00700B84201D079
:100B10000120DCE72878400705D5A068E96820F4C3
:100B2000E0600843A0602878000706D5A06829691E
:100B300020F4605040EAC100A06000F01DF8A168F8
:100B4000084AC1F30311515C01F01F01C840064976
:100B50000860BDE8F0470020FFF7D6BC0020024047
:100B6000001002400417000804000020014800683B
:100B7000704700000400002070B525490023184686
:100B80008A68CC6812F00C0204F00306214C4FEA8C
:100B9000640509D00C2A05D0042A26D0082A00D1E1
:100BA000284670BD012E10D10B681B0704D4D1F864
:100BB0009430C3F3032302E00B68C3F30313164E10
:100BC00056F823307AB10C2AEBD1C86800F0030242
:100BD000C868C0F30210401C022A08D0032A09D0BA
:100BE000B3FBF0F008E0184670BD204670BDB4FBC2
:100BF000F0F001E0B5FBF0F0CA68C968C2F3062264
:100C00005043C1F34161491C4900B0FBF1F070BD94
:100C1000001002400024F400141700082DE9F843E6
:100C200005007CD0FD4CA06800F00C06E06800F0E8
:100C300003072878C00661D576B10C2E01D1012FAB
:100C40000AD0A8690028206878D040F00100206010
:100C5000FFF7D0FB804659E02068800702D5A869DD
:100C60000028DED0286A2168090703D5216801F031
:100C7000F00104E0D4F89410F02202EA1111884245
:100C800015D900F051FB002849D1206840F0080038
:100C900020602068296A20F0F00008432060606826
:100CA000E96920F47F4040EA0120606015E0206897
:100CB00040F0080020602068296A20F0F000084316
:100CC00020606068E96920F47F4040EA01206060AC
:100CD000286A00F029FB0028D6D1FFF74DFFA16854
:100CE000CF4AC1F30311515C01F01F01C840CD4947
:100CF00008600020FFF708FC00287DD12FE000BF2E
:100D0000FFF778FBA0EB0800022876D82068800760
:100D1000F6D5206840F008002060206801E0BBE0C4
:100D20000CE0296A20F0F000084320606068E9695F
:100D300020F47F4040EA0120606010E020F00100D4
:100D40002060FFF757FB804606E000BFFFF752FB2D
:100D5000A0EB08000228D8D820688007F6D42878AD
:100D6000C00740D0082E18D00C2E01D1032F14D06C
:100D70006868B0F5803F17D0B0F5A02F206817D075
:100D800020F480302060206820F480202060686893
:100D9000E0B1FFF72FFB804614E02068800322D5E6
:100DA0006868002878D01EE0206840F48030EDE7C5
:100DB00040F480202060F7E7FFF71CFBA0EB080061
:100DC0006428A2D820688003F6D50CE0FFF712FB58
:100DD000804605E0FFF70EFBA0EB0800642894D8DE
:100DE00020688003F6D4287880073BD5042E11D0E4
:100DF0000C2E04D1022F01E036E1A1E00AD0E86810
:100E0000002820681ED040F480702060FFF7F2FABE
:100E100007460CE0206840050CD5E8680028C1D0E2
:100E200008E000BFFFF7E6FAC01B022893D820684D
:100E30004005F7D56068297C20F0F85040EA016051
:100E400060600FE020F480702060FFF7D3FA07465F
:100E500005E000BFFFF7CEFAC01B022870D820685B
:100E60004005F7D42878000729D568690028D4F808
:100E7000940012D040F00100C4F89400FFF7BAFAD1
:100E8000074604E0FFF7B6FAC01B022858D8D4F88A
:100E900094008007F6D512E0EDE020F00100C4F8E0
:100EA0009400FFF7A7FA074605E000BFFFF7A2FA94
:100EB000C01B022844D8D4F894008007F6D42878C0
:100EC000400768D5A06D0027C00008D4A06D40F091
:100ED0008050A065A06D012700F08050009052481E
:100EE0000168C90512D40168814641F4807101602E
:100EF000FFF780FA804605E0FFF77CFAA0EB0800D8
:100F000002281DD8D9F80000C005F5D5A868012829
:100F100017D00528D4F8900018D020F00100C4F8AC
:100F20009000D4F8900020F0040000BFC4F89000B6
:100F3000A86841F28839D0B1FFF75CFA804611E029
:100F40006BE0D4F8900040F00100EFE740F00400BF
:100F5000C4F89000F5E700BFFFF74CFAA0EB0801DA
:100F600049455AD8D4F890008007F5D50EE0FFF730
:100F700041FA804606E000BFFFF73CFAA0EB08010B
:100F8000494570D8D4F890008007F5D41FB1A06D02
:100F900020F08050A065A86AF0B30C2E6BD0022818
:100FA000206820F08070206004D0206810F0205F5E
:100FB00047D04AE0FFF71EFA064604E0FFF71AFAA8
:100FC000801B02284FD820688001F7D4286BE96A7B
:100FD000000110380843696BAA6B0902120941EA43
:100FE00042410843A98F114A490802EB4151084385
:100FF00095F840104908120102EB41610843E06096
:10100000206840F080702060E06840F08070E06010
:10101000FFF7F0F9054610E02BE024E00010024055
:101020000417000804000020007000400000E0FFEA
:10103000FFF7E0F9401B022815D820688001F7D59A
:1010400017E0E06820F00300E060E0680B4908402A
:10105000E060FFF7CFF9054608E000BFFFF7CAF9E7
:10106000401B022802D90320BDE8F88320688001D4
:10107000F4D40020F8E70120F6E70000FFFFEEFEC1
:101080004FF0E0210428086903D020F00400086133
:10109000704740F00400FAE7704710B5401EB0F109
:1010A000807F01D3012010BD4FF0E02460610F214B
:1010B000601700F00DF80020A061072020610020DB
:1010C00010BD10B5FFF7E8FF10BDFEE7FEE7704763
:1010D0000907090E002806DA00F00F0000F1E020F1
:1010E00080F8141D704700F1E02080F8001470476C
:1010F000704700002DE9F041444C05468846E06801
:101100000026810728680DD0E16801F003018142C3
:1011100016D1A8B1E0686968C0F30210401C88428B
:101120000ED120E0012804D0022805D0032807D1E1
:1011300008E02168890701E021684905002907DBEB
:1011400001265FE02168890302D421684903F5E79D
:10115000E1686A686FF00F0321F0730103EB02127C
:1011600011430143E160206820F080602060FFF7B8
:1011700041F9074605E000BFFFF73CF9C01B022814
:1011800037D820680001F7D4B8F1000F18D0B8F1B3
:10119000010F1ED0287D4FF07E41400801EB4060DA
:1011A000A96840EA01202169194A114008432061D9
:1011B000206840F080602060FFF71CF907461AE0C5
:1011C000A868E9680002090940EA41402169114A1A
:1011D000EBE7288A1049400801EB4050A96840EA33
:1011E000012021690D4AE0E7FFF704F9C01B02283E
:1011F00001D9032606E020680001F5D52069A96918
:10120000084320613046BDE8F08100000010024034
:10121000FF80FFF9FF80FDFF0000E0FFFF809FFFE0
:101220002DE9F0413D4C06468846E06800258107DF
:1012300030680DD0E16801F00301814216D1A8B1F8
:10124000E0687168C0F30210401C88420ED120E0B3
:10125000012804D0022805D0032807D108E021681E
:10126000890701E021684905002907DB012551E0D4
:101270002168890302D421684903F5E7E1687268AF
:101280006FF00F0321F0730103EB021211430143CE
:10129000E160206820F080502060FFF7ABF807463F
:1012A00005E000BFFFF7A6F8C01B022829D8206878
:1012B0008000F7D4B8F1000F15D0307C4FF07E419C
:1012C000400801EB4060B16840EA01206169144ABE
:1012D000114008436061206840F080502060FFF7B3
:1012E00089F807460FE0B068F1680002090940EA92
:1012F000414061690B4AEBE7FFF77CF8C01B02280D
:1013000001D9032506E020688000F5D56069716980
:10131000084360612846BDE8F081000000100240EB
:10132000FF80FFF9FF80FDFFF8B51C4D0646002445
:10133000A86DC00002D5FFF7ADF90DE0A86D40F033
:101340008050A865A86D00F080500090FFF7A2F9CA
:10135000A96D21F08051A965B0F5007F04D0802EE1
:1013600007D94FF003040AE0802E08D9A02E01D837
:1013700004E001D1022402E0702E00D101240848CB
:10138000016821F0070121430160006800F00700B7
:10139000A04201D00120F8BD0020F8BD001002409D
:1013A00000200240704710B5FFF796F8BDE81040E6
:1013B000FFF787BEF0B5B9B01020012400262290B7
:1013C000CDE9284602256020CDE92C542A9028201A
:1013D0000727CDE92E40CDE93075329522A8FFF7D9
:1013E0001DFC00B1FEE70F2033900320CDE9340649
:1013F0003696042133A83796FFF72CFB00B1FEE7A1
:101400004FF40050009040031B901820CDE902409B
:1014100001944FF48010CDE90650CDE9047568467B
:10142000FFF740F900B1FEE74FF40070FFF7F6F860
:1014300000B1FEE7FFF79AFB4FF47A71B0FBF1F0D1
:10144000FFF72BFE0420FFF71BFE00221146501E63
:10145000FFF7B2F839B0F0BD0D48016841F47001F2
:1014600001600C48016841F00101016000218160C8
:101470000268094B1A4002608214C260026822F4BA
:101480008022026081610249C00380390860704790
:1014900088ED00E000100240FFFFF6EA10B50446B8
:1014A00004990B9801290BD0E06840F04000E060FF
:1014B000204600F01DF84FF48030A063002010BDDE
:1014C000A16B21F48031A163E168084A1140E16019
:1014D000E16821F44011E160012803D1E06840F4A3
:1014E0008010E060204600F003F8E7E7BFFFBDFF93
:1014F00001220C4902E0521C8A420BD80369002BDE
:10150000F9DA026942F001020261012204E0521C90
:101510008A4201D9032070470369DB07F7D1002015
:1015200070470000400D0300816821F001018160D7
:101530000020704708B5D0F8402422F02E02009217
:10154000D20405D4012909D1009941F4805103E066
:1015500021B9009921F48051C0F84014002008BD41
:10156000002110220261054A491C914201D9032041
:1015700070470369DB06F7D400207047400D030075
:101580000022202343EA811101610549521C8A424D
:1015900001D90320704703699B06F7D400207047E8
:1015A000400D03002DE9F041002517460446C0F820
:1015B000005E806B20F40010A063A06B20F400306C
:1015C000A0634FF0A048032B07D12046444504D028
:1015D000D0F8000440F0040103E0D4F8000420F047
:1015E00004012046C4F800141021FFF7C9FF20466B
:1015F000FFF7B6FF0020461E07E000BF04EB4011D6
:10160000C1F80865C1F80C55401C8742F6D8012185
:101610002046FFF78FFFC820FEF7F8FDA561666141
:10162000444505D1802060620B48A0620B4805E06C
:101630004FF4007060620A48A0620A48C4F80001D2
:10164000A06940F01000A061A06907490843A061AB
:101650000020BDE8F081000080006000E000400054
:10166000000200010003E000080020A310B5C268DA
:1016700022F0C042C260012902D029B1012010BD70
:10168000C16841F0005102E0C16841F08041C16091
:101690003220FEF7BBFD002010BDFEE702E008C8C7
:1016A000121F08C1002AFAD170477047002001E0DC
:1016B00001C1121F002AFBD17047000008B5FEF7D8
:1016C00013FFFFF777FE0D48C16C41F00101C164C3
:1016D000C06C4FF0A04100F00100009008480022CB
:1016E0000160082181600321C0E903120221C0E9E1
:1016F0000612FEF785FE00B1FEE7FEE7001002408D
:1017000008000020000000000000000001020304A7
:1017100006070809A0860100400D0300801A060094
:1017200000350C0040420F0080841E0000093D007F
:1017300000127A000024F40000366E010048E8012F
:10174000006CDC02641700080000002008000000A4
:101750009C1600086C17000808000020C80600004E
:0C176000AC1600080000000000093D006D
:040000050800018965
:00000001FF
