:020000040800F2
:10000000C85F00209D01000843240008F321000878
:10001000412400086F0200086D4300080000000042
:100020000000000000000000000000002B29000874
:10003000F502000800000000052500082D29000831
:10004000B7010008B7010008B7010008B7010008B0
:10005000B7010008B7010008B7010008B7010008A0
:10006000B7010008B7010008B7010008B701000890
:10007000B7010008B7010008B7010008B701000880
:10008000B7010008B7010008B7010008B701000870
:10009000B7010008B7010008B7010008B701000860
:1000A000B7010008B7010008B7010008B701000850
:1000B000B7010008B7010008B7010008B701000840
:1000C000B7010008B7010008B7010008B701000830
:1000D000B7010008B7010008B7010008B701000820
:1000E000B7010008B7010008B7010008B701000810
:1000F000B7010008B7010008B7010008B701000800
:10010000B7010008B7010008252A0008B701000858
:10011000B7010008B7010008B7010008B7010008DF
:10012000B7010008B7010008B7010008B7010008CF
:10013000B7010008B7010008B7010008B7010008BF
:10014000B7010008B7010008B701000865240008DE
:10015000B7010008B7010008B7010008B70100089F
:10016000B7010008B7010008B7010008B70100088F
:10017000B7010008B7010008B7010008000000003F
:10018000B7010008B7010008DFF80CD000F032F822
:1001900000480047C5430008C85F00200648804764
:1001A00006480047FEE7FEE7FEE7FEE7FEE7FEE75C
:1001B000FEE7FEE7FEE7FEE7E12900088901000807
:1001C00040EA01039B0703D009E008C9121F08C0D9
:1001D000042AFAD203E011F8013B00F8013B521E59
:1001E000F9D27047421C10F8011B0029FBD1801A7C
:1001F00070470000064C074D06E0E06840F0010340
:1002000094E8070098471034AC42F6D3FFF7C0FFDC
:10021000284900084849000870B58C1810F8015B9F
:1002200015F0070301D110F8013B2A1106D110F88F
:10023000012B03E010F8016B01F8016B5B1EF9D193
:100240002B0705D40023521E0DD401F8013BFAE719
:1002500010F8013BCB1A921C03E013F8015B01F884
:10026000015B521EF9D5A142D8D3002070BDFEE734
:10027000002070470020704710B50022044905484F
:1002800002F0C0FE0449034802F0B6FE002010BD93
:10029000C417002000050020C40F002089B200F020
:1002A00013B8000070B50D4604460146054802F03B
:1002B000A3FE044802F084FE20462968FFF7EEFF03
:1002C000002070BD00050020094A10B5D2F8902228
:1002D000D2F814220AB1012010BD0A460146044892
:1002E00002F090FEBDE81040014802F0E9BE0000B7
:1002F00000050020704770B5044600F0F5F805468B
:10030000601C00D0641C00F0EFF8401BA042FAD340
:1003100070BD00002DE9F84FDFF898B100234FF0D1
:10032000010C4FF0030A4FF00F090BF1040EB9E076
:100330000CFA03F4224070D04D68022D01D0122D2A
:100340000ED1DD0800EB8508D8F820505E07F70EC7
:1003500009FA07F6B5430E69BE402E43C8F820607F
:1003600007685E0091F804800AFA06F508F00308B1
:10037000AF4308FA06F848EA0708C0F800804F685B
:10038000012F05D0022F03D0112F01D0122F13D12E
:10039000D0F80880CF6828EA0508B74047EA080780
:1003A0008760D0F804800F7928EA0408C7F30017A3
:1003B0009F4047EA08074760D1F804806FEA0807C2
:1003C000BF0706D1C76AA743C8F3C0049C403C439B
:1003D000C462C468AC438D68B5402543C5604C68B1
:1003E000E4005ED5344C256E45F001052566246E8B
:1003F00023F0030504F001040094304C2E19B46876
:100400009D072F0F09FA07F5AC43B0F1904F05D0C7
:100410002B4DA84204D101251CE042E0002519E043
:10042000284DA84201D1022514E0274DA84201D150
:1004300003250FE0254DA84201D104250AE0244DF3
:10044000A84201D1052505E0224DA84201D106258B
:1004500000E00725BD402543B560DBF800405D4660
:100460004E689443F60300D514432C60DEF8004038
:1004700075464E689443B60300D514432C600D4D69
:1004800008352C684E689443F60200D514432C605E
:10049000084D0C352C684E689443B60200D51443C1
:1004A0002C605B1C0A6832FA03F57FF441AF00F060
:1004B00013B8000000040140001002400000014099
:1004C0000004004800080048000C004800100048E4
:1004D000001400480018004818BCBDE8E08F0AB1BD
:1004E0008161704781627047014800687047000071
:1004F0006000002002480168491C0160704700004C
:100500006000002010B50024032000F08FF80020C8
:1005100000F008F808B1012401E000F01BF82046C3
:1005200010BD000070B5054609484FF47A710024EB
:100530000068B0FBF1F001F04EFC08B1012404E0CA
:1005400000222946501E00F051F8204670BD0000E0
:10055000640000201E4808B5016E41F001010166EB
:10056000016E01F001010091816D41F080518165C2
:10057000806D00F080500090032000F057F80022BA
:1005800011466FF00B0000F031F8002211466FF0B9
:100590000A0000F02BF8002211466FF0090000F06D
:1005A00025F800221146501F00F020F800221146C5
:1005B000101F00F01BF800221146901E00F016F8E4
:1005C0000022BDE808401146501E00F00FB80000A0
:1005D0000010024000F01F020121914040098000FC
:1005E00000F1E020C0F8001170470000F0B40E4B9D
:1005F0001B680C46C3F30223C3F10705042D00D981
:100600000425191D072901D2002300E0DB1E012665
:1006100006FA05F1491E214099409E40761E16407B
:100620003143F0BC01F00EBF0CED00E0064900F0D4
:10063000070208684FF6FF03184040EA0220034A09
:1006400010430860704700000CED00E00000FA0560
:1006500001680122C0F80024886B40F400308863F0
:100660000020704701220168C0F8FC23002280F8B6
:10067000F423886940F000608861486D024A1043A5
:1006800048650020704700000300001070B5164D4B
:100690000446A1B1012911D12068D0F8001E41F013
:1006A0000101C0F8001ED4F8040403F08CF8206A9D
:1006B000002803D0286840F00600286070BD206A3A
:1006C00028B102F03AF9286820F006002860206876
:1006D000D0F8001E21F00101C0F8001ED4F8040477
:1006E000BDE8704002F0FDBF10ED00E0006841621F
:1006F00000207047F0B50368586A39B19C6A4FF41E
:10070000827600EB144400204D1E0AE040EA0240CD
:1007100098620FE006EB8007DF59401C04EB17449A
:10072000C0B2A842F6D344EA02404FF4807202EB12
:10073000810158500020F0BDD0F8040402F022BF1F
:10074000C1EBC10200EB8202D0F80404926C02F00B
:1007500078BEC1EBC10200EB8202D0F80404D2F8EB
:10076000082202F0D1BED0F8040402F00DBF70B52B
:1007700004460B0601F00F00C0EBC00104EB810141
:100780004FF001024FF0000503D581F83D203C31C8
:1007900003E081F8FD5101F5FE71087094F8BC0387
:1007A000012808D084F8BC23206803F091FA84F86B
:1007B000BC53002070BD022070BD70B5044601F02E
:1007C0000F006268904201D9012070BD0B0601F054
:1007D0000F01C1EBC10104EB81014FF001024FF0A9
:1007E000000503D581F83D203C3103E081F8FD513F
:1007F00001F5FE718D70087094F8BC03012808D0D3
:1008000084F8BC23206803F0EAFB84F8BC53002082
:1008100070BD022070BD01F00F01C1EBC10100EB02
:100820008100B0F8140280B270472DE9F04104460F
:100830000F0601F00F00C0EBC00104EB81014FF087
:1008400001064FF0000503D581F83D603C3103E01F
:1008500081F8FD5101F5FE7108708A60CB704A780D
:1008600002B1C880022B00D10D7194F8BC0301289D
:1008700009D084F8BC63206803F08AF9284684F81C
:10088000BC53BDE8F0810220FBE770B50C4601F0D7
:100890000F05C5EBC50100EB8101C1F8082200225C
:1008A000C1E9843281F8FD2181F8FC51006801F52D
:1008B000FE71220703D003F0EBFB002070BD03F0B4
:1008C00001FBFAE770B504460D4601F00F006168C0
:1008D000884201D9012070BD29064FF000064FF073
:1008E000010207D5C0EBC00104EB810181F83D2076
:1008F0003C3107E0C5EBC50104EB810181F8FD61E6
:1009000001F5FE718A70087094F8BC03012807D0C5
:1009100084F8BC23206803F08EFB280702D006E091
:10092000022070BD04F57171206803F041FB84F86A
:10093000BC63002070BD70B50C4601F00F05C5EB1F
:10094000C50100EB81018A640022C1E91432012251
:1009500081F83D2001F83C5F0068220703D003F0D6
:1009600097FB002070BD03F0ADFAFAE72DE9F05FC8
:1009700004460068002681460546D0F840B003F0E2
:100980007FFC00286FD1206803F0A6FC00286AD005
:10099000206803F0A1FC800704D52068416901F0BC
:1009A00002014161206803F097FC00034FF0010A47
:1009B0004CD5206803F06FFC074645E0F80741D0AE
:1009C000F1B2206803F080FC8046C0071AD005EB26
:1009D0004610C0F808ABFE4A93450FD1D5F8081B66
:1009E000090404D54FF40041C0F8081B0AE0D5F80B
:1009F000081B890602D52021C0F8081BF1B2204649
:100A0000FFF7A7FE5FEA087014D5F1498B4509D1BD
:100A1000D5F8080B000405D505EB46114FF400404E
:100A2000C1F8080B204600F025FB05EB4611082015
:100A3000C1F8080B5FEAC86004D505EB4611102029
:100A4000C1F8080B7F08761C002FB7D1206803F08F
:100A500043FC40034FF0400B4AD5206803F014FCE0
:100A60000746002642E00BE2F8073DD0F1B22068CD
:100A700003F018FC8046C00710D006F00F020AFAF7
:100A800002F0D5F834288243C5F8342805EB461027
:100A9000C0F808A9F1B22046FFF752FE5FEA0870DD
:100AA00004D505EB46110820C1F808095FEAC860C3
:100AB00004D505EB46111020C1F808095FEA48602B
:100AC00003D505EB4611C1F808B95FEA887004D573
:100AD00005EB46110220C1F808095FEA086003D55A
:100AE0003146204601F0C4FC7F08761C002FBBD1A4
:100AF000206803F0F1FB002811DAD5F8040820F093
:100B00000100C5F8040894F8F40301283DD02046FC
:100B100000F07EFA2068416901F0004141612068DF
:100B200003F0DAFB00050BD5D5F80808C00702D0A2
:100B3000204600F0BBFA2068416901F40061416180
:100B4000206803F0C9FB00010AD52068416901F063
:100B50000061416194F8F403F8B1204600F0A6FA70
:100B6000206803F0B9FBC10404F5717868D5D5F8A5
:100B7000040820F00100C5F804081021206803F0E3
:100B80006DFB00214FF67F3227E0002084F8F4034C
:100B900001462046FFF77AFDBCE784F8F4A32068FD
:100BA000406D0121C0F38300C4F8F8032046FFF72D
:100BB0006DFDD5E705EB4110C0F80829D0F80039E4
:100BC00023F40013C0F80039C0F8082BD0F8003B1C
:100BD00023F40013C0F8003B491C60688842E9D840
:100BE000D5F81C0840F00110C5F81C08206B60B156
:100BF000D5F8840840F00B00C5F88408D5F84408FF
:100C000040F00B00C5F844080BE0D5F8140840F09C
:100C10000B00C5F81408D5F8100840F00B00C5F813
:100C20001008D5F8000820F4FE60C5F80008414619
:100C3000206803F0BDF92068416901F480514161E9
:100C4000206803F049FB800472D5206802F0E0FFC1
:100C50002068C16821F47051C1600320C4F814B049
:100C6000E06000F0E3FC5B495B4A0144914204D23E
:100C70002068C16841F4705151E05849584A014414
:100C8000914204D22068C16841F4605147E055495F
:100C9000554A0144914204D22068C16841F4505140
:100CA0003DE05249524A0144914204D22068C16851
:100CB00041F4405133E04F494F4A0144914204D23C
:100CC0002068C16841F4305129E04C494C4A014444
:100CD000914204D22068C16841F420511FE0494983
:100CE000494A0144914204D22068C16841F410513C
:100CF00015E04649464A0144914204D22068C16841
:100D000041F400510BE043490844434988422068BC
:100D1000C16802D241F4E05101E041F4C051C16028
:100D2000204600F067F92068416901F400514161F3
:100D3000206803F0D1FAC00635D52068816921F01A
:100D400010018161D9F8207007F00F00C0EBC000DE
:100D500004EB8005C7F3434005F5FE75022802D079
:100D6000062811D01AE047F6F070074216D0C7F3F4
:100D70000A1217464846E96803F0B2FAE8683844B0
:100D8000E860A869384408E008224146484603F074
:100D9000A7FAA869C7F30A110844A8612068816905
:100DA00041F010018161206803F096FA000707D531
:100DB000204600F047F92068416901F008014161CF
:100DC000206803F089FAC0022FD5F1B2204625E051
:100DD0000A31544F405327FF00350C00401E1BFFC3
:100DE00040420F0000DC0BFF804F1200808CF9FEA8
:100DF00020D6130060B6E5FE60E3160000D3CEFEF9
:100E000040771B00C05BB3FEC091210000CA91FE79
:100E100020753800E05459FEE09C410000F035F8A0
:100E20002068416901F480114161206803F054FA9F
:100E3000800208D5F1B2204600F02BF82068416905
:100E400001F400114161206803F046FA400007D523
:100E50002046FFF771FC2068416901F08041416143
:100E6000206803F039FA40070AD52068456868070A
:100E700002D52046FFF777FC20684168294341608E
:100E800000F000B830BCBDE8C09FD0F8040402F008
:100E9000D9BBD0F8040402F0D7BBF0B58BB0040086
:100EA00004D094F8BD03002518B107E001200BB071
:100EB000F0BD84F8BC53204600F05CF8032084F8B1
:100EC000BD03206802F0F8FF04F1100128220F464C
:100ED0006846FFF775F994E80F0002F0B3FE0021B1
:100EE000206803F00BFA00200126C0EBC00104EBE0
:100EF000810181F83D6001F83C0FC880CD708D60A4
:100F0000401CCD60C0B24D610F28EED30020C0EB75
:100F1000C00104EB810181F8FD5181F8FC0181F8E9
:100F2000FF51C1F80452401CC1F80852C0B2C1F8C8
:100F300010520F28EBD3282239466846FFF740F9B4
:100F400094E80F0002F01CFF84F8385084F8BD6369
:100F5000606A012802D12046FFF784FBA06A0128BD
:100F600002D12046FFF774FB206802F0FDFE00204E
:100F70009DE7000010B5006886B0B0F1A04F34D1F5
:100F80004FF4C050009002200190002002900320F6
:100F900003900A20049069464FF09040FFF7BAF999
:100FA000134CE06C40F48050E064E06C00F480503E
:100FB0000590A06DC0000ED4A06D40F08050A065DB
:100FC000A06D00F08050059000F0BCF8A06D20F0FE
:100FD0008050A06501E000F0B5F8002211464320E2
:100FE000FFF704FB4320FFF7F5FA06B010BD000041
:100FF0000010024010B504460121D0F8040402F0AC
:1010000082FBD4F80404BDE8104002F042BB0000AB
:1010100010B504460068D0F8001E21F00101C0F8A8
:10102000001E206A30B10648016821F00601016007
:1010300001F083FCD4F80404BDE8104002F051BB79
:1010400010ED00E0D0F8040402F051BB10B50446E6
:1010500090F8BC0301280BD0012084F8BC0384F86D
:101060003810206803F061F9002084F8BC0310BD3B
:10107000022010BDD0F8042400F57171104602F072
:1010800055BB10B5044690F8BC0301280CD00120D4
:1010900084F8BC03206802F05BFE206803F0C8F807
:1010A000002084F8BC0310BD022010BD10B504461A
:1010B0000068D0F8001E41F00101C0F8001ED4F80D
:1010C000040402F080FB206A002804D00248016872
:1010D00041F00601016010BD10ED00E01649B0F5C9
:1010E000007F0868C0F3412009D0022805D00868B5
:1010F00020F4C06040F48060086000207047012840
:10110000FBD0086820F4C06040F4007008600B4811
:101110003222006850430A4AB0FBF2F0401C00E063
:10112000401E4A69520501D50028F9D14869400599
:10113000E3D50320704700000070004064000020E9
:1011400040420F000248416841F4806141607047AD
:10115000007000400248006800F4C0607047000062
:10116000007000402DE9F84F044600270088E54D47
:101170003E46010504F1200B1DD5606E78B1B0F537
:10118000800F11D0B0F5000F04D0B0F5400F22D081
:1011900001270FE0E86840F48030E8601BE00021A0
:1011A000201D01F0B1F903E00021584601F042FA98
:1011B000070010D03E462088C00426D5A06EC0B1DE
:1011C000B0F1807F1AD0B0F1007F0DD0B0F1407F38
:1011D00019D0012718E0D5F88800616E20F440008E
:1011E0000843C5F88800E6E7E86840F48030E86026
:1011F00009E00021201D01F087F903E00021584695
:1012000001F018FA0746F7B13E46206880033AD548
:10121000A86D4FF00008C00009D4A86D40F08050C0
:10122000A865A86D4FF0010800F080500090DFF82D
:10123000D8A2DAF8001041F48071CAF80010FFF764
:1012400053F9814610E0D5F88800A16E20F0407077
:101250000843C5F88800D8E7FFF746F9A0EB090076
:10126000022801D9032705E0DAF80000C005F3D50C
:10127000002F7CD04FEA0706B8F1000F03D0A86D0D
:1012800020F08050A8652078C00707D0D5F88800E6
:10129000A16B20F003000843C5F888002078800780
:1012A00007D5D5F88800E16B20F00C000843C5F89D
:1012B00088002078400707D5D5F88800216C20F0F9
:1012C00030000843C5F888002078000707D5D5F816
:1012D0008800616C20F0C0000843C5F888002078C1
:1012E000C00607D5D5F88800A16C20F440700843EB
:1012F000C5F888002078800607D5D5F88800E16C0D
:1013000020F440600843C5F888002088800507D590
:10131000D5F88800E16D20F440200843C5F8880026
:101320002088400507D5D5F88800216E20F44010AC
:101330000843C5F888002078400607D5D5F888000E
:10134000216D20F440500843C5F88800207800063D
:1013500007D5D5F88800616D20F440400843C5F8F2
:1013600088002088C00509D5D5F8880000E01CE079
:10137000A16D20F440300843C5F8880020884FF064
:10138000006780044FF080684FD5D5F88800E16E83
:1013900020F040600843C5F88800E06EB8423CD1B8
:1013A000E86840F48010E8603FE0D5F8900010F461
:1013B000407015D0D4F88410814211D0D5F8900037
:1013C000D5F8901020F4407041F48031C5F89010A9
:1013D000D5F8901021F48031C5F89010C5F8900030
:1013E000C00710D0FFF780F8074641F2883906E0C1
:1013F000FFF77AF8C11B494501D903263CE7D5F828
:1014000090008007F4D5D5F89000D4F8841020F42B
:1014100040700843C5F890002EE7404505D10121F2
:10142000201D01F071F800B106462068000317D5B1
:10143000D5F88800216F20F040600843C5F8880087
:10144000206FB84204D1E86840F48010E86007E0FB
:10145000404505D10121201D01F056F800B1064696
:101460002068400317D5D5F88800616F20F04060F0
:101470000843C5F88800606FB84204D1E86840F4BA
:101480008010E86007E0404505D10121201D01F0F2
:101490003BF800B10646208840041AD5D5F88800EC
:1014A000A16F20F040500843C5F88800A06FB0F14C
:1014B000805F03D0B0F1005F05D00AE00221201D5B
:1014C00001F022F803E00221584601F0B3F800B120
:1014D00006462088000407D5D5F88800E16F20F083
:1014E00080400843C5F888002068C00307D555F838
:1014F000880FD4F8801020F0004008432860304660
:1015000000F004B8001002400070004018BCBDE8B4
:10151000E08F00002DE9F0470F46050058D03F4E00
:10152000306800F00700B84209D2306820F00700A8
:1015300038433060306800F00700B84248D128785E
:10154000374CC0072CD06868032811D0022812D06D
:10155000216898B1490500293ADAA16821F0030110
:101560000143A160FEF7C0FF804641F2883910E0D8
:1015700021688901EFE721688903ECE78907EAE739
:10158000FEF7B2FFA0EB0801494502D90320BDE8F0
:10159000F087A068696800F00C00B0EB810FEFD114
:1015A0002878800705D5A068A96820F0F0000843D6
:1015B000A060306800F00700B8420BD9306820F016
:1015C000070038433060306800F00700B84201D0AF
:1015D0000120DCE72878400705D5A068E96820F4F9
:1015E000E0600843A0602878000706D5A068296954
:1015F00020F4605040EAC100A06000F01DF8A1682E
:10160000084AC1F30311515C01F01F01C8400649AB
:101610000860BDE8F0470020FEF784BF00200240CC
:1016200000100240E84800086400002001480068FB
:10163000704700006400002070B52549002318465B
:101640008A68CC6812F00C0204F00306214C4FEAC1
:10165000640509D00C2A05D0042A26D0082A00D116
:10166000284670BD012E10D10B681B0704D4D1F899
:101670009430C3F3032302E00B68C3F30313164E45
:1016800056F823307AB10C2AEBD1C86800F0030277
:10169000C868C0F30210401C022A08D0032A09D0EF
:1016A000B3FBF0F008E0184670BD204670BDB4FBF7
:1016B000F0F001E0B5FBF0F0CA68C968C2F3062299
:1016C0005043C1F34161491C4900B0FBF1F070BDCA
:1016D000001002400024F400F84800082DE9F84307
:1016E00005007CD0FD4CA06800F00C06E06800F01E
:1016F00003072878C00661D576B10C2E01D1012FE1
:101700000AD0A8690028206878D040F00100206045
:10171000FEF7EAFE804659E02068800702D5A869F6
:101720000028DED0286A2168090703D5216801F066
:10173000F00104E0D4F89410F02202EA111188427A
:1017400015D900F0FBFF002849D1206840F00800BF
:1017500020602068296A20F0F0000843206060685B
:10176000E96920F47F4040EA0120606015E02068CC
:1017700040F0080020602068296A20F0F00008434B
:1017800020606068E96920F47F4040EA01206060E1
:10179000286A00F0D3FF0028D6D1FFF74DFFA168DB
:1017A000CF4AC1F30311515C01F01F01C840CD497C
:1017B00008600020FEF7B6FE00287DD12FE000BFB4
:1017C000FEF792FEA0EB0800022876D8206880077A
:1017D000F6D5206840F008002060206801E0BBE0FA
:1017E0000CE0296A20F0F000084320606068E96995
:1017F00020F47F4040EA0120606010E020F001000A
:101800002060FEF771FE804606E000BFFEF76CFE2A
:10181000A0EB08000228D8D820688007F6D42878E2
:10182000C00740D0082E18D00C2E01D1032F14D0A1
:101830006868B0F5803F17D0B0F5A02F206817D0AA
:1018400020F480302060206820F4802020606868C8
:10185000E0B1FEF749FE804614E02068800322D5FF
:101860006868002878D01EE0206840F48030EDE7FA
:1018700040F480202060F7E7FEF736FEA0EB08007A
:101880006428A2D820688003F6D50CE0FEF72CFE71
:10189000804605E0FEF728FEA0EB0800642894D8F7
:1018A00020688003F6D4287880073BD5042E11D019
:1018B0000C2E04D1022F01E036E1A1E00AD0E86845
:1018C000002820681ED040F480702060FEF70CFED7
:1018D00007460CE0206840050CD5E8680028C1D018
:1018E00008E000BFFEF700FEC01B022893D8206866
:1018F0004005F7D56068297C20F0F85040EA016087
:1019000060600FE020F480702060FEF7EDFD074678
:1019100005E000BFFEF7E8FDC01B022870D8206874
:101920004005F7D42878000729D568690028D4F83D
:10193000940012D040F00100C4F89400FEF7D4FDEA
:10194000074604E0FEF7D0FDC01B022858D8D4F8A3
:1019500094008007F6D512E0EDE020F00100C4F815
:101960009400FEF7C1FD074605E000BFFEF7BCFD91
:10197000C01B022844D8D4F894008007F6D42878F5
:10198000400768D5A06D0027C00008D4A06D40F0C6
:101990008050A065A06D012700F080500090524853
:1019A0000168C90512D40168814641F48071016063
:1019B000FEF79AFD804605E0FEF796FDA0EB0800D5
:1019C00002281DD8D9F80000C005F5D5A86801285F
:1019D00017D00528D4F8900018D020F00100C4F8E2
:1019E0009000D4F8900020F0040000BFC4F89000EC
:1019F000A86841F28839D0B1FEF776FD804611E043
:101A00006BE0D4F8900040F00100EFE740F00400F4
:101A1000C4F89000F5E700BFFEF766FDA0EB0801F3
:101A200049455AD8D4F890008007F5D50EE0FEF766
:101A30005BFD804606E000BFFEF756FDA0EB080107
:101A4000494570D8D4F890008007F5D41FB1A06D37
:101A500020F08050A065A86AF0B30C2E6BD002284D
:101A6000206820F08070206004D0206810F0205F93
:101A700047D04AE0FEF738FD064604E0FEF734FDA5
:101A8000801B02284FD820688001F7D4286BE96AB0
:101A9000000110380843696BAA6B0902120941EA78
:101AA00042410843A98F114A490802EB41510843BA
:101AB00095F840104908120102EB41610843E060CB
:101AC000206840F080702060E06840F08070E06046
:101AD000FEF70AFD054610E02BE024E0001002406E
:101AE000E848000864000020007000400000E0FFAB
:101AF000FEF7FAFC401B022815D820688001F7D5B4
:101B000017E0E06820F00300E060E0680B4908405F
:101B1000E060FEF7E9FC054608E000BFFEF7E4FCE4
:101B2000401B022802D90320BDE8F8832068800109
:101B3000F4D40020F8E70120F6E70000FFFFEEFEF6
:101B40002DE9F041040005D00025A56294F85D0060
:101B500018B107E00120BDE8F08184F85C50204610
:101B600000F044F8022384F85D302068016821F019
:101B700040010160E0684FF4E066B04201D9002105
:101B800001E04FF48051B0F5706F02D0B04200D048
:101B9000A562276B012227B9B04201D9236300E077
:101BA0002263D4E901031843D4E9043633431843CC
:101BB000238B03F400731843E3691843236A184323
:101BC000A36A184323681860636B606AA6691843A8
:101BD0000427E36807EA164633431843084321689D
:101BE0004860256684F85D200020B4E700B50068F1
:101BF0000E4987B0884217D10D48016E41F48051DB
:101C00000166006E694600F4805005904FF4604014
:101C100000900220019000200290032003900520F4
:101C200004900448FEF776FB07B000BD0030014089
:101C300000100240001000482DE9F84F044690F8CB
:101C40005C0000271D461646894601280DD04FF03E
:101C5000010B84F85CB0FEF747FC804694F85D0009
:101C6000BA46012804D002279FE0022000F0A3B862
:101C7000B9F1000F6FD0002E6DD0032084F85D0005
:101C8000C4F860A0C4F83890A687E687C4F840A0DE
:101C9000A4F844A0A4F846A0C4F850A0C4F84CA0EE
:101CA000A068B0F5004F04D12068016841F480417C
:101CB000016020680168490603D4016841F04001D1
:101CC0000160E068B0F5E06F606823D908B1012ECB
:101CD0001CD1A06B21680088C86006E0206881687C
:101CE000890709D5A16B0988C160A06B801CA0631E
:101CF000E08F401EE08709E0FEF7F6FBA0EB08004E
:101D0000A84202D3681C01D046E0ADB3E08F0028A2
:101D1000E4D136E008B1012E30D1E08F0128A06B6C
:101D200003D921680088C8600FE021680078087333
:101D300014E0E08722E020688168890714D5E18FEC
:101D40000129A16B08D90988C160A06B801CA06320
:101D5000E08F801EEDE727E009780173A06B401C3F
:101D6000A063E08F401EE4E7FEF7BEFBA0EB080097
:101D7000A84202D3681C01D00EE06DB1E08F0028AC
:101D8000D9D142462946204600F016FD08B1202050
:101D90002066A06810B105E0032706E02068C1684E
:101DA00080680090206E00B1012784F85DB084F84F
:101DB0005CA038465AE718BCBDE8E08F4FF0E02140
:101DC0000428086903D020F004000861704740F03F
:101DD0000400FAE7704710B5401EB0F1807F01D3D0
:101DE000012010BD4FF0E02460610F21601700F06A
:101DF00029FB0020A06107202061002010BD10B544
:101E0000FFF7E8FF10BD70477047704770B590F856
:101E10003C20012A24D0012480F83C40022280F892
:101E20003D200268536895680E4EB24202D00E4EB5
:101E3000B24203D123F470064B68334323F070069B
:101E40000B688968334325F0800529435360026895
:101E5000916080F83D40002180F83C10084670BD3C
:101E6000022070BD002C0140003401400168CA68A6
:101E700042F00102CA600068826807490A40062AE7
:101E800008D082680A40B2F5803F03D0016841F073
:101E9000010101600020704707000100704770B524
:101EA0000446006801694FF00005C943890715D44D
:101EB000C168C943890711D4E91E01610120207757
:101EC000206880698007204602D0FFF7E7FF04E022
:101ED00000F003F9204600F07DF9257720680169BC
:101EE000C943490717D4C168C943490713D46FF0E0
:101EF00004010161022020772068806910F4407F8E
:101F0000204602D0FFF7CAFF04E000F0E6F82046C2
:101F100000F060F9257720680169C943090716D4E4
:101F2000C168C943090712D46FF008010161042098
:101F300020772068C0698007204602D0FFF7AEFFF7
:101F400004E000F0CAF8204600F044F92577206844
:101F50000169C943C90617D4C168C943C90613D466
:101F60006FF010010161082020772068C06910F42B
:101F7000407F204602D0FFF791FF04E000F0ADF86B
:101F8000204600F027F9257720680169C943C90771
:101F900008D1C168C943C90704D1891E016120461F
:101FA00000F01AF920680169C943090609D4C1681B
:101FB000C943090605D46FF0800101612046FFF78F
:101FC00023FF20680169C943C90509D4C168C94311
:101FD000090605D46FF4807101612046FFF713FFF5
:101FE00020680169C943490609D4C168C943490643
:101FF00005D46FF040010161204600F0F9F8206837
:102000000169C94389060BD4C168C943890607D44D
:102010006FF0200101612046BDE87040FFF7F5BE7A
:1020200070BD000010B503680021022286B04FF099
:102030009040B3F1804F0DD00A4CA34208D1042345
:102040000093CDE90121CDE903126946FEF762F95B
:1020500006B010BD0092CDE9012103910121049148
:10206000F3E70000000C004070B5044690F83C0017
:1020700001280ED0012584F83C50022084F83D0050
:102080000C2A19D007DC5AB1042A0DD0082A1ED117
:102090000EE0022070BD102A12D0142A17D113E0CE
:1020A000206800F033FD12E0206800F07DFD0EE0B6
:1020B000206800F0C1FD0AE0206800F005FE06E09F
:1020C000206800F03BFE02E0206800F06FFE84F81C
:1020D0003D50002084F83C0070BD704710B50400EE
:1020E00003D094F83D0010B107E0012010BD00209E
:1020F00084F83C00204600F00DF8022084F83D00F2
:10210000211D206800F094FC012084F83D0000208F
:1021100010BD000008B501681048B1F1804F14D01F
:102120000F4A914219D1816D41F008018165806D9E
:10213000002200F00800009001213220FEF756FA3C
:10214000BDE808403220FEF745BA816D41F001013B
:102150008165806D00F00100009008BD0010024014
:10216000000C004010B504460068012200F0C0FCDD
:102170001248216881420BD01148814208D0114891
:10218000814205D01048814202D01048814203D1DB
:10219000486C40F400404864206882680C490A405A
:1021A000062A08D082680A40B2F5803F03D0016851
:1021B00041F001010160002010BD0000002C014031
:1021C000003401400040014000440140004801400B
:1021D000070001007047000004480178491CC9B29B
:1021E0000170082901D10021017070470000002012
:1021F0007047FEE72DE9F04F3A4887B0C16C41F0D7
:102200000101C164C16C01F001010591C16C41F093
:102210000201C164C16C01F002010591C16C41F081
:102220001001C164C16C01F010010591C16C41F055
:102230000801C164C06C4FF0904800F008000590A0
:10224000012229214046FEF74AF9DFF89C9001223D
:10225000C4214846FEF743F90122DFF890A0160298
:1022600031465046FEF73BF93701002239465046C9
:10227000FEF735F9DFF878B0012211465846FEF72F
:102280002EF92920009011250024CDE9015469463A
:1022900040460394FEF73EF8C4200090CDE9015477
:1022A000694648460394FEF735F80096CDE9015497
:1022B000694650460394FEF72DF801260097CDE9B4
:1022C0000164694650460394FEF724F80096CDE970
:1022D0000154694658460394FEF71CF807B000F015
:1022E00009B8000000100240000400480010004837
:1022F000000C004830BCBDE8C08F0000104810B58D
:102300000E4901604FF48271416000214FF4E06298
:10231000C0E902124FF400720161C0E90512C16107
:10232000016207224162C0E90A1201630821416388
:10233000FFF706FC002800D0FEE710BD003001408A
:102340007C01002030B514488BB04FF08041002450
:10235000C0E900140125C0E9024504618461FFF76A
:10236000BDFE00B1FEE7079407A90B480994FFF7EB
:102370004DFD00B1FEE730200090CDE9015404226C
:10238000694605480494FFF76FFE00B1FEE7024876
:10239000FFF748FE0BB030BDE001002030B5164815
:1023A0008BB014490024C0E9001443F6FF75C0E95E
:1023B000024504618461FFF791FE00B1FEE7202031
:1023C000079007A909940C48FFF720FD00B1FEE72C
:1023D00070200090CDE90154082269460648049413
:1023E000FFF742FE00B1FEE70348FFF71BFE0BB00C
:1023F00030BD0000000C00402002002010B500227B
:102400000B490C4800F0DFFF0B490A4801F008FABD
:102410000A49084800F0E8FD064800F0E9FF0028F6
:1024200004D0BDE81040034801F050BA10BD0000D0
:102430000C00002000050020440100205000002076
:10244000FEE770470907090E002806DA00F00F00C2
:1024500000F1E02080F8141D704700F1E02080F8C2
:10246000001470470148FEF781BA0000BC09002043
:102470002DE9F0470E46C1EBC60100EB810405686B
:10248000D4E914103C34884202D90120BDE8F08719
:10249000081AA168814200D20846C01C870805EBD3
:1024A000461817E0A0EB0109A068484500D2814614
:1024B00009F1030087081FFA89F3F2B22846E168A0
:1024C00001F044FFE16801EB0900E060A16901EB64
:1024D0000900A061D8F8180980B2B84205D9D4E93A
:1024E0000501814201D20028DCD1D4E905018842EE
:1024F00006D80120D5F83418B0408143C5F8341807
:102500000020C3E7704700002DE9F041444C054628
:102510008846E0680026810728680DD0E16801F050
:102520000301814216D1A8B1E0686968C0F30210C6
:10253000401C88420ED120E0012804D0022805D09A
:10254000032807D108E02168890701E021684905CF
:10255000002907DB01265FE02168890302D4216896
:102560004903F5E7E1686A686FF00F0321F0730132
:1025700003EB021211430143E160206820F0806008
:102580002060FDF7B1FF074605E000BFFDF7ACFF97
:10259000C01B022837D820680001F7D4B8F1000F1B
:1025A00018D0B8F1010F1ED0287D4FF07E414008B1
:1025B00001EB4060A96840EA01202169194A1140F5
:1025C00008432061206840F080602060FDF78CFFA8
:1025D00007461AE0A868E9680002090940EA414094
:1025E0002169114AEBE7288A1049400801EB405065
:1025F000A96840EA012021690D4AE0E7FDF774FF70
:10260000C01B022801D9032606E020680001F5D589
:102610002069A969084320613046BDE8F0810000C7
:1026200000100240FF80FFF9FF80FDFF0000E0FF87
:10263000FF809FFF2DE9F0413D4C06468846E0684B
:102640000025810730680DD0E16801F00301814267
:1026500016D1A8B1E0687168C0F30210401C88422E
:102660000ED120E0012804D0022805D0032807D18C
:1026700008E02168890701E021684905002907DB96
:10268000012551E02168890302D421684903F5E757
:10269000E16872686FF00F0321F0730103EB02121F
:1026A00011430143E160206820F080502060FDF775
:1026B0001BFF074605E000BFFDF716FFC01B022801
:1026C00029D820688000F7D4B8F1000F15D0307CED
:1026D0004FF07E41400801EB4060B16840EA0120C4
:1026E0006169144A114008436061206840F08050DD
:1026F0002060FDF7F9FE07460FE0B068F1680002C0
:10270000090940EA414061690B4AEBE7FDF7ECFE3D
:10271000C01B022801D9032506E020688000F5D5FA
:1027200060697169084360612846BDE8F081000076
:1027300000100240FF80FFF9FF80FDFFF8B51C4D3F
:1027400006460024A86DC00002D5FEF703FD0DE08B
:10275000A86D40F08050A865A86D00F080500090F2
:10276000FEF7F8FCA96D21F08051A965B0F5007F56
:1027700004D0802E07D94FF003040AE0802E08D938
:10278000A02E01D804E001D1022402E0702E00D175
:1027900001240848016821F0070121430160006815
:1027A00000F00700A04201D00120F8BD0020F8BDD4
:1027B0000010024000200240F8B515460E460B46B8
:1027C0000092044600224FF4C05100F019F888B975
:1027D0003346002280212046009500F05CF848B97D
:1027E000334600224FF4C0612046009500F008F8FF
:1027F000002804D0206E40F0200020660320F8BDA1
:102800002DE9F0471D4617460E4604464FF4C068B2
:10281000DDF820900CE0464501D107B9007B681C2B
:1028200006D0FDF761FEA0EB0900A84208D23DB139
:10283000206881683140B942EDD10020BDE8F087C1
:102840002068416821F0E00141606068B0F5827F56
:102850000BD1A068B0F5004F02D0B0F5806F04D165
:102860002068016821F040010160A06AB0F5005FB6
:1028700009D12068016821F40051016020680168D5
:1028800041F400510160012084F85D00002084F8CB
:102890005C000320D2E72DE9F0411D4617460E46A5
:1028A0000446DDF8188008E0681C06D0FDF71CFE21
:1028B000A0EB0800A8420BD255B12068806836EA28
:1028C000000030D00020B842EED10020BDE8F081F9
:1028D0002068416821F0E00141606068B0F5827FC6
:1028E0000BD1A068B0F5004F02D0B0F5806F04D1D5
:1028F0002068016821F040010160A06AB0F5005F26
:1029000009D12068016821F4005101602068016844
:1029100041F400510160012084F85D00002084F83A
:102920005C000320D2E70120CDE7704710B5FDF72A
:10293000E1FDBDE81040FFF762BAF0B5B9B001247F
:102940000026CDE92846102022900225CDE92C54FE
:1029500060212A910727CDE92E40CDE930753295C7
:1029600022A8FEF7BBFE00B1FEE70F203390032044
:10297000CDE93406400236903790012133A8FEF7A6
:10298000C9FD00B1FEE74FF40050009040031B90DA
:102990001820CDE9024001944FF48010CDE9065093
:1029A000CDE904756846FEF7DDFB00B1FEE74FF4A4
:1029B0000070FEF793FB00B1FEE7FEF737FE4FF421
:1029C000FA51B0FBF1F0FFF706FA0020FFF7F6F935
:1029D00000221146501EFDF709FE39B0F0BD00007F
:1029E0000D48016841F4700101600C48016841F034
:1029F00001010160002181600268094B1A400260F8
:102A00008214C260026822F480220260816102495D
:102A1000C00380390860704788ED00E00010024074
:102A2000FFFFF6EA0148FFF73ABA00002002002053
:102A30002DE9F0470268264B264D274E274F284C9C
:102A40004FF0804A984209D0504507D0A84205D09F
:102A5000B04203D0B84201D0A04204D122F0700CA1
:102A60004A6842EA0C02DFF87CC0DFF87C80DFF8BD
:102A70007C9098420FD050450DD0A8420BD0B04268
:102A800009D0B84207D0A04205D0604503D04045E8
:102A900001D0484503D122F44075CA682A434D69E4
:102AA00022F080022A4302608A68C2620A68826257
:102AB000984207D0A04205D0604503D0404501D0E0
:102AC000484501D10969016301214161BDE8F087F1
:102AD000002C01400004004000080040000C0040B1
:102AE00000340140004001400044014000480140E2
:102AF00010B501F01F030121046A99408C43046260
:102B0000016A9A401143016210BD00002DE9F043B3
:102B1000026A22F001020262056A436882691C4C63
:102B200025F0020522400C6822F0030214438A6853
:102B3000194E2A43174D194FDFF864C0DFF864902F
:102B4000A84207D0B04205D0B84203D0604501D0BA
:102B5000484506D122F00808CA6842EA080222F075
:102B60000402A84207D0B04205D0B84203D0604565
:102B700001D0484505D14D6923F440731D438B694D
:102B80002B4343608461496841630262BDE8F0837E
:102B90008FFFFEFF002C0140003401400040014047
:102BA0000044014000480140F0B5026A22F01002E2
:102BB0000262056A42688369194C1B4E23400C6807
:102BC00023F4407343EA042425F020038D6843EA8C
:102BD0000513144DA84201D0B04206D1CF6823F0AE
:102BE000800343EA071323F04003A8420AD0B0420F
:102BF00008D00E4DA84205D00D4DA84202D00D4D73
:102C0000A84207D14D6922F4406242EA85028D69EB
:102C100042EA850242608461496881630362F0BDD3
:102C2000FF8FFFFE002C01400034014000400140B6
:102C30000044014000480140F0B5026A22F480726D
:102C40000262056A4368C269194C1B4E22400C6837
:102C500022F00302144325F400728D6842EA052233
:102C6000144DA84201D0B04206D1CF6822F40062D0
:102C700042EA072222F48062A8420AD0B04208D079
:102C80000E4DA84205D00E4DA84202D00D4DA842CF
:102C900007D14D6923F4405343EA05138D6943EA94
:102CA00005134360C4614968C1630262F0BD00005E
:102CB0008FFFFEFF002C0140003401400040014026
:102CC000004401400048014030B5026A22F48052BD
:102CD0000262046A4268C369124D24F400542B4016
:102CE0000D6823F4407343EA05238D6844EA0534F4
:102CF0000D4DA8420BD00D4DA84208D00C4DA84256
:102D000005D00C4DA84202D00B4DA84204D14D690C
:102D100022F4804242EA85124260C361496801643C
:102D2000046230BDFF8FFFFE002C014000340140E3
:102D300000400140004401400048014030B5026AB3
:102D400022F480320262046A4268436D114D2B40C6
:102D50000D681D4324F400330C8943EA04430E4CF0
:102D6000A0420BD00D4CA04208D00D4CA04205D083
:102D70000C4CA04202D00C4CA04204D14C6922F46D
:102D8000803242EA042242604565496881650362F7
:102D900030BD00008FFFFEFF002C014000340140D9
:102DA00000400140004401400048014030B5026A43
:102DB00022F480120262046A4268436D114D24F4C9
:102DC00000142B400D6843EA05230D8944EA05549D
:102DD0000D4DA8420BD00D4DA84208D00C4DA84275
:102DE00005D00C4DA84202D00B4DA84204D14D692C
:102DF00022F4802242EA8522426043654968C16527
:102E0000046230BDFF8FFFFE002C01400034014002
:102E10000040014000440140004801402DE9F041DC
:102E2000D0F89832D0F89022DAB101EB810400EBAF
:102E300084040025E6694EB1C1EBC10703EB8703AB
:102E40005B6CB6FBF3F703FB176323B1C2F81452B4
:102E50000020BDE8F08100231A46E56100F0BCFCCB
:102E6000F6E70220F5E770B50546D0F8904200F08D
:102E700096FBC4F80C02D5F8900248B1D5F894122C
:102E8000D4F80402CA6804F503719047002070BDAD
:102E9000022070BD70B504460026812100F0C1FA01
:102EA000002501212046E56200F0BBFA8221204680
:102EB000C4F8585100F0B5FA2564D4F8900248B12E
:102EC000D4F8940204F5247440688047206800F028
:102ED0005AFE2560304670BD10B5D0E9A44159B105
:102EE00094F80002FF2807D08B6894F8012221464D
:102EF0009847FF2084F80002002010BD0A210180BD
:102F0000004870476C000020432101800048704752
:102F1000BC00002043210180004870477800002059
:102F20004321018000487047000100202DE9F04155
:102F300004460026007C4FF40077012590B340231F
:102F400002228121204600F081FB4023E56202221B
:102F50000121204600F07AFB08230322822120462B
:102F6000C4F8585100F072FB4FF40770256400F06C
:102F70000BFEC4F89002F8B10546D4F8940200683C
:102F800080470020C5F81402C5F81802207CD5F847
:102F9000042298B140230121204600F06AFB30460C
:102FA000BDE8F081FFE73B4602228121204600F088
:102FB0004DFB3B46E562CAE70126F0E73B46EAE700
:102FC00010B5D0F8901269B1027C002AD1F8042221
:102FD00005D04023012100F04CFB002010BD4FF430
:102FE0000073F7E7022010BD02460220002902D03C
:102FF0000020C2F894127047D0F89002C0F8041272
:1030000000207047D0F89002C0F81022C0F80812D3
:10301000002070472DE9FC410546D0F89072002051
:103020008DF80000ADF80400064608780C4610F054
:10303000600121D020293BD1E288AAB10006607846
:1030400007D5D5F894128B6839469847E2883946F7
:1030500026E087F80002A07987F80102E288394665
:10306000284600F06AF828E0D5F89412607800222B
:103070008B682146984720E0607820B10A2809D063
:103080000B2815D110E095F87402032810D1022204
:1030900001A905E095F87402032809D101226946C7
:1030A000284600F064F808E095F87402032804D07C
:1030B0002146284600F036F802263046BDE8FC815D
:1030C00010B5D0F89012A1B1D1F814220AB10120A4
:1030D00010BD0122C1F81422D1F810220263B1F808
:1030E000102293B2D1F80822812100F075FB002054
:1030F00010BD022010BD10B5D0F88C225268904748
:10310000002010BD134610B50A46002100F0B1FAA8
:10311000002010BD134610B50A46002100F05CFBEC
:10312000002010BD10B50446802100F02CFB204685
:10313000BDE81040002100F026BB10B50323C0F805
:103140004821C0F86C32C0F84C2113460A460021D1
:1031500000F08FFA002010BD10B505210023C0F843
:103160006C121A46194600F084FA002010BD10B502
:103170000223C261C0F86C32026213460A46002183
:1031800000F02AFB002010BD10B504210023C0F878
:103190006C121A46194600F01FFB002010BD0000FB
:1031A00010B50A46024903A000F0E9F8004810BD36
:1031B000C40D002043444320436F6E6669670000DE
:1031C00012200880004870473000002010B50A46E1
:1031D000024903A000F0D3F8004810BDC40D002040
:1031E00043444320496E7465726661636500000064
:1031F00004200880004870472C00002010B50A46C3
:10320000024903A000F0BBF8004810BDC40D002027
:1032100053544D6963726F656C656374726F6E6948
:103220006373000010B50A46024903A000F0A7F836
:10323000004810BDC40D002053544D333220566950
:10324000727475616C20436F6D506F727400000072
:1032500010B50A46024903A000F091F8004810BDDD
:10326000C40D00203030303030303030303031411B
:10327000000000000C200880004870474400002037
:10328000F8B5044648880D46010A06294CD006DCEC
:1032900001290DD0022910D003294FD11BE00729A5
:1032A0004AD00F294AD1D4F88812207CCA6937E065
:1032B000D4F88812207C0A6832E0207C022600289C
:1032C000D4F88C0205D0C16A68468847014646702A
:1032D00041E0816AF8E7C0B206282FD2DFE800F0AB
:1032E00003080D12171CD4F88812207C4A6817E0D6
:1032F000D4F88812207C8A6812E0D4F88812207CE6
:10330000CA680DE0D4F88812207C0A6908E0D4F875
:103310008812207C4A6903E0D4F88812207C8A69EC
:1033200069469047014616E0207C38B9D4F88C02F3
:10333000416B68468847F5E7207C20B12946204646
:10334000FFF7F0FEF8BDD4F88C02016B68468847A1
:10335000014607204870BDF8000048B1EA8852B124
:10336000824200D90246ADF800202046FFF7FFFE5A
:10337000E8880028E6D12046FFF706FFF8BD70B5C3
:10338000002300281ED00446002502E06D1CEDB28B
:10339000641C2678002EF9D1022404EB4504148025
:1033A0001278CA545B1C0322CA5400245B1C06E03A
:1033B000CA545B1CDAB28C54521CD3B2401C027843
:1033C000002AF5D170BD10B580B1D0F88C3213B1A0
:1033D0000023C0F88C3209B1C0F88812012180F8AE
:1033E0007412027000F0E0F8002010BD022010BD41
:1033F000D0F89802806A012801D00220704700208E
:10340000704710B50024D0F89802FDF7D6F930B116
:10341000012801D0022801D0022400E00124204626
:1034200010BD10B50024D0F89802FDF7A0F930B116
:10343000012801D0022801D0022400E00124204606
:1034400010BD2DE9F0411746044651B1D4F88C0265
:1034500042691AB194F87402032851D00220BDE8E1
:10346000F081D4F86C32002504F11400022B03D053
:10347000042B3AD0C3B33CE0D0E903639E4207D9A2
:10348000F11AC1608AB239462046FFF743FE12E0C6
:103490008068B0FBF3F103FB110199B9984211D395
:1034A000D4F8701288420DD2002211462046FFF750
:1034B00031FEC4F8705200231A461946204600F027
:1034C000D8F816E0D4F88C02C16829B194F87402D7
:1034D000032801D1204688478021204600F053F977
:1034E0002046FFF739FE04E0FFE78021204600F088
:1034F0004AF994F87802012804D184F8785201E05E
:10350000204690470020AAE770B51546044649B109
:10351000D4F88C0282691AB194F8740203282DD071
:10352000022070BDD4F86C1204F5A070032902D0FB
:1035300005291ED024E0D0E903218A420BD9531A71
:10354000C3600846834200D303469AB22946204608
:10355000FFF7D8FD14E0D4F88C02016929B194F882
:103560007402032801D1204688472046FFF70CFE4D
:1035700006E00021204600F006F901E020469047D1
:10358000002070BD0020704710B5012180F8741232
:10359000D0F88C22017952689047002010BDD0F8F5
:1035A0009802FDF738B9000010B5017859BB1749EA
:1035B0000222C1F80404C0F898124FF0A04008603D
:1035C0000620CA6048600020C1E90502C86108629F
:1035D000486288620863C8620846FDF75EFC20B155
:1035E0004FF4B6710AA000F0C2FE80210748FDF733
:1035F0007DF8402200210548FDF77CF8802201215A
:103600000248FDF777F8002010BD0000BC0900203B
:103610002E2E2F5372632F757362645F636F6E6615
:103620002E6300000A0601F07F01D0F89802C1EB7A
:10363000C10100EB810002D590F83E00704790F880
:10364000FE017047002070470020704770B51D468E
:1036500013460024D0F898022A46FDF7E6F830B168
:10366000012801D0022801D0022400E001242046D4
:1036700070BD10B50024D0F89802FDF706F930B1FE
:10368000012801D0022801D0022400E001242046B4
:1036900010BD70B50022044640231146FFF7D6FF47
:1036A00040260125C4F8506133460022802120467F
:1036B000C4F84451FFF7CAFF6662A56184F87452EA
:1036C0000020C4F86C026060C4F87C02D4F8900258
:1036D00028B1D4F88C02002142682046904700208F
:1036E00070BD90F8751280F874120020704710B504
:1036F00090F87412032904D1D0F88C12C96901B171
:103700008847002010BD01740020704710B50024C8
:10371000D0F89802FDF79AFC30B1012801D00228B8
:1037200001D0022400E00124204610BD70B50446FB
:1037300000F52070054600F05FF80120C4F86C0227
:10374000B4F88602C4F8700294F8800210F01F01E9
:103750000AD001290DD0022910D000F080012046A6
:1037600000F011F8002070BD2946204600F0B3F8A3
:10377000F8E72946204600F0DFF9F3E7294620461E
:1037800000F032F9EEE710B50024D0F89802FDF70A
:1037900099F830B1012801D0022801D0022400E0BC
:1037A0000124204610BD10B50024D0F89802FDF782
:1037B00068FC30B1012801D0022801D0022400E0C9
:1037C0000124204610BD90F8741280F8751204216F
:1037D00080F874120020704710B50024D0F89802C9
:1037E000FDF7A9F830B1012801D0022801D0022448
:1037F00000E00124204610BD0A7802704A78427029
:103800008A78CB7802EB032242800A794B7902EB6B
:10381000032282808A79C97902EB0121C180704735
:103820000246002011B1C2F88C1270470220704786
:1038300010B5D0F88C2202241AB11268904700B952
:103840000024204610BD000070B50E461E4D89783C
:1038500004462970012931D894F8740202280BD04B
:1038600003280FD031462046FFF75CFC297820461C
:10387000BDE87040FFF73FBCD9B10320616084F818
:10388000740209E071B16068884212D0C1B220466A
:10389000FFF731FC297861602046FFF7C9FF022855
:1038A0000CD006E0022084F8740220466160FFF725
:1038B00022FC2046BDE87040FFF766BC314620463A
:1038C000BDE87040FFF72EBC6800002010B5FFF780
:1038D0006AFF002010BD2DE9F0410A78002612F0A1
:1038E000600208D0202A01D0402A70D1D0F88C2262
:1038F000926890476DE04B78002201250A2B66D232
:10390000DFE803F0405D6557650805652C29FFF782
:10391000B7FC5EE004468888D8B9C888C8B948882A
:10392000802816D200F07F0794F87402032810D084
:1039300084F8767239462046FFF7E8FE2046FFF706
:1039400023FC1FB1022084F8740242E084F8745210
:103950003FE020463BE0FFF777FF3AE0CB88012BC2
:1039600035D190F87432012B04D0022B02D0032BF6
:103970002DD104E08260012200F1080116E001224D
:10398000011D13E090F87422012A03D0022A01D00D
:10399000032A1CD1CA88022A19D1C560D0F87C122A
:1039A00009B10321C160022200F10C01FFF7DFFB26
:1039B0000FE0498801290CD1C0F87C5211E090F841
:1039C0007432012B08D0022B06D0032B04D0FFF752
:1039D000A9FB3046BDE8F08149880129F9D1C0F83A
:1039E0007C22FFF7D1FBF4E72DE9F0410A460446BB
:1039F00010780027097910F060030AD0202B01D03D
:103A0000402B50D1D4F88C02114683682046984749
:103A10008FE0C0F34110012806D05078D0B30128C0
:103A20002AD003283FD107E0D4F88C0211468368DE
:103A30002046BDE8F041184794F87402022802D0ED
:103A4000032872D10AE071B380296ED02046FFF7B7
:103A50009AFE80212046FFF796FE6AE0508838B92A
:103A600031B1802904D0D08810B92046FFF78BFEF1
:103A70002046FFF789FB5CE094F874020228E2D04C
:103A8000032852D1508898BB4806F1D02046FFF752
:103A9000B8FCEDE7FFE794F874020026022803D093
:103AA000032842D112E040E009B180293DD1080647
:103AB00001F07F0000EB800004EB800101D51431A0
:103AC00001E001F5A07102220E602AE0080601F073
:103AD0000F0000EB800004EB80000AD5806920B362
:103AE00001F07F0000EB800004EB800514350BE053
:103AF0001FE0D0F84401C0B101F07F0000EB80006E
:103B000004EB800505F5A07541B1802906D020465B
:103B1000FFF788FD10B10120286000E02E6002222E
:103B200029462046FFF723FB03E011462046FFF716
:103B3000F9FA3846BDE8F08170B5054608780C46BC
:103B400010F0600003D0202801D0402816D195F84D
:103B50007402012803D0022801D003280ED1207955
:103B600001280BD8D5F88C02826828469047E18856
:103B7000014306D12846FFF707FB02E02846FFF77E
:103B8000D1FA002070BD7047004870479C070020A4
:103B900070B50A78012302F00F054E78AB401B4C3C
:103BA000D0F81C58012E17D045EA0343C0F81C3842
:103BB00000EB4210D0F8002B12040BD4D0F8002BED
:103BC0000B89C978C3F30A031A4344EA81410A43C3
:103BD000C0F8002B002070BD9BB21D43C0F81C58DC
:103BE00000EB4210D0F800391B04F3D4D0F80039B0
:103BF0000D89C978C5F30A0589042B4341EA82512E
:103C00000B432343C0F80039E4E7000000800010B4
:103C1000D0F800196FF30A01C0F80019D0F808189D
:103C2000C1F34101022905D1D0F8001941F0030187
:103C3000C0F80019D0F8041841F48071C0F80418D5
:103C40000020704710B5044604990B9801290BD049
:103C5000E06840F04000E060204600F01DF84FF4BE
:103C60008030A063002010BDA16B21F48031A163DE
:103C7000E168084A1140E160E16821F44011E16027
:103C8000012803D1E06840F48010E060204600F095
:103C900003F8E7E7BFFFBDFF01220C4902E0521C19
:103CA0008A420BD80369002BF9DA026942F001025B
:103CB0000261012204E0521C8A4201D903207047AC
:103CC0000369DB07F7D1002070470000400D0300B7
:103CD00030B50B784D78012203F00F0402FA04F49A
:103CE000012DD0F83C5817D025EA0444C0F83C48D0
:103CF000D0F81C48097801F00F018A4024EA0241FB
:103D0000C0F81C1800EB4310D0F8001B0E4A1140FD
:103D1000C0F8001B002030BDA4B2A543C0F83C5839
:103D2000D0F81C48097801F00F018A4091B28C4309
:103D3000C0F81C4800EB4310D0F80019034A1140AA
:103D4000C0F80019E6E700000078F3EF007833ECE4
:103D500010B5D0F8041821F00201C0F804180320AF
:103D6000FCF7C9FA002010BD10B5D0F8041841F0D6
:103D70000201C0F804180320FCF7BDFA002010BDB2
:103D80002DE9F04304460020DDF82890DDF8387076
:103D90000E46054604EB8001C1F80451401C0F2873
:103DA000F8D3A06B40F400112046A16367B9806B83
:103DB00020F40011A163206840F0400121602068D8
:103DC00040F0800120462160C0F8005ED0F8001865
:103DD000C0F80018D0F8001841F00301C0F800182E
:103DE000102100F03BFA204600F028FAC4F81058E1
:103DF000C4F81458C4F81C5800204FF000624FF06B
:103E000090484FF67F3314E004EB4011D1F800C91D
:103E1000BCF1000F06DA10B1C1F8008904E0C4F863
:103E2000002901E0C1F80059C1F81059C1F808395A
:103E3000401C8642E8D8002015E000BF04EB40118A
:103E4000D1F800CBBCF1000F06DA10B1C1F8008B3D
:103E500004E0C4F8002B01E0C1F8005BC1F8105B7E
:103E6000C1F8083B401C8642E8D8D4F8100820F47A
:103E70008071C4F81018A5616FF080406061A0697E
:103E800040F01000A061A06909490843A061B9F1A0
:103E9000000F03D0A06940F00800A061012F03D1FA
:103EA000A06904490843A0610020BDE8F083000038
:103EB00000383C8004000040816821F001018160ED
:103EC0000020704730B50C784D78384BE2B200EBEB
:103ED0004212012D24D0D2F8100B6FF31200C2F859
:103EE000100BD2F8100B1840C2F8100B486908B13B
:103EF00088684861D2F8100B40F40020C2F8100B1B
:103F0000D2F8100B8968C1F312010843C2F8100BF4
:103F1000D2F8000B40F00440C2F8000B002030BD86
:103F20004D69002DD2F8105931D06FF31205C2F847
:103F30001059D2F810591D40C2F810594D698B68BC
:103F40009D4200D94B61D2F8103943F40023C2F8E6
:103F50001039D2F810394D69C5F3120553EA05033B
:103F6000C2F810394A694AB1D0F83428097801F00A
:103F70000F03012199400A43C0F8342800EB441094
:103F8000D0F8001941F00441C0F80019C6E71D40FF
:103F9000C2F81059D2F8103943F40023C2F810398E
:103FA000D2F810396FF31203DAE70000FFFF07E0E1
:103FB0000021C0F8101BD0F8101B41F40021C0F8FC
:103FC000101BD0F8101B41F01801C0F8101BD0F8DE
:103FD000101B41F0C041C0F8101B002070474A7808
:103FE0000B78012A00EB43100BD0D0F8002B22F401
:103FF0000012C0F8002BC978032914D0022912D06E
:1040000017E0D0F8002922F40012C0F80029C9787E
:10401000032901D002290CD1D0F8001941F08051B8
:10402000C0F8001905E0D0F8001B41F08051C0F83D
:10403000001B002070470A784B78D1B200EB41108A
:10404000012B12D0D0F8001B002906DB2AB1D0F8D2
:10405000001B21F08041C0F8001BD0F8001B41F488
:104060000011C0F8001B00207047D0F8001900298B
:1040700006DB2AB1D0F8001921F08041C0F8001900
:10408000D0F8001941F40011C0F80019EBE7000066
:1040900070B50D784E78654BEAB26FF0604400EB76
:1040A0004212012E27D0D2F8105B6FF31205C2F82E
:1040B000105BD2F8105B1D40C2F8105B4B69002BFF
:1040C00078D08D682B445B1EB3FBF5F3D2F8105B00
:1040D0009BB204EAC3442543C2F8105BD2F8104BEC
:1040E0008D685D43C5F312031C43C2F8104BC978B9
:1040F000012976D092E04E691EB3D2F810696FF3B1
:104100001206C2F81069D2F810691E40C2F8106990
:104110004E698B681E44761EB6FBF3F304EAC34374
:10412000D2F810492343C2F81039D2F810394C693B
:10413000C4F312042343C2F81039CB78012B10D0FA
:104140001EE0D2F810491C40C2F81049D2F81039CC
:1041500043F40023C2F81039D2F810396FF3120378
:1041600009E0D2F8103923F0C043C2F81039D2F870
:10417000103943F00053C2F81039CA78012A0ED022
:104180004A69E2B1D0F834280B7803F00F04012318
:10419000A3401A43C0F83428CA78012A0FD1D0F8B6
:1041A0000828D20500EB4512D2F8003903D443F0B9
:1041B000005302E016E043F08053C2F8003900EBF0
:1041C0004512D2F8003943F00443C2F80039CA78E6
:1041D000012A29D18A8A93B20A78C96800F0B6F810
:1041E00022E00EE0D2F8103B8C68C4F312042343A3
:1041F000C2F8103BD2F8103B43F40023C2F8103B46
:1042000075E7D0F80808C005D2F8000B02D440F0DA
:10421000005001E040F08050C2F8000BD2F8000BD3
:1042200040F00440C2F8000B002070BDFFFF07E023
:10423000816841F001018160002070470021102257
:104240000261054A491C914201D903207047036964
:10425000DB06F7D400207047400D03000022202326
:1042600043EA811101610549521C8A4201D90320A8
:10427000704703699B06F7D400207047400D030088
:10428000406900F001007047D0F81818D0F81C08F9
:10429000084080B27047D0F81818D0F81C080840C1
:1042A000000C704710B5D0F81038D0F8342801F061
:1042B0000F0400EB4110E24002F00102D0F80809BF
:1042C00043EAC212104010BD00EB4111D1F8081BA7
:1042D000D0F8140808407047416980690840704769
:1042E000D21C10B59308002200F5805002E004684B
:1042F000521C10C19A42FAD3084610BD10B5C268CC
:1043000022F0C042C260012902D029B1012010BDB3
:10431000C16841F0005102E0C16841F08041C160D4
:104320003220FBF7E8FF002010BDD0F8002822F46F
:10433000FE62C0F80028D0F800284FF4FE6303EABC
:1043400001110A43C0F800280020704710B5DB1C9B
:104350009C0800EB0230002300F5805002E004C905
:1043600002605B1CA342FAD3002010BDFEE7FEE70B
:1043700002E008C8121F08C1002AFAD1704770472E
:10438000002001E001C1121F002AFBD1704710B5C7
:1043900003786422B3FBF2F330330B700378B3FB82
:1043A000F2F402FB14330A22B3FBF2F330334B7006
:1043B0000078B0FBF2F302FB130030308870CA7053
:1043C00010BD0000ADF5487D4FF48074224644498D
:1043D0006846FBF7F5FE2246424940A8FBF7F0FE8F
:1043E0002246414980A8FBF7EBFE14223F49C1A8B1
:1043F000FBF7E6FEFCF786F8FEF79FFAFDF7FAFEFC
:10440000FDF77CFFFDF7FAFFFDF79CFFFDF7C6FF08
:10441000002201213648FCF762F8364D0022802147
:104420002846FCF75CF8002240212846FCF757F8A4
:104430004FF09046002208213046FCF750F8002249
:1044400020213046FCF74BF8002201213046FCF7D2
:1044500046F8002221462848FCF741F800220421B2
:104460002846FCF73CF804212448FDF77BFE23484E
:104470004030FDF7FBFC214808214030FDF772FE7B
:104480001E486438FDF75CFB1D4C4FF0000840F6F9
:10449000FF75C0AFC6AE8DF80083A06800F064F869
:1044A0009DF80003A16821F81050D4E9011000F034
:1044B00069F80A20FBF71FFF31463846FFF767FF10
:1044C0003046FBF78FFE81B23046FBF7FDFE9DF8CC
:1044D0000003401CC0B28DF80003C028DDD3D8E72C
:1044E000D4450008D4460008D4470008D448000842
:1044F000000C00480004004800100048E0010020C3
:1045000000000020F0B50022144613464FF49076C8
:1045100018E0BBB1012B05D0022B10D11AE000BF6F
:1045200000EB440530F814C0AF784FEA1C2C3F0173
:10453000C7F3031747EA0C178F54521C5B1CB24297
:10454000E7DBF0BD10F814508D54521C5B1CB242D6
:10455000E6DBF0BD6B88A41C1B098B540023521CA6
:10456000B242EFDBF0BD0000054900200246896839
:104570004FF4907321F81020401C9842FADB7047EA
:104580000000002070B510480C46D0E90110FFF77C
:10459000B9FF0A234FF4907221460C48FDF74CFBFB
:1045A00001220B4D140321462846FBF798FF0122F8
:1045B000521C92B20F2AFBD321462846BDE8704018
:1045C0000022FBF78CBF0000000000207C010020CF
:1045D000001000489B00000092000000B1000000A5
:1045E000BA000000B4000000BD000000B7000000E9
:1045F000C00000009F000000960000008100000045
:104600008A000000840000008D0000008700000088
:1046100090000000720000007B00000075000000A8
:104620007E000000780000006D00000067000000C0
:1046300070000000A2000000AB000000A500000018
:10464000AE000000A8000000690000006300000048
:104650006C000000220000002B000000250000007C
:104660002E000000280000000D00000007000000E0
:1046700010000000520000005B0000005500000028
:104680005E00000058000000090000000300000068
:104690000C000000320000003B000000350000006C
:1046A0003E00000038000000140000001A00000066
:1046B00011000000420000004B0000004500000017
:1046C0004E00000048000000180000001E0000001E
:1046D00015000000940000009A0000009100000006
:1046E000B2000000BB000000B5000000BE000000EA
:1046F000B8000000980000009E0000009500000037
:10470000820000008B000000850000008E00000089
:104710008800000079000000730000007C000000A9
:10472000760000007F000000650000006E000000C1
:1047300068000000A9000000A3000000AC00000019
:10474000A6000000AF000000610000006A00000049
:104750006400000029000000230000002C0000007D
:10476000260000002F000000050000000E000000E1
:104770000800000059000000530000005C00000029
:10478000560000005F000000010000000A00000069
:104790000400000039000000330000003C0000006D
:1047A000360000003F0000001C0000001300000065
:1047B0001900000049000000430000004C00000008
:1047C000460000004F00000020000000170000001D
:1047D0001D0000009C0000009300000099000000F4
:1047E000B9000000B3000000BC000000B6000000EB
:1047F000BF000000A0000000970000009D00000026
:1048000089000000830000008C000000860000008A
:104810008F000000710000007A00000074000000AA
:104820007D000000770000008000000066000000AE
:104830006F000000A1000000AA000000A40000001A
:10484000AD000000A7000000B00000006200000002
:104850006B000000210000002A000000240000007E
:104860002D000000270000003000000006000000BE
:104870000F000000510000005A000000540000002A
:104880005D00000057000000600000000200000012
:104890000B000000310000003A000000340000006E
:1048A0003D00000037000000400000001B00000039
:1048B00012000000410000004A0000004400000017
:1048C0004D00000047000000500000001F000000E5
:1048D0001600000048656C6C6F20576F726C642086
:1048E0000D0A0000000000000000000000000000B1
:1048F0000102030406070809A0860100400D030019
:10490000801A060000350C0040420F0080841E0013
:1049100000093D0000127A000024F40000366E0108
:104920000048E801006CDC02484900080000002053
:104930007C01000018020008184A00087C010020D1
:104940004C5E0000804300084113E0031420600225
:104950001420C1311B08F1041AFD041325321B0871
:1049600051041AA10C1ACD041A750C100B0403097A
:10497000041201010202021640830440572602017C
:1049800002030114050F0C1C01071017211B7902EB
:104990002C19041A71041AA5045153093D130A066F
:1049A00029231A4033111C0902433F1125C0320943
:1049B00004195312011305241610010524011809C6
:1049C000010424020205240654150582030815106B
:1049D00009040133020A1D07050102432C07058162
:1049E000070938442A40072A8107112B0907440A7E
:1049F0003B0444132D2F1408952E4C081530F01A43
:104A0000D90C1A1D041A6704C11A15281A09041AA8
:084A100021041AFD1C00000046
:040000050800018965
:00000001FF
